:020000040800F2
:10000000100500209D0100088D22000857100008EF
:10001000E1210008B50A00089F4000080000000028
:100020000000000000000000000000003D33000858
:10003000F30B00080000000029230008893600089F
:10004000B7010008B7010008B7010008B12A00088D
:10005000B7010008B7010008B7010008B7010008A0
:10006000B7010008B7010008B7010008B701000890
:10007000B7010008B7010008B7010008B701000880
:10008000B7010008B7010008B7010008B701000870
:10009000B7010008B7010008B7010008F50B000818
:1000A000B7010008B7010008B7010008B701000850
:1000B0003D37000801380008ED380008B701000896
:1000C000B7010008B7010008B7010008B701000830
:1000D000B7010008B7010008B7010008B701000820
:1000E000B7010008A5250008B7010008B7010008FE
:1000F000B7010008B7010008B7010008B701000800
:10010000B7010008B7010008B7010008B7010008EF
:10011000A53C0008B7010008B7010008B7010008B6
:10012000B7010008B7010008B7010008B7010008CF
:10013000B7010008B7010008B7010008B7010008BF
:10014000B7010008B7010008B7010008B7010008AF
:10015000B7010008B7010008B7010008B70100089F
:10016000B7010008B7010008B7010008B70100088F
:10017000B7010008B7010008B7010008B70100087F
:10018000B7010008B7010008DFF80CD000F08AF9C9
:1001900000480047494B00081005002006488047EA
:1001A00006480047FEE7FEE7FEE7FEE7FEE7FEE75C
:1001B000FEE7FEE7FEE7FEE7993600088901000842
:1001C000D2B201E000F8012B491EFBD27047002299
:1001D000F6E710B513460A4604461946FFF7F0FF46
:1001E000204610BD421C10F8011B0029FBD1801ACB
:1001F000704710B5002200E0521C835C8C5CA34267
:1002000001D1002BF8D1D8B2E1B2401A10BD2DE9CE
:10021000FE4F81EA030404F0004421F00041009401
:100220004FF0000B23F0004350EA01045ED052EA85
:1002300003045BD0C3F30A54C1F30A552C44A4F25F
:10024000F3340194A0FB0254C1F3130141F4801173
:10025000C3F3130343F4801301FB024400FB034E7A
:10026000840A970A44EA815447EA8357A4FB076843
:1002700002958D0A05FB07854FEA932C04FB0C546D
:100280002705029D4FEA065847EA1637B5EB0805E1
:100290006EEB070C870E920E47EA811742EA831233
:1002A000A7FB0201B6EB0B0164EB00042B0D43EA44
:1002B0000C335E1844EB1C50DA465146E7FB020152
:1002C000C5F313044FEA0B3343EA14534FEA0432E5
:1002D000019C43EA0603A4F10C040294009CCDE9BE
:1002E00000B400F091F803B0BDE8F08F00200146A3
:1002F000F9E700F0004230F000400AD0C10D01F5EE
:100300006071C0F3160042EA0151C2084007114370
:10031000704700200146704701F0004330B421F0DF
:10032000004150EA010206D00A0DA2F56072C1F345
:100330001301002A02DC30BC00207047440F44EA5D
:10034000C104C100E01830BC00EBC25000F016B888
:1003500030B50B46014600202022012409E021FA95
:1003600002F59D4205D303FA02F5491B04FA02F592
:100370002844151EA2F10102F1DC30BD0029A8BFFE
:100380007047401C490008BF20F00100704710B4BE
:10039000B0FA80FC00FA0CF050EA010404BF10BC73
:1003A000704749B1CCF1200421FA04F411FA0CF1A0
:1003B00018BF012121430843A3EB0C01CB1D4FEAD9
:1003C00000614FEA102042BF002010BC704700EBD4
:1003D000C35010440029A4BF10BC7047401C490002
:1003E00008BF20F0010010BC704710B5141E73F157
:1003F000000408DA401C41F1000192185B411A43E5
:1004000001D120F0010010BD2DE9F04D92469B4630
:1004100011B1B1FA81F202E0B0FA80F220329046D6
:1004200000F052F804460F4640EA0A0041EA0B0188
:1004300053465A46084313D0114653EA010019D0D7
:10044000C8F14002504600F04EF805460E465046B0
:100450005946424600F038F8084305D0012004E030
:1004600020463946BDE8F08D0020054346EAE07697
:100470002C4337430A986305E40AA0EB08000022E6
:10048000FD0A44EA47540A3002D500200146E9E754
:10049000010510196941DDE9084500196941BDE808
:1004A000F04DA2E7064C074D06E0E06840F001037E
:1004B00094E8070098471034AC42F6D3FFF768FE83
:1004C0007C7D07089C7D0708202A04DB203A00FA7F
:1004D00002F1002070479140C2F1200320FA03F39B
:1004E000194390407047202A04DB203A21FA02F099
:1004F0000021704721FA02F3D040C2F1200291405E
:100500000843194670470146C86C80B270470246DE
:10051000002013680B400BB1012000E00020704761
:10052000F0B504460D4600200021092D11DDE068DC
:10053000A5F10A0606EB4607072606FA07F18843E7
:10054000A5F10A0606EB460603FA06F10843E06049
:100550000CE0206905EB4507072606FA07F18843FA
:1005600005EB450603FA06F108432061072A0FDA76
:10057000606B561E06EB86071F2606FA07F18843B6
:10058000561E06EB860605FA06F10843606322E074
:100590000D2A0FDA206BD61F06EB86071F2606FAF8
:1005A00007F18843D61F06EB860605FA06F10843D5
:1005B000206310E0E06AA2F10D0606EB86071F2615
:1005C00006FA07F18843A2F10D0606EB860605FA46
:1005D00006F10843E062F0BD816841F0804181602E
:1005E000704700007CB505460C46322094FBF0F1C4
:1005F00000FB1140C8B94FF6FF701F21CAA3182293
:10060000CDE900104FF48C711E2001F07BF84FF6FD
:10061000FF701F21CDE90010C94850F8253018227D
:100620004FF48C71A22001F06DF8C64800780128C3
:1006300003D0C4480078022875D1C2480078012848
:1006400072D1062D09D2DFE805F0030917768492EE
:10065000BD48C078401CBC49C87096E0BA48407894
:100660000C2803D10120B849487004E0B64840780E
:10067000401CB549487088E0B34989781C2910D1DD
:10068000B149497802290CD1AF49C878C11700EBAC
:1006900091718910A0EB810119B10120AA498870DC
:1006A00048E0A94989781D2910D1A749497802292C
:1006B0000CD1A549C878C11700EB91718910A0EB46
:1006C000810119B90120A049887033E09E488078E3
:1006D0001E2820D19C4840780D281BD2DFE800F06E
:1006E0001A0E1A0F071008111209130A140000BF7E
:1006F00000BF00BF0120944988700BE000BF00BF1D
:1007000000BF00BF00BF00BF8F488078401C8E49EB
:10071000887000BF0EE08C4880781F2805D101202A
:100720008949887006E0A6E030E087488078401C60
:100730008549887029E085480078172803D1002072
:100740008249087004E081480078401C7F490870A5
:100750001BE07E4840783B2803D100207B4948704D
:1007600004E07A484078401C784948700DE07748AA
:1007700080783B2803D100207449887004E07348D6
:100780008078401C7149887000BF00BF6D480078B8
:10079000022870D1062D09D2DFE805F003091759A8
:1007A00066746948C078401E6749C87077E066483B
:1007B0004078012803D10C206349487004E0624866
:1007C0004078401E6049487069E05F4880780128A1
:1007D00037D15D49C878C11700EB91718910A0EB42
:1007E000810139B958494978022903D11D20564958
:1007F00088702BE054484078022803D11C205249CD
:10080000887023E0504840780D2819D2DFE800F0C6
:10081000180718081109120A0B130C140D0000BF59
:1008200000BF00BF00BF00BF00BF1F204649887047
:1008300006E000BF00BF00BF1E204349887000BF14
:1008400004E041488078401E3F49887027E03F48D7
:10085000007818B917203D49087004E03B4800783B
:10086000401E3A4908701AE03848007820B93B2009
:100870003649487005E013E034484078401E33495B
:1008800048700CE03148807818B93B202F498870B7
:1008900004E02E488078401E2C49887000BF00BFBD
:1008A000962C01D103F0D4F8062D3AD2DFE805F0FA
:1008B000030C151E2730312C05D125A31822DC216D
:1008C000722000F0FDFE2CE0312C05D120A318226F
:1008D000DC21962000F0F4FE23E0312C05D11CA38E
:1008E0001822DC21BA2000F0EBFE1AE0312C05D1F1
:1008F00017A31822FA215A2000F0E2FE11E0312C51
:1009000005D113A31822FA217E2000F0D9FE08E0B9
:10091000312C05D10EA31822FA21A22000F0D0FE1E
:1009200000BF00BF7CBD0000506C65617365205343
:10093000657420202020202020202020000000009E
:10094000440000207800002088000020840000205F
:100950002020000010B5FF2000F024F80446552C9C
:1009600001D1002010BD5521FF2000F059F8FF20D3
:1009700000F018F80446552C01D10020F2E70120C0
:10098000F0E770B506460C46154608E03046721C86
:1009900096B200F007F804F8010B681E85B2002D2E
:1009A000F4D170BD70B50446002600F037FC254632
:1009B000E11704EB11610912A02202EB4101C8B258
:1009C00000F082FB00F076FCE11704EB11610912E4
:1009D000A4EB0121C8B200F077FB00F06BFC00F043
:1009E0001DFCA12000F070FB00F064FC002000F072
:1009F00035FB064600F038FC304670BD70B5054644
:100A00000C46164606E02178284600F009F8681CD6
:100A100085B2641C3000A6F101018EB2F3D170BD25
:100A200070B504460E4600F0F9FB2546E11704EBCD
:100A300011610912A02202EB4101C8B200F044FB8F
:100A400000F038FCE11704EB11610912A4EB01215D
:100A5000C8B200F039FB00F02DFC304600F034FB4A
:100A600000F028FC00F000FC0A2003F027FE70BD17
:100A700010B500F085FB10BD1CB50121402001F030
:100A800083FC01208DF8040000208DF806008020F2
:100A9000009001208DF8070002208DF805006946BE
:100AA000034800F030FA8021014800F0A0FA1CBD94
:100AB0000018024000BFFEE710B50246012000E02A
:100AC00050430B00A1F10104E1B2F9D110BD0000C7
:100AD00010B500241448006820F040401249086016
:100AE00008460068086004E0601CC4B2012003F0FE
:100AF0000BFE0E48006808B1642CF5DB642C01DBAA
:100B0000012010BD002404E0601CC4B2012003F0E9
:100B1000FBFD0648006808B9642CF5DB642C01DB9A
:100B20000120EEE70020ECE7000002403C024042DA
:100B300010B5002404E0601CC4B2012003F0E4FD01
:100B40000D48006808B1642CF5DB002404E0601C4B
:100B5000C4B2012003F0D8FD0748006808B9642C2E
:100B6000F5DB282003F0D0FD0348006808B1012020
:100B700010BD0020FCE700003C02404270B500249C
:100B8000002506E06006040EFFF7D2FF0443681C50
:100B9000C5B2082DF6DB204670BD7CB505460E4675
:100BA00003F0D8FDFFF794FFF8B9002405E0FFF744
:100BB000E5FF0DF80400601CC4B2052CF7DB9DF8BE
:100BC00000009DF8011008449DF8021008449DF8AB
:100BD000031008449DF80410884208D19DF80000D5
:100BE00030709DF80200287001E001207CBD0020DB
:100BF000FCE7704710B5402000F070F878B10A208B
:100C000003F05CFD40211C4800F0E8F920B903F036
:100C1000D7FD1AA003F046FB402000F059F88020D1
:100C200000F05CF878B10A2003F048FD80211248FA
:100C300000F0D4F920B903F00FFD17A003F032FB48
:100C4000802000F045F84FF4807000F047F888B13C
:100C50000A2003F033FD4FF48071074800F0BEF91D
:100C600020B904F08FFA13A003F01CFB4FF480703E
:100C700000F02EF810BD0000001402400A6B6579E8
:100C800033207465737420627920696E74657272A2
:100C90007570740A000000000A6B65793220746573
:100CA000737420627920696E746572727570740A4B
:100CB000000000000A6B657931207465737420624E
:100CC0007920696E746572727570740A0000000094
:100CD0000149086070470000143C014001460020B3
:100CE000034A12680A400AB1012000E00020704760
:100CF000143C0140002123498279002A3AD00A4657
:100D0000126803689A430B461A600A1D126803684A
:100D10009A430B1D1A60027911440A6803681A434A
:100D20000A60184A0832126803689A43154B083360
:100D30001A601A1D126803689A43124B0C331A602A
:100D40004279102A0ED11A1F126803681A430D4BFC
:100D500008331A601A1D126803681A43094B0C33D2
:100D60001A600DE00749427911440A6803681A4382
:100D70000A6005E0027911440A6803689A430A6030
:100D800070470000003C01400EB500F009FB012156
:100D9000880301F029FB0621052002F0D1FA082181
:100DA000052002F0CDFA0721052002F0C9FA4FF420
:100DB000E070019000208DF808000C208DF80900EB
:100DC00001208DF80A0001A8FFF794FF17208DF885
:100DD000000003208DF8010002208DF802000120A0
:100DE0008DF80300684601F053FA0EBD51B1820040
:100DF000A2F1C042126842F001038200A2F1C04297
:100E0000136009E08200A2F1C0421268034B1A404D
:100E10008300A3F1C0431A6070470000FEFF0F007B
:100E2000D0E901121143C2681143026911434269BA
:100E3000114382691143C2691143026A1143426A34
:100E40001143826A1143C26A1143026B1143026863
:100E50009200A2F1C0421160816808290BD101689B
:100E60008900A1F1C041096841F040020168890090
:100E7000A1F1C0410A60416B0968426B526841EAC6
:100E80000211426B926841EA0221426B928941EA67
:100E90000241426B128A41EA0251426B127D41EAE1
:100EA0000261426B926911430268521C9200A2F1E6
:100EB000C0421160C16AB1F5804F1BD1816B0968D6
:100EC000826B526841EA0211826B926841EA022108
:100ED000826B128A41EA0251826B127D41EA026101
:100EE000826B9269114302689200A2F1C042C2F87B
:100EF000041107E06FF0704201688900A1F1C04160
:100F0000C1F804217047F0B50A46002100230024EF
:100F100000BF3DE0012505FA01F3156805EA030469
:100F20009C4234D105684F000326BE40B54305609E
:100F300015794E00B5400668354305601579012DD9
:100F400002D01579022D16D185684F000326BE40C8
:100F5000B543856055794E00B54086683543856058
:100F6000456801268E40B5434560456896798E40B8
:100F7000B6B235434560C5684F000326BE40B54351
:100F8000C560D5794E00B540C6683543C560491C7B
:100F90001029BFD3F0BDF0B5002300244D07ED0E9E
:100FA00002FA05F3CE1000F1200555F826504E0741
:100FB000F70E0F26BE40B543CF1000F1200646F8CD
:100FC0002750CE1000F1200555F8265045EA0304BD
:100FD000CE1000F1200545F82640F0BD0246002065
:100FE00013690B400BB1012000E0002070474183E2
:100FF000704701837047000010B5044607230122A3
:1010000021460848FFF78CFA0648FFF7E5FA00BFCB
:1010100002210448FFF77BFA0028F9D00148FFF7C6
:1010200072FA10BD002201402DE9F04107460C463E
:101030000025002608E03846FFF7DEFF05440520BE
:1010400003F03CFB701CC6B2A642F4DBB5FBF4F027
:1010500080B2BDE8F08100BFFEE7000070B5054634
:1010600000241648006820F440201449086008460F
:1010700000680860002616E0002011490860022080
:1010800003F042FB01200F49C1F8A0026006040EE4
:101090000B487C38006808B1601CC4B2012003F022
:1010A00033FB701CC6B2082EE6DB15B900F08EF8D3
:1010B00001E000F03DF8204670BD00000004024051
:1010C000A08240420080404270B504461548006846
:1010D00020F44020134908600846006840F480204E
:1010E0000860002010490860002517E0E0090E495B
:1010F000091D08606006040E022003F005FB0120B4
:101100000A49C1F8A002022003F0FEFA00200649B5
:101110000860022003F0F8FA681CC5B2082DE5DB70
:1011200070BD000000040240A082404200804042A6
:1011300010B500200F4908600F48006820F44020D7
:101140000D4908600846006840F4802008600020CF
:101150000A49C1F8A402022003F0D6FA0120054989
:101160000860022003F0D0FA00200449C1F8A00270
:1011700010BD0000A08240420004024000804042B6
:101180001CB50121022001F0FFF84FF440700090DF
:1011900001208DF8040000208DF8060003208DF852
:1011A000050001208DF8070069460548FFF7ABFEF2
:1011B0000120044908600449C1F8A4021CBD0000D4
:1011C00000040240A08240420080404210B500204E
:1011D0000F4908600F48006820F440200D4908605E
:1011E0000846006840F48020086001200A49C1F8E0
:1011F000A402022003F088FA0120054908600220B9
:1012000003F082FA00200449C1F8A00210BD0000DA
:10121000A0824042000402400080404210B50F48C6
:10122000006820F440200D4908600846006840F43A
:101230008020086001200A4908600A49C1F8A0021C
:10124000042003F061FA002005490860042003F03F
:101250005BFA00200349C1F8A00210BD000402405F
:10126000A48240420080404210B50F48006820F43C
:1012700040200D4908600846006840F4802008605E
:1012800000200A4908600A49C1F8A402042003F0BA
:101290003BFA0120054908600549C1F8A402042071
:1012A00003F032FA10BD000000040240A082404268
:1012B0000080404210B500241348006820F440200C
:1012C0001149086008460068086001200F4908605D
:1012D00003F01AFA01200E49C1F8A00203F014FA33
:1012E00007E0601CC4B2FA2C03DDFFF7BDFF01204C
:1012F00010BD0648803800680028F2D10349091F54
:10130000086000BFF4E7000000040240A4824042ED
:1013100000804042D321074A1180911C0888088828
:1013200008884FF6FF7101EA0020911C09880843E4
:1013300070470000FE1F006C4CF6CC40014908606D
:1013400070470000003000404AF6AA2001490860BA
:1013500070470000003000400149486070470000BD
:1013600000300040014988607047000000300040B4
:1013700001490860704700000030004070B5054624
:101380000C4645F25550FFF7F3FF2846FFF7E4FF00
:101390002046FFF7E7FFFFF7D7FFFFF7CDFF70BD50
:1013A0001CB50121202000F0EFFF00208DF8040083
:1013B0008DF806004FF47070009001208DF8070042
:1013C00002208DF8050069460148FFF79CFD1CBD11
:1013D0000014024070B50446002500260948008824
:1013E0000949098800FB01F60021084600F034FB9A
:1013F00000F09EFB00BF02E0044804806D1CB54273
:10140000FAD370BD96000020980000200020006CE8
:1014100070B505460E4614463146284600F098F948
:101420000348008803490880881C048070BD0000C0
:101430009A000020FE1F006C2DE9FF4F074616465C
:101440001C46BB460C2C01D198460AE0102C01D159
:10145000A04606E0182C02D14FF0300801E0BDE8AC
:10146000FF8FA6F12000C6B2002548E00C2C07D162
:1014700006EB4600244901EB800010F8059010E0CF
:10148000102C05D1214800EB061010F8059008E05B
:10149000182C06D106EB46001D4901EB001010F890
:1014A00005904FF0000A24E009F0010030B119481E
:1014B000028838460199FFF7ABFF05E04BF618624A
:1014C00038460199FFF7A4FF4FEA6909781C87B2F3
:1014D000A7EB0B0104EBD472B1EB620F05D15F46B1
:1014E0000198401C80B2019006E00AF1010000F072
:1014F000FF0ABAF1080FD7DB00BF681CC5B245452B
:10150000B4DB00BFABE7000000590008745D0008C1
:10151000646300088E0000202DE9FF4F04460F464B
:101520001E46A346182E02D14FF0480801E0BDE840
:10153000FF8F002532E0182E07D1029800EBC00083
:10154000184901EBC00010F805904FF0000A1FE0A9
:1015500009F0010030B11448028839462046FFF7EF
:1015600057FF05E04BF6186239462046FFF750FF5B
:101570004FEA6909601C84B2A4EB0B00182803D160
:101580005C46781C87B206E00AF1010000F0FF0A11
:10159000BAF1080FDCDB00BF681CC5B24545CADBE9
:1015A00000BFC4E7B05100088E000020F0B505462A
:1015B0000F4616461C460DE022783346394628462B
:1015C000FFF7AAFFA81985B208480088854200DB0A
:1015D0000AE0241D2068002806DB2068642803DC5C
:1015E0002068401C0028E7D100BFF0BD9600002015
:1015F0002DE9FF4F81B0074690461E460E9CC3461C
:101600004FF0000906E00A20BBFBF0FB09F10100E6
:1016100000F0FF09BBF1000FF5D1B14508DD26A3AD
:1016200022463846029900F04BF805B0BDE8F08F2D
:1016300000253CE0A6EB0900A8421BDD0F9860B135
:1016400004EBD471491001FB057188B223463022A6
:1016500000940299FFF7F0FE27E004EBD4714910E3
:1016600001FB057188B22346202200940299FFF7FE
:10167000E3FE1AE0701B401EC1B20A20FFF71CFAFD
:10168000B8FBF0F00A21B0FBF1F201FB120A04EB07
:10169000D471491001FB057188B20AF13001CAB258
:1016A000234600940299FFF7C7FE681CC5B2B542F5
:1016B000C0DB00BFB9E700004552524F52000000A6
:1016C000F0B506460F4615461C4611E022782B461B
:1016D00039463046FFF7B0FE284605EBD07106EBE1
:1016E00061018EB206480088864200DB06E0641C79
:1016F0002078202802DB20787E28E7DD00BFF0BDBF
:10170000960000202DE9F04F04460D4616461F4670
:10171000DDE909890C48B0F800A00C48B0F800B029
:101720000948A0F800800948A0F800903B463246DE
:1017300029462046FFF7C4FF0348A0F800A003484D
:10174000A0F800B0BDE8F08F8E00002090000020CF
:1017500030B504460D462946204600F07DF900F0DC
:10176000E7F9024800880249088030BD8E00002059
:101770000020006C00B59FB00121782000F004FE2D
:101780000121084600F010FE4FF480601D900120FA
:101790008DF8780000208DF87A0002208DF879000D
:1017A00001208DF87B001DA97748FFF7ACFB4CF2B8
:1017B00033701D9002208DF8780000208DF87A009B
:1017C00003208DF8790001208DF87B001DA96F485A
:1017D000FFF799FB4FF680701D9002208DF878007E
:1017E00000208DF87A0003208DF8790001208DF813
:1017F0007B001DA96648FFF786FB04201D90022090
:101800008DF8780000208DF87A0003208DF879009B
:1018100001208DF87B001DA95E48FFF774FB4FF493
:1018200080501D9002208DF8780000208DF87A00FD
:1018300003208DF8790001208DF87B001DA9554803
:10184000FFF761FB0C2200215048FFF7A4FB0C229C
:1018500001214E48FFF79FFB0C2204214B48FFF764
:101860009AFB0C2205214948FFF795FB0C22082121
:101870004648FFF790FB0C2209214448FFF78BFBF9
:101880000C220A214148FFF786FB0C220E213F481B
:10189000FFF781FB0C220F213C48FFF77CFB0C2259
:1018A00007213B48FFF777FB0C2208213848FFF758
:1018B00072FB0C2209213648FFF76DFB0C220A212E
:1018C0003348FFF768FB0C220B213148FFF763FB1D
:1018D0000C2211462E48FFF75EFB0C220D212C48EE
:1018E000FFF759FB0C220E212948FFF754FB0C226D
:1018F0000F212748FFF74FFB0C2202212548FFF755
:101900004AFB0C2211462348FFF745FB0F200790A6
:10191000002008903C20099000200A900B900C9029
:101920000D900820009000200190072002900020D8
:10193000039004900590069006200E9000200F90D2
:101940001090102011900020129014901390159078
:1019500016904FF480501790002018904FF480405C
:10196000199000201A9007A81B90CDF870D00EA8EF
:10197000FFF756FA01210620FFF738FA322002F06D
:101980009DFE1FB000BD000000140240000C02408C
:10199000001002400018024030B58418641EA2B244
:1019A000CC18641EA3B2264C24786CBB254C24882A
:1019B00041F66315AC4227D1234C2488A41A241A7B
:1019C000A0B2CC18641EA3B2204C2488204D2C80D9
:1019D0000412AD1C2C80C4B22C808418641EC4F385
:1019E0000F242C808418641EE4B22C80194C2488A7
:1019F000AD1E2C800C12AD1C2C80CCB22C801C1285
:101A00002C80DCB22C8019E0104C2488104D2C80E6
:101A10000412AD1C2C80C4B22C8014122C80D4B2C1
:101A20002C800C4C2488AD1E2C800C12AD1C2C80FC
:101A3000CCB22C801C122C80DCB22C8030BD00007B
:101A40009400002092000020960000209C000020BE
:101A5000FE1F006C9E0000202E4A128849F241337E
:101A60009A4212D12C4A12882C4B1A8002129B1CCB
:101A70001A80C2B21A802A4A12889B1E1A800A1241
:101A80009B1C1A80CAB21A8042E0224A128841F690
:101A900063139A423CD1234A12788AB9224A1288A7
:101AA000521E121A90B21C4A12881C4B1A80002235
:101AB0009B1C1A801A8002121A80C2B21A8013E08C
:101AC000154A1288154B1A8002129B1C1A80C2B24A
:101AD0001A80154A1288521EC2F30F221A80124A27
:101AE0001278521ED2B21A800D4A12880B4B1A80FD
:101AF0000A129B1C1A80CAB21A800C4A1288521E03
:101B0000C2F30F221A80094A1278521ED2B21A80EA
:101B100070470000920000209C000020FE1F006C17
:101B20009E000020940000209600002098000020D5
:101B30000248008802490880704700009A0000208F
:101B4000FE1F006C024A1080921C1180704700003A
:101B5000FE1F006C10B5FFF70DFEFFF7DBFBEB4936
:101B600008800846008849F24131884223D0A120EC
:101B7000E7490880881C0088E4490880E448801C04
:101B800000880880084600884FF6FF7101EA0020AF
:101B9000DE490880DE48801C008809880843DB494C
:101BA00008800846008845F26171884203D141F6F9
:101BB0006310D6490880D548008849F241318842EF
:101BC0001CD1D448006820F00F004FF02041C1F82C
:101BD0001C010846D0F81C0120F47060C1F81C01FB
:101BE0000846D0F81C0140F00300C1F81C0108466B
:101BF000D0F81C0140F40070C1F81C01C3480088F3
:101C000049F2413188427DD1CF20C149088000206E
:101C1000891C0880C120088030200880ED20891EA2
:101C200008806420891C0880032008801220088016
:101C300081200880E820891E08808520891C088072
:101C4000102008807A200880CB20891E0880392047
:101C5000891C08802C2008800020088034200880FF
:101C600002200880F720891E08802020891C088017
:101C7000EA20891E08800020891C08800880C02076
:101C8000891E08801B20891C0880C120891E0880AD
:101C90000120891C0880C520891E08803020891CED
:101CA00008800880C720891E0880B720891C08800A
:101CB0003620891E08804820891C08803A20891E09
:101CC00008805520891C0880B120891E08800020CA
:101CD000891C08801A200880B620891E08800A20E6
:101CE000891C0880A2200880F220891E088000201C
:101CF000891C08802620891E08800120891C0880F4
:101D0000E02000E060E0891E08800F20891C088028
:101D10002A20088028200880082008800E200880BB
:101D20000820088054200880A920088043200880CB
:101D30000A2008800F200880002008800880088082
:101D40000880E120891E08800020891C0880152059
:101D500008801720088007200880112008800620AE
:101D600008802B200880562008803C200880052011
:101D70000880102008800F2008803F2008800880FD
:101D80000F2008802B20891E08800020891C0880D5
:101D90000880012008803F2008802A20891E0880B2
:101DA0000020891C088008800880EF20088011200E
:101DB000891E0880782002F081FC2920544908807F
:101DC00001205549086098E05048008841F66311A9
:101DD0008842F8D1E2204E4908801D20891C0880E5
:101DE0000220088004200880642002F08DFCE0209E
:101DF000474908800120891C08800A2002F05EFC07
:101E0000E020434908800320891C08800C2002F050
:101E100055FC01203E4908800A2002F04FFCE620D4
:101E20003B4908802F20891C0880FF2008800880FB
:101E3000B020891E08802020891C0880002008808E
:101E40000320088040F21F3008800120088040F203
:101E5000DF10088000200880B420891E088004203C
:101E6000891C088040F21F400880002008802E2036
:101E7000088000200880088008800880B620891E1D
:101E800008800220891C08804FF40370088000201D
:101E9000088017200880152008800020088008800E
:101EA000F020891E08800320891C08802920891EB3
:101EB0000880D02008800020891C0880BE20891E50
:101EC00008800520891C0880FE20088001200880E9
:101ED0000020088008800880B820891E0880032020
:101EE000891C088001200880BA20891E08800120F2
:101EF000891C0880FF2001F0A1FB002001F0B6FA48
:101F00004FF6FF70FFF766FA10BD00009200002048
:101F1000FE1F006C1C0100A0A882424230B58DB0AB
:101F2000002500244FF478402C4908805F252F2499
:101F30002B4840788DF83000294880788DF83100A2
:101F4000214628460CAB1822FFF7BAFB214605F1C3
:101F5000180018231322FFF7DFFA00BF502420488F
:101F600000798DF830001E4840798DF83100214607
:101F700028460CAB1822FFF7A3FB214605F11800F9
:101F800018231422FFF7C8FA00BF71241448C0793F
:101F90008DF830001248407A8DF8310021462846ED
:101FA0000CAB1822FFF78CFB052540F227140BA978
:101FB000002000F083FB9DF82E0000909DF82D304E
:101FC0009DF82F2007A101A802F07CF921462846A0
:101FD00001AB1822FFF774FB0DB030BD8E0000205E
:101FE000010000203230253032642D253032642D3E
:101FF000253032640000000030B591B00024002587
:102000008E2440F227150EA9002000F091FB9DF8C8
:102010003A0000909DF839309DF8382038A104A886
:1020200002F050F99DF83800002807DB9DF83800D1
:10203000052803DC01203649087002E000203449FD
:1020400008703448007828B9A9B2A0B204AB1822AD
:10205000FFF736FB30480078B0B9012210A9042000
:10206000FEF78FFC9DF84000012802D09DF840004B
:1020700038B9012029490870122229490520FEF7A4
:1020800080FC01202449087024480078012834D1BC
:102090009DF83A009DF839109DF83820214B9B7827
:1020A000CDE90032CDE902101E484378C2781EA166
:1020B00004A802F007F904A91948FEF79AF8E0B954
:1020C00001220FA90420FEF75CFC9DF83C000128CA
:1020D00003D11DA002F0E6F805E09DF83C0010B920
:1020E0001EA002F0DFF803200F9001220FA90420A8
:1020F000FEF784FC00200949087011B030BD0000D3
:10210000253032643A253032643A2530326400009A
:102110008C000020600000208D00002000000020C6
:10212000C8000020880000203230253032642D2580
:102130003032642D25303264253032643A25303215
:10214000643A2530326400006F70656E206F7065F0
:10215000726174696F6E200A00000000636C6F7317
:1021600065206F7065726174696F6E200A000000EF
:102170001CB50121502000F007F918200090012023
:102180008DF8040000208DF8060003208DF805006E
:1021900001208DF8070069460F48FEF7B4FE4FF4A2
:1021A0000070009001208DF8040000208DF80600DA
:1021B00003208DF8050001208DF8070069460748C7
:1021C000FEF7A1FE18210448FEF713FF4FF400713B
:1021D0000248FEF70EFF1CBD00100240001802402E
:1021E00000BFFEE73EB541F6FF740121080700F08D
:1021F000EBF8012000F092F8002000F035FB45F2EA
:10220000200188423BD0012000F092F904E0601CDC
:1022100084B20A2002F052FA412000F069F9002845
:10222000F5D00CB901203EBD4FF4807000F09CF950
:10223000012000F093F97F200190FF200290002000
:102240000090684600F0DEFA17200E4908703A2028
:10225000487032208870002000F07AFB16200A496E
:10226000887002204870062008702020C870012065
:1022700000F00AFB45F22001002000F0B9FC00202C
:10228000D1E7000084000020880000207047000093
:1022900070B5002100230F22C4781CB3174C2468AA
:1022A00004F4E064C4F5E064C4F30721C1F104045C
:1022B000E3B20A4144789C40E1B28478144021435F
:1022C0000C07210E0E4C05786155047804F01F05AB
:1022D0000124AC4005786D11AD0005F1E025C5F88D
:1022E000004109E0047804F01F050124AC40054DCD
:1022F0000678761145F8264070BD00000CED00E030
:1023000000E400E080E100E002490143024A11607C
:10231000704700000000FA050CED00E0014908627A
:102320007047000000000E42704700001CB50121FC
:10233000042000F029F84FF48050009000208DF820
:10234000040002208DF8050000208DF80600022010
:102350008DF8070069460248FEF7D5FD1CBD000058
:102360000008024010B507480068012807D10A207C
:1023700002F0A4F903480068012800D110BD002034
:10238000FCE700003002414229B1064A12680243CC
:10239000044B1A6004E0034A12688243014B1A603E
:1023A000704700003038024029B1064A12680243E3
:1023B000044B1A6004E0034A12688243014B1A601E
:1023C000704700003838024029B1064A12680243BB
:1023D000044B1A6004E0034A12688243014B1A60FE
:1023E000704700004038024029B1064A1268024393
:1023F000044B1A6004E0034A12688243014B1A60DE
:102400007047000044380240F0B50021002200244B
:10241000022500260223324F3F6807F00C0121B14C
:10242000042905D0082937D105E02E4F076036E092
:102430002D4F076033E02A4F3F1F3F68C7F3805698
:10244000274F3F1F3F6807F03F036EB1264FB7FB92
:10245000F3F7DFF88CC0ACF1040CDCF800C0CCF36F
:10246000881C07FB0CF40CE01E4FB7FBF3F7DFF8FA
:1024700070C0ACF1040CDCF800C0CCF3881C07FB86
:102480000CF4174F3F1F3F68C7F301477F1C7D00C7
:10249000B4FBF5F7076002E0124F076000BF00BF12
:1024A0000F4F3F6807F0F0010909104F7A5C076889
:1024B000D74047600A4F3F6807F4E051890A0B4F45
:1024C0007A5C4768D7408760054F3F6807F46041F2
:1024D000490B064F7A5C4768D740C760F0BD0000E3
:1024E000083802400024F40000127A00680000203E
:1024F00010B501460022002300204A11012A02D112
:102500000A4C236808E0022A03D1084C703423687F
:1025100002E0064C7434236801F01F020124944049
:102520001C400CB1012000E0002010BD003802402A
:102530000021094A11701170012802D0042808D125
:1025400003E00121044A117004E00521024A1170E0
:1025500000E000BF00BF70477038024001490860CA
:10256000704700003C0E4742002100F44072B2F573
:10257000407F08D1094A116821F4F811084A024045
:102580001143064A1160054A68321268C0F30B0312
:102590001A43024B68331A60704700000838024043
:1025A000FFFCFF0F10B54FF4807000F0ADF801286C
:1025B0000DD1000200F032F807A001F073FE0948C7
:1025C000006808B9012000E00020064908604FF4C7
:1025D0000030FEF77DFB10BD414C41524D204121A2
:1025E0000D0A0000A4024342014600BF080900EBA7
:1025F0008000420001F00F001044C0B27047014655
:10260000002204E0501CC2B2A1F10A00C1B20A29A2
:10261000F8DA100741EA10607047000081B241F01B
:102620008001044A126802F0800262EA0101014A54
:10263000116070470C280040002101098AB242F065
:102640008002044B1B6803F0800363EA0202014B23
:102650001A6070470C28004008B500220092002044
:102660000021104A126802F04002CAB9421E0D4B06
:102670001A6000BF0B4A126802F04001009A521C17
:102680000092009AB2F5803F01D00029F2D0054AAD
:10269000126802F040020AB1012002E0002000E0CE
:1026A000012008BD0C2800400348006820F080008D
:1026B00001490860704700000C28004070B50646CC
:1026C0000C4600250E4800680E4900EA0105280C5A
:1026D000E070C5F30420607005F03F00A070C5F302
:1026E000423020705EB9E078FFF77EFFE0706078DE
:1026F000FFF77AFF6070A078FFF776FFA07070BDDB
:10270000042800403FFFFF0010B5014600200022D2
:10271000054B1B68054C03EA040202EA01030BB1F6
:10272000012000E0002010BD0C2800407F3F010088
:1027300070B506460C4600250F4800680F4900EAB0
:102740000105C5F305402070C5F30620607005F053
:102750007F00A07005F48000000CE0705EB9207866
:10276000FFF742FF20706078FFF73EFF6070A078AF
:10277000FFF73AFFA07070BD002800407F7F7F0008
:1027800010B5044604492046FFF798FF0349204648
:10279000FFF7CEFF10BD000088000020840000205D
:1027A000CA22174B1A6053221A6091B1144A1C3A7C
:1027B000126820F004031A43114B1C3B1A60104AA4
:1027C0001C32126800F004031A430D4B1C331A60CC
:1027D00011E00B4A1C3A126820F004039A43084B9C
:1027E0001C3B1A60064A1C32126800F004039A432C
:1027F000034B1C331A60FF22014B1A607047000024
:102800002428004030B504460025CA201549086038
:1028100053200860FFF720FF00B91DE011481C3865
:10282000006820F040000F491C3908600846006825
:10283000216808430B491C3908600A491439A0680B
:10284000086008460068A18840EA0140054914393B
:102850000860FFF729FF0125FF200249086028468C
:1028600030BD00002428004008B50146002000903B
:1028700004480090009800EB8100009000980068E8
:1028800008BD0000502800402DE9F04105460C46E7
:10289000002600274DB9607800F01000102804D100
:1028A000607820F010000A30607005B908E06078A8
:1028B000FFF79AFE0646A078FFF796FE064600BF91
:1028C00055B1E0780004617840EA0120A17808431E
:1028D000217840EA413611E0E078FFF790FE4FEAB8
:1028E00000486078FFF78BFE48EA0028A078FFF7E1
:1028F00086FE48EA0008207848EA4036CA20124995
:10290000086053200860FFF7A7FE08B9002714E00D
:102910000E4830400C4920390860FFF7C5FE0A48D0
:102920001C38006800F0200030B900F0DDF808B96C
:10293000002702E0012700E00127FF20024908608C
:102940003846BDE8F0810000242800403FFFFF002A
:102950002DE9F04105460C46002600274DB92E48CA
:10296000006800F0400000B102E00020E07000BF0D
:102970000DE02948006800F0400020B12078FFF702
:1029800033FE064602E00020E07000BF00BF55B1F4
:1029900020780004617840EA0120A1780843E178BA
:1029A00040EA014611E02078FFF729FE4FEA00488F
:1029B0006078FFF724FE48EA0028A078FFF71FFEA2
:1029C00048EA0008E07848EA0046CA2012491C316B
:1029D000086053200860FFF73FFE08B9002713E0A6
:1029E0000E4830400C4908390860FFF75DFE0A4880
:1029F000006800F0200030B900F076F808B9002730
:102A000002E0012700E00127FF2003491C31086094
:102A10003846BDE8F0810000082800407F7F7F0035
:102A2000CA21054A11605321116003491039086019
:102A3000FF21116070470000242800403EB5054684
:102A40000C46002000F098F8284600F07DF820465B
:102A5000FFF7E6FF4FF48040FFF7EEFD4FF48000F4
:102A6000FEF736F901218803FFF79AFE012000F0F6
:102A700083F84FF48000019000208DF808000820B2
:102A80008DF8090001208DF80A0001A8FEF732F93F
:102A900003208DF8000002208DF801008DF802005F
:102AA00001208DF803006846FFF7F2FB3EBD0000F1
:102AB00010B54FF48060FFF727FE01280CD180028B
:102AC000FFF7ACFDFFF798FA0648006808B9012047
:102AD00000E00020034908604FF48000FEF7F8F89A
:102AE00010BD00008C02424208B500220092002076
:102AF0000021CA22134B1A6053221A60114A183A55
:102B0000126822F0A0020F4B183B1A6000BF0D4A5A
:102B1000183A126802F02001009A521C0092009AA2
:102B2000B2F5003F01D00029F1D0064A183A1268E8
:102B300002F020020AB1012000E00020FF22014B38
:102B40001A6008BD24280040CA210A4A1160532196
:102B5000116008491C39096821F00701054A1C3A2F
:102B600011601146096801431160FF21014A11609B
:102B7000704700002428004018B501460023009348
:102B800000220020CA23194C23605323236049B13B
:102B9000164B1C3B1B6843F48063144C1C3C2360A5
:102BA00001201FE0114B1C3B1B6823F480630F4C7A
:102BB0001C3C236000BF0D4B183B1B6803F0040254
:102BC000009B5B1C0093009BB3F5803F01D0002A63
:102BD000F1D0064B183B1B6803F004030BB900202F
:102BE00000E00120FF23014C236018BD2428004091
:102BF00008B500220092044A0092009A02EB80027B
:102C00000092009A116008BD502800402DE9F04163
:102C100004460D460A48007800F076F80646094852
:102C2000007800F071F80746322E01DB322F02DA0D
:102C30000020BDE8F08126802F800120F9E7000008
:102C4000A8000020A90000207FB504460D4602A977
:102C500003A8FFF7DBFF064616B9002004B070BDDD
:102C6000694601A8FFF7D2FF06460EB90020F5E736
:102C7000BDF80400BDF80C10884206DCBDF80C104D
:102C8000BDF80400323081420CDBBDF80C00BDF809
:102C90000410884236DCBDF80410BDF80C00323058
:102CA00081422FDABDF80000BDF80810884206DC2A
:102CB000BDF80810BDF80000323081420CDBBDF8D1
:102CC0000800BDF8001088421CDCBDF80010BDF8FB
:102CD00008003230814215DABDF80C10BDF804202E
:102CE000881800EBD071C1F34F012180BDF80810A6
:102CF000BDF80020881800EBD071C1F34F01298086
:102D00000120ABE70020A9E72DE9FE43804600271C
:102D1000002406E0404600F0A1FA2DF81400601CE3
:102D200084B2052CF6DB002416E0601C85B20FE0AF
:102D30003DF814003DF81510884207DD3DF8146099
:102D40003DF815002DF814002DF81560681C85B2AB
:102D5000052DEDDB601C84B2042CE6DB002701248A
:102D600005E03DF81400384487B2601C84B2042C9E
:102D7000F7DB032097FBF0F086B23046BDE8FE8318
:102D800070B505462846FDF72DFA86B200240CE002
:102D900000BF4021064801F0B2F80028F9D0295DB3
:102DA000034801F078F9601C84B2B442F0DB70BDD6
:102DB000004C00402DE9F04FADB00027062500265D
:102DC0004FF0000828210FA8FDF701FA0320049016
:102DD0004FF0FF3903904FF47840EB490880002012
:102DE000FFF7CEFC00F034FEE84A0021084601F06F
:102DF000AFFD012203A90420FDF7C3FD9DF80C00DF
:102E0000012802D09DF80C0058BB0A2205A9052014
:102E1000FDF7B7FD642001F051FC08220FA90F2037
:102E2000FDF7AFFD4FF6FF701F2105AB1822CDE96E
:102E3000001039214620FEF765FC4FF6FF701F2178
:102E40000FAB1822CDE9001051214620FEF75AFCA5
:102E50009DF80C0030B9182319226C216E20FEF762
:102E60005BFB09E09DF80C00012805D118231A46E8
:102E70006C216E20FEF750FB81E1002001F0E8FD9F
:102E8000701CC6B2002001F089F9C14800880028F2
:102E900012DDBF48008824280EDABE4800880028CA
:102EA0000ADDBC480088262806DAC82001F006FCA6
:102EB0000020B949087063E1B54800881E2816DD76
:102EC000B3480088562812DAB248008891280EDDEF
:102ED000B0480088B7280ADAC82001F0EFFB1823B1
:102EE0001A466C216E20FEF717FB01200490A848BB
:102EF00000889A2816DDA6480088D22812DAA5484C
:102F0000008891280EDDA3480088B7280ADAC82077
:102F100001F0D4FB182319226C216E20FEF7FCFA75
:102F2000002004909A480088C5281EDD9848008833
:102F3000F0281ADA97480088002816DD954800889E
:102F40002B2812DAC82001F0B9FB904A002108466C
:102F500001F0FEFC002703200290012202A90420B8
:102F6000FDF74CFD00208D49087017B1012F09D1E4
:102F700018E08B480078042805D18A480088FA2890
:102F800001DD0127F7E0322096FBF0F100FB116034
:102F900038B9B8F1000F04D10020FFF7F1FB00F0C1
:102FA00057FDE8E080480078032804D1681CC5B2CA
:102FB000052D00DD002531462846FDF713FB7A4834
:102FC000007804287ED100F0A7FD78488078009032
:102FD00076484378C27876A105A801F073F979485C
:102FE0008078009077484378027877A10FA801F0A5
:102FF00069F90020FFF7C4FB6C48807800906B48AB
:103000004378C2786AA123A801F05CF96D48807802
:1030100000906C48437802786BA119A801F052F92E
:1030200023A905A8FDF7E5F8002802DD4FF0010906
:1030300038E023A905A8FDF7DCF8F0B919A90FA815
:10304000FDF7D7F8002802DD4FF001092AE04FF61E
:10305000FF701F2160A31822CDE900104FF48C717E
:103060001E20FEF74FFB002404E00A2001F026FB9F
:10307000601CC4B2C82CF8DB14E04FF6FF701F21AF
:103080005AA31822CDE900104FF48C711E20FEF7D0
:1030900039FB002404E00A2001F010FB601CC4B2DC
:1030A000C82CF8DBB9F1010F64D19DF8100003289A
:1030B00046D09DF8101052A001F0F4F84FF6FF70C2
:1030C0001F2100E056E058A31822CDE900104FF46C
:1030D0008C711E20FEF716FB012204A90420FDF7C7
:1030E0008DFC05A8FDF77EF81FFA80FA524605A967
:1030F0000520FDF783FC322001F0E0FA0FA8FDF770
:1031000071F81FFA80FA52460FA90F20FDF776FCDE
:10311000322001F0D3FA05A8FDF764F883460FA822
:10312000FDF760F858441FFA80FA524644490520DA
:10313000FDF727FC012019490870002500271AE037
:103140004FF6FF701F213FA31822CDE900104FF466
:103150008C710020FEF7D6FA002404E00A2001F06A
:10316000ADFA601CC4B2C82CF8DB084A002108463E
:1031700001F0EEFB00BF00BF052001F09FFA7CE6E6
:1031800000BF2DB0BDE8F08F8E0000203475000820
:10319000A0000020A200002060000020000000200D
:1031A0007C0000207A0000207800002088000020A9
:1031B0003230253032642D253032642D2530326492
:1031C0000000000084000020253032643A253032AF
:1031D000643A253032640000506C6561736520529A
:1031E000657365742074696D65000000506C6561DD
:1031F0007365205265736574206461746500000016
:1032000073657420616E642063686F6F7365206FEF
:103210006BA3AC6375727461696E5F73746174756E
:10322000733D202564200A0041646A75737420543C
:10323000494D204F4B2020202020202020202000FE
:10324000C8000020506C656173652063686F6F7300
:1032500065206F6E2F6F66660000000070B5064631
:103260000025002400201E4908601E49C1F8840280
:103270001D490860304600F03BF8062001F044FA92
:1032800000201A49C1F89402012001F03DFA012002
:103290001349086001F038FA00201449C1F894027B
:1032A00000BF15E04FF6FF7000EA440400200C490F
:1032B0000860012001F028FA01200C49C1F89402AD
:1032C00009487838006808B1601C84B2681CC5B22F
:1032D000102DE7DB2411012003490860204670BD52
:1032E00094024042008040428082404200004042BE
:1032F00070B50446002500BF17E004F0800018B147
:1033000001200B49086002E00020094908606006BE
:10331000040E002007490860012001F0F5F90120A2
:103320000549C1F89402681CC5B2082DE5DB70BDE3
:1033300084824042940240420000404270470000B4
:1033400030B500228B071C0F0F2303FA04F20B4B3E
:103350008C1053F824309343084C8D1044F82530DA
:1033600023468C1053F824308C07240F00FA04F401
:103370002343024C8D1044F8253030BD08380140FD
:103380000CB50020019000903448006840F4803073
:103390003249086000BF3148006800F400300090F6
:1033A0000198401C0190009818B90198B0F5A04F01
:1033B000F1D12A48006800F4003010B101200090DB
:1033C00001E0002000900098012846D123484030B9
:1033D000006840F080502149403108602048006872
:1033E00040F440401E4908601C48083000681B49F2
:1033F000083108600846006840F40040086008464C
:10340000006840F4A05008601648091F0860081FB3
:10341000006840F08070091F086000BF0F48006816
:1034200000F000700028F9D040F205700E490860E5
:103430000A480830006820F0030008490831086095
:103440000846006840F00200086000BF03480830EA
:10345000006800F00C000828F8D10CBD00380240CC
:103460000070004008544007003C024010B504467C
:103470008CBB0020334908703348008849F2413141
:10348000884210D12C20314908802A2030490880F8
:103490002B2030490880F0202F4908804FF4A0707D
:1034A0002E49088049E02848008841F66311884287
:1034B00043D12C20254908802B20254908802A202B
:1034C000244908804FF4F070234908804FF4487075
:1034D0002249088031E0FFE701201A4908701A48A4
:1034E000008849F24131884210D12C2017490880C8
:1034F0002A20174908802B20164908804FF4A07015
:1035000015490880F0201549088016E00E4800880B
:1035100041F66311884210D12C200C4908802A20E2
:103520000B4908802B200B4908804FF448700A494A
:1035300008804FF4F07009490880002000F010F86E
:1035400010BD000094000020920000209A0000208E
:103550009C0000209E000020960000209800002083
:1035600070B505460024002630480078012805D1B2
:103570002F48008849F24131884208D02B48007812
:10358000F0B92B48008841F66311884218D1082D04
:1035900015D2DFE805F00406080A0C0E1012062505
:1035A0000DE007250BE0042509E0052507E00125CE
:1035B00005E0002503E0032501E0022500BF00BF70
:1035C000082D1CD2DFE805F00406090C0F121518AF
:1035D00000BF14E044F0800411E044F040040EE029
:1035E00044F0C0040BE044F0200408E044F0600420
:1035F00005E044F0A00402E044F0E00400BF00BF96
:1036000036260B48008849F24131884201D144F006
:10361000080421463046FEF795FA06480388064816
:10362000028800210846FEF7B7F970BD940000201B
:10363000920000209800002096000020BE21074A3A
:1036400011800521921C11801146088001211180F2
:10365000FF2111800021118011807047FE1F006C36
:10366000042808D14FF0E021096941F004014FF02E
:10367000E022116107E04FF0E021096921F0040127
:103680004FF0E0221161704702480068401E014976
:10369000086070476400002010B51548006840F4C9
:1036A0007000134908601348006840F00100114998
:1036B000086000200F49083108600E4800680E4974
:1036C00008400C4908600D48091D0860081F006883
:1036D00020F48020091F0860002006490C31086092
:1036E000FFF74EFE4FF0006001498039086010BDC1
:1036F00088ED00E000380240FFFFF6FE10300024A5
:1037000010B504466FF00400FFF7AAFFE11704EBC1
:103710005171C1F3C701074A11701046007800EBE0
:103720004001C1EBC0104FF6FF7101EAC000024931
:10373000088010BDBE000020C000002010B501218F
:10374000880700F028F9012810D10B480068401CB8
:1037500018B901200849086008E008A0FFF710FB2D
:1037600000200749086007A000F09CFD01218807A0
:1037700000F002F910BD00003C0000202B2B2B00B4
:1037800020000020BCECB2E2CAA7B0DC20C6F4B630
:10379000AFBFB4C3C5B9B70A000000007FB5054686
:1037A0000C4601210846FEF70FFE0295ADF80440D5
:1037B0000020ADF80600ADF80C0001A94FF08040E4
:1037C00000F004F91C208DF8000001208DF80100A4
:1037D00002208DF8020001208DF803006846FEF7F4
:1037E00057FD0121880700F0CAF801221146900711
:1037F00000F0E2F80121880700F0BEF87FBD00006C
:1038000010B501211A4800F0C6F801282BD119483B
:10381000006820B918480068401C1749086016481D
:10382000006802280AD140F6C4110420FDF7A6FD65
:1038300001201049086000200F4908600F48006807
:10384000012810D10E480068401C0D490860084648
:1038500000680A2807D1002008600A4800F0C0FF6D
:103860000848FFF78DFA0121014800F085F810BDE6
:103870000004004034000020300000202000002020
:1038800038000020010000207FB505460C460121CC
:103890000220FEF799FD0295ADF804400020ADF836
:1038A0000600ADF80C0001A90F4800F08FF81D20AC
:1038B0008DF8000001208DF8010003208DF8020032
:1038C00001208DF803006846FEF7E2FC012106485E
:1038D00000F055F801221146034800F06DF801216F
:1038E000014800F049F87FBD0004004010B50121F7
:1038F000074800F050F8012805D106480068012863
:1039000001D100F047FF0121014800F035F810BD5A
:1039100000080040200000207FB505460C4601212C
:103920000420FEF751FD0295ADF804400020ADF8EB
:103930000600ADF80C0001A90E4800F047F81E2063
:103940008DF8000001208DF801008DF802008DF83F
:1039500003006846FEF79CFC0121064800F00FF8C2
:1039600001221146034800F027F80121014800F028
:1039700003F87FBD00080040CA430282704721B1AE
:10398000028842F00102028004E002884FF6FE73D2
:103990001A400280704730B5024600200023002400
:1039A000158A05EA0103958905EA010413B10CB1F2
:1039B000012000E0002030BD1AB183890B438381D0
:1039C00002E083898B4383817047000000220288D4
:1039D000184B98420ED0184B98420BD0B0F1804F44
:1039E00008D0164B984205D0154B984202D0154B83
:1039F000984204D14FF68F731A404B881A43124BEA
:103A0000984207D0114B984204D04FF6FF431A401A
:103A10000B891A4302804B68C3620B880385054BF0
:103A2000984202D0044B984201D18B7A038601233D
:103A30008382704700000140000401400004004000
:103A400000080040000C004000100040001400403E
:103A50001CB527A31822DC211E20FDF731FE012012
:103A60001821CDE900102648C2780223DC217220FB
:103A7000FDF7BEFD01201821CDE900102048427855
:103A80000223DC219620FDF7B3FD01201821CDE9AA
:103A900000101B4882780223DC21BA20FDF7A8FD24
:103AA00018A31822FA211E20FDF70AFE0120182172
:103AB000CDE90010174802780223FA215A20FDF7B9
:103AC00097FD01201821CDE9001012484278022309
:103AD000FA217E20FDF78CFD01201821CDE9001090
:103AE0000C4882780223FA21A220FDF781FD1CBD3B
:103AF000446174653A323020202D20202D20200092
:103B00008800002054696D653A20203A20203A2030
:103B100020000000840000201CB527A318223921B2
:103B20004620FDF7CDFD01201821CDE900102548E4
:103B3000C278022339215E20FDF75AFD01201821A9
:103B4000CDE900101F484278022339218220FDF779
:103B50004FFD01201821CDE900101A488278022378
:103B60003921A620FDF744FD17A318225121462034
:103B7000FDF7A6FD01201821CDE9001015480278B7
:103B8000022351214620FDF733FD01201821CDE904
:103B9000001010484278022351216A20FDF728FDC9
:103BA00001201821CDE900100A4882780223512112
:103BB0008E20FDF71DFD1CBD323020202D20202D34
:103BC000202000008800002020203A20203A2020D9
:103BD000000000008400002010B50448008849F26D
:103BE0004131884201D100F05DFA10BD9200002001
:103BF00010B588B0044601210846FEF7C5FB012137
:103C00001020FEF7F1FB01218803FEF7EDFB0722F0
:103C100009212248FDF7BFF907220A211F48FDF7B5
:103C2000BAF94FF4C060069002208DF81C008DF8A0
:103C30001D0000208DF81E0001208DF81F0006A930
:103C40001648FDF760F902940020ADF80C00ADF8BD
:103C50000E00ADF81000ADF814000C20ADF8120005
:103C600002A90F4800F0A8F925208DF804000220D1
:103C70008DF805008DF8060001208DF8070001A8D9
:103C8000FEF706FB012240F22551054800F06EF9CF
:103C90000121034800F027F908B010BD00000240E0
:103CA0000010014070B5002540F22551674800F032
:103CB00033F9002874D0654800F0E8F9044600BFE5
:103CC0004021634800F01BF90028F9D021466048E4
:103CD00000F0E1F95F480068E0B93E2C19D10020FE
:103CE0005D49086001205B49086000F053FD42F225
:103CF000CF0149F63F40FFF70FFE42F2CF0142F2FB
:103D00000F70FFF7C1FD002054490860012054499D
:103D1000086095E04F4800680128FAD151480078C2
:103D200010B1012841D141E07B2C0DD14E480068F3
:103D300008B9012000E000204B490860494800789C
:103D4000401C4849087030E04849494A12688C5480
:103D500047480068401C4649086008460068401E05
:103D60004249085C6B2820D10020414A12688854DF
:103D700040A13E48FCF73DFAB8B900203C49086034
:103D80003A490870487088703B48006848B901207B
:103D90003949086042F2CF013848FFF7FFFC04E0E0
:103DA00053E000204FF08041486248E02F49304AFC
:103DB00012688C542E480068401C2D490860084643
:103DC0000068401E2949085C7D2837D10021284819
:103DD0000068401E254A11542348001D006808B998
:103DE000012000E000202049091D08601F48FCF761
:103DF000F9F9064632461D4921A000F053FA28A1E0
:103E00001A48FCF7F6F928B927A000F04BFA00F0A1
:103E1000D7FC06E02AA11548FCF7EBF908B901F038
:103E2000B1F9002503E00020104948556D1C322DE2
:103E3000F9DB00200E4908600A49087000BF00BF86
:103E400040F22551014800F03FF870BD004C0040A1
:103E5000001001401C000020A40243422404004042
:103E6000200000202C0000208C024242DA000020BA
:103E7000180000206F6B000024000020DF220200E9
:103E8000746865206F726465722066726F6D20734E
:103E900065727665722D2D2D2D2D25733D256400BF
:103EA00068656C6C6F000000746865206F726465F3
:103EB00072206861732072656365697665640A00C3
:103EC000776F726C6400000010B50022002340F68A
:103ED0006A14A14200D100BF0A1201249440A3B287
:103EE000DC43048010BD21B1828942F400528281FA
:103EF00004E082894DF6FF731A40828170470246C2
:103F00000020B1F5007F00D100BF13880B400BB13A
:103F1000012000E00020704770B502460024002315
:103F20000025002040F66A16B14200D100BFC1F35F
:103F3000421501F01F03012606FA03F3012D02D1F9
:103F40009689334006E0022D02D1168A334001E003
:103F5000968A33400C12012606FA04F4168834407F
:103F600013B10CB1012000E0002070BDF0B5034694
:103F7000002400260025002040F66A17B94200D12F
:103F800000BF1846C1F3421401F01F06012707FACB
:103F900006F5012C01D10C3004E0022C01D11030C7
:103FA00000E014301AB107682F43076002E0076889
:103FB000AF430760F0BD00002DE9FF4705460E4600
:103FC0000024A14600BFA046B08900B100BF2C8AE2
:103FD00024F44054F08804432C82AC8941F20C60F4
:103FE0008443B08831890843718908430443AC8114
:103FF000AC8A24F44074B0890443AC826846FEF76E
:1040000003FA2048854202D01F48854202D1DDF8DC
:104010000C9001E0DDF80890A88900F4004040B160
:1040200009EBC90000EB091031684900B0FBF1F75A
:1040300007E009EBC90000EB091031688900B0FB0B
:10404000F1F76420B7FBF0F004012009642101FBC3
:104050001078A88900F4004040B1322000EBC8007D
:10406000B0FBF1F000F00700044308E0322000EB61
:1040700008106421B0FBF1F000F00F0004432C8124
:10408000BDE8FF8700100140001401400146888808
:10409000C0F308007047C1F308028280704700BF78
:1040A000FEE700001CB501212720FEF76DF9042072
:1040B000009000208DF804008DF8060003208DF894
:1040C000050001208DF8070069462648FCF71BFF14
:1040D0004FF40060009069462348FCF714FF03206A
:1040E000009001208DF8040069461E48FCF70BFF84
:1040F0002020009069461D48FCF705FF1C48007809
:10410000C0B190201B490870D0201B4908709FED5A
:104110001B0A1B4880ED000A9FED1A0A1A4880ED21
:10412000000A4FF4AE70194908806FF01200184968
:10413000088016E0D0200F49087090200E490870C2
:104140009FED140A0E4880ED000A9FED130A0E48F9
:1041500080ED000A6FF00A000C490880C01F0C496E
:1041600008801CBD00040240001402400000024010
:1041700094000020A8000020A90000206452BCBDCB
:10418000AC0000207BF5893DB0000020B400002089
:10419000B6000020DA9F883D3ABABA3D10B5044611
:1041A0004FF6FF7033490880334908803348006870
:1041B000002848D124B132493248FEF745FD34E0A9
:1041C0002F493048FEF740FD78B32F48B0F9000082
:1041D00000EE100AB8EEC00A2C4890ED001A2948EB
:1041E000008800EE900AF8EE600A01EE200ABCEEAC
:1041F000C00A10EE100A234908802548B0F90000D3
:1042000000EE100AB8EEC00A224890ED001A1C48D1
:10421000008800EE900AF8EE600A01EE200ABCEE7B
:10422000C00A10EE100A16490880164800881A497C
:104230000880134800881949088019480078401CF4
:104240001749087014E016480078022807DD0D4869
:104250000088084908800A4800880749088000202B
:104260000F4908704FF6FF700B4908800B49088012
:1042700010BD0000A4000020A60000202C824242B5
:10428000BA000020B8000020B4000020AC000020DC
:10429000B6000020B0000020A0000020A2000020F6
:1042A000BC0000200FB4054B10B503A9044A0298C6
:1042B00000F02CF810BC5DF814FB00009D470008CE
:1042C000C40000200FB4084B10B504A902AA03983B
:1042D00000F01CF8044602A9002000F0B8F92046BE
:1042E00010BC5DF814FB00004F46000802E008C84F
:1042F000121F08C1002AFAD170477047002001E060
:1043000001C1121F002AFBD1704700002DE9FF4FA9
:104310008BB088460546002606E025280BD0DDE94F
:104320000D1290476D1C761C28780028F5D10FB02F
:104330003046BDE8F08F0024A146A2460122AE49D6
:1043400000E0044315F8013F203B02FA03F0084265
:10435000F7D128782A2810D06FF02F022878A0F102
:104360003001092915D809EB890102EB410144F01C
:10437000020400EB01096D1CF0E758F8041B5FEA2A
:10438000010903D544F40054C9F1000944F00204C2
:104390006D1C28782E2817D115F8010F44F004045D
:1043A0002A280ED06FF02F022878A0F130010929B9
:1043B0000AD80AEB8A0102EB410100EB010A6D1CED
:1043C000F2E758F804AB6D1C28786C280FD006DC97
:1043D0004C2817D068280DD06A2814D104E074281E
:1043E00010D07A280FD10DE044F400140AE044F410
:1043F000801401E044F440146978814202D104F54C
:1044000080146D1C6D1C2878692865D006DC002896
:104410008DD0632827D0642806D15DE06E2808D0AF
:1044200073282AD0752877D0DDE90D129047761CC5
:10443000E0E0C4F30250022809D003280DD0D8F8D8
:10444000001004280DD00E6008F10408D2E0D8F85E
:104450000010F217C1E90062F6E7D8F800100E80EC
:10446000F2E70E70F0E718F8041B8DF8001000203A
:104470008DF80100EB46012003E058F804BB4FF033
:10448000FF3061074FF0000701D40AE07F1C574559
:104490000DDA8742FADB1BF807100029F6D106E097
:1044A0007F1C8742FCDB1BF807100029F8D1DDE9EF
:1044B0000D23A9EB07008146214600F0B1F83044F6
:1044C000C61904E0DDE90D121BF8010B90477F1EB1
:1044D000F8D22146484688E058F8040BC4F302514C
:1044E0004FF00A0B032900D100B2042900D140B2D9
:1044F000002802DA40422D2102E0210505D52B21BA
:104500008DF82410012104E006E0E10710D02021FD
:10451000F6E708AF089113E058F8040BC4F3025112
:104520004FF00A0B032900D180B2042900D1C0B298
:104530000021EEE75946FBF70BFF303107F8011D6C
:104540000028F7D1ADEB070000F1200B600702D582
:1045500024F4803401E04FF0010ADA4502DDAAEBD1
:104560000B0000E00020824600EB0B01089801449C
:10457000A9EB01000A90E00306D4DDE90D232146F2
:104580000A9800F04DF806444FF0000908E009A928
:1045900011F80900DDE90D12904709F10109761CB7
:1045A00008998945F3DBE0030CD5DDE90D232146AD
:1045B0000A9800F035F8064404E0DDE90D123020D9
:1045C0009047761CBAF10001AAF1010AF5DC05E07A
:1045D000DDE90D1217F8010B9047761CBBF10001C5
:1045E000ABF1010BF4DC0A982146DDE90D2300F064
:1045F00005F806446D1C97E6092801002DE9F041F5
:10460000044600251E461746880404D405E03946B2
:104610002020B0476D1C641EF9D52846BDE8F08106
:104620002DE9F041044600251E469046C80301D5F9
:10463000302700E02027880404D505E041463846AD
:10464000B0476D1C641EF9D52846BDE8F0810A68A4
:10465000531C0B6010707047012005490860002052
:104660000449C1F8AC02012003490860704700000A
:10467000A8824042008040429802414210B5002486
:10468000FDF770FE0446012C03D104A0FFF70AFEDB
:1046900002E007A0FFF706FE10BD000070656F7016
:1046A0006C6520697320636F6D696E670A00000096
:1046B0006E6F2070656F706C65200A000146114AAC
:1046C00012884A434FF0E0235A6100229A611A4649
:1046D000126942F001021A6100BF4FF0E022106936
:1046E00000F001021AB100F48032002AF5D04FF038
:1046F000E022126922F001024FF0E0231A61002249
:104700009A617047C00000200146114A12784A435E
:104710004FF0E0235A6100229A611A46126942F072
:1047200001021A6100BF4FF0E022106900F001029F
:104730001AB100F48032002AF5D04FF0E02212695D
:1047400022F001024FF0E0231A6100229A617047C3
:10475000BE00002010B50C48006820F040400A4917
:1047600008600846006840F0804008600020074963
:1047700008601420FFF7A2FF01200549C1F8BC0220
:104780001E20FFF7C1FF10BD00000240BC024042E6
:104790000000404210B5FCF7D7FD10BD70B50446CF
:1047A0000D46A1B20548FFF776FC00BF8021034803
:1047B000FFF7A5FB0028F9D0204670BD001001408E
:1047C0000120044908600449C1F8AC0200200349F3
:1047D00008607047A88240420080404298024142EF
:1047E00010B52DED068B90B00446002008EE100A9F
:1047F0009FED410AF0EE408A0CA9FDF75FFF9DF89E
:10480000320000909DF831309DF833203BA102A882
:10481000FFF758FD9DF830203EA102A8FFF752FD9A
:104820000DA90020FDF784FF9DF8360000909DF84B
:1048300035309DF8342039A102A8FFF743FD14213B
:104840000920FCF7F1FB08EE100AB8EE480A10EE5A
:10485000100AFBF74EFD41EC1A0B9FED350B53ECA4
:10486000102BFBF7D4FC41EC190BFBF755FD08EEC0
:10487000900A0EA90FA8FCF790F99DF83C000A21B8
:1048800090FBF1F0303060709DF83C0090FBF1F24D
:1048900001FB12003030A0709DF8380090FBF1F061
:1048A000303020719DF8380090FBF1F201FB1200CE
:1048B00030306071B2EE040A28EE800ABDEEC00A04
:1048C00010EE100A90FBF1F03030E071B2EE040A05
:1048D00028EE800ABDEEC00A10EE100A90FBF1F23D
:1048E00001FB120030306072214613A0FFF7DAFCA2
:1048F00010B0BDEC068B10BD000000004461746573
:104900003A3230253032642D253032642D25303254
:10491000640000005765656B3A25640054696D6555
:104920003A253032643A253032643A253032640018
:104930006666666666664A3FCBF9B2C9BCAFB5C467
:10494000CAFDBEDD64617461203D202573200A002C
:104950002DE9FC4106460F4614464FF0080825464F
:1049600004EB08002978CDE90010AB886A88394645
:10497000304600F011F8BDE8FC8110B502462AB1BE
:1049800011F8014B20020B78184304E011F8010BD9
:104990000B7840EA032010BD2DE9F05F81468A467E
:1049A00015461E46DDE90A784FF0000B24480088C2
:1049B00041F6631188421ED007F0030068B9002059
:1049C000FEF7CEFD33462A4651464846FCF7E4FF43
:1049D00051464846FDF740F816E00420FEF7C0FDBA
:1049E00033462A4651464846FCF7D6FF51464846CC
:1049F000FDF732F808E00020FEF7B2FD33462A4604
:104A000051464846FCF7C8FFFDF792F805FB06FB48
:104A1000002409E007F010004146FFF7AEFF094906
:104A2000088008F10208641C5C45F3D3064803883B
:104A30000648028800210846FCF7AEFFBDE8F09F5B
:104A4000920000200020006C9800002096000020BA
:104A500010B504460020364908704FF400713548FF
:104A6000FCF7BCFA80B14FF480713248FCF7B6FA1B
:104A700050B180212F48FCF7B1FA28B140212D48D0
:104A8000FCF7ACFA002843D14FF400712948FCF739
:104A9000A5FA18B90120284908701AE04FF480716E
:104AA0002448FCF79BFA18B902202349087010E04B
:104AB00080212048FCF792FA18B903201E4908709B
:104AC00007E040211B48FCF789FA10B904201A4975
:104AD00008701948007819490978884210D1184897
:104AE0000088401C16490880134800781549087052
:104AF000ECB913480088012819DD0020087016E081
:104B000000200F4908800C4800780C4908700EE01E
:104B10000B480088022803DD074800780449087024
:104B2000002006490870064908800649087010BD33
:104B300079000020001402407C0000207D0000204D
:104B40007A0000207800002088B000BF00BF00BFBE
:104B500000BF00BF002006900590FB4A07CA02ABC9
:104B600007C300200190A820FEF7CAFDFBF784FFD1
:104B7000FDF7FEFAFCF714FCFCF706F94FF4E13000
:104B8000FFF736F8F1A0FFF78DFB4FF4A060FDF7BB
:104B9000BBFBFBF76DFF0AE0EFA0FFF783FBF348D9
:104BA000006808B9012000E00020F0490860FBF728
:104BB000D1FE0028F0D1FCF7CDFFFFF70DF8ECA0F7
:104BC000FFF770FBFDF70EFB00210420FDF736FF19
:104BD000FDF7ACFB012207A91046FBF7D2FE9DF8BA
:104BE0001C0001280ED09DF81C0002280AD09DF858
:104BF0001C00032806D001200790012207A91046B7
:104C0000FBF7FCFE012207A90220FBF7BAFE9DF884
:104C10001C0050B19DF81C00012806D00020079010
:104C2000012207A90220FBF7E9FE012207A90320C0
:104C3000FBF7A7FE9DF81C0050B19DF81C00012851
:104C400006D000200790012207A90320FBF7D6FE1B
:104C50008CE29DF81C0000287ED001287DD1C64A38
:104C600000210846FFF774FEFDF758F9012201A95B
:104C70001046FBF786FE9DF80400012806D1182394
:104C800015229421A720FCF747FC14E09DF80400AE
:104C9000022806D1182316229421A720FCF73CFCF9
:104CA00009E09DF80400032805D118231722942158
:104CB000A720FCF731FCB148007830B9182319223D
:104CC000B9218720FCF728FC09E0AC4800780128CE
:104CD00005D118231A46B9218720FCF71DFC0B20AB
:104CE00002900C20039002AB1822DF218720FCF7F2
:104CF0005DFC012206A90220FBF743FE9DF8180087
:104D000038B9182319224FF48471CD20FCF704FC24
:104D10000AE09DF81800012806D118231A464FF41E
:104D20008471CD20FCF7F8FBFAE00020FFF736FA9B
:104D300093480088802848DD91480088A42844DAF8
:104D4000904800888F2840DD8E480088B3283CDAE0
:104D5000C820FFF7B3FC01E0E5E006E29DF804009F
:104D6000401CC0B201909DF80400032808DD01201A
:104D70000190182315229421A720FCF7CDFB1FE0FA
:104D80009DF80400012806D1182315229421A7209C
:104D9000FCF7C2FB14E09DF80400022806D118239A
:104DA00016229421A720FCF7B7FB09E09DF8040028
:104DB000032805D1182317229421A720FCF7ACFB68
:104DC000012201A91046FBF719FE6D480088C3288F
:104DD00045DD6B480088E72841DA6A4800888F285B
:104DE0003DDD68480088B32839DAC820FFF766FC43
:104DF0009DF80400401EC0B201909DF804000128F7
:104E000008DA03200190182317229421A720FCF729
:104E100083FB1FE09DF80400012806D1182315220A
:104E20009421A720FCF778FB14E09DF804000228E9
:104E300006D1182316229421A720FCF76DFB09E068
:104E40009DF80400032805D1182317229421A720D8
:104E5000FCF762FB012201A91046FBF7CFFD484891
:104E60000088052817DD464800882D2813DA4548B4
:104E70000088CE280FDD43480088F6280BDAC820CA
:104E8000FFF71CFC002007900590012205A90320D4
:104E9000FBF7B4FD45E03A480088002836DD384885
:104EA00000882D2832DA37480088FF282EDD354863
:104EB0000088B0F5967F29DAC820FFF7FFFB9DF840
:104EC000180070B918231A464FF48471CD20FCF7EE
:104ED00023FB01200690012206A90220FBF78EFD8C
:104EE00011E09DF8180001280DD1182319224FF464
:104EF0008471CD20FCF710FB00200690012206A94A
:104F00000220FBF77BFD20A0FFF7CCF920480078BA
:104F1000012805D19DF81800012801D1FFF7AEFB4B
:104F200003E700BF21E11B4A00210846FFF710FDFF
:104F3000FCF7F4FF1148007870BB182319228F2169
:104F40008C20FCF7E9FA32E0A45100087265736521
:104F500074202D2D2D2D0A004154323443585820F1
:104F6000BCECB2E2CAA7B0DC0A0000008C024242EC
:104F70007374617274200A00442505084000002003
:104F8000A0000020A2000020B7E4C3F9C6F70A0081
:104F90008C0000203CCD0208FFE77548007801280E
:104FA00005D118231A468F218C20FCF7B5FA0D2065
:104FB00002900E20039002AB1822AD218C20FCF74A
:104FC000F5FA012206A90220FBF7DBFC9DF8180088
:104FD00038B9182319224FF48471CD20FCF79CFABC
:104FE0000AE09DF81800012806D118231A464FF44C
:104FF0008471CD20FCF790FAB4E00020FFF7CEF8E2
:105000005C480088002818DD5A480088282814DAEF
:1050100059480088A82810DD57480088D0280CDAA5
:105020004FF49670FFF74AFB01200790059001228C
:1050300005A90320FBF7E2FC95E04E4800886428B0
:1050400017DD4C4800888F2813DA4B480088CB289E
:105050000FDD49480088F5280BDAC820FFF72EFB42
:1050600018231A468F218C20FCF756FA012040495C
:10507000087040480088932817DD3E480088BE2805
:1050800013DA3D480088CB280FDD3B480088F5281F
:105090000BDAC820FFF712FB182319228F218C206E
:1050A000FCF73AFA00203249087032480088BE28DE
:1050B00015DD30480088E62811DA2F480088E228FC
:1050C0000DDD2D480088B0F5857F08DAC820FFF790
:1050D000F5FA012029490870FDF76CFE43E02548E8
:1050E0000088002834DD234800882D2830DA224843
:1050F0000088FF282CDD20480088B0F5967F27DA4D
:105100004FF49670FFF7DAFA9DF8180070B918237B
:105110001A464FF48471CD20FCF7FEF90120069069
:10512000012206A90220FBF769FC11E09DF8180096
:1051300001280DD1182319224FF48471CD20FCF7DA
:10514000EBF900200690012206A90220FBF756FC8D
:105150000B480078012805D19DF81800012801D1DD
:10516000FFF78CFA49E700BF00BF00BF71E5000000
:1051700040000020A0000020A200002060000020CD
:105180008C00002001200449086000200349C1F878
:10519000AC02034908607047A88240420080404248
:1051A000980241420B0000000C000000FFFFFFFFCF
:1051B00000000000000008000430FE072002040088
:1051C000020480FE078202044C020448020448FEE6
:1051D0000720020420000020FF1F209108109108E2
:1051E0001E9108189108189108189108189128F82C
:1051F000FF7F000000000000000000000000080029
:105200000830FE1F30060820060880FE0F820608C0
:105210004C060858060848FE0F20160920100120E9
:1052200010311011311A13191C120D08160508122D
:10523000030810010C1021C8FF7F000000000000CF
:10524000000000000800003000003010F0FF3F10A8
:105250000201100403100411F0FF3F1004011004B8
:105260000110FC0110040110000098FF071804024F
:10527000080401088800085000047000048C030230
:10528000037EE00010000000000000000000001895
:105290000000180020180240180680180380190129
:1052A000009900009810FEFF3F00630000630000BB
:1052B0006300006100006100006120806120806067
:1052C0002040602020406018C03F06000000000021
:1052D00000000000000000F91FF84318084108080A
:1052E000610808210808110EF8090408050008F1F2
:1052F0001F083108083108083108F8F10F08310893
:1053000088000010210410610818C21818C2300C5F
:10531000C2300C022000000000000000000000F875
:105320000FFC110880110880110880F10F80990886
:10533000F8810188810108800108F83F0C8811FC80
:10534000891180881180F81F8088118084098080ED
:1053500011C0803140807F787E6030020000000004
:10536000000000000800003000003010F0FF3F1087
:105370000201100403100411F0FF3F100401100497
:105380000110FC0110040110000098FF071804022E
:10539000080401088800085000047000048C03020F
:1053A000037EE00010000000000000000800001074
:1053B00000103000F0FF3F180010088709CC080EDD
:1053C000300808000404E0FF0F200804200C04202B
:1053D000FC05208204204504206804203004207845
:1053E00004204604A04104E0FF0720000400000060
:1053F000000000000800001800001000F8FF3F083F
:1054000000100C4308808107C0180C3018180C18C5
:1054100000F0FF0F3018083018083018083018084E
:1054200030180830180830180F301806001800001F
:105430001800000800000000000000000000C0404C
:105440000080400280400C80401884401888401042
:1054500098401090FF3F80C000804001C06001A0D4
:1054600060019020018C2002863002801006801896
:105470000C80081C800438800230400100000000CD
:10548000000000000800000800000800000C10FCEC
:10549000FF3F0014000024000026000042000083AB
:1054A00001800C0760183E181018060000000C0060
:1054B0009019049010189810199C00118C001180FC
:1054C000010100FF0100000000000060000060001A
:1054D00000F0DF3F30C33018C33098C330FCFF30DA
:1054E00080C13080C730C0DD3FE0F83070D8009810
:1054F000FF0F8C010680010680FF078001068001F6
:105500000680010680FF0F80010E000006000000EB
:10551000000000C00000C0C101E0C01860C63C30FF
:10552000CC0E1CDF03FCD90000D860F8CF6038CE69
:105530007F380E00F86F0038CE1838CE3C38CE0ECB
:10554000F8CF0338CE6038CE6038CE6038CEE0B8C1
:10555000CF7F1806000000000000000000000000DF
:105560000E00F01FF81F0000180000180000180CB3
:10557000F8FF1F001800001800001800001830FE87
:10558000FF7F001800001800001800001800001825
:1055900000001800801B00001E00000C000000002E
:1055A000000000000000008001008001008601FC76
:1055B0008F0100800100F07F008071FE9F71C0802C
:1055C00071E0807160803170833130C63118CE3027
:1055D00018CC30FC7F301C783000303000983B0015
:1055E0000E1E00030C0000000000002010022030FE
:1055F0000220300220FF3F203102FE310220F81F3E
:10560000300808700808B0F80FB8090828090828F9
:10561000F80F24C80824400022FF3F2040012060EA
:105620000120200220100C200C7820030000000034
:1056300000000000200000600200600C00600C0010
:105640006018FCFF3F006000006000004000004068
:1056500000FC4F0080400080C00080C000808000BF
:10566000808001800021801E23C001263C003C0C6C
:105670000038000060000000000000000000300062
:1056800000600000C0FC3FC80010085810089811C6
:10569000089012E8FF13081010C81711C89611C817
:1056A0009611C8B710C86610086C1088631268900D
:1056B0001208081308061208001E0800080000005F
:1056C000000000402000C06000406000E0FF1F209C
:1056D000600030600010FE0F300404380404380409
:1056E0000434FC0732040430040430FC07300404A2
:1056F00030040430040430FC07300404300424F087
:10570000FF7F3000000000000000000000000000EB
:105710000030000048F801480C16480618300318FD
:1057200000011080011080010080010080010080D4
:1057300001008001000001000003000003080006D2
:1057400004001C0300F00000000000000000000046
:10575000000000000000000000000000E000181041
:10576000010C10010610010310810110810010418D
:1057700000E0200000100200880500840800820874
:1057800000C10880C0084080082080081000070081
:10579000000000000000000000000000000000F019
:1057A0003FFC0F3800063800063800E63FF0E738C7
:1057B000306600386000186000FCFF7F18663030EB
:1057C000C630608633E0863300073CC0073770C6BA
:1057D000311E76300C0638C0033E80010C000000FC
:1057E0000000000018000038000018000018000039
:1057F0001800F8FF3F381838381838381838381873
:1058000038381838381838F8FF3F3818381818184A
:1058100000180000180000180000180000380000F0
:10582000380000180000000000000000000000F830
:105830001FFC331880331880331880F31F80BB1986
:10584000F8830398830318800318F87F1C9833FCAF
:105850009B3380993380F93F809933808D1B808101
:1058600033C08173C080FFF8FEE0700600000000C6
:10587000000000000000000018FCFF3F0083010052
:105880008301008301008301008301008301008301
:1058900031FEFF7F008301008301008301808301CB
:1058A000808101808101C08001E080017080011849
:1058B00080010C8001000000000000008001808356
:1058C0000300870100C60000C600F8FF3F00380053
:1058D000003800003800001800001830FEFF7F007C
:1058E0007800007C0000CC0000CE0100860100039F
:1058F0000380010EE0003C3800F80C00300000008E
:10590000000000000000000000000000000004048F
:10591000040404040004000000140A0A000000004B
:1059200000000000000014143F140A3F0A0A00009F
:1059300000041E1505060C14150F040000001215B6
:105940000D0A142C2A1200000000040A0A1E151564
:105950000936000000020201000000000000000003
:105960000020100808080808081020000002040899
:10597000080808080804020000000004150E0E15AF
:105980000400000000000404041F040404000000DC
:105990000000000000000000000202010000000002
:1059A000001F0000000000000010080808040402A6
:1059B0000202010000000E1111111111110E000060
:1059C0000000040604040404040E000000000E118C
:1059D00011080402011F000000000E11100C10102D
:1059E000110E00000000080C0A0A091E0818000029
:1059F00000001F01010F1010110E000000000E0921
:105A0000010F1111110E000000001F090804040409
:105A10000404000000000E11110E1111110E0000FF
:105A200000000E1111111E10120E000000000000E7
:105A3000040000000004000000000000000400005A
:105A400000040400002010080402040810200000D4
:105A5000000000001F00001F0000000000020408FA
:105A6000102010080402000000000E1111080404A8
:105A70000004000000000E111915151D011E000084
:105A8000000004040C0A0A1E1233000000000F126A
:105A9000120E1212120F000000001E11010101016E
:105AA000110E000000000F1212121212120F00004D
:105AB00000001F120A0E0A02121F000000001F122F
:105AC0000A0E0A020207000000001C12010139112F
:105AD000120C000000003312121E121212330000CA
