:020000040800F2
:10000000A00500209D010008C1210008B70E0008CE
:1000100015210008850900082F4300080000000092
:10002000000000000000000000000000C9320008CD
:100030009F090008000000005D2200081536000836
:10004000B7010008B7010008B7010008252A000819
:10005000B7010008B7010008B7010008B7010008A0
:10006000B7010008B7010008B7010008B701000890
:10007000B7010008B7010008B7010008B701000880
:10008000B7010008B7010008B7010008B701000870
:10009000B7010008B7010008B7010008650A0008A9
:1000A000B7010008B7010008B7010008B701000850
:1000B000C93600088D37000889380008B7010008E4
:1000C000B7010008B7010008B7010008B701000830
:1000D000B7010008B7010008B7010008B701000820
:1000E000B701000819250008B7010008B70100088A
:1000F000B7010008B7010008B7010008B701000800
:10010000B7010008B7010008B7010008B7010008EF
:10011000413C0008B7010008B7010008B70100081A
:10012000B7010008B7010008B7010008B7010008CF
:10013000B7010008B7010008B7010008B7010008BF
:10014000B7010008B7010008B7010008B7010008AF
:10015000B7010008B7010008B7010008B70100089F
:10016000B7010008B7010008B7010008B70100088F
:10017000B7010008B7010008B7010008B70100087F
:10018000B7010008B7010008DFF80CD000F056F8FE
:1001900000480047F94E0008A005002006488047A7
:1001A00006480047FEE7FEE7FEE7FEE7FEE7FEE75C
:1001B000FEE7FEE7FEE7FEE72536000889010008B6
:1001C000D2B201E000F8012B491EFBD27047002299
:1001D000F6E710B513460A4604461946FFF7F0FF46
:1001E000204610BD421C10F8011B0029FBD1801ACB
:1001F000704710B5002200E0521C835C8C5CA34267
:1002000001D1002BF8D1D8B2E1B2401A10BD30B5FF
:100210000B46014600202022012409E021FA02F5C4
:100220009D4205D303FA02F5491B04FA02F528445E
:10023000151EA2F10102F1DC30BD0000064C074D95
:1002400006E0E06840F0010394E8070098471034A6
:10025000AC42F6D3FFF79CFF488207086882070884
:1002600070B58C1810F8015B15F0070301D110F878
:10027000013B2A1106D110F8012B03E010F8016BA5
:1002800001F8016B5B1EF9D12B0705D40023521E28
:100290000DD401F8013BFAE710F8013BCB1A921C90
:1002A00003E013F8015B01F8015B521EF9D5A1428E
:1002B000D8D3002070BD21B1826842F00102826073
:1002C00003E0826822F00102826070470021084A40
:1002D0001168084A1140D0E900231A4383681A4381
:1002E000C3681A431143044AC2F80413704700005C
:1002F00004230140E030FCFF002001400146C86CAF
:1003000080B270470246002013680B400BB10120F9
:1003100000E000207047000030B5024600200023B6
:100320005068104C20400D790C6844EA05242043A5
:10033000506090680C4C2040D1E903542C438D68E8
:100340002C434D7944EA450420439060D06A20F460
:1003500070000C7D641EE4B2234340EA0350D06277
:1003600030BD0000FFFEFFFCFDF7FFC0F0B5044606
:100370000D4600200021092D11DDE068A5F10A06D7
:1003800006EB4607072606FA07F18843A5F10A0699
:1003900006EB460603FA06F10843E0600CE020692C
:1003A00005EB4507072606FA07F1884305EB4506E6
:1003B00003FA06F108432061072A0FDA606B561E24
:1003C00006EB86071F2606FA07F18843561E06EB42
:1003D000860605FA06F10843606322E00D2A0FDA6B
:1003E000206BD61F06EB86071F2606FA07F1884307
:1003F000D61F06EB860605FA06F10843206310E0D7
:10040000E06AA2F10D0606EB86071F2606FA07F141
:100410008843A2F10D0606EB860605FA06F10843AD
:10042000E062F0BD816841F080418160704700006A
:1004300000B58DB00121202001F040FF012188028C
:1004400001F07CFF08200B9003208DF83000002085
:100450008DF833000BA9154800F085FC01218802B6
:1004600001F07CFF00214FF4806001F077FF002055
:1004700007900A9009904FF48030089007A8FFF782
:1004800025FF002001908DF808008DF809000390E9
:10049000059001208DF8180001A90548FFF73CFFE1
:1004A00001210348FFF707FF0DB000BD0014024013
:1004B000002201407CB505460C46322094FBF0F149
:1004C00000FB1140C8B94FF6FF701F21CAA31822C4
:1004D000CDE900104FF48C711E2001F043F84FF667
:1004E000FF701F21CDE90010C94850F825301822AF
:1004F0004FF48C71A22001F035F8C648007801282D
:1005000003D0C4480078022875D1C2480078012879
:1005100072D1062D09D2DFE805F00309177684921F
:10052000BD48C078401CBC49C87096E0BA484078C5
:100530000C2803D10120B849487004E0B64840783F
:10054000401CB549487088E0B34989781C2910D10E
:10055000B149497802290CD1AF49C878C11700EBDD
:1005600091718910A0EB810119B10120AA4988700D
:1005700048E0A94989781D2910D1A749497802295D
:100580000CD1A549C878C11700EB91718910A0EB77
:10059000810119B90120A049887033E09E48807814
:1005A0001E2820D19C4840780D281BD2DFE800F09F
:1005B0001A0E1A0F071008111209130A140000BFAF
:1005C00000BF00BF0120944988700BE000BF00BF4E
:1005D00000BF00BF00BF00BF8F488078401C8E491D
:1005E000887000BF0EE08C4880781F2805D101205C
:1005F0008949887006E0A6E030E087488078401C92
:100600008549887029E085480078172803D10020A3
:100610008249087004E081480078401C7F490870D6
:100620001BE07E4840783B2803D100207B4948707E
:1006300004E07A484078401C784948700DE07748DB
:1006400080783B2803D100207449887004E0734807
:100650008078401C7149887000BF00BF6D480078E9
:10066000022870D1062D09D2DFE805F003091759D9
:1006700066746948C078401E6749C87077E066486C
:100680004078012803D10C206349487004E0624897
:100690004078401E6049487069E05F4880780128D2
:1006A00037D15D49C878C11700EB91718910A0EB73
:1006B000810139B958494978022903D11D20564989
:1006C00088702BE054484078022803D11C205249FE
:1006D000887023E0504840780D2819D2DFE800F0F8
:1006E000180718081109120A0B130C140D0000BF8B
:1006F00000BF00BF00BF00BF00BF1F204649887079
:1007000006E000BF00BF00BF1E204349887000BF45
:1007100004E041488078401E3F49887027E03F4808
:10072000007818B917203D49087004E03B4800786C
:10073000401E3A4908701AE03848007820B93B203A
:100740003649487005E013E034484078401E33498C
:1007500048700CE03148807818B93B202F498870E8
:1007600004E02E488078401E2C49887000BF00BFEE
:10077000962C01D103F03AF9062D3AD2DFE805F0C4
:10078000030C151E2730312C05D125A31822DC219E
:10079000722000F0C5FE2CE0312C05D120A31822D8
:1007A000DC21962000F0BCFE23E0312C05D11CA3F7
:1007B0001822DC21BA2000F0B3FE1AE0312C05D15A
:1007C00017A31822FA215A2000F0AAFE11E0312CBA
:1007D00005D113A31822FA217E2000F0A1FE08E023
:1007E000312C05D10EA31822FA21A22000F098FE88
:1007F00000BF00BF7CBD0000506C65617365205375
:1008000065742020202020202020202000000000CF
:10081000540000208400002094000020900000205C
:100820002020000010B5FF2000F024F80446552CCD
:1008300001D1002010BD5521FF2000F059F8FF2004
:1008400000F018F80446552C01D10020F2E70120F1
:10085000F0E770B506460C46154608E03046721CB7
:1008600096B200F007F804F8010B681E85B2002D5F
:10087000F4D170BD70B50446002600F0FFFB25469C
:10088000E11704EB11610912A02202EB4101C8B289
:1008900000F04AFB00F03EFCE11704EB1161091285
:1008A000A4EB0121C8B200F03FFB00F033FC00F0E4
:1008B000E5FBA12000F038FB00F02CFC002000F04C
:1008C000FDFA064600F000FC304670BD70B50546E6
:1008D0000C46164606E02178284600F009F8681C08
:1008E00085B2641C3000A6F101018EB2F3D170BD57
:1008F00070B504460E4600F0C1FB2546E11704EB37
:1009000011610912A02202EB4101C8B200F00CFBF8
:1009100000F000FCE11704EB11610912A4EB0121C6
:10092000C8B200F001FB00F0F5FB304600F0FCFA25
:1009300000F0F0FB00F0C8FB0A2004F09DF870BD49
:1009400010B500F04DFB10BD1CB50121402001F099
:10095000B5FC01208DF8040000208DF806008020F1
:10096000009001208DF8070002208DF805006946EF
:10097000034800F0F8F98021014800F068FA1CBD36
:100980000018024000BFFEE710B50246012000E05B
:1009900050430B00A1F10104E1B2F9D110BD704741
:1009A00010B588B004460121C80401F0A7FC01215C
:1009B000084601F083FC0121880301F0BFFC2748B1
:1009C00003F06EFB08220021254800F014FA0822EB
:1009D0000121234800F00FFA0320069002208DF831
:1009E0001C008DF81D0000208DF81E0001208DF8E0
:1009F0001F0006A91A4800F0B6F902940020ADF8CD
:100A00000C00ADF80E00ADF81000ADF814000C208D
:100A1000ADF8120002A9114803F016FC012240F2C1
:100A200025510E4803F0EBFB40210C4803F014FB6A
:100A300034208DF8040002208DF8050000208DF888
:100A4000060001208DF8070001A801F0BBFB012181
:100A5000024803F019FB08B010BD0000004C004034
:100A60000000024010B5402000F068F868B10A208C
:100A700004F002F84021194800F0E0F910B918A07C
:100A800003F0D8FD402000F053F8802000F056F825
:100A900068B10A2003F0F0FF8021104800F0CEF981
:100AA00010B915A003F0C6FD802000F041F84FF406
:100AB000807000F043F878B10A2003F0DDFF4FF4B6
:100AC0008071064800F0BAF910B912A003F0B2FD27
:100AD0004FF4807000F02CF810BD000000140240AC
:100AE0006B657933207465737420627920696E7444
:100AF0006572727570740A000A6B657932207465CC
:100B0000737420627920696E746572727570740AEC
:100B1000000000000A6B65793120746573742062EF
:100B20007920696E746572727570740A0000000035
:100B30000149086070470000143C01400146002054
:100B4000034A12680A400AB1012000E00020704701
:100B5000143C0140002123498279002A3AD00A46F8
:100B6000126803689A430B461A600A1D12680368EC
:100B70009A430B1D1A60027911440A6803681A43EC
:100B80000A60184A0832126803689A43154B083302
:100B90001A601A1D126803689A43124B0C331A60CC
:100BA0004279102A0ED11A1F126803681A430D4B9E
:100BB00008331A601A1D126803681A43094B0C3374
:100BC0001A600DE00749427911440A6803681A4324
:100BD0000A6005E0027911440A6803689A430A60D2
:100BE00070470000003C01400EB500F009FB0121F8
:100BF000880301F0A3FB0621052002F067FB082112
:100C0000052002F063FB0721052002F05FFB4FF493
:100C1000E070019000208DF808000C208DF809008C
:100C200001208DF80A0001A8FFF794FF17208DF826
:100C3000000003208DF8010002208DF80200012041
:100C40008DF80300684601F0BDFA0EBD51B1820077
:100C5000A2F1C042126842F001038200A2F1C04238
:100C6000136009E08200A2F1C0421268034B1A40EF
:100C70008300A3F1C0431A6070470000FEFF0F001D
:100C8000D0E901121143C26811430269114342695C
:100C9000114382691143C2691143026A1143426AD6
:100CA0001143826A1143C26A1143026B1143026805
:100CB0009200A2F1C0421160816808290BD101683D
:100CC0008900A1F1C041096841F040020168890032
:100CD000A1F1C0410A60416B0968426B526841EA68
:100CE0000211426B926841EA0221426B928941EA09
:100CF0000241426B128A41EA0251426B127D41EA83
:100D00000261426B926911430268521C9200A2F187
:100D1000C0421160C16AB1F5804F1BD1816B096877
:100D2000826B526841EA0211826B926841EA0221A9
:100D3000826B128A41EA0251826B127D41EA0261A2
:100D4000826B9269114302689200A2F1C042C2F81C
:100D5000041107E06FF0704201688900A1F1C04101
:100D6000C1F804217047F0B50A4600210023002491
:100D700000BF3DE0012505FA01F3156805EA03040B
:100D80009C4234D105684F000326BE40B543056040
:100D900015794E00B5400668354305601579012D7B
:100DA00002D01579022D16D185684F000326BE406A
:100DB000B543856055794E00B540866835438560FA
:100DC000456801268E40B5434560456896798E405A
:100DD000B6B235434560C5684F000326BE40B543F3
:100DE000C560D5794E00B540C6683543C560491C1D
:100DF0001029BFD3F0BDF0B5002300244D07ED0E40
:100E000002FA05F3CE1000F1200555F826504E07E2
:100E1000F70E0F26BE40B543CF1000F1200646F86E
:100E20002750CE1000F1200555F8265045EA03045E
:100E3000CE1000F1200545F82640F0BD0246002006
:100E400013690B400BB1012000E000207047418383
:100E5000704701837047000010B504460723012244
:100E600021460848FFF782FA0648FFF7DBFA00BF81
:100E700002210448FFF746FA0028F9D00148FFF79D
:100E80003DFA10BD002201402DE9F04107460C4615
:100E90000025002608E03846FFF7DEFF0544052060
:100EA00003F0EAFD701CC6B2A642F4DBB5FBF4F019
:100EB00080B2BDE8F08100BFFEE7000070B50546D6
:100EC00000241648006820F44020144908600846B1
:100ED00000680860002616E0002011490860022022
:100EE00003F0F0FD01200F49C1F8A0026006040ED6
:100EF0000B487C38006808B1601CC4B2012003F0C4
:100F0000E1FD701CC6B2082EE6DB15B900F08EF8C4
:100F100001E000F03DF8204670BD000000040240F2
:100F2000A08240420080404270B5044615480068E7
:100F300020F44020134908600846006840F48020EF
:100F40000860002010490860002517E0E0090E49FC
:100F5000091D08606006040E022003F0B3FD0120A5
:100F60000A49C1F8A002022003F0ACFD00200649A6
:100F70000860022003F0A6FD681CC5B2082DE5DB61
:100F800070BD000000040240A08240420080404248
:100F900010B500200F4908600F48006820F4402079
:100FA0000D4908600846006840F480200860002071
:100FB0000A49C1F8A402022003F084FD012005497A
:100FC0000860022003F07EFD00200449C1F8A00261
:100FD00010BD0000A0824042000402400080404258
:100FE0001CB50121022001F069F94FF44070009016
:100FF00001208DF8040000208DF8060003208DF8F4
:10100000050001208DF8070069460548FFF7ABFE93
:101010000120044908600449C1F8A4021CBD000075
:1010200000040240A08240420080404210B50020EF
:101030000F4908600F48006820F440200D490860FF
:101040000846006840F48020086001200A49C1F881
:10105000A402022003F036FD0120054908600220A9
:1010600003F030FD00200449C1F8A00210BD0000CB
:10107000A0824042000402400080404210B50F4868
:10108000006820F440200D4908600846006840F4DC
:101090008020086001200A4908600A49C1F8A002BE
:1010A000042003F00FFD002005490860042003F030
:1010B00009FD00200349C1F8A00210BD0004024050
:1010C000A48240420080404210B50F48006820F4DE
:1010D00040200D4908600846006840F48020086000
:1010E00000200A4908600A49C1F8A402042003F05C
:1010F000E9FC0120054908600549C1F8A402042063
:1011000003F0E0FC10BD000000040240A082404259
:101110000080404210B500241348006820F44020AD
:101120001149086008460068086001200F490860FE
:1011300003F0C8FC01200E49C1F8A00203F0C2FC74
:1011400007E0601CC4B2FA2C03DDFFF7BDFF0120ED
:1011500010BD0648803800680028F2D10349091FF5
:10116000086000BFF4E7000000040240A48240428F
:1011700000804042D321074A1180911C08880888CA
:1011800008884FF6FF7101EA0020911C0988084386
:1011900070470000FE1F006C4CF6CC40014908600F
:1011A00070470000003000404AF6AA20014908605C
:1011B000704700000030004001494860704700005F
:1011C0000030004001498860704700000030004056
:1011D00001490860704700000030004070B50546C6
:1011E0000C4645F25550FFF7F3FF2846FFF7E4FFA2
:1011F0002046FFF7E7FFFFF7D7FFFFF7CDFF70BDF2
:101200001CB50121202001F059F800208DF80400C0
:101210008DF806004FF47070009001208DF80700E3
:1012200002208DF8050069460148FFF79CFD1CBDB2
:101230000014024070B504460025002609480088C5
:101240000949098800FB01F60021084600F034FB3B
:1012500000F09EFB00BF02E0044804806D1CB54214
:10126000FAD370BD24010020260100200020006C6C
:1012700070B505460E4614463146284600F098F9EA
:101280000348008803490880881C048070BD000062
:1012900028010020FE1F006C2DE9FF4F074616466F
:1012A0001C46BB460C2C01D198460AE0102C01D1FB
:1012B000A04606E0182C02D14FF0300801E0BDE84E
:1012C000FF8FA6F12000C6B2002548E00C2C07D104
:1012D00006EB4600244901EB800010F8059010E071
:1012E000102C05D1214800EB061010F8059008E0FD
:1012F000182C06D106EB46001D4901EB001010F832
:1013000005904FF0000A24E009F0010030B11948BF
:10131000028838460199FFF7ABFF05E04BF61862EB
:1013200038460199FFF7A4FF4FEA6909781C87B294
:10133000A7EB0B0104EBD472B1EB620F05D15F4652
:101340000198401C80B2019006E00AF1010000F013
:10135000FF0ABAF1080FD7DB00BF681CC5B24545CC
:10136000B4DB00BFABE70000CC5D000840620008C2
:10137000306800081C0100202DE9FF4F04460F468D
:101380001E46A346182E02D14FF0480801E0BDE8E2
:10139000FF8F002532E0182E07D1029800EBC00025
:1013A000184901EBC00010F805904FF0000A1FE04B
:1013B00009F0010030B11448028839462046FFF791
:1013C00057FF05E04BF6186239462046FFF750FFFD
:1013D0004FEA6909601C84B2A4EB0B00182803D102
:1013E0005C46781C87B206E00AF1010000F0FF0AB3
:1013F000BAF1080FDCDB00BF681CC5B24545CADB8B
:1014000000BFC4E77C5600081C010020F0B505466B
:101410000F4616461C460DE02278334639462846CC
:10142000FFF7AAFFA81985B208480088854200DBAB
:101430000AE0241D2068002806DB2068642803DCFD
:101440002068401C0028E7D100BFF0BD2401002027
:101450002DE9FF4F81B0074690461E460E9CC346BD
:101460004FF0000906E00A20BBFBF0FB09F1010088
:1014700000F0FF09BBF1000FF5D1B14508DD26A34F
:1014800022463846029900F04BF805B0BDE8F08FCF
:1014900000253CE0A6EB0900A8421BDD0F9860B1D7
:1014A00004EBD471491001FB057188B22346302248
:1014B00000940299FFF7F0FE27E004EBD471491085
:1014C00001FB057188B22346202200940299FFF7A0
:1014D000E3FE1AE0701B401EC1B20A20FFF754FA67
:1014E000B8FBF0F00A21B0FBF1F201FB120A04EBA9
:1014F000D471491001FB057188B20AF13001CAB2FA
:10150000234600940299FFF7C7FE681CC5B2B54296
:10151000C0DB00BFB9E700004552524F5200000047
:10152000F0B506460F4615461C4611E022782B46BC
:1015300039463046FFF7B0FE284605EBD07106EB82
:1015400061018EB206480088864200DB06E0641C1A
:101550002078202802DB20787E28E7DD00BFF0BD60
:10156000240100202DE9F04F04460D4616461F4683
:10157000DDE909890C48B0F800A00C48B0F800B0CB
:101580000948A0F800800948A0F800903B46324680
:1015900029462046FFF7C4FF0348A0F800A00348EF
:1015A000A0F800B0BDE8F08F1C0100201E01002053
:1015B00030B504460D462946204600F07DF900F07E
:1015C000E7F9024800880249088030BD1C0100206C
:1015D0000020006C00B59FB00121782000F06EFE65
:1015E0000121084600F07AFE4FF480601D90012032
:1015F0008DF8780000208DF87A0002208DF87900AF
:1016000001208DF87B001DA97748FFF7ACFB4CF259
:1016100033701D9002208DF8780000208DF87A003C
:1016200003208DF8790001208DF87B001DA96F48FB
:10163000FFF799FB4FF680701D9002208DF878001F
:1016400000208DF87A0003208DF8790001208DF8B4
:101650007B001DA96648FFF786FB04201D90022031
:101660008DF8780000208DF87A0003208DF879003D
:1016700001208DF87B001DA95E48FFF774FB4FF435
:1016800080501D9002208DF8780000208DF87A009F
:1016900003208DF8790001208DF87B001DA95548A5
:1016A000FFF761FB0C2200215048FFF7A4FB0C223E
:1016B00001214E48FFF79FFB0C2204214B48FFF706
:1016C0009AFB0C2205214948FFF795FB0C220821C3
:1016D0004648FFF790FB0C2209214448FFF78BFB9B
:1016E0000C220A214148FFF786FB0C220E213F48BD
:1016F000FFF781FB0C220F213C48FFF77CFB0C22FB
:1017000007213B48FFF777FB0C2208213848FFF7F9
:1017100072FB0C2209213648FFF76DFB0C220A21CF
:101720003348FFF768FB0C220B213148FFF763FBBE
:101730000C2211462E48FFF75EFB0C220D212C488F
:10174000FFF759FB0C220E212948FFF754FB0C220E
:101750000F212748FFF74FFB0C2202212548FFF7F6
:101760004AFB0C2211462348FFF745FB0F20079048
:10177000002008903C20099000200A900B900C90CB
:101780000D9008200090002001900720029000207A
:10179000039004900590069006200E9000200F9074
:1017A000109010201190002012901490139015901A
:1017B00016904FF480501790002018904FF48040FE
:1017C000199000201A9007A81B90CDF870D00EA891
:1017D000FFF756FA01210620FFF738FA322003F00E
:1017E0004BF91FB000BD000000140240000C024085
:1017F000001002400018024030B58418641EA2B2E6
:10180000CC18641EA3B2264C24786CBB254C2488CB
:1018100041F66315AC4227D1234C2488A41A241A1C
:10182000A0B2CC18641EA3B2204C2488204D2C807A
:101830000412AD1C2C80C4B22C808418641EC4F326
:101840000F242C808418641EE4B22C80194C248848
:10185000AD1E2C800C12AD1C2C80CCB22C801C1226
:101860002C80DCB22C8019E0104C2488104D2C8088
:101870000412AD1C2C80C4B22C8014122C80D4B263
:101880002C800C4C2488AD1E2C800C12AD1C2C809E
:10189000CCB22C801C122C80DCB22C8030BD00001D
:1018A0002201002020010020240100202A01002024
:1018B000FE1F006C2C0100202E4A128849F2413391
:1018C0009A4212D12C4A12882C4B1A8002129B1C6D
:1018D0001A80C2B21A802A4A12889B1E1A800A12E3
:1018E0009B1C1A80CAB21A8042E0224A128841F632
:1018F00063139A423CD1234A12788AB9224A128849
:10190000521E121A90B21C4A12881C4B1A800022D6
:101910009B1C1A801A8002121A80C2B21A8013E02D
:10192000154A1288154B1A8002129B1C1A80C2B2EB
:101930001A80154A1288521EC2F30F221A80124AC8
:101940001278521ED2B21A800D4A12880B4B1A809E
:101950000A129B1C1A80CAB21A800C4A1288521EA4
:10196000C2F30F221A80094A1278521ED2B21A808C
:1019700070470000200100202A010020FE1F006C9B
:101980002C0100202201002024010020260100203B
:1019900002480088024908807047000028010020A2
:1019A000FE1F006C024A1080921C118070470000DC
:1019B000FE1F006C10B5FFF70DFEFFF7DBFBEB49D8
:1019C00008800846008849F24131884223D0A1208E
:1019D000E7490880881C0088E4490880E448801CA6
:1019E00000880880084600884FF6FF7101EA002051
:1019F000DE490880DE48801C008809880843DB49EE
:101A000008800846008845F26171884203D141F69A
:101A10006310D6490880D548008849F24131884290
:101A20001CD1D448006820F00F004FF02041C1F8CD
:101A30001C010846D0F81C0120F47060C1F81C019C
:101A40000846D0F81C0140F00300C1F81C0108460C
:101A5000D0F81C0140F40070C1F81C01C348008894
:101A600049F2413188427DD1CF20C1490880002010
:101A7000891C0880C120088030200880ED20891E44
:101A800008806420891C08800320088012200880B8
:101A900081200880E820891E08808520891C088014
:101AA000102008807A200880CB20891E08803920E9
:101AB000891C08802C2008800020088034200880A1
:101AC00002200880F720891E08802020891C0880B9
:101AD000EA20891E08800020891C08800880C02018
:101AE000891E08801B20891C0880C120891E08804F
:101AF0000120891C0880C520891E08803020891C8F
:101B000008800880C720891E0880B720891C0880AB
:101B10003620891E08804820891C08803A20891EAA
:101B200008805520891C0880B120891E088000206B
:101B3000891C08801A200880B620891E08800A2087
:101B4000891C0880A2200880F220891E08800020BD
:101B5000891C08802620891E08800120891C088095
:101B6000E02000E060E0891E08800F20891C0880CA
:101B70002A20088028200880082008800E2008805D
:101B80000820088054200880A9200880432008806D
:101B90000A2008800F200880002008800880088024
:101BA0000880E120891E08800020891C08801520FB
:101BB0000880172008800720088011200880062050
:101BC00008802B200880562008803C2008800520B3
:101BD0000880102008800F2008803F20088008809F
:101BE0000F2008802B20891E08800020891C088077
:101BF0000880012008803F2008802A20891E088054
:101C00000020891C088008800880EF2008801120AF
:101C1000891E0880782002F02FFF2920544908806F
:101C200001205549086098E05048008841F663114A
:101C30008842F8D1E2204E4908801D20891C088086
:101C40000220088004200880642002F03BFFE0208E
:101C5000474908800120891C08800A2002F00CFFF7
:101C6000E020434908800320891C08800C2002F0F2
:101C700003FF01203E4908800A2002F0FDFEE62015
:101C80003B4908802F20891C0880FF20088008809D
:101C9000B020891E08802020891C08800020088030
:101CA0000320088040F21F3008800120088040F2A5
:101CB000DF10088000200880B420891E08800420DE
:101CC000891C088040F21F400880002008802E20D8
:101CD000088000200880088008800880B620891EBF
:101CE00008800220891C08804FF4037008800020BF
:101CF00008801720088015200880002008800880B0
:101D0000F020891E08800320891C08802920891E54
:101D10000880D02008800020891C0880BE20891EF1
:101D200008800520891C0880FE200880012008808A
:101D30000020088008800880B820891E08800320C1
:101D4000891C088001200880BA20891E0880012093
:101D5000891C0880FF2001F037FC002001F04CFBBB
:101D60004FF6FF70FFF766FA10BD0000200100205B
:101D7000FE1F006C1C0100A0A882424270B58EB00C
:101D8000002500244FF478404F4908805F252F2418
:101D90004E4840788DF834004C4880788DF83500F6
:101DA000214628460DAB1822FFF7BAFB214605F164
:101DB000180018231322FFF7DFFA00BF502443480E
:101DC00000798DF83400414840798DF8350021467E
:101DD00028460DAB1822FFF7A3FB214605F118009A
:101DE00018231422FFF7C8FA00BF71243748C079BE
:101DF0008DF834003548007A8DF8350021462846A4
:101E00000DAB1822FFF78CFB214605F118001823B3
:101E10001422FFF7B1FA214605F1300018232822D9
:101E2000FFF73AFA9DF8350030389DF83410303914
:101E300001EB810100EB4106002E0ADB282E08DCB5
:101E4000A1B205F13C0290B218231522FFF794FAD3
:101E500018E0282E0ADD462E08DCA1B205F13C026E
:101E600090B218231622FFF787FA0BE0462E09DD01
:101E7000642E07DCA1B205F13C0290B218231722B0
:101E8000FFF77AFAA1B205F1540290B21823292281
:101E9000FFF702FA052540F227140CA9002000F0F4
:101EA000C7FB9DF8320000909DF831309DF833203B
:101EB00007A102A802F0CEFB2146284602AB182259
:101EC000FFF72EFB0EB070BD1C010020100000209B
:101ED0003230253032642D253032642D2530326485
:101EE0000000000030B591B0002400258E2440F29F
:101EF00027150EA9002000F0D5FB9DF83A000090B0
:101F00009DF839309DF8382047A104A802F0A2FBC3
:101F10009DF83800002807DB9DF83800052803DC11
:101F200001204549087002E00020434908704348F9
:101F3000007828B9A9B2A0B204AB1822FFF7F0FAD2
:101F40003F480078B0B9012210A90420FEF781FCB7
:101F50009DF84000012802D09DF8400038B90120CA
:101F600038490870122238490520FEF772FC01201A
:101F70003349087033480078012852D19DF83A005F
:101F80009DF839109DF83820304B9B78CDE9003210
:101F9000CDE902102D484378C2782DA104A802F0A3
:101FA00059FB04A92848FEF724F9002839D1012259
:101FB0000FA90420FEF74DFC9DF83C00012811D12B
:101FC0002B48007818BB2BA002F034FB03F02EFB4B
:101FD00001202749087018231A468F218C20FFF70B
:101FE000CBF914E09DF83C0088B92148007801281D
:101FF0000DD127A002F01EFB02F01AFD00201C49A3
:102000000870182319228F218C20FFF7B5F90320BF
:102010000F9001220FA90420FEF758FC0020094967
:10202000087011B030BD0000253032643A253032DE
:10203000643A253032640000980000200C00002033
:10204000990000200D00002058010020940000207D
:102050003230253032642D253032642D2530326403
:10206000253032643A253032643A2530326400003B
:102070000F0000206F70656E206F7065726174696B
:102080006F6E20696E2073657474696D65200A0037
:10209000636C6F7365206F7065726174696F6E2019
:1020A0000A0000001CB50121502000F007F918209B
:1020B000009001208DF8040000208DF80600032018
:1020C0008DF8050001208DF8070069460F48FEF7DE
:1020D0004AFE4FF40070009001208DF804000020AB
:1020E0008DF8060003208DF8050001208DF807000B
:1020F00069460748FEF737FE18210448FEF7A9FE97
:102100004FF400710248FEF7A4FE1CBD001002400F
:102110000018024000BFFEE73EB541F6FF74012102
:10212000080700F0EBF8012000F092F8002000F022
:1021300055FB45F2300188423BD0012000F0B2F956
:1021400004E0601C84B20A2002F096FC412000F0FA
:1021500089F90028F5D00CB901203EBD4FF48070FC
:1021600000F0BCF9012000F0B3F97F200190FF20BE
:10217000029000200090684600F0FEFA04200E490C
:1021800008703A20487032208870002000F09AFBD6
:1021900016200A4988700220487006200870202006
:1021A000C870012000F02AFB45F23001002000F049
:1021B000D9FC0020D1E7000090000020940000200E
:1021C0007047000070B5002100230F22C4781CB3B3
:1021D000174C246804F4E064C4F5E064C4F30721F8
:1021E000C1F10404E3B20A4144789C40E1B284782E
:1021F000144021430C07210E0E4C057861550478DC
:1022000004F01F050124AC4005786D11AD0005F107
:10221000E025C5F8004109E0047804F01F05012419
:10222000AC40054D0678761145F8264070BD00009B
:102230000CED00E000E400E080E100E00249014331
:10224000024A1160704700000000FA050CED00E042
:10225000014908627047000000000E42704700000C
:102260001CB50121042000F029F84FF480500090A3
:1022700000208DF8040002208DF8050000208DF864
:10228000060002208DF8070069460248FEF76BFD44
:102290001CBD00000008024010B507480068012876
:1022A00007D10A2002F0E8FB03480068012800D1AA
:1022B00010BD0020FCE700003002414229B1064A6F
:1022C00012680243044B1A6004E0034A1268824316
:1022D000014B1A60704700003038024029B1064AAD
:1022E00012680243044B1A6004E0034A12688243F6
:1022F000014B1A60704700003838024029B1064A85
:1023000012680243044B1A6004E0034A12688243D5
:10231000014B1A60704700004038024029B1064A5C
:1023200012680243044B1A6004E0034A12688243B5
:10233000014B1A60704700002038024029B1064A5C
:1023400012680243044B1A6004E0034A1268824395
:10235000014B1A60704700004438024029B1064A18
:1023600012680243044B1A6004E0034A1268824375
:10237000014B1A607047000024380240F0B500217C
:1023800000220024022500260223324F3F6807F076
:102390000C0121B1042905D0082937D105E02E4FC1
:1023A000076036E02D4F076033E02A4F3F1F3F683C
:1023B000C7F38056274F3F1F3F6807F03F036EB1BA
:1023C000264FB7FBF3F7DFF88CC0ACF1040CDCF858
:1023D00000C0CCF3881C07FB0CF40CE01E4FB7FBCD
:1023E000F3F7DFF870C0ACF1040CDCF800C0CCF3FC
:1023F000881C07FB0CF4174F3F1F3F68C7F30147CA
:102400007F1C7D00B4FBF5F7076002E0124F076008
:1024100000BF00BF0F4F3F6807F0F0010909104FE0
:102420007A5C0768D74047600A4F3F6807F4E0517D
:10243000890A0B4F7A5C4768D7408760054F3F6831
:1024400007F46041490B064F7A5C4768D740C76084
:10245000F0BD0000083802400024F40000127A00A9
:102460007400002010B501460022002300204A110C
:10247000012A02D10A4C236808E0022A03D1084C41
:102480007034236802E0064C7434236801F01F02A4
:10249000012494401C400CB1012000E0002010BD3C
:1024A000003802400021094A11701170012802D041
:1024B000042808D103E00121044A117004E0052139
:1024C000024A117000E000BF00BF70477038024040
:1024D00001490860704700003C0E4742002100F4AB
:1024E0004072B2F5407F08D1094A116821F4F81111
:1024F000084A02401143064A1160054A68321268D0
:10250000C0F30B031A43024B68331A607047000094
:1025100008380240FFFCFF0F10B54FF4807000F048
:10252000ADF801280DD1000200F032F807A002F04A
:1025300081F80948006808B9012000E00020064938
:1025400008604FF40030FEF7F3FA10BD414C4152E1
:102550004D2041210D0A0000A4024342014600BF64
:10256000080900EB8000420001F00F001044C0B2E7
:1025700070470146002204E0501CC2B2A1F10A00DB
:10258000C1B20A29F8DA100741EA1060704700006A
:1025900081B241F08001044A126802F0800262EACE
:1025A0000101014A116070470C2800400021010917
:1025B0008AB242F08002044B1B6803F0800363EA96
:1025C0000202014B1A6070470C28004008B5002237
:1025D000009200200021104A126802F04002CAB99D
:1025E000421E0D4B1A6000BF0B4A126802F04001F8
:1025F000009A521C0092009AB2F5803F01D0002947
:10260000F2D0054A126802F040020AB1012002E04D
:10261000002000E0012008BD0C28004003480068AD
:1026200020F0800001490860704700000C2800403D
:1026300070B506460C4600250E4800680E4900EAB3
:102640000105280CE070C5F30420607005F03F0020
:10265000A070C5F3423020705EB9E078FFF77EFFCE
:10266000E0706078FFF77AFF6070A078FFF776FF80
:10267000A07070BD042800403FFFFF0010B5014668
:1026800000200022054B1B68054C03EA040202EA05
:1026900001030BB1012000E0002010BD0C28004018
:1026A0007F3F010070B506460C4600250F480068C4
:1026B0000F4900EA0105C5F305402070C5F3062067
:1026C000607005F07F00A07005F48000000CE070E1
:1026D0005EB92078FFF742FF20706078FFF73EFF79
:1026E0006070A078FFF73AFFA07070BD002800402E
:1026F0007F7F7F0010B5044604492046FFF798FF0E
:1027000003492046FFF7CEFF10BD000094000020D3
:1027100090000020CA22174B1A6053221A6091B110
:10272000144A1C3A126820F004031A43114B1C3B54
:102730001A60104A1C32126800F004031A430D4B51
:102740001C331A6011E00B4A1C3A126820F0040393
:102750009A43084B1C3B1A60064A1C32126800F070
:1027600004039A43034B1C331A60FF22014B1A6087
:10277000704700002428004030B504460025CA20D8
:102780001549086053200860FFF720FF00B91DE0DD
:1027900011481C38006820F040000F491C390860BF
:1027A00008460068216808430B491C3908600A493B
:1027B0001439A068086008460068A18840EA014012
:1027C000054914390860FFF729FF0125FF20024958
:1027D0000860284630BD00002428004008B50146A6
:1027E0000020009004480090009800EB81000090C9
:1027F0000098006808BD0000502800402DE9F04115
:1028000005460C46002600274DB9607800F0100000
:10281000102804D1607820F010000A30607005B9EB
:1028200008E06078FFF79AFE0646A078FFF796FE6C
:10283000064600BF55B1E0780004617840EA012007
:10284000A1780843217840EA413611E0E078FFF7AB
:1028500090FE4FEA00486078FFF78BFE48EA0028B8
:10286000A078FFF786FE48EA0008207848EA40365C
:10287000CA201249086053200860FFF7A7FE08B974
:10288000002714E00E4830400C4920390860FFF75B
:10289000C5FE0A481C38006800F0200030B900F07E
:1028A000DDF808B9002702E0012700E00127FF203A
:1028B000024908603846BDE8F08100002428004045
:1028C0003FFFFF002DE9F04105460C46002600279A
:1028D0004DB92E48006800F0400000B102E0002031
:1028E000E07000BF0DE02948006800F0400020B112
:1028F0002078FFF733FE064602E00020E07000BFBC
:1029000000BF55B120780004617840EA0120A17829
:102910000843E17840EA014611E02078FFF729FEFC
:102920004FEA00486078FFF724FE48EA0028A078C4
:10293000FFF71FFE48EA0008E07848EA0046CA2090
:1029400012491C31086053200860FFF73FFE08B9A8
:10295000002713E00E4830400C4908390860FFF7A3
:102960005DFE0A48006800F0200030B900F076F8FB
:1029700008B9002702E0012700E00127FF200349F2
:102980001C3108603846BDE8F0810000082800408E
:102990007F7F7F00CA21054A1160532111600349DE
:1029A00010390860FF2111607047000024280040A2
:1029B0003EB505460C46002000F098F8284600F089
:1029C0007DF82046FFF7E6FF4FF48040FFF7EEFD6D
:1029D0004FF48000FEF7ACF801218803FFF79AFE60
:1029E000012000F083F84FF48000019000208DF862
:1029F000080008208DF8090001208DF80A0001A8C0
:102A0000FEF7A8F803208DF8000002208DF80100E1
:102A10008DF8020001208DF803006846FFF7D2FB15
:102A20003EBD000010B54FF48060FFF727FE01287F
:102A30000CD18002FFF7ACFDFFF754FA064800689E
:102A400008B9012000E00020034908604FF480002D
:102A5000FEF76EF810BD00008C02424208B500225D
:102A6000009200200021CA22134B1A6053221A60E0
:102A7000114A183A126822F0A0020F4B183B1A6054
:102A800000BF0D4A183A126802F02001009A521C49
:102A90000092009AB2F5003F01D00029F1D0064A19
:102AA000183A126802F020020AB1012000E000206A
:102AB000FF22014B1A6008BD24280040CA210A4A9F
:102AC00011605321116008491C39096821F0070180
:102AD000054A1C3A11601146096801431160FF2143
:102AE000014A1160704700002428004018B50146D3
:102AF0000023009300220020CA23194C2360532393
:102B0000236049B1164B1C3B1B6843F48063144C93
:102B10001C3C236001201FE0114B1C3B1B6823F46D
:102B200080630F4C1C3C236000BF0D4B183B1B689F
:102B300003F00402009B5B1C0093009BB3F5803FF5
:102B400001D0002AF1D0064B183B1B6803F00403A8
:102B50000BB9002000E00120FF23014C236018BDC9
:102B60002428004008B500220092044A0092009AEE
:102B700002EB80020092009A116008BD50280040CC
:102B80002DE9F04104460D460A48007800F076F839
:102B900006460948007800F071F80746322E01DB3E
:102BA000322F02DA0020BDE8F08126802F8001203C
:102BB000F9E7000038010020390100207FB5044604
:102BC0000D4602A903A8FFF7DBFF064616B9002051
:102BD00004B070BD694601A8FFF7D2FF06460EB9E2
:102BE0000020F5E7BDF80400BDF80C10884206DCB3
:102BF000BDF80C10BDF80400323081420CDBBDF88A
:102C00000C00BDF80410884236DCBDF80410BDF895
:102C10000C00323081422FDABDF80000BDF80810F8
:102C2000884206DCBDF80810BDF800003230814251
:102C30000CDBBDF80800BDF8001088421CDCBDF8B4
:102C40000010BDF808003230814215DABDF80C10D2
:102C5000BDF80420881800EBD071C1F34F0121802A
:102C6000BDF80810BDF80020881800EBD071C1F342
:102C70004F0129800120ABE70020A9E72DE9FE43A1
:102C800080460027002406E0404600F0ADFA2DF80B
:102C90001400601C84B2052CF6DB002416E0601CD6
:102CA00085B20FE03DF814003DF81510884207DDAD
:102CB0003DF814603DF815002DF814002DF815604E
:102CC000681C85B2052DEDDB601C84B2042CE6DBAC
:102CD0000027012405E03DF81400384487B2601C49
:102CE00084B2042CF7DB032097FBF0F086B2304669
:102CF000BDE8FE8370B505462846FDF773FA86B237
:102D000000240CE000BF4021064801F041FA0028F1
:102D1000F9D0295D034801F006FB601C84B2B4427F
:102D2000F0DB70BD004C00402DE9F04FADB0002746
:102D3000062500264FF0000828210FA8FDF747FAC6
:102D4000032004904FF0FF3903904FF47840F0498E
:102D500008800020FFF7CEFC00F048FEED4A00217D
:102D6000084601F0CDFF012203A90420FDF771FD03
:102D70009DF80C00012802D09DF80C0058BB0A22D7
:102D800005A90520FDF765FD642001F075FE082208
:102D90000FA90F20FDF75DFD4FF6FF701F2105AB5A
:102DA0001822CDE9001039214620FEF7DBFB4FF653
:102DB000FF701F210FAB1822CDE9001051214620D2
:102DC000FEF7D0FB9DF80C0030B9182319226C21B6
:102DD0006E20FEF7D1FA09E09DF80C00012805D11C
:102DE00018231A466C216E20FEF7C6FA8AE10020ED
:102DF00002F006F8701CC6B2002001F097FBC6482E
:102E00000068012800D160E0C4480088002812DD75
:102E1000C248008824280EDAC148008800280ADD4C
:102E2000BF480088262806DAC82001F025FE0020C9
:102E3000BC49087067E1B94800881E2816DDB7480C
:102E40000088562812DAB648008891280EDDB4486A
:102E50000088B7280ADAC82001F00EFE18231A46A7
:102E60006C216E20FEF788FA01200490AB480088A0
:102E70009A2816DDA9480088D22812DAA8480088C6
:102E800091280EDDA6480088B7280ADAC82001F08C
:102E9000F3FD182319226C216E20FEF76DFA002035
:102EA00004909E480088C52822DD9C480088F028B0
:102EB0001EDA9B48008800281ADD994800882B28D4
:102EC00016DAC82001F0D8FD00BF00209249086042
:102ED000904A0021084601F013FF002703200290CA
:102EE000012202A90420FDF7F1FC00208E490870A0
:102EF00017B1012F09D118E08C480078042805D1BA
:102F00008B480088FA2801DD0127F7E0322096FB84
:102F1000F0F100FB116038B9B8F1000F04D10020C6
:102F2000FFF7E8FB00F062FDE8E082480078032844
:102F300004D1681CC5B2052D00DD002531462846A8
:102F4000FDF7B8FA7B48007804287DD100F0B2FD87
:102F500079488078009078484378C27877A105A8AE
:102F600001F078FB7A4880780090794843780278BD
:102F700078A10FA801F06EFB0020FFF7BBFB6E48A5
:102F8000807800906C484378C2786CA123A801F047
:102F900061FB6F48807800906D48437802786DA19E
:102FA00019A801F057FB23A905A8FDF722F900286D
:102FB00002DD4FF0010938E023A905A8FDF719F952
:102FC000F0B919A90FA8FDF714F9002802DD4FF098
:102FD00001092AE04FF6FF701F2162A31822CDE9F4
:102FE00000104FF48C711E20FEF7BCFA002404E0A0
:102FF0000A2001F041FD601CC4B2C82CF8DB14E0CB
:103000004FF6FF701F215CA31822CDE900104FF48A
:103010008C711E20FEF7A6FA002404E00A2001F0BD
:103020002BFD601CC4B2C82CF8DBB9F1010F64D1D0
:103030009DF81000032846D09DF8101053A001F011
:10304000F9FA4FF6FF7000E057E01F2159A318224C
:10305000CDE900104FF48C711E20FEF783FA012297
:1030600004A90420FDF732FC05A8FDF7BBF81FFA00
:1030700080FA524605A90520FDF728FC322001F010
:10308000FBFC0FA8FDF7AEF81FFA80FA52460FA915
:103090000F20FDF71BFC322001F0EEFC05A8FDF728
:1030A000A1F883460FA8FDF79DF858441FFA80FA4F
:1030B000524646490520FDF7CCFB01201A4908700D
:1030C000002500271AE04FF6FF701F2140A31822A9
:1030D000CDE900104FF48C710020FEF743FA002474
:1030E00004E00A2001F0C8FC601CC4B2C82CF8DB64
:1030F000084A0021084601F003FE00BF00BF05207A
:1031000001F0BAFC73E600BF2DB0BDE8F08F0000FF
:103110001C010020007A0008080000203001002077
:10312000320100200C0000200D000020880000204B
:1031300086000020840000209400002032302530DA
:1031400032642D253032642D2530326400000000B9
:1031500090000020253032643A253032643A253020
:1031600032640000506C656173652052657365744C
:103170002074696D65000000506C656173652052B4
:103180006573657420646174650000007365742064
:10319000616E642063686F6F7365206F6BA3AC63AF
:1031A00075727461696E5F7374617475733D202507
:1031B00064200A0041646A7573742054494D204F9D
:1031C0004B202020202020202020200058010020FB
:1031D000506C656173652063686F6F7365206F6EF7
:1031E0002F6F66660000000070B5064600250024BB
:1031F00000201E4908601E49C1F884021D4908606C
:10320000304600F03BF8062001F05CFC00201A4933
:10321000C1F89402012001F055FC01201349086017
:1032200001F050FC00201449C1F8940200BF15E0E1
:103230004FF6FF7000EA440400200C4908600120AA
:1032400001F040FC01200C49C1F89402094878388B
:10325000006808B1601C84B2681CC5B2102DE7DBA1
:103260002411012003490860204670BD94024042A9
:1032700000804042808240420000404270B50446D7
:10328000002500BF17E004F0800018B101200B49B1
:10329000086002E00020094908606006040E002072
:1032A00007490860012001F00DFC01200549C1F823
:1032B0009402681CC5B2082DE5DB70BD84824042D3
:1032C00094024042000040427047000030B50022A6
:1032D0008B071C0F0F2303FA04F20B4B8C1053F8CF
:1032E00024309343084C8D1044F8253023468C102D
:1032F00053F824308C07240F00FA04F42343024CC3
:103300008D1044F8253030BD083801400CB5002040
:10331000019000903448006840F4803032490860E1
:1033200000BF3148006800F4003000900198401C54
:103330000190009818B90198B0F5A04FF1D12A4832
:10334000006800F4003010B10120009001E000207E
:1033500000900098012846D123484030006840F092
:1033600080502149403108602048006840F44040C6
:103370001E4908601C48083000681B490831086075
:103380000846006840F4004008600846006840F4C1
:10339000A05008601648091F0860081F006840F028
:1033A0008070091F086000BF0F48006800F00070BF
:1033B0000028F9D040F205700E4908600A4808302C
:1033C000006820F0030008490831086008460068DA
:1033D00040F00200086000BF03480830006800F0B9
:1033E0000C000828F8D10CBD0038024000700040E5
:1033F00008544007003C024010B504468CBB002036
:10340000334908703348008849F24131884210D16D
:103410002C20314908802A20304908802B2030494F
:103420000880F0202F4908804FF4A0702E490880B2
:1034300049E02848008841F66311884243D12C2096
:10344000254908802B20254908802A202449088006
:103450004FF4F070234908804FF4487022490880E7
:1034600031E0FFE701201A4908701A48008849F244
:103470004131884210D12C20174908802A20174951
:1034800008802B20164908804FF4A0701549088049
:10349000F0201549088016E00E48008841F66311B7
:1034A000884210D12C200C4908802A200B49088022
:1034B0002B200B4908804FF448700A4908804FF4CC
:1034C000F07009490880002000F010F810BD0000DD
:1034D0002201002020010020280100202A010020D4
:1034E0002C010020240100202601002070B5054693
:1034F0000024002630480078012805D12F48008894
:1035000049F24131884208D02B480078F0B92B4865
:10351000008841F66311884218D1082D15D2DFE8E2
:1035200005F00406080A0C0E101206250DE007250A
:103530000BE0042509E0052507E0012505E000254D
:1035400003E0032501E0022500BF00BF082D1CD2C7
:10355000DFE805F00406090C0F12151800BF14E08F
:1035600044F0800411E044F040040EE044F0C00454
:103570000BE044F0200408E044F0600405E044F06F
:10358000A00402E044F0E00400BF00BF36260B4870
:10359000008849F24131884201D144F008042146B3
:1035A0003046FEF7FFF906480388064802880021E6
:1035B0000846FEF721F970BD2201002020010020FD
:1035C0002601002024010020BE21074A1180052188
:1035D000921C11801146088001211180FF21118069
:1035E0000021118011807047FE1F006C042808D153
:1035F0004FF0E021096941F004014FF0E022116130
:1036000007E04FF0E021096921F004014FF0E022CA
:103610001161704702480068401E01490860704708
:103620007000002010B51548006840F47000134980
:1036300008601348006840F001001149086000204C
:103640000F49083108600E4800680E4908400C49CF
:1036500008600D48091D0860081F006820F48020DC
:10366000091F0860002006490C310860FFF74EFE74
:103670004FF0006001498039086010BD88ED00E01E
:1036800000380240FFFFF6FE1030002410B504465B
:103690006FF00400FFF7AAFFE11704EB5171C1F3CB
:1036A000C701074A11701046007800EB4001C1EBDA
:1036B000C0104FF6FF7101EAC0000249088010BD3A
:1036C0004E0100205001002010B50121880700F0B4
:1036D00030F9012810D10B480068401C18B90120AE
:1036E0000849086008E008A000F0A4FF0CA0FFF75C
:1036F00001FB00200B4908600121880700F00AF94E
:1037000010BD000050000020BCECB2E2CAA7B0DC43
:1037100020C6F4B6AFBFB4C3C5B9B70A00000000F5
:103720002B2B2B00340000207FB505460C460121D1
:103730000846FEF7E3FD0295ADF804400020ADF821
:103740000600ADF80C0001A94FF0804000F00CF924
:103750001C208DF8000001208DF8010002208DF85A
:10376000020001208DF803006846FEF72BFD0121C1
:10377000880700F0D2F801221146900700F0EAF81D
:103780000121880700F0C6F87FBD000010B50121B7
:103790001D4800F0CEF8012830D11C48006820B93F
:1037A0001B480068401C1A49086019480068022834
:1037B0000AD140F6C4110420FDF710FD0120134981
:1037C000086000201249086012480068012815D1DD
:1037D00011480068401C10490860084600680A2823
:1037E0000CD1002008600D4801F0A8F90B48FFF744
:1037F00081FA0B48007808B9FEF7C0FA01210248A7
:1038000000F088F810BD00000004004048000020CF
:1038100044000020340000204C0000201000002054
:103820000C0000207FB505460C4601210220FEF762
:1038300065FD0295ADF804400020ADF80600ADF836
:103840000C0001A90F4800F08FF81D208DF8000032
:1038500001208DF8010003208DF8020001208DF871
:1038600003006846FEF7AEFC0121064800F055F85B
:1038700001221146034800F06DF80121014800F0D3
:1038800049F87FBD0004004010B50121074800F051
:1038900050F8012805D106480068012801D101F03F
:1038A00037F90121014800F035F810BD000800404B
:1038B000340000207FB505460C4601210420FEF7A8
:1038C0001DFD0295ADF804400020ADF80600ADF8EE
:1038D0000C0001A90E4800F047F81E208DF80000EA
:1038E00001208DF801008DF802008DF80300684674
:1038F000FEF768FC0121064800F00FF8012211468E
:10390000034800F027F80121014800F003F87FBDCB
:1039100000080040CA430282704721B1028842F089
:103920000102028004E002884FF6FE731A40028012
:10393000704730B50246002000230024158A05EAAE
:103940000103958905EA010413B10CB1012000E0DF
:10395000002030BD1AB183890B43838102E0838943
:103960008B4383817047000000220288184B9842E5
:103970000ED0184B98420BD0B0F1804F08D0164BA8
:10398000984205D0154B984202D0154B984204D16D
:103990004FF68F731A404B881A43124B984207D048
:1039A000114B984204D04FF6FF431A400B891A433B
:1039B00002804B68C3620B880385054B984202D096
:1039C000044B984201D18B7A03860123838270478E
:1039D00000000140000401400004004000080040D5
:1039E000000C004000100040001400401CB527A34C
:1039F0001822DC211E20FDF793FD01201821CDE9BE
:103A000000102648C2780223DC217220FDF720FD39
:103A100001201821CDE90010204842780223DC2142
:103A20009620FDF715FD01201821CDE900101B4857
:103A300082780223DC21BA20FDF70AFD18A31822A0
:103A4000FA211E20FDF76CFD01201821CDE90010A0
:103A5000174802780223FA215A20FDF7F9FC0120C9
:103A60001821CDE90010124842780223FA217E2065
:103A7000FDF7EEFC01201821CDE900100C488278FA
:103A80000223FA21A220FDF7E3FC1CBD446174650A
:103A90003A323020202D20202D20200094000020BC
:103AA00054696D653A20203A20203A202000000019
:103AB000900000201CB527A3182239214620FDF7CD
:103AC0002FFD01201821CDE900102548C2780223DE
:103AD00039215E20FDF7BCFC01201821CDE9001042
:103AE0001F484278022339218220FDF7B1FC0120D2
:103AF0001821CDE900101A48827802233921A62026
:103B0000FDF7A6FC17A3182251214620FDF708FD5A
:103B100001201821CDE90010154802780223512117
:103B20004620FDF795FC01201821CDE90010104832
:103B30004278022351216A20FDF78AFC01201821D6
:103B4000CDE900100A488278022351218E20FDF72A
:103B50007FFC1CBD323020202D20202D2020000095
:103B60009400002020203A20203A2020000000006D
:103B70009000002010B50448008849F24131884285
:103B800001D100F057FC10BD2001002010B588B015
:103B9000044601210846FEF791FB01211020FEF7A3
:103BA000CDFB01218803FEF7C9FB0722092122482A
:103BB000FDF721F907220A211F48FDF71CF94FF4F0
:103BC000C060069002208DF81C008DF81D000020BA
:103BD0008DF81E0001208DF81F0006A91648FDF77C
:103BE000C2F802940020ADF80C00ADF80E00ADF85C
:103BF0001000ADF814000C20ADF8120002A90F4817
:103C000000F022FB25208DF8040002208DF805002D
:103C10008DF8060001208DF8070001A8FEF7D2FA02
:103C2000012240F22551054800F0E9FA012103483C
:103C300000F02AFA08B010BD000002400010014058
:103C4000F8B500250520009040F22551BA4800F053
:103C5000ACFA002874D0B84800F060FB044600BFFE
:103C60004021B64800F094FA0028F9D02146B34824
:103C700000F059FBB2480068E0B93E2C19D1002091
:103C8000B04908600120AE49086000F041FF42F2EF
:103C9000CF0149F63F40FFF70DFE42F2CF0142F25D
:103CA0000F70FFF7BFFD0020A74908600120A7495A
:103CB00008603AE1A24800680128FAD1A4480078D7
:103CC00010B1012841D141E07B2C0DD1A148006801
:103CD00008B9012000E000209E4908609C48007857
:103CE000401C9B49087030E09B499C4A12688C54E8
:103CF0009A480068401C9949086008460068401EC0
:103D00009549085C6B2820D100219348934A12689A
:103D1000815493A1FCF76DFAB8B900208F4908606F
:103D20008D490870487088708E48006848B9012035
:103D30008C49086042F2CF018B48FFF7F5FC04E0A4
:103D4000F8E000204FF080414862EDE08248834A6D
:103D50001268845481480068401C80490860084605
:103D60000068401E7C49085C7D286FD100217B489B
:103D70000068401E784A11547648001D006808B952
:103D8000012000E000207349091D08607248FCF71B
:103D900029FA06463246704974A000F04BFC7AA11D
:103DA0006D48FCF726FAF0B9012269460320FCF7BA
:103DB00050FD9DF80000002814D1754800780028B7
:103DC000FAD101207249087018231A468F218C20DD
:103DD000FDF7D2FA01F02AFC01206D4908706DA0B0
:103DE00000F028FC92E072A15B48FCF702FAD8B917
:103DF000012269460320FCF72CFD9DF800000028F5
:103E0000F0D1634800780128ECD1002060490870A7
:103E1000182319228F218C20FDF7AEFA00F008FE3E
:103E200066A000F007FC71E06BA14B48FCF7E1F9DC
:103E300068B9012269460320FCF70BFD9DF80000DC
:103E4000002863D10120674908605FE06BE066A14C
:103E50004148FCF7CEF958B9012269460320FCF726
:103E6000F8FC9DF80000012850D15E4908604DE043
:103E700060A13948FCF7BDF9002847D060A1364859
:103E8000FCF7B7F960B90420009001226946FCF7FD
:103E90001DFD5E480078012838D15D49086035E095
:103EA0005CA12D48FCF7A5F970B918231A464FF408
:103EB0008471CD20FDF760FA012059490870012274
:103EC0000220FCF703FD21E056A12348FCF791F9FD
:103ED00070B9182319224FF48471CD20FDF74CFAE4
:103EE00000204F49087001220220FCF7EFFC0DE092
:103EF0004FA11948FCF77DF940B9504800F01EFE6B
:103F00004E48FEF7F7FE4EA000F094FB002503E0BC
:103F10000020114948556D1C322DF9DB00200F4956
:103F200008600B49087000BF00BF40F225510248ED
:103F300000F09BF8F8BD0000004C0040001001406C
:103F400030000020A402434224040040340000203A
:103F5000400000208C0242426A0100202C00002018
:103F60006F6B000038000020DF2202006F72646572
:103F7000722066726F6D20736572766572203D20C7
:103F800025733D2564200A00637572745F6F6E00AF
:103F90000F000020206F70656E2063757274616978
:103FA0006E2066726F6D207365727665720A00000E
:103FB000637572745F6F666600000000636C6F73F8
:103FC00065206375727461696E2066726F6D20730F
:103FD00065727665720A0000736D6172745F6F6E50
:103FE0000000000004000020736D6172745F6F6652
:103FF0006600000073657474695F6F6E20000000D6
:1040000073657474695F6F66660000000C000020C1
:1040100008000020616C61726D5F6F6E000000002F
:104020000E000020616C61726D5F6F6666000000BB
:104030007570646174655F6F6E0000001000002091
:104040007570646174655F6F6E207375636365730B
:104050007366756C0A00000001F40072B2F5007F0F
:1040600000D100BFCA430280704710B50022002370
:1040700040F66A14A14200D100BF0A120124944004
:10408000A3B2DC43048010BD21B1828942F4005206
:10409000828104E082894DF6FF731A408281704765
:1040A00010B504463248844208D101211020FEF7A1
:1040B00055F900211020FEF751F957E02D488442B0
:1040C00009D101214804FEF729F900214FF40030FD
:1040D000FEF724F94AE02848844209D101218804E6
:1040E000FEF71CF900214FF48020FEF717F93DE0A0
:1040F0002248844209D10121C804FEF70FF90021AA
:104100004FF40020FEF70AF930E01D48844209D13F
:1041100001210805FEF702F900214FF48010FEF797
:10412000FDF823E01748844208D101212020FEF742
:1041300015F900212020FEF711F917E012488442FA
:1041400009D101218807FEF7E9F800214FF08040EE
:10415000FEF7E4F80AE00D48844207D1012140054A
:10416000FEF7DCF800216005FEF7D8F810BD00006E
:10417000001001400044004000480040004C004056
:10418000005000400014014000780040007C0040D6
:1041900002460020B1F5007F00D100BF13880B401C
:1041A0000BB1012000E00020704770B502460024EA
:1041B00000230025002040F66A16B14200D100BF5E
:1041C000C1F3421501F01F03012606FA03F3012D86
:1041D00002D19689334006E0022D02D1168A33407F
:1041E00001E0968A33400C12012606FA04F4168880
:1041F000344013B10CB1012000E0002070BDF0B5D7
:104200000346002400260025002040F66A17B94224
:1042100000D100BF1846C1F3421401F01F06012768
:1042200007FA06F5012C01D10C3004E0022C01D173
:10423000103000E014301AB107682F43076002E025
:104240000768AF430760F0BD2DE9FF4705460E46FE
:104250000024A14600BFA046B08900B100BF2C8A4F
:1042600024F44054F08804432C82AC8941F20C6061
:104270008443B08831890843718908430443AC8181
:10428000AC8A24F44074B0890443AC826846FEF7DB
:1042900075F82048854202D01F48854202D1DDF8DA
:1042A0000C9001E0DDF80890A88900F4004040B1CE
:1042B00009EBC90000EB091031684900B0FBF1F7C8
:1042C00007E009EBC90000EB091031688900B0FB79
:1042D000F1F76420B7FBF0F004012009642101FB31
:1042E0001078A88900F4004040B1322000EBC800EB
:1042F000B0FBF1F000F00700044308E0322000EBCF
:1043000008106421B0FBF1F000F00F0004432C8191
:10431000BDE8FF8700100140001401400146888875
:10432000C0F308007047C1F308028280704700BFE5
:10433000FEE7000010B54FF4FA7000F09DFB4FF45B
:10434000FA7000F099FB3548FEF7D4FC4FF4FA7090
:1043500000F092FB4FF4FA7000F08EFB4FF4FA700D
:1043600000F08AFB2E48FEF7C5FC4FF4FA7000F00F
:1043700083FB4FF4FA7000F07FFB4FF4FA7000F00B
:104380007BFB4FF4FA7000F077FB4FF4FA7000F00B
:1043900073FB4FF4FA7000F06FFB4FF4FA7000F00B
:1043A0006BFB4FF4FA7000F067FB4FF4FA7000F00B
:1043B00063FB4FF4FA7000F05FFB1A48FEF79AFCBB
:1043C0004FF4FA7000F058FB4FF4FA7000F054FB11
:1043D0004FF4FA7000F050FB1348FEF78BFC4FF4DB
:1043E000FA7000F049FB4FF4FA7000F045FB0F48FB
:1043F000FEF780FC4FF4FA7000F03EFB4FF4FA70C9
:1044000000F03AFB0A48FEF775FC4FF4FA7000F032
:1044100033FB4FF4FA7000F02FFB10BD9A00002020
:10442000A8000020C6000020EE000020FD000020B3
:104430000A0100201CB501212720FDF73FFF0420C1
:10444000009000208DF804008DF8060003208DF800
:10445000050001208DF8070069462648FCF783FC1B
:104460004FF40060009069462348FCF77CFC032071
:10447000009001208DF8040069461E48FCF773FC8B
:104480002020009069461D48FCF76DFC1C48007810
:10449000C0B190201B490870D0201B4908709FEDC7
:1044A0001B0A1B4880ED000A9FED1A0A1A4880ED8E
:1044B000000A4FF4AE70194908806FF012001849D5
:1044C000088016E0D0200F49087090200E4908702F
:1044D0009FED140A0E4880ED000A9FED130A0E4866
:1044E00080ED000A6FF00A000C490880C01F0C49DB
:1044F00008801CBD0004024000140240000002407D
:104500002201002038010020390100206452BCBD86
:104510003C0100207BF5893D400100204401002042
:1045200046010020DA9F883D3ABABA3D10B50446EC
:104530004FF6FF70334908803349088033480068DC
:10454000002848D124B132493248FEF737FB34E025
:104550002F493048FEF732FB78B32F48B0F90000FE
:1045600000EE100AB8EEC00A2C4890ED001A294857
:10457000008800EE900AF8EE600A01EE200ABCEE18
:10458000C00A10EE100A234908802548B0F900003F
:1045900000EE100AB8EEC00A224890ED001A1C483E
:1045A000008800EE900AF8EE600A01EE200ABCEEE8
:1045B000C00A10EE100A16490880164800881A49E9
:1045C0000880134800881949088019480078401C61
:1045D0001749087014E016480078022807DD0D48D6
:1045E0000088084908800A48008807490880002098
:1045F0000F4908704FF6FF700B4908800B4908807F
:1046000010BD000034010020360100202C824242FF
:104610004A01002048010020440100203C01002004
:10462000460100204001002030010020320100201E
:104630004C0100200FB4054B10B503A9044A0298A1
:1046400000F02CF810BC5DF814FB0000194B0008BA
:10465000540100200FB4084B10B504A902AA039816
:1046600000F01CF8044602A9002000F0B8F920462A
:1046700010BC5DF814FB0000DF49000802E008C828
:10468000121F08C1002AFAD170477047002001E0CC
:1046900001C1121F002AFBD1704700002DE9FF4F16
:1046A0008BB088460546002606E025280BD0DDE9BC
:1046B0000D1290476D1C761C28780028F5D10FB09C
:1046C0003046BDE8F08F0024A146A2460122AE4943
:1046D00000E0044315F8013F203B02FA03F00842D2
:1046E000F7D128782A2810D06FF02F022878A0F16F
:1046F0003001092915D809EB890102EB410144F089
:10470000020400EB01096D1CF0E758F8041B5FEA96
:10471000010903D544F40054C9F1000944F002042E
:104720006D1C28782E2817D115F8010F44F00404C9
:104730002A280ED06FF02F022878A0F13001092925
:104740000AD80AEB8A0102EB410100EB010A6D1C59
:10475000F2E758F804AB6D1C28786C280FD006DC03
:104760004C2817D068280DD06A2814D104E074288A
:1047700010D07A280FD10DE044F400140AE044F47C
:10478000801401E044F440146978814202D104F5B8
:1047900080146D1C6D1C2878692865D006DC002803
:1047A0008DD0632827D0642806D15DE06E2808D01C
:1047B00073282AD0752877D0DDE90D129047761C32
:1047C000E0E0C4F30250022809D003280DD0D8F845
:1047D000001004280DD00E6008F10408D2E0D8F8CB
:1047E0000010F217C1E90062F6E7D8F800100E8059
:1047F000F2E70E70F0E718F8041B8DF800100020A7
:104800008DF80100EB46012003E058F804BB4FF09F
:10481000FF3061074FF0000701D40AE07F1C5745C5
:104820000DDA8742FADB1BF807100029F6D106E003
:104830007F1C8742FCDB1BF807100029F8D1DDE95B
:104840000D23A9EB07008146214600F0B1F8304462
:10485000C61904E0DDE90D121BF8010B90477F1E1D
:10486000F8D22146484688E058F8040BC4F30251B8
:104870004FF00A0B032900D100B2042900D140B245
:10488000002802DA40422D2102E0210505D52B2126
:104890008DF82410012104E006E0E10710D020216A
:1048A000F6E708AF089113E058F8040BC4F302517F
:1048B0004FF00A0B032900D180B2042900D1C0B205
:1048C0000021EEE75946FBF7A2FC303107F8011D45
:1048D0000028F7D1ADEB070000F1200B600702D5EF
:1048E00024F4803401E04FF0010ADA4502DDAAEB3E
:1048F0000B0000E00020824600EB0B010898014409
:10490000A9EB01000A90E00306D4DDE90D2321465E
:104910000A9800F04DF806444FF0000908E009A994
:1049200011F80900DDE90D12904709F10109761C23
:1049300008998945F3DBE0030CD5DDE90D23214619
:104940000A9800F035F8064404E0DDE90D12302045
:104950009047761CBAF10001AAF1010AF5DC05E0E6
:10496000DDE90D1217F8010B9047761CBBF1000131
:10497000ABF1010BF4DC0A982146DDE90D2300F0D0
:1049800005F806446D1C97E6092801002DE9F04161
:10499000044600251E461746880404D405E039461F
:1049A0002020B0476D1C641EF9D52846BDE8F08173
:1049B0002DE9F041044600251E469046C80301D566
:1049C000302700E02027880404D505E0414638461A
:1049D000B0476D1C641EF9D52846BDE8F0810A6811
:1049E000531C0B601070704710B50024FDF754FC89
:1049F0000446012C0AD107480078012802D106A0FC
:104A0000FFF718FE35200949487602E030200749B3
:104A1000487610BD0E000020626565702069732025
:104A200072696E67696E670A00000000100000205E
:104A300010B501200649086000200649C1F8AC0203
:104A400001200549086005A0FFF7F4FD10BD000036
:104A5000A8824042008040429802414263757274CD
:104A600061696E20636C6F73652073756363657332
:104A70007366756C6C790A000146114A12884A43C4
:104A80004FF0E0235A6100229A611A46126942F0FF
:104A900001021A6100BF4FF0E022106900F001022C
:104AA0001AB100F48032002AF5D04FF0E0221269EA
:104AB00022F001024FF0E0231A6100229A61704750
:104AC000500100200146114A12784A434FF0E0237A
:104AD0005A6100229A611A46126942F001021A6173
:104AE00000BF4FF0E022106900F001021AB100F49B
:104AF0008032002AF5D04FF0E022126922F0010244
:104B00004FF0E0231A6100229A6170474E010020A5
:104B100010B5FCF749FB10BD70B504460D46A1B2B7
:104B20000548FFF700FC00BF80210348FFF730FB7A
:104B30000028F9D0204670BD001001402DE9FF414A
:104B400004460026002700BF00BF00200390052078
:104B5000029003200190009014210920FCF794F9A1
:104B60008046C8F58051642201FB02F0C11700EBBA
:104B700011510D130A2096FBF0F0303060700A20BE
:104B800096FBF0F100FB11603030A0700A2097FB1B
:104B9000F0F0303020710A2097FBF0F100FB11702B
:104BA000303060710A2095FBF0F03030E0710A205F
:104BB00095FBF0F100FB1150303020723B490D7035
:104BC000084601783AA0FFF735FD012203A91046F7
:104BD000FBF73FFE9DF80C00012804D0022807D007
:104BE00003280FD109E03420A0723020E07209E0E0
:104BF0003620A0723020E07204E03920A07230200C
:104C0000E07200BF00BFE17AA07A303800EB80008C
:104C100001EB400030382C490870084601782BA081
:104C2000FFF708FD2F480078012803D13120607379
:104C3000607405E02B48007810B930206073607410
:104C4000012202A90320FBF704FE9DF808000128B9
:104C500002D13120E07301E03020E073012201A98C
:104C60000220FBF7F6FD9DF80400012802D1312057
:104C7000E07401E03020E074012269460420FBF773
:104C8000E8FD9DF80000012802D09DF8000010B951
:104C90003120607501E0302060753020E0752146DC
:104CA00011A0FFF7C7FCBDE8FF8100000000002055
:104CB0006C696768745F737472656E675F6E6F7737
:104CC000203D2025640A0000010000206C6967680F
:104CD000745F737472656E675F736574203D202521
:104CE00064200A000F000020CBF9B2C9BCAFB5C4E4
:104CF000CAFDBEDD64617461203D202573200A0079
:104D00002DE9FC4106460F4614464FF0080825469B
:104D100004EB08002978CDE90010AB886A88394691
:104D2000304600F011F8BDE8FC8110B502462AB10A
:104D300011F8014B20020B78184304E011F8010B25
:104D40000B7840EA032010BD2DE9F05F81468A46CA
:104D500015461E46DDE90A784FF0000B244800880E
:104D600041F6631188421ED007F0030068B90020A5
:104D7000FEF7BCFB33462A4651464846FCF73CFD4D
:104D800051464846FCF798FD16E00420FEF7AEFBBE
:104D900033462A4651464846FCF72EFD51464846C2
:104DA000FCF78AFD08E00020FEF7A0FB33462A4608
:104DB00051464846FCF720FDFCF7EAFD05FB06FBE3
:104DC000002409E007F010004146FFF7AEFF094953
:104DD000088008F10208641C5C45F3D30648038888
:104DE0000648028800210846FCF706FDBDE8F09F52
:104DF000200100200020006C26010020240100205A
:104E000010B504460020364908704FF4007135484B
:104E1000FCF714F880B14FF480713248FCF70EF8BB
:104E200050B180212F48FCF709F828B140212D48C6
:104E3000FCF704F8002843D14FF400712948FBF730
:104E4000FDFF18B90120284908701AE04FF480715D
:104E50002448FBF7F3FF18B902202349087010E03B
:104E600080212048FBF7EAFF18B903201E4908708B
:104E700007E040211B48FBF7E1FF10B904201A4965
:104E800008701948007819490978884210D11848E3
:104E90000088401C1649088013480078154908709E
:104EA000ECB913480088012819DD0020087016E0CD
:104EB00000200F4908800C4800780C4908700EE06B
:104EC0000B480088022803DD074800780449087071
:104ED000002006490870064908800649087010BD80
:104EE0008500002000140240880000208900002076
:104EF000860000208400002086B000BF00BF00BFF5
:104F000000BF00BF00200490FA4A07CA01AB07C3E4
:104F100000200090A820FEF7B9FBFBF715FDFDF778
:104F2000C1F8FCF76DF9FBF75FFE4FF4E130FEF7D7
:104F30002DFEF1A0FFF77EFB4FF4A060FDF77EF998
:104F4000FBF7FEFC0AE0EFA0FFF774FBF2480068F5
:104F500008B9012000E00020EF490860FBF762FC7F
:104F60000028F0D1FDF77CF9FBF762FAFDF7D4F8E1
:104F700000210420FDF71CFD42F2CF014CF24F301E
:104F8000FEF750FC4FF4E130FBF70AFDFFF7D2F9D2
:104F9000FCF710FDFEF7EEFDE0A0FFF74BFB012252
:104FA00005A91046FBF755FC9DF8140001280ED00A
:104FB0009DF8140002280AD09DF81400032806D09A
:104FC00001200590012205A91046FBF77FFC012274
:104FD000D4490220FBF73DFCD248007850B1D148BB
:104FE0000078012806D00020CE4908700122022056
:104FF000FBF76CFC012205A90320FBF72AFC9DF8B6
:10500000140050B19DF81400012806D0002005902E
:10501000012205A90320FBF759FCDFE29DF81400EB
:1050200000287CD001287BD1BF4A00210846FFF729
:1050300067FEFCF7A3FE012269461046FBF709FC58
:105040009DF80000012806D1182315229421A720DD
:10505000FCF792F914E09DF80000022806D118230D
:1050600016229421A720FCF787F909E09DF800009B
:10507000032805D1182317229421A720FCF77CF9D7
:10508000AA48007830B918231922B9218720FCF7E3
:1050900073F909E0A5480078012805D118231A46BC
:1050A000B9218720FCF768F90B2001900C200290B1
:1050B00001AB1822DF218720FCF7A8F901229949CA
:1050C0000220FBF7C6FB9748007838B9182319224D
:1050D0004FF48471CD20FCF74FF90AE09148007835
:1050E000012806D118231A464FF48471CD20FCF70D
:1050F00043F956E10020FFF719FA8D48008880280F
:1051000048DD8B480088A42844DA8A4800888F2824
:1051100040DD88480088B3283CDAC82001E043E13C
:105120005BE2FFF7A9FC9DF80000401CC0B20090B4
:105130009DF80000032808DD0120009018231522A7
:105140009421A720FCF718F91FE09DF80000012822
:1051500006D1182315229421A720FCF70DF914E09D
:105160009DF80000022806D1182316229421A720BA
:10517000FCF702F909E09DF80000032805D1182387
:1051800017229421A720FCF7F7F801226946104660
:10519000FBF79CFB66480088C32845DD644800880F
:1051A000E72841DA634800888F283DDD61480088A0
:1051B000B32839DAC820FFF75FFC9DF80000401ED5
:1051C000C0B200909DF80000012808DA032000908A
:1051D000182317229421A720FCF7CEF81FE09DF892
:1051E0000000012806D1182315229421A720FCF7DE
:1051F000C3F814E09DF80000022806D118231622F7
:105200009421A720FCF7B8F809E09DF800000328D6
:1052100005D1182317229421A720FCF7ADF801220D
:1052200069461046FBF752FB43480068012800D14D
:1052300013E03F48008805281ADD3D4800882D28E6
:1052400016DA3C480088CE2812DD3A480088F62855
:105250000EDAC820FFF710FC00BF002036490860B6
:1052600005900490012204A90320FBF72FFB99E08D
:105270002F480088002836DD2D4800882D2832DA96
:105280002C480088FF282EDD2A480088B0F5967F3C
:1052900029DAC820FFF7F0FB2248007870B91823FC
:1052A0001A464FF48471CD20FCF766F801201D49A1
:1052B000087001220220FBF709FB11E01948007871
:1052C00001280DD1182319224FF48471CD20FCF749
:1052D00053F800201349087001220220FBF7F6FA68
:1052E00016A0FFF7A7F91748007801282CD1FFF77F
:1052F0007BFB2CE0705600087265736574202D2DC1
:105300002D2D0A004154323443585820BCECB2E2EF
:10531000CAA7B0DC0A0000008C02424273746172BA
:1053200074200A000E00002008D202080F0000209E
:10533000300100203201002004000020B7E4C3F94E
:10534000C6F70A00980000203020A5494876A548F5
:105350000078A5490978884212DDA4480078012820
:105360001FD1FFF765FB0020A04908701823192200
:10537000B9218720FCF700F89DA0FFF75BF910E04A
:105380009A48007868B900F051F9012097490870EF
:1053900018231A46B9218720FBF7EEFF98A0FFF7E4
:1053A00049F9A7E600BF18E1994A00210846FFF72E
:1053B000A7FCFCF7E3FC8D48007830B918231922CC
:1053C0008F218C20FBF7D8FF09E08848007801285E
:1053D00005D118231A468F218C20FBF7CDFF0D2015
:1053E00001900E20029001AB1822AD218C20FCF719
:1053F0000DF8012287490220FBF72BFA8548007837
:1054000038B9182319224FF48471CD20FBF7B4FF6B
:105410000AE080480078012806D118231A464FF484
:105420008471CD20FBF7A8FFD4E00020FFF77EF8C1
:1054300079480068012800D114E0784800880028E5
:105440001CDD76480088282818DA75480088A828C6
:1054500014DD73480088D02810DA4FF49670FFF7F7
:105460000BFB00BF00206C490860012005900490F0
:10547000012204A90320FBF729FAACE06748008861
:10548000642822DD654800888F281EDA6448008879
:10549000CB281ADD62480088F52816DAC820FFF705
:1054A000EBFA18231A468F218C20FBF765FF4F4833
:1054B000007850B901204D4908704948FFF73EFB7C
:1054C0004748FDF717FC00F0B1F8544800889328CE
:1054D00023DD52480088BE281FDA51480088CB28B7
:1054E0001BDD4F480088F52817DAC820FFF7C4FAFB
:1054F000182319228F218C20FBF73EFF3B480078B0
:1055000001280AD10020394908703548FFF716FBF9
:105510003348FDF7EFFBFFF78BFA40480088BE28C1
:1055200015DD3E480088E62811DA3D480088E2286B
:105530000DDD3B480088B0F5857F08DAC820FFF70D
:105540009BFA012037490870FDF7EEFB43E0334832
:105550000088002834DD314800882D2830DA3048B2
:105560000088FF282CDD2E480088B0F5967F27DACA
:105570004FF49670FFF780FA2648007870B9182328
:105580001A464FF48471CD20FBF7F6FE0120214925
:10559000087001220220FBF799F911E01D480078FC
:1055A00001280DD1182319224FF48471CD20FBF767
:1055B000E3FE00201749087001220220FBF786F95C
:1055C00019480078012802D1FFF70EFA02E03020D6
:1055D0000349487629E700BF00BF00BF1EE5000071
:1055E0001000002000000020010000200F0000201B
:1055F0006375727461696E20636C6F73650A000075
:105600006375727461696E206F70656E200A0000A8
:10561000102A05080E0000200400002030010020A0
:10562000320100200C0000209800002010B501205D
:10563000054908600549C1F8AC020020044908602A
:1056400004A0FEF7F7FF10BDA88240420080404250
:10565000980241426375727461696E206F70656E65
:10566000207375636365737366756C6C790A0000EB
:105670000B0000000C000000FFFFFFFF0000000017
:10568000000008000430FE0720020400020480FE2F
:10569000078202044C020448020448FE0720020468
:1056A00020000020FF1F2091081091081E9108186B
:1056B0009108189108189108189128F8FF7F0000A8
:1056C0000000000000000000000008000830FE1F7D
:1056D00030060820060880FE0F8206084C0608588F
:1056E000060848FE0F201609201001201031101165
:1056F000311A13191C120D0816050812030810019F
:105700000C1021C8FF7F0000000000000000000016
:105710000800003000003010F0FF3F1002011004BC
:1057200003100411F0FF3F10040110040110FC01EC
:1057300010040110000098FF071804020804010873
:105740008800085000047000048C0302037EE0000F
:105750001000000000000000000000180000180009
:1057600020180240180680180380190100990000D3
:105770009810FEFF3F0063000063000063000061BB
:105780000000610000612080612080602040602076
:1057900020406018C03F060000000000000000002C
:1057A000000000F91FF843180841080861080821A3
:1057B0000808110EF8090408050008F11F0831084F
:1057C000083108083108F8F10F0831088800001086
:1057D000210410610818C21818C2300CC2300C0223
:1057E0002000000000000000000000F80FFC11087D
:1057F00080110880110880F10F809908F8810188D4
:10580000810108800108F83F0C8811FC891180880B
:105810001180F81F808811808409808011C0803138
:1058200040807F787E6030020000000000000000B1
:105830000800003000003010F0FF3F10020110049B
:1058400003100411F0FF3F10040110040110FC01CB
:1058500010040110000098FF071804020804010852
:105860008800085000047000048C0302037EE000EE
:1058700010000000000000000800001000103000C0
:10588000F0FF3F180010088709CC080E3008080008
:105890000404E0FF0F200804200C0420FC052082F3
:1058A00004204504206804203004207804204604A5
:1058B000A04104E0FF0720000400000000000000F9
:1058C0000800001800001000F8FF3F0800100C430B
:1058D00008808107C0180C3018180C1800F0FF0F52
:1058E00030180830180830180830180830180830F8
:1058F000180830180F3018060018000018000008AB
:1059000000000000000000000000C04000804002D5
:1059100080400C80401884401888401098401090B7
:10592000FF3F80C000804001C06001A06001902066
:10593000018C200286300280100680180C80081C22
:1059400080043880023040010000000000000000A8
:105950000800000800000800000C10FCFF3F0014C5
:1059600000002400002600004200008301800C0794
:1059700060183E181018060000000C0090190490E2
:1059800010189810199C00118C001180010100FF63
:1059900001000000000000600000600000F0DF3F38
:1059A00030C33018C33098C330FCFF3080C1308022
:1059B000C730C0DD3FE0F83070D80098FF0F8C0191
:1059C0000680010680FF078001068001068001062F
:1059D00080FF0F80010E000006000000000000C0E4
:1059E0000000C0C101E0C01860C63C30CC0E1CDF16
:1059F00003FCD90000D860F8CF6038CE7F380E00A5
:105A0000F86F0038CE1838CE3C38CE0EF8CF0338B9
:105A1000CE6038CE6038CE6038CEE0B8CF7F180682
:105A20000000000000000000000000000E00F01F59
:105A3000F81F0000180000180000180CF8FF1F00E5
:105A40001800001800001800001830FEFF7F001832
:105A500000001800001800001800001800001800CE
:105A6000801B00001E00000C000000000000000071
:105A70000000008001008001008601FC8F01008091
:105A80000100F07F008071FE9F71C08071E0807125
:105A900060803170833130C63118CE3018CC30FC84
:105AA0007F301C783000303000983B000E1E000321
:105AB0000C00000000000020100220300220300204
:105AC00020FF3F203102FE310220F81F300808700D
:105AD0000808B0F80FB8090828090828F80F24C8E2
