:020000040800F2
:10000000080500209D010008B50D0008FF04000848
:10001000B10D000821020008471900080000000087
:10002000000000000000000000000000FD100008BB
:100030002502000800000000450E00080914000811
:10004000B7010008B7010008B701000879100008DF
:10005000B7010008B7010008B7010008B7010008A0
:10006000B7010008B7010008B7010008B701000890
:10007000B7010008B7010008B7010008B701000880
:10008000B7010008B7010008B7010008B701000870
:10009000B7010008B7010008B7010008B701000860
:1000A000B7010008B7010008B7010008B701000850
:1000B000B7010008B7010008B7010008B701000840
:1000C000B7010008B7010008B7010008B701000830
:1000D000B7010008B7010008B7010008B701000820
:1000E000B7010008F10F0008B7010008B7010008C8
:1000F000B7010008B7010008B7010008B701000800
:10010000B7010008B7010008B7010008B7010008EF
:1001100071150008B7010008B7010008B701000811
:10012000B7010008B7010008B7010008B7010008CF
:10013000B7010008B7010008B7010008B7010008BF
:10014000B7010008B7010008B7010008B7010008AF
:10015000B7010008B7010008B7010008B70100089F
:10016000B7010008B7010008B7010008B70100088F
:10017000B7010008B7010008B7010008B70100087F
:10018000B7010008B7010008DFF80CD000F036F81E
:1001900000480047F51D0008080500200648804774
:1001A00006480047FEE7FEE7FEE7FEE7FEE7FEE75C
:1001B000FEE7FEE7FEE7FEE71914000889010008E4
:1001C000421C10F8011B0029FBD1801A704730B582
:1001D0000B46014600202022012409E021FA02F505
:1001E0009D4205D303FA02F5491B04FA02F528449F
:1001F000151EA2F10102F1DC30BD0000064C074DD6
:1002000006E0E06840F0010394E8070098471034E6
:10021000AC42F6D3FFF7BCFF9C1E0008BC1E0008D2
:1002200000BFFEE77047000010B588B0044601210A
:10023000C80400F029FE0121084600F005FE012156
:10024000880300F041FE274801F036FA0822002119
:10025000254800F026F908220121234800F021F961
:100260000320069002208DF81C008DF81D00002050
:100270008DF81E0001208DF81F0006A91A4800F015
:10028000C8F802940020ADF80C00ADF80E00ADF8EF
:100290001000ADF814000C20ADF8120002A91148AE
:1002A00001F0DEFA012240F225510E4801F0B3FAC6
:1002B00040210C4801F0DCF934208DF804000220C4
:1002C0008DF8050000208DF8060001208DF807004C
:1002D00001A800F071FD0121024801F0E1F908B028
:1002E00010BD0000004C00400000024001490860C1
:1002F00070470000143C014051B18200A2F1C0429D
:10030000126842F001038200A2F1C042136009E0CA
:100310008200A2F1C0421268034B1A408300A3F18D
:10032000C0431A6070470000FEFF0F00D0E90112C1
:100330001143C26811430269114342691143826942
:100340001143C2691143026A1143426A1143826A2E
:100350001143C26A1143026B114302689200A2F179
:10036000C0421160816808290BD101688900A1F1A0
:10037000C041096841F0400201688900A1F1C04113
:100380000A60416B0968426B526841EA0211426B94
:10039000926841EA0221426B928941EA0241426B32
:1003A000128A41EA0251426B127D41EA0261426BBC
:1003B000926911430268521C9200A2F1C04211607E
:1003C000C16AB1F5804F1BD1816B0968826B52689D
:1003D00041EA0211826B926841EA0221826B128A21
:1003E00041EA0251826B127D41EA0261826B92699D
:1003F000114302689200A2F1C042C2F8041107E062
:100400006FF0704201688900A1F1C041C1F8042178
:100410007047F0B50A4600210023002400BF3DE0EC
:10042000012505FA01F3156805EA03049C4234D15D
:1004300005684F000326BE40B543056015794E00A0
:10044000B5400668354305601579012D02D0157950
:10045000022D16D185684F000326BE40B543856046
:1004600055794E00B540866835438560456801265C
:100470008E40B5434560456896798E40B6B23543A7
:100480004560C5684F000326BE40B543C560D579B9
:100490004E00B540C6683543C560491C1029BFD31E
:1004A000F0BDF0B5002300244D07ED0E02FA05F370
:1004B000CE1000F1200555F826504E07F70E0F26F6
:1004C000BE40B543CF1000F1200646F82750CE10AD
:1004D00000F1200555F8265045EA0304CE1000F13E
:1004E000200545F82640F0BD0246002013690B4068
:1004F0000BB1012000E0002070470183704700BF6E
:10050000FEE70000D321074A1180911C0888088863
:1005100008884FF6FF7101EA0020911C0988084302
:1005200070470000FE1F006C1CB50121202000F068
:100530008BFC00208DF804008DF806004FF47070DD
:10054000009001208DF8070002208DF80500694613
:100550000148FFF75EFF1CBD0014024070B5044661
:1005600000250026094800880949098800FB01F692
:100570000021084600F082F900F0ECF900BF02E02B
:10058000044804806D1CB542FAD370BDC000002041
:10059000C20000200020006C00B59FB0012178202F
:1005A00000F052FC0121084600F05EFC4FF4806030
:1005B0001D9001208DF8780000208DF87A0002202F
:1005C0008DF8790001208DF87B001DA97748FFF791
:1005D00020FF4CF233701D9002208DF8780000202F
:1005E0008DF87A0003208DF8790001208DF87B00CA
:1005F0001DA96F48FFF70DFF4FF680701D90022078
:100600008DF8780000208DF87A0003208DF87900AD
:1006100001208DF87B001DA96648FFF7FAFE042033
:100620001D9002208DF8780000208DF87A000320BC
:100630008DF8790001208DF87B001DA95E48FFF739
:10064000E8FE4FF480501D9002208DF878000020C5
:100650008DF87A0003208DF8790001208DF87B0059
:100660001DA95548FFF7D5FE0C2200215048FFF781
:1006700018FF0C2201214E48FFF713FF0C22042122
:100680004B48FFF70EFF0C2205214948FFF709FFF1
:100690000C2208214648FFF704FF0C220921444898
:1006A000FFF7FFFE0C220A214148FFF7FAFE0C2259
:1006B0000E213F48FFF7F5FE0C220F213C48FFF7C3
:1006C000F0FE0C2207213B48FFF7EBFE0C2208212D
:1006D0003848FFF7E6FE0C2209213648FFF7E1FE15
:1006E0000C220A213348FFF7DCFE0C220B21314893
:1006F000FFF7D7FE0C2211462E48FFF7D2FE0C2240
:100700000D212C48FFF7CDFE0C220E212948FFF7C2
:10071000C8FE0C220F212748FFF7C3FE0C2202213E
:100720002548FFF7BEFE0C2211462348FFF7B9FE0D
:100730000F200790002008903C20099000200A908C
:100740000B900C900D900820009000200190072045
:1007500002900020039004900590069006200E90D1
:1007600000200F90109010201190002012901490F3
:100770001390159016904FF4805017900020189009
:100780004FF48040199000201A9007A81B90CDF8D4
:1007900070D00EA8FFF7CAFD01210620FFF7ACFDBF
:1007A000322001F05BFA1FB000BD000000140240CF
:1007B000000C0240001002400018024030B58418BE
:1007C000641EA2B2CC18641EA3B2264C24786CBB63
:1007D000254C248841F66315AC4227D1234C24884C
:1007E000A41A241AA0B2CC18641EA3B2204C2488E8
:1007F000204D2C800412AD1C2C80C4B22C80841897
:10080000641EC4F30F242C808418641EE4B22C8070
:10081000194C2488AD1E2C800C12AD1C2C80CCB23F
:100820002C801C122C80DCB22C8019E0104C248807
:10083000104D2C800412AD1C2C80C4B22C801412DC
:100840002C80D4B22C800C4C2488AD1E2C800C1231
:10085000AD1C2C80CCB22C801C122C80DCB22C80E5
:1008600030BD0000BE000020BC000020C000002001
:10087000C6000020FE1F006CC80000202E4A12880F
:1008800049F241339A4212D12C4A12882C4B1A80D9
:1008900002129B1C1A80C2B21A802A4A12889B1E1E
:1008A0001A800A129B1C1A80CAB21A8042E0224A9D
:1008B000128841F663139A423CD1234A12788AB9CE
:1008C000224A1288521E121A90B21C4A12881C4BDD
:1008D0001A8000229B1C1A801A8002121A80C2B24F
:1008E0001A8013E0154A1288154B1A8002129B1CBD
:1008F0001A80C2B21A80154A1288521EC2F30F2201
:100900001A80124A1278521ED2B21A800D4A1288E8
:100910000B4B1A800A129B1C1A80CAB21A800C4A0E
:100920001288521EC2F30F221A80094A1278521EF0
:10093000D2B21A8070470000BC000020C600002020
:10094000FE1F006CC8000020BE000020C000002078
:10095000C200002002480088024908807047000059
:10096000C4000020FE1F006C024A1080921C1180FF
:1009700070470000FE1F006C10B5FFF70DFEFFF77B
:10098000C1FDEB4908800846008849F241318842A0
:1009900023D0A120E7490880881C0088E44908800A
:1009A000E448801C00880880084600884FF6FF71E4
:1009B00001EA0020DE490880DE48801C00880988A2
:1009C0000843DB4908800846008845F26171884287
:1009D00003D141F66310D6490880D548008849F212
:1009E000413188421CD1D448006820F00F004FF0FC
:1009F0002041C1F81C010846D0F81C0120F47060A9
:100A0000C1F81C010846D0F81C0140F00300C1F8F1
:100A10001C010846D0F81C0140F40070C1F81C010C
:100A2000C348008849F2413188427DD1CF20C14975
:100A300008800020891C0880C120088030200880A0
:100A4000ED20891E08806420891C0880032008800E
:100A50001220088081200880E820891E08808520D7
:100A6000891C0880102008807A200880CB20891EED
:100A700008803920891C08802C20088000200880EC
:100A80003420088002200880F720891E088020205A
:100A9000891C0880EA20891E08800020891C0880A3
:100AA0000880C020891E08801B20891C0880C12066
:100AB000891E08800120891C0880C520891E0880A5
:100AC0003020891C08800880C720891E0880B72034
:100AD000891C08803620891E08804820891C0880CF
:100AE0003A20891E08805520891C0880B120891E63
:100AF00008800020891C08801A200880B620891EE2
:100B000008800A20891C0880A2200880F220891E03
:100B100008800020891C08802620891E088001206A
:100B2000891C0880E02000E060E0891E08800F201A
:100B3000891C08802A200880282008800820088036
:100B40000E2008800820088054200880A9200880F2
:100B5000432008800A2008800F2008800020088099
:100B6000088008800880E120891E08800020891CF8
:100B70000880152008801720088007200880112091
:100B80000880062008802B200880562008803C2002
:100B9000088005200880102008800F2008803F2052
:100BA000088008800F2008802B20891E08800020E4
:100BB000891C08800880012008803F2008802A20A6
:100BC000891E08800020891C088008800880EF208A
:100BD00008801120891E0880782001F03FF8292024
:100BE0005449088001205549086098E05048008821
:100BF00041F663118842F8D1E2204E4908801D2059
:100C0000891C08800220088004200880642001F0EC
:100C10004BF8E020474908800120891C08800A2001
:100C200001F01CF8E020434908800320891C08805B
:100C30000C2001F013F801203E4908800A2001F041
:100C40000DF8E6203B4908802F20891C0880FF20F2
:100C500008800880B020891E08802020891C088018
:100C6000002008800320088040F21F300880012007
:100C7000088040F2DF10088000200880B420891E20
:100C800008800420891C088040F21F400880002052
:100C900008802E20088000200880088008800880B6
:100CA000B620891E08800220891C08804FF403703A
:100CB0000880002008801720088015200880002068
:100CC00008800880F020891E08800320891C088085
:100CD0002920891E0880D02008800020891C0880D7
:100CE000BE20891E08800520891C0880FE200880FF
:100CF000012008800020088008800880B820891E14
:100D000008800320891C088001200880BA20891EE1
:100D100008800120891C0880FF2000F04FFB002084
:100D200000F064FA4FF6FF70FFF718FC10BD0000EA
:100D3000BC000020FE1F006C1C0100A0A8824242E3
:100D40001CB50121502000F07FF8182000900120F0
:100D50008DF8040000208DF8060003208DF80500B2
:100D600001208DF8070069460F48FFF752FB4FF44A
:100D70000070009001208DF8040000208DF806001E
:100D800003208DF8050001208DF80700694607480B
:100D9000FFF73FFB18210448FFF7AFFB4FF400714A
:100DA0000248FFF7AAFB1CBD0010024000180240D9
:100DB00000BFFEE77047000070B5002100230F223E
:100DC000C4781CB3174C246804F4E064C4F5E064F0
:100DD000C4F30721C1F10404E3B20A4144789C4002
:100DE000E1B28478144021430C07210E0E4C0578A3
:100DF0006155047804F01F050124AC4005786D119D
:100E0000AD0005F1E025C5F8004109E0047804F0E3
:100E10001F050124AC40054D0678761145F82640A3
:100E200070BD00000CED00E000E400E080E100E0B7
:100E300002490143024A1160704700000000FA05B0
:100E40000CED00E07047000029B1064A1268024329
:100E5000044B1A6004E0034A12688243014B1A6093
:100E6000704700003038024029B1064A1268024338
:100E7000044B1A6004E0034A12688243014B1A6073
:100E8000704700003838024029B1064A1268024310
:100E9000044B1A6004E0034A12688243014B1A6053
:100EA000704700004038024029B1064A12680243E8
:100EB000044B1A6004E0034A12688243014B1A6033
:100EC000704700002038024029B1064A12680243E8
:100ED000044B1A6004E0034A12688243014B1A6013
:100EE000704700004438024029B1064A12680243A4
:100EF000044B1A6004E0034A12688243014B1A60F3
:100F00007047000024380240F0B500210022002480
:100F1000022500260223324F3F6807F00C0121B161
:100F2000042905D0082937D105E02E4F076036E0A7
:100F30002D4F076033E02A4F3F1F3F68C7F38056AD
:100F4000274F3F1F3F6807F03F036EB1264FB7FBA7
:100F5000F3F7DFF88CC0ACF1040CDCF800C0CCF384
:100F6000881C07FB0CF40CE01E4FB7FBF3F7DFF80F
:100F700070C0ACF1040CDCF800C0CCF3881C07FB9B
:100F80000CF4174F3F1F3F68C7F301477F1C7D00DC
:100F9000B4FBF5F7076002E0124F076000BF00BF27
:100FA0000F4F3F6807F0F0010909104F7A5C07689E
:100FB000D74047600A4F3F6807F4E051890A0B4F5A
:100FC0007A5C4768D7408760054F3F6807F4604107
:100FD000490B064F7A5C4768D740C760F0BD0000F8
:100FE000083802400024F40000127A00A400002017
:100FF00010B54FF4807000F02BF801280DD10002DD
:1010000000F018F807A000F02DFD0948006808B9A5
:10101000012000E00020064908604FF40030FFF78F
:1010200065F910BD414C41524D2041210D0A00008F
:10103000A402434281B241F08001044A126802F0E6
:10104000800262EA0101014A116070470C280040E9
:1010500010B5014600200022054B1B68054C03EA31
:10106000040202EA01030BB1012000E0002010BDE0
:101070000C2800407F3F010010B54FF48060FFF75F
:10108000E7FF01280AD18002FFF7D4FF0648006875
:1010900008B9012000E00020034908604FF48000F7
:1010A000FFF724F910BD00008C02424270B50546DE
:1010B0002846FFF785F886B231460AA000F0D2FC38
:1010C00000240CE000BF40210B4800F06DFB00281D
:1010D000F9D0295D084800F032FC601C84B2B442AB
:1010E000F0DB70BD746865206C656E67746820699C
:1010F000732025640A000000004C00407047000087
:101100000CB50020019000903448006840F4803015
:101110003249086000BF3148006800F40030009098
:101120000198401C0190009818B90198B0F5A04FA3
:10113000F1D12A48006800F4003010B1012000907D
:1011400001E0002000900098012846D1234840305B
:10115000006840F080502149403108602048006814
:1011600040F440401E4908601C48083000681B4994
:10117000083108600846006840F4004008600846EE
:10118000006840F4A05008601648091F0860081F56
:10119000006840F08070091F086000BF0F480068B9
:1011A00000F000700028F9D040F205700E49086088
:1011B0000A480830006820F0030008490831086038
:1011C0000846006840F00200086000BF034808308D
:1011D000006800F00C000828F8D10CBD003802406F
:1011E0000070004008544007003C024010B504461F
:1011F0008CBB0020334908703348008849F24131E4
:10120000884210D12C20314908802A20304908809A
:101210002B2030490880F0202F4908804FF4A0701F
:101220002E49088049E02848008841F66311884229
:1012300043D12C20254908802B20254908802A20CD
:10124000244908804FF4F070234908804FF4487017
:101250002249088031E0FFE701201A4908701A4846
:10126000008849F24131884210D12C20174908806A
:101270002A20174908802B20164908804FF4A070B7
:1012800015490880F0201549088016E00E480088AE
:1012900041F66311884210D12C200C4908802A2085
:1012A0000B4908802B200B4908804FF448700A49ED
:1012B00008804FF4F07009490880002000F010F811
:1012C00010BD0000BE000020BC000020C4000020B3
:1012D000C6000020C8000020C0000020C20000207E
:1012E00070B505460024002630480078012805D155
:1012F0002F48008849F24131884208D02B480078B5
:10130000F0B92B48008841F66311884218D1082DA6
:1013100015D2DFE805F00406080A0C0E10120625A7
:101320000DE007250BE0042509E0052507E0012570
:1013300005E0002503E0032501E0022500BF00BF12
:10134000082D1CD2DFE805F00406090C0F12151851
:1013500000BF14E044F0800411E044F040040EE0CB
:1013600044F0C0040BE044F0200408E044F06004C2
:1013700005E044F0A00402E044F0E00400BF00BF38
:1013800036260B48008849F24131884201D144F0A9
:10139000080421463046FFF7E7FA06480388064866
:1013A000028800210846FFF709FA70BDBE00002040
:1013B000BC000020C2000020C0000020BE21074A5F
:1013C00011800521921C1180114608800121118095
:1013D000FF2111800021118011807047FE1F006CD9
:1013E000042808D14FF0E021096941F004014FF0D1
:1013F000E022116107E04FF0E021096921F00401CA
:101400004FF0E0221161704702480068401E014918
:1014100008607047A000002010B51548006840F42F
:101420007000134908601348006840F0010011493A
:10143000086000200F49083108600E4800680E4916
:1014400008400C4908600D48091D0860081F006825
:1014500020F48020091F0860002006490C31086034
:10146000FFF74EFE4FF0006001498039086010BD63
:1014700088ED00E000380240FFFFF6FE1030002447
:1014800010B504466FF00400FFF7AAFFE11704EB64
:101490005171C1F3C701074A11701046007800EB83
:1014A0004001C1EBC0104FF6FF7101EAC0000249D4
:1014B000088010BDCA000020CC00002010B588B004
:1014C000044601210846FFF7BFFC01211020FFF769
:1014D000FBFC01218803FFF7F7FC072209212248C2
:1014E000FEF7DFFF07220A211F48FEF7DAFF4FF45D
:1014F000C060069002208DF81C008DF81D000020B1
:101500008DF81E0001208DF81F0006A91648FEF771
:1015100080FF02940020ADF80C00ADF80E00ADF88D
:101520001000ADF814000C20ADF8120002A90F480D
:1015300000F096F925208DF8040002208DF80500B2
:101540008DF8060001208DF8070001A8FFF734FC94
:10155000012240F22551054800F05DF901210348C0
:1015600000F09EF808B010BD0000024000100140DD
:1015700070B5002540F22551334800F022F90028CB
:1015800061D0314800F0D6F9044600BF40212F4811
:1015900000F00AF90028F9D021462C4800F0CFF9D4
:1015A0002B48007810B1012847D10FE07B2C0CD1DB
:1015B0002848006808B9012000E00020254908609B
:1015C00023480078401C2249087036E02249234A0B
:1015D00012688C5421480068401C20490860084665
:1015E0000068401E1C49085C7D2825D100211B484D
:1015F0000068401E184A11541648001D006808B9BA
:10160000012000E000201349091D08601248FEF780
:10161000D7FD06463246104911A000F023FA0025F6
:1016200003E000200C4948556D1C322DF9DB0020E9
:101630000A4908600649087000BF00BF40F2255102
:10164000014800F01EF870BD004C00400010014041
:101650001C0000208C024242D40000201800002010
:1016600023232323232D2D2D2D2D25733D2564008C
:1016700001F40072B2F5007F00D100BFCA430280BE
:10168000704710B50022002340F66A14A14200D131
:1016900000BF0A1201249440A3B2DC43048010BDB1
:1016A00021B1828942F40052828104E082894DF6A0
:1016B000FF731A408281704710B504463248844255
:1016C00008D101211020FFF70FFC00211020FFF7A7
:1016D0000BFC57E02D48844209D101214804FFF753
:1016E000E3FB00214FF40030FFF7DEFB4AE028481F
:1016F000844209D101218804FFF7D6FB00214FF471
:101700008020FFF7D1FB3DE02248844209D101212E
:10171000C804FFF7C9FB00214FF40020FFF7C4FB0A
:1017200030E01D48844209D101210805FFF7BCFBC8
:1017300000214FF48010FFF7B7FB23E017488442E5
:1017400008D101212020FFF7CFFB00212020FFF747
:10175000CBFB17E01248844209D101218807FFF72B
:10176000A3FB00214FF08040FFF79EFB0AE00D48ED
:10177000844207D101214005FFF796FB0021600557
:10178000FFF792FB10BD0000001001400044004034
:1017900000480040004C0040005000400014014050
:1017A00000780040007C004002460020B1F5007F38
:1017B00000D100BF13880B400BB1012000E00020D6
:1017C000704770B50246002400230025002040F633
:1017D0006A16B14200D100BFC1F3421501F01F03E8
:1017E000012606FA03F3012D02D19689334006E063
:1017F000022D02D1168A334001E0968A33400C1242
:10180000012606FA04F41688344013B10CB1012005
:1018100000E0002070BDF0B503460024002600253E
:10182000002040F66A17B94200D100BF1846C1F344
:10183000421401F01F06012707FA06F5012C01D119
:101840000C3004E0022C01D1103000E014301AB149
:1018500007682F43076002E00768AF430760F0BDE9
:101860002DE9FF4705460E460024A14600BFA046CD
:10187000B08900B100BF2C8A24F44054F08804439E
:101880002C82AC8941F20C608443B08831890843D2
:10189000718908430443AC81AC8A24F44074B08954
:1018A0000443AC826846FFF72FFB2048854202D0F4
:1018B0001F48854202D1DDF80C9001E0DDF8089068
:1018C000A88900F4004040B109EBC90000EB091001
:1018D00031684900B0FBF1F707E009EBC90000EB04
:1018E000091031688900B0FBF1F76420B7FBF0F014
:1018F00004012009642101FB1078A88900F400404C
:1019000040B1322000EBC800B0FBF1F000F007005E
:10191000044308E0322000EB08106421B0FBF1F032
:1019200000F00F0004432C81BDE8FF870010014048
:101930000014014001468888C0F308007047C1F3D5
:1019400008028280704700BFFEE7000010B54FF428
:10195000FA7000F083F94FF4FA7000F07FF93B4819
:10196000FFF7A4FB4FF4FA7000F078F94FF4FA7027
:1019700000F074F94FF4FA7000F070F93448FFF792
:1019800095FB4FF4FA7000F069F94FF4FA7000F02B
:1019900065F94FF4FA7000F061F94FF4FA7000F055
:1019A0005DF94FF4FA7000F059F94FF4FA7000F055
:1019B00055F94FF4FA7000F051F94FF4FA7000F055
:1019C0004DF94FF4FA7000F049F94FF4FA7000F055
:1019D00045F92048FFF76AFB4FF4FA7000F03EF932
:1019E0004FF4FA7000F03AF94FF4FA7000F036F95B
:1019F0001948FFF75BFB4FF4FA7000F02FF94FF432
:101A0000FA7000F02BF94FF4FA7000F027F9134840
:101A1000FFF74CFB4FF4FA7000F020F94FF4FA7026
:101A200000F01CF94FF4FA7000F018F90C48FFF7B9
:101A30003DFB4FF4FA7000F011F94FF4FA7000F02A
:101A40000DF94FF4FA7000F009F910BD1D000020E7
:101A50002B000020490000207100002080000020A1
:101A60008D0000200FB4054B10B503A9044A02985D
:101A700000F018F810BC5DF814FB0000F51C00081D
:101A8000D000002002E008C8121F08C1002AFAD1C5
:101A900070477047002001E001C1121F002AFBD1EE
:101AA000704700002DE9FF4F8BB09A460F46054660
:101AB000002606E025280BD052460D9990476D1C54
:101AC000761C28780028F5D10FB03046BDE8F08F9D
:101AD0000024A0460122604900E0044315F8013FBC
:101AE000203B02FA03F00842F7D128782E2817D1BC
:101AF00015F8010F44F004042A280ED06FF02F02CD
:101B00002878A0F1300109290AD808EB880102EBF6
:101B1000410100EB01086D1CF2E757F8048B6D1CC6
:101B2000287869283ED006DC0028CDD063280BD069
:101B3000642804D136E0732810D075284BD0524663
:101B40000D999047761C85E017F8040B8DF800007E
:101B500000208DF80100E946012003E057F8049BBE
:101B60004FF0FF3061074FF0000401D40AE0641C1D
:101B700044450DDA8442FADB19F804100029F6D145
:101B800006E0641C8442FCDB19F804100029F8D13B
:101B9000264404E019F8010B52460D999047641E43
:101BA000F8D257E001CF4FF00A0B002802DA40428A
:101BB0002D2102E0210504D52B218DF824100121CF
:101BC00003E0E10705D02021F7E70DF12009089196
:101BD0000CE00021F9E701CF4FF00A0BF9E7594675
:101BE000FEF7F5FA01F1300209F8012D0028F6D1CF
:101BF000ADEB090000F1200B600701D44FF00108A4
:101C0000D84502DDA8EB0B0000E000208046002450
:101C100006E009A85246005D0D999047641C761CA9
:101C200008988442F5DB04E0302052460D99904735
:101C3000761CB8F10001A8F10108F5DC05E019F8FF
:101C4000010B52460D999047761CBBF10001ABF198
:101C5000010BF4DC6D1C34E7092801000146114A30
:101C600012884A434FF0E0235A6100229A611A46D3
:101C7000126942F001021A6100BF4FF0E0221069C0
:101C800000F001021AB100F48032002AF5D04FF0C2
:101C9000E022126922F001024FF0E0231A610022D3
:101CA0009A617047CC0000200146114A12784A43DD
:101CB0004FF0E0235A6100229A611A46126942F0FD
:101CC00001021A6100BF4FF0E022106900F001022A
:101CD0001AB100F48032002AF5D04FF0E0221269E8
:101CE00022F001024FF0E0231A6100229A6170474E
:101CF000CA00002070B504460D46A1B20548FFF7A2
:101D00001EFE00BF80210348FFF74EFD0028F9D0DA
:101D1000204670BD0010014010B5044614B10120EA
:101D20003249086031480068002842D04FF4007101
:101D30002F48FEF7D9FB78B14FF480712C48FEF79D
:101D4000D3FB48B180212A48FEF7CEFB20B14021C9
:101D50002748FEF7C9FB60BB0A20FFF77FFF4FF45F
:101D600000712348FEF7C0FB20B900201F4908601E
:101D7000012010BD4FF480711D48FEF7B5FB20B95E
:101D800000201A4908600220F3E780211848FEF776
:101D9000ABFB20B90020154908600320E9E740218A
:101DA0001348FEF7A1FBF8B9002010490860042091
:101DB000DFE74FF400710E48FEF796FB012813D1C0
:101DC00001020B48FEF790FB01280DD18021084845
:101DD000FEF78AFB012807D140210548FEF784FB66
:101DE000012801D1014908600020C2E7B4000020A9
:101DF000001402404FF0FF34FEF7A2FFA820FFF7C7
:101E00003FFBFEF7B9FDFEF78FFB4FF4E130FFF724
:101E100055FB4FF4A060FFF70BF84FF4E130FEF7ED
:101E200003FAFFF793FD0EA0FFF71CFE17E000205A
:101E3000FFF772FF0446012C06D10B48FFF736F975
:101E40000AA0FFF70FFE0AE0022C08D10120064984
:101E500088740846FFF72AF909A0FFF703FEE6E7B2
:101E60007374617274200A00000000207468652099
:101E7000646174612069732073656E740A000000E8
:101E8000746865206368616E6765206461746120B1
:101E900069732073656E740A00000000BC1E0008A0
:101EA00000000020D4000000841A0008901F0008E1
:101EB000D400002034040000941A00082331312C8F
:101EC00032322C33332C34342C35352C312C302316
:101ED00000000000000000000041542B43574D4F0C
:101EE00044453D310D0A0041542B43574A41503D72
:101EF000224C49222C2231333932373034333833B3
:101F000039220D0A0041542B434950535441525435
:101F10003D22544350222C227463702E746C696EDF
:101F20006B2E696F222C383634370D0A0041542B42
:101F30004349504D4F44453D310D0A0041542B4318
:101F4000495053454E440D0A0037475734365243E3
:101F50003149373639453447580000000000000049
:101F6000000000000102030401020304060708093F
:101F7000010000000000FFFF000000000000000062
:101F80000000000000000000000000000000000051
:040000050800018965
:00000001FF
