:020000040800F2
:10000000B00500209D010008752400088F1000082D
:10001000C923000885090008AF4700080000000058
:10002000000000000000000000000000BD360008D5
:10003000390B00080000000011250008093A0008EB
:10004000B7010008B7010008B7010008D72C000865
:10005000B7010008B7010008B7010008B7010008A0
:10006000B7010008B7010008B7010008B701000890
:10007000B7010008B7010008B7010008B701000880
:10008000B7010008B7010008B7010008B701000870
:10009000B7010008B7010008B70100083D0C0008CF
:1000A000B7010008B7010008B7010008B701000850
:1000B000BD3A0008813B00087D3C0008B7010008FC
:1000C000B7010008B7010008B7010008B701000830
:1000D000B7010008B7010008B7010008B701000820
:1000E000B7010008CD270008B7010008B7010008D4
:1000F000B7010008B7010008B7010008B701000800
:10010000B7010008B7010008B7010008B7010008EF
:1001100081400008B7010008B7010008B7010008D6
:10012000B7010008B7010008B7010008B7010008CF
:10013000B7010008B7010008B7010008B7010008BF
:10014000B7010008B7010008B7010008B7010008AF
:10015000B7010008B7010008B7010008B70100089F
:10016000B7010008B7010008B7010008B70100088F
:10017000B7010008B7010008B7010008B70100087F
:10018000B7010008B7010008DFF80CD000F068F8EC
:1001900000480047AD540008B005002006488047DD
:1001A00006480047FEE7FEE7FEE7FEE7FEE7FEE75C
:1001B000FEE7FEE7FEE7FEE7193A000889010008BE
:1001C00040EA01039B0703D009E008C9121F08C0D9
:1001D000042AFAD203E011F8013B00F8013B521E59
:1001E000F9D27047D2B201E000F8012B491EFBD2D0
:1001F00070470022F6E710B513460A460446194632
:10020000FFF7F0FF204610BD421C10F8011B00292B
:10021000FBD1801A704710B5002200E0521C835CAD
:100220008C5CA34201D1002BF8D1D8B2E1B2401AC4
:1002300010BD30B50B46014600202022012409E004
:1002400021FA02F59D4205D303FA02F5491B04FA8F
:1002500002F52844151EA2F10102F1DC30BD0000B8
:10026000064C074D06E0E06840F0010394E8070003
:1002700098471034AC42F6D3FFF78AFF008E070888
:10028000208E070870B58C1810F8015B15F0070375
:1002900001D110F8013B2A1106D110F8012B03E01F
:1002A00010F8016B01F8016B5B1EF9D12B0705D427
:1002B0000023521E0DD401F8013BFAE710F8013B70
:1002C000CB1A921C03E013F8015B01F8015B521E8C
:1002D000F9D5A142D8D3002070BD21B1826842F087
:1002E0000102826003E0826822F0010282607047AE
:1002F0000021084A1168084A1140D0E900231A4336
:1003000083681A43C3681A431143044AC2F80413AA
:100310007047000004230140E030FCFF0020014052
:100320000146C86C80B270470246002013680B403B
:100330000BB1012000E000207047000030B50246FC
:10034000002000235068104C20400D790C6844EACE
:1003500005242043506090680C4C2040D1E90354A0
:100360002C438D682C434D7944EA4504204390602A
:10037000D06A20F470000C7D641EE4B2234340EA8E
:100380000350D06230BD0000FFFEFFFCFDF7FFC050
:10039000F0B504460D4600200021092D11DDE0686E
:1003A000A5F10A0606EB4607072606FA07F1884379
:1003B000A5F10A0606EB460603FA06F10843E060DB
:1003C0000CE0206905EB4507072606FA07F188438C
:1003D00005EB450603FA06F108432061072A0FDA08
:1003E000606B561E06EB86071F2606FA07F1884348
:1003F000561E06EB860605FA06F10843606322E006
:100400000D2A0FDA206BD61F06EB86071F2606FA89
:1004100007F18843D61F06EB860605FA06F1084366
:10042000206310E0E06AA2F10D0606EB86071F26A6
:1004300006FA07F18843A2F10D0606EB860605FAD7
:1004400006F10843E062F0BD816841F080418160BF
:100450007047000000B58DB00121202002F088F81F
:100460000121880202F0C4F808200B9003208DF8C7
:10047000300000208DF833000BA9154800F05FFD17
:100480000121880202F0C4F800214FF4806002F0DC
:10049000BFF8002007900A9009904FF48030089030
:1004A00007A8FFF725FF002001908DF808008DF8C0
:1004B00009000390059001208DF8180001A9054856
:1004C000FFF73CFF01210348FFF707FF0DB000BD18
:1004D00000140240002201407CB505460C46322043
:1004E00094FBF0F100FB114090B94EF69C701F2177
:1004F000C64B1822CDE9001063211E2001F098F8A8
:10050000C34810F82520182363217F2001F022F82A
:10051000C0480078012803D0BE480078022875D171
:10052000BC480078012872D1062D09D2DFE805F019
:10053000030917768492B848C078401CB649C87041
:1005400096E0B54840780C2803D10120B2494870A4
:1005500004E0B1484078401CAF49487088E0AE499B
:1005600089781C2910D1AC49497802290CD1AA49B3
:10057000C878C11700EB91718910A0EB810119B106
:100580000120A549887048E0A34989781D2910D128
:10059000A149497802290CD19F49C878C11700EBBD
:1005A00091718910A0EB810119B901209A498870D5
:1005B00033E0994880781E2820D1974840780D284C
:1005C0001BD2DFE800F01A0E1A0F071008111209EB
:1005D000130A140000BF00BF00BF01208E498870BD
:1005E0000BE000BF00BF00BF00BF00BF00BF8A48D4
:1005F0008078401C8849887000BF0EE0864880786B
:100600001F2805D101208449887006E0A6E030E06B
:1006100081488078401C8049887029E07F480078B4
:10062000172803D100207D49087004E07B4800783A
:10063000401C7A4908701BE0784840783B2803D179
:1006400000207649487004E074484078401C7349A3
:1006500048700DE0714880783B2803D100206F4935
:10066000887004E06D488078401C6C49887000BF39
:1006700000BF68480078022870D1062D09D2DFE853
:1006800005F00309175966746348C078401E624933
:10069000C87077E060484078012803D10C205E499B
:1006A000487004E05C484078401E5B49487069E04F
:1006B00059488078012837D15749C878C11700EBCD
:1006C00091718910A0EB810139B953494978022908
:1006D00003D11D20504988702BE04F4840780228F4
:1006E00003D11C204C49887023E04B4840780D28EA
:1006F00019D2DFE800F0180718081109120A0B13C5
:100700000C140D0000BF00BF00BF00BF00BF00BF42
:100710001F204149887006E000BF00BF00BF1E20B7
:100720003D49887000BF04E03B488078401E3A494C
:10073000887027E03948007818B9172037490870C1
:1007400004E036480078401E344908701AE0334807
:10075000007820B93B203149487005E013E02F486C
:100760004078401E2D4948700CE02C48807818B91C
:100770003B202A49887004E028488078401E274999
:10078000887000BF00BF962C01D103F029FB062D15
:100790003AD2DFE805F0030C151E2730312C05D1C5
:1007A0001FA3182216216B2000F0D0FF2CE0312C63
:1007B00005D11BA3182216218F2000F0C7FF23E0CC
:1007C000312C05D116A318221621B32000F0BEFF4C
:1007D0001AE0312C05D112A3182232216B2000F02F
:1007E000B5FF11E0312C05D10DA3182232218F2045
:1007F00000F0ACFF08E0312C05D109A3182232210A
:10080000B32000F0A3FF00BF00BF7CBD700000203C
:100810005800002098000020A8000020A40000201C
:100820002020000010B5FF2000F024F80446552CCD
:1008300001D1002010BD5521FF2000F059F8FF2004
:1008400000F018F80446552C01D10020F2E70120F1
:10085000F0E770B506460C46154608E03046721CB7
:1008600096B200F007F804F8010B681E85B2002D5F
:10087000F4D170BD70B50446002600F0EBFC2546AF
:10088000E11704EB11610912A02202EB4101C8B289
:1008900000F036FC00F02AFDE11704EB11610912AB
:1008A000A4EB0121C8B200F02BFC00F01FFD00F00A
:1008B000D1FCA12000F024FC00F018FD002000F085
:1008C000E9FB064600F0ECFC304670BD70B505460D
:1008D0000C46164606E02178284600F009F8681C08
:1008E00085B2641C3000A6F101018EB2F3D170BD57
:1008F00070B504460E4600F0ADFC2546E11704EB4A
:1009000011610912A02202EB4101C8B200F0F8FB0C
:1009100000F0ECFCE11704EB11610912A4EB0121DA
:10092000C8B200F0EDFB00F0E1FC304600F0E8FB5F
:1009300000F0DCFC00F0B4FC0A2004F0E1FA70BD29
:1009400010B500F039FC10BD1CB50121402001F0AC
:100950000FFE01208DF8040000208DF80600802095
:10096000009001208DF8070002208DF805006946EF
:10097000034800F0E4FA8021014800F054FB1CBD5C
:100980000018024000BFFEE71CB50121202001F045
:10099000EFFD00208DF804008DF806000620009081
:1009A00001208DF8070002208DF8050069460248F5
:1009B00000F0C5FA1CBD00000014024010B502464C
:1009C000012000E050430B00A1F10104E1B2F9D194
:1009D00010BD000010B500241448006820F040400D
:1009E0001249086008460068086004E0601CC4B250
:1009F000012004F0ABFA0E48006808B1642CF5DB66
:100A0000642C01DB012010BD002404E0601CC4B292
:100A1000012004F09BFA0648006808B9642CF5DB55
:100A2000642C01DB0120EEE70020ECE7000002402F
:100A30003C02404210B5002404E0601CC4B2012016
:100A400004F084FA0D48006808B1642CF5DB00243A
:100A500004E0601CC4B2012004F078FA0748006882
:100A600008B9642CF5DB282004F070FA034800680C
:100A700008B1012010BD0020FCE700003C0240420C
:100A800070B50024002506E06006040EFFF7D2FFD3
:100A90000443681CC5B2082DF6DB204670BD7CB54A
:100AA00005460E4604F078FAFFF794FFF8B90024E3
:100AB00005E0FFF7E5FF0DF80400601CC4B2052C4B
:100AC000F7DB9DF800009DF8011008449DF8021026
:100AD00008449DF8031008449DF80410884208D18A
:100AE0009DF8000030709DF80200287001E00120A0
:100AF0007CBD0020FCE700001CB50121084601F088
:100B000037FD4FF40040009001208DF804000020D4
:100B10008DF8060002208DF8050001208DF80700F1
:100B20006946044800F00BFA04F036FAFFF752FF6A
:100B30001CBD000000000240704700001CB50121F0
:100B4000022001F015FD3820009001208DF80400EE
:100B500002208DF8050000208DF8060001208DF898
:100B600007006946034800F0EAF93821014800F01F
:100B70005AFA1CBD0004024010B588B00446012199
:100B8000C80401F015FD0121084601F0F1FC012126
:100B9000880301F02DFD274803F0C2FC0822002144
:100BA000254800F014FA08220121234800F00FFA2A
:100BB0000320069002208DF81C008DF81D000020F7
:100BC0008DF81E0001208DF81F0006A91A4800F0BC
:100BD000B6F902940020ADF80C00ADF80E00ADF8A7
:100BE0001000ADF814000C20ADF8120002A9114855
:100BF00003F06AFD012240F225510E4803F03FFD4B
:100C000040210C4803F068FC34208DF804000220D9
:100C10008DF8050000208DF8060001208DF80700F2
:100C200001A801F029FC0121024803F06DFC08B085
:100C300010BD0000004C00400000024010B54020F4
:100C400000F068F868B10A2004F05AF94021194808
:100C500000F0E0F910B918A003F02CFF402000F0DC
:100C600053F8802000F056F868B10A2004F048F9E3
:100C70008021104800F0CEF910B915A003F01AFF3A
:100C8000802000F041F84FF4807000F043F878B114
:100C90000A2004F035F94FF48071064800F0BAF9E3
:100CA00010B912A003F006FF4FF4807000F02CF88A
:100CB00010BD0000001402406B6579332074657329
:100CC0007420627920696E746572727570740A009E
:100CD0000A6B657932207465737420627920696EBD
:100CE000746572727570740A000000000A6B657991
:100CF00031207465737420627920696E7465727234
:100D00007570740A00000000014908607047000017
:100D1000143C014001460020034A12680A400AB10F
:100D2000012000E000207047143C014000212349CD
:100D30008279002A3AD00A46126803689A430B4621
:100D40001A600A1D126803689A430B1D1A60027923
:100D500011440A6803681A430A60184A0832126884
:100D600003689A43154B08331A601A1D126803680A
:100D70009A43124B0C331A604279102A0ED11A1F73
:100D8000126803681A430D4B08331A601A1D126863
:100D900003681A43094B0C331A600DE00749427986
:100DA00011440A6803681A430A6005E00279114495
:100DB0000A6803689A430A6070470000003C0140DB
:100DC0000EB500F009FB0121880301F011FC06219A
:100DD000052002F075FC0821052002F071FC0721B6
:100DE000052002F06DFC4FF4E070019000208DF8BA
:100DF00008000C208DF8090001208DF80A0001A8D8
:100E0000FFF794FF17208DF8000003208DF80100F4
:100E100002208DF8020001208DF80300684601F0E1
:100E20002BFB0EBD51B18200A2F1C042126842F00C
:100E300001038200A2F1C042136009E08200A2F126
:100E4000C0421268034B1A408300A3F1C0431A60EA
:100E500070470000FEFF0F00D0E901121143C26885
:100E60001143026911434269114382691143C26906
:100E70001143026A1143426A1143826A1143C26AF2
:100E80001143026B114302689200A2F1C04211604B
:100E9000816808290BD101688900A1F1C041096866
:100EA00041F0400201688900A1F1C0410A60416B34
:100EB0000968426B526841EA0211426B926841EA4A
:100EC0000221426B928941EA0241426B128A41EA55
:100ED0000251426B127D41EA0261426B92691143F9
:100EE0000268521C9200A2F1C0421160C16AB1F5C1
:100EF000804F1BD1816B0968826B526841EA0211F5
:100F0000826B926841EA0221826B128A41EA0251A5
:100F1000826B127D41EA0261826B92691143026821
:100F20009200A2F1C042C2F8041107E06FF07042D3
:100F300001688900A1F1C041C1F804217047F0B5F2
:100F40000A4600210023002400BF3DE0012505FAE8
:100F500001F3156805EA03049C4234D105684F008B
:100F60000326BE40B543056015794E00B5400668BE
:100F7000354305601579012D02D01579022D16D162
:100F800085684F000326BE40B543856055794E0005
:100F9000B540866835438560456801268E40B54377
:100FA0004560456896798E40B6B235434560C56860
:100FB0004F000326BE40B543C560D5794E00B5400D
:100FC000C6683543C560491C1029BFD3F0BDF0B5D4
:100FD000002300244D07ED0E02FA05F3CE1000F1B8
:100FE000200555F826504E07F70E0F26BE40B54394
:100FF000CF1000F1200646F82750CE1000F1200552
:1010000055F8265045EA0304CE1000F1200545F8B6
:101010002640F0BD0246002013690B400BB10120B1
:1010200000E0002070474183704701837047000053
:1010300010B504460723012221460848FFF7A8F906
:101040000648FFF701FA00BF02210448FFF76CF9D8
:101050000028F9D00148FFF763F910BD00220140D4
:101060002DE9F04107460C460025002608E03846E9
:10107000FFF7DEFF0544052003F042FF701CC6B2F7
:10108000A642F4DBB5FBF4F080B2BDE8F08100BF0E
:10109000FEE7000070B5054600241648006820F4FD
:1010A000402014490860084600680860002616E0E1
:1010B000002011490860022003F048FF01200F4979
:1010C000C1F8A0026006040E0B487C38006808B125
:1010D000601CC4B2012003F039FF701CC6B2082E98
:1010E000E6DB15B900F08EF801E000F03DF820468F
:1010F00070BD000000040240A082404200804042D7
:1011000070B504461548006820F440201349086073
:101110000846006840F480200860002010490860FC
:10112000002517E0E0090E49091D08606006040E5D
:10113000022003F00BFF01200A49C1F8A00202209F
:1011400003F004FF002006490860022003F0FEFEC1
:10115000681CC5B2082DE5DB70BD0000000402402C
:10116000A08240420080404210B500200F49086034
:101170000F48006820F440200D49086008460068C8
:1011800040F48020086000200A49C1F8A40202202F
:1011900003F0DCFE012005490860022003F0D6FEC2
:1011A00000200449C1F8A00210BD0000A082404206
:1011B00000040240008040421CB50121022001F0E1
:1011C000D7F94FF44070009001208DF80400002002
:1011D0008DF8060003208DF8050001208DF807002A
:1011E00069460548FFF7ABFE012004490860044941
:1011F000C1F8A4021CBD000000040240A0824042CD
:101200000080404210B500200F4908600F48006878
:1012100020F440200D4908600846006840F4802012
:10122000086001200A49C1F8A402022003F08EFEE2
:10123000012005490860022003F088FE00200449CF
:10124000C1F8A00210BD0000A0824042000402408C
:101250000080404210B50F48006820F440200D493E
:1012600008600846006840F48020086001200A49B0
:1012700008600A49C1F8A002042003F067FE0020BC
:1012800005490860042003F061FE00200349C1F80D
:10129000A00210BD00040240A482404200804042EF
:1012A00010B50F48006820F440200D49086008463A
:1012B000006840F48020086000200A4908600A495C
:1012C000C1F8A402042003F041FE01200549086092
:1012D0000549C1F8A402042003F038FE10BD000047
:1012E00000040240A08240420080404210B5002429
:1012F0001348006820F4402011490860084600683F
:10130000086001200F49086003F020FE01200E490B
:10131000C1F8A00203F01AFE07E0601CC4B2FA2C68
:1013200003DDFFF7BDFF012010BD064880380068CF
:101330000028F2D10349091F086000BFF4E700004C
:1013400000040240A482404200804042D321074A68
:101350001180911C0888088808884FF6FF7101EAFF
:101360000020911C0988084370470000FE1F006C94
:101370004CF6CC4001490860704700000030004046
:101380004AF6AA200149086070470000003000407A
:101390000149486070470000003000400149886002
:1013A00070470000003000400149086070470000AD
:1013B0000030004070B505460C4645F25550FFF729
:1013C000F3FF2846FFF7E4FF2046FFF7E7FFFFF7AC
:1013D000D7FFFFF7CDFF70BD1CB50121202001F024
:1013E000C7F800208DF804008DF806004FF47070E7
:1013F000009001208DF8070002208DF80500694655
:101400000148FFF79CFD1CBD0014024070B5044666
:1014100000250026094800880949098800FB01F6D3
:101420000021084600F05EFB00F0C8FB00BF02E0B0
:10143000044804806D1CB542FAD370BD3801002009
:101440003A0100200020006C70B505460E46144697
:101450003146284600F0C2F9034800880349088055
:10146000881C048070BD00003C010020FE1F006C41
:101470002DE9FF4F074616461C46BB460C2C01D1F2
:1014800098460AE0102C01D1A04606E0182C02D1A3
:101490004FF0300801E0BDE8FF8FA6F12000C6B292
:1014A000002548E00C2C07D106EB4600244901EB4F
:1014B000800010F8059010E0102C05D1214800EBB9
:1014C000061010F8059008E0182C06D106EB46002F
:1014D0001D4901EB001010F805904FF0000A24E0C0
:1014E00009F0010030B11948028838460199FFF728
:1014F000ABFF05E01648028838460199FFF7A4FFC4
:101500004FEA6909781C87B2A7EB0B0104EBD47290
:10151000B1EB620F05D15F460198401C80B201908B
:1015200006E00AF1010000F0FF0ABAF1080FD7DB6C
:1015300000BF681CC5B24545B4DB00BFABE7000087
:10154000B4690008286E00081874000830010020F3
:10155000320100202DE9FF4F04460F461E46A346E8
:10156000182E02D14FF0480801E0BDE8FF8F00259A
:1015700032E0182E07D1029800EBC000184901EBA9
:10158000C00010F805904FF0000A1FE009F00100BC
:1015900030B11448028839462046FFF755FF05E070
:1015A0001148028839462046FFF74EFF4FEA690985
:1015B000601C84B2A4EB0B00182803D15C46781C95
:1015C00087B206E00AF1010000F0FF0ABAF1080F45
:1015D000DCDB00BF681CC5B24545CADB00BFC4E701
:1015E000945F00083001002032010020F0B505466C
:1015F0000F4616461C460DE02278334639462846EB
:10160000FFF7A8FFA81985B208480088854200DBCB
:101610000AE0241D2068002806DB2068642803DC1B
:101620002068401C0028E7D100BFF0BD3801002031
:101630002DE9F04F04460D4616461F46DDE909899F
:101640000C48B0F800A00C48B0F800B00948A0F869
:1016500000800948A0F800903B46324629462046C3
:10166000FFF7C4FF0348A0F800A00348A0F800B0AB
:10167000BDE8F08F30010020320100202DE9FF4F3E
:1016800081B0074690461E460E9CC3464FF00009A7
:1016900006E00A20BBFBF0FB09F1010000F0FF09A6
:1016A000BBF1000FF5D1B14508DD26A3224638462F
:1016B000029900F04BF805B0BDE8F08F00253CE042
:1016C000A6EB0900A8421BDD0F9860B104EBD471B2
:1016D000491001FB057188B223463022009402991B
:1016E000FFF7C6FE27E004EBD471491001FB05713A
:1016F00088B22346202200940299FFF7B9FE1AE02F
:10170000701B401EC1B20A20FFF758F9B8FBF0F079
:101710000A21B0FBF1F201FB120A04EBD47149106B
:1017200001FB057188B20AF13001CAB22346009468
:101730000299FFF79DFE681CC5B2B542C0DB00BF31
:10174000B9E700004552524F52000000F0B506467E
:101750000F4615461C4611E022782B463946304686
:10176000FFF786FE284605EBD07106EB61018EB2CD
:1017700006480088864200DB06E0641C20782028AA
:1017800002DB20787E28E7DD00BFF0BD38010020B5
:101790002DE9F04F04460D4616461F46DDE909893E
:1017A0000C48B0F800A00C48B0F800B00948A0F808
:1017B00000800948A0F800903B4632462946204662
:1017C000FFF7C4FF0348A0F800A00348A0F800B04A
:1017D000BDE8F08F300100203201002030B5044612
:1017E0000D462946204600F07DF900F0E7F9024851
:1017F00000880249088030BD300100200020006CC4
:1018000000B59FB00121782000F0B2FE012108460A
:1018100000F0BEFE4FF480601D9001208DF878002E
:1018200000208DF87A0002208DF8790001208DF8D3
:101830007B001DA97748FFF782FB4CF233701D90A7
:1018400002208DF8780000208DF87A0003208DF8B2
:10185000790001208DF87B001DA96F48FFF76FFB11
:101860004FF680701D9002208DF8780000208DF8D2
:101870007A0003208DF8790001208DF87B001DA9E6
:101880006648FFF75CFB04201D9002208DF878006D
:1018900000208DF87A0003208DF8790001208DF862
:1018A0007B001DA95E48FFF74AFB4FF480501D9056
:1018B00002208DF8780000208DF87A0003208DF842
:1018C000790001208DF87B001DA95548FFF737FBF3
:1018D0000C2200215048FFF77AFB0C2201214E48D0
:1018E000FFF775FB0C2204214B48FFF770FB0C221D
:1018F00005214948FFF76BFB0C2208214648FFF7FA
:1019000066FB0C2209214448FFF761FB0C220A21E7
:101910004148FFF75CFB0C220E213F48FFF757FBC5
:101920000C220F213C48FFF752FB0C2207213B48B9
:10193000FFF74DFB0C2208213848FFF748FB0C222B
:1019400009213648FFF743FB0C220A213348FFF7F1
:101950003EFB0C220B213148FFF739FB0C221146CC
:101960002E48FFF734FB0C220D212C48FFF72FFBEC
:101970000C220E212948FFF72AFB0C220F212748B1
:10198000FFF725FB0C2202212548FFF720FB0C2244
:1019900011462348FFF71BFB0F20079000200890FB
:1019A0003C20099000200A900B900C900D9008208C
:1019B00000900020019007200290002003900490E6
:1019C0000590069006200E9000200F901090102099
:1019D00011900020129014901390159016904FF4CF
:1019E00080501790002018904FF4804019900020EC
:1019F0001A9007A81B90CDF870D00EA8FFF72CFA0C
:101A000001210620FFF70EFA322003F079FA1FB009
:101A100000BD000000140240000C02400010024013
:101A20000018024030B58418641EA2B2CC18641E9F
:101A3000A3B2264C24786CBB254C248841F6631550
:101A4000AC4227D1234C2488A41A241AA0B2CC1863
:101A5000641EA3B2204C2488204D2C800412AD1C9F
:101A60002C80C4B22C808418641EC4F30F242C80F4
:101A70008418641EE4B22C80194C2488AD1E2C807E
:101A80000C12AD1C2C80CCB22C801C122C80DCB231
:101A90002C8019E0104C2488104D2C800412AD1CB1
:101AA0002C80C4B22C8014122C80D4B22C800C4C0C
:101AB0002488AD1E2C800C12AD1C2C80CCB22C8046
:101AC0001C122C80DCB22C8030BD000036010020BE
:101AD00034010020380100203E010020FE1F006C70
:101AE000400100202E4A128849F241339A4212D115
:101AF0002C4A12882C4B1A8002129B1C1A80C2B2EC
:101B00001A802A4A12889B1E1A800A129B1C1A806D
:101B1000CAB21A8042E0224A128841F663139A42FE
:101B20003CD1234A12788AB9224A1288521E121ACC
:101B300090B21C4A12881C4B1A8000229B1C1A80EF
:101B40001A8002121A80C2B21A8013E0154A128853
:101B5000154B1A8002129B1C1A80C2B21A80154AB9
:101B60001288521EC2F30F221A80124A1278521E95
:101B7000D2B21A800D4A12880B4B1A800A129B1C93
:101B80001A80CAB21A800C4A1288521EC2F30F225F
:101B90001A80094A1278521ED2B21A807047000089
:101BA000340100203E010020FE1F006C4001002097
:101BB00036010020380100203A0100200248008848
:101BC00002490880704700003C010020FE1F006CA5
:101BD000024A1080921C118070470000FE1F006CAA
:101BE00010B5FFF70DFEFFF7B1FBEB490880084683
:101BF000008849F24131884223D0A120E74908807A
:101C0000881C0088E4490880E448801C008808801B
:101C1000084600884FF6FF7101EA0020DE4908807F
:101C2000DE48801C008809880843DB490880084694
:101C3000008845F26171884203D141F66310D649AC
:101C40000880D548008849F2413188421CD1D448E7
:101C5000006820F00F004FF02041C1F81C01084639
:101C6000D0F81C0120F47060C1F81C010846D0F8BF
:101C70001C0140F00300C1F81C010846D0F81C010B
:101C800040F40070C1F81C01C348008849F241319A
:101C900088427DD1CF20C14908800020891C08805E
:101CA000C120088030200880ED20891E0880642033
:101CB000891C088003200880122008808120088069
:101CC000E820891E08808520891C08801020088053
:101CD0007A200880CB20891E08803920891C088042
:101CE0002C200880002008803420088002200880F2
:101CF000F720891E08802020891C0880EA20891E80
:101D000008800020891C08800880C020891E088067
:101D10001B20891C0880C120891E08800120891C85
:101D20000880C520891E08803020891C0880088012
:101D3000C720891E0880B720891C08803620891E8C
:101D400008804820891C08803A20891E0880552078
:101D5000891C0880B120891E08800020891C088009
:101D60001A200880B620891E08800A20891C088055
:101D7000A2200880F220891E08800020891C08808B
:101D80002620891E08800120891C0880E02000E0B0
:101D900060E0891E08800F20891C08802A200880A6
:101DA00028200880082008800E200880082008804D
:101DB00054200880A9200880432008800A20088039
:101DC0000F20088000200880088008800880E1201B
:101DD000891E08800020891C088015200880172093
:101DE00008800720088011200880062008802B200A
:101DF0000880562008803C2008800520088010209C
:101E000008800F2008803F20088008800F2008806D
:101E10002B20891E08800020891C08800880012052
:101E200008803F2008802A20891E08800020891C05
:101E3000088008800880EF2008801120891E088013
:101E4000782003F05DF82920544908800120554985
:101E5000086098E05048008841F663118842F8D144
:101E6000E2204E4908801D20891C0880022008803D
:101E700004200880642003F069F8E02047490880C6
:101E80000120891C08800A2003F03AF8E020434929
:101E900008800320891C08800C2003F031F8012001
:101EA0003E4908800A2003F02BF8E6203B490880D1
:101EB0002F20891C0880FF2008800880B020891E00
:101EC00008802020891C08800020088003200880CA
:101ED00040F21F3008800120088040F2DF100880A7
:101EE00000200880B420891E08800420891C0880F6
:101EF00040F21F400880002008802E20088000202B
:101F00000880088008800880B620891E088002208A
:101F1000891C08804FF40370088000200880172077
:101F2000088015200880002008800880F020891E85
:101F300008800320891C08802920891E0880D02061
:101F400008800020891C0880BE20891E088005208A
:101F5000891C0880FE20088001200880002008805D
:101F600008800880B820891E08800320891C08800A
:101F700001200880BA20891E08800120891C088061
:101F8000FF2001F01BFD002001F030FC4FF6FF7038
:101F9000FFF73CFA10BD000034010020FE1F006C6A
:101FA0001C0100A0A88242422DE9F04190B000251A
:101FB00000240027A0460520039042252D245348E5
:101FC00040788DF83C00514880788DF83D002146DE
:101FD00028460FAB1822FFF7B9FB214605F1180080
:101FE00018231322FFF7B6FAA52500BF474800794A
:101FF0008DF83C00454840798DF83D002146284643
:102000000FAB1822FFF7A2FB214605F11800182399
:102010001422FFF79FFA012203A90320FEF719FCFF
:102020009DF80C00012805D142258A245D274FF038
:10203000AB0807E09DF80C0020B9422580245D27FD
:102040004FF0A0083148C0798DF83C002F48007A45
:102050008DF83D00A1B2A8B20FAB1822FFF776FBB6
:10206000A1B205F1180290B218231422FFF772FAF8
:102070009DF83D0030389DF83C10303901EB81016E
:1020800000EB4106002E09DB282E07DC1FFA88F141
:10209000B8B218231522FFF75DFA16E0282E09DDE5
:1020A000462E07DC1FFA88F1B8B218231622FFF774
:1020B00051FA0AE0462E08DD642E06DC1FFA88F18C
:1020C000B8B218231722FFF745FA002500240EA9FD
:1020D000002000F007FC9DF83A0000909DF8393090
:1020E0009DF83B200AA104A802F0F4FC40F664002D
:1020F0004FF6FF71CDE900102146284604AB1822A7
:10210000FFF746FB10B0BDE8F08100001000002092
:102110003230253032642D253032642D2530326442
:102120000000000030B593B0002400258F2400BFCC
:102130000FA9002000F010FC9DF83E0000909DF8D3
:102140003D309DF83C2057A105A802F0C3FC9DF846
:102150003C00002807DB9DF83C00052803DC01203B
:102160005449087002E00020524908705248007833
:1021700058B940F664004FF6FF71CDE90010A9B2DE
:10218000A0B205AB1822FFF703FB4C480078B0B9AA
:10219000012212A90420FEF75CFB9DF848000128EB
:1021A00002D09DF8480038B9012045490870122234
:1021B00044490520FEF74DFB012040490870404886
:1021C000007801286BD19DF83E009DF83D109DF8E8
:1021D0003C203D4B9B78CDE90032CDE902103A48D6
:1021E0004378C27839A105A802F074FC05A93548E6
:1021F000FEF711F8002852D1012210A90320FEF7A2
:1022000028FB012211A90420FEF723FB9DF84000C2
:1022100001280CD19DF84400012802D09DF844000B
:1022200028B901203149087031A002F043FC002098
:10223000384908709DF84400012811D136480078CB
:1022400018BB03F00DFE35A002F034FC012032492A
:10225000087018231A468021B820FFF77BF914E094
:102260009DF8440088B92C48007801280DD132A08F
:1022700002F020FC02F016FE002027490870182307
:1022800019228021B820FFF765F90320119001225F
:1022900011A90420FEF71AFB00200949087013B0A9
:1022A00030BD0000253032643A253032643A2530A2
:1022B00032640000AC0000200C000020AD000020C3
:1022C0000D0000206C010020A800002032302530D5
:1022D00032642D253032642D25303264253032644D
:1022E0003A253032643A2530326400000400002080
:1022F00073797374656D206D6F6465206368616EBA
:102300006765206279207365742074696D65200AA1
:1023100000000000800000200F0000206375727430
:1023200061696E206F70656E2066726F6D207365D7
:10233000742074696D650A006375727461696E203A
:10234000636C6F73652066726F6D207365742074A3
:10235000696D650A000000001CB50121502000F0E5
:1023600007F91820009001208DF8040000208DF856
:10237000060003208DF8050001208DF8070069464E
:102380000F48FEF7DCFD4FF40070009001208DF83F
:10239000040000208DF8060003208DF805000120C0
:1023A0008DF8070069460748FEF7C9FD1821044863
:1023B000FEF73BFE4FF400710248FEF736FE1CBDEF
:1023C000001002400018024000BFFEE73EB541F693
:1023D000FF740121080700F0EBF8012000F092F8EB
:1023E000002000F055FB45F2300188423BD001202F
:1023F00000F0B2F904E0601C84B20A2002F080FD13
:10240000412000F089F90028F5D00CB901203EBD2B
:102410004FF4807000F0BCF9012000F0B3F97F2088
:102420000190FF20029000200090684600F0FEFA24
:1024300001200E4908703A20487032208870002030
:1024400000F09AFB13200A49887005204870062086
:1024500008702020C870012000F02AFB45F22001FE
:10246000002000F0CDFC0020D1E70000A4000020F7
:10247000A80000207047000070B5002100230F2243
:10248000C4781CB3174C246804F4E064C4F5E06419
:10249000C4F30721C1F10404E3B20A4144789C402B
:1024A000E1B28478144021430C07210E0E4C0578CC
:1024B0006155047804F01F050124AC4005786D11C6
:1024C000AD0005F1E025C5F8004109E0047804F00D
:1024D0001F050124AC40054D0678761145F82640CD
:1024E00070BD00000CED00E000E400E080E100E0E1
:1024F00002490143024A1160704700000000FA05DA
:102500000CED00E0014908627047000000000E4237
:10251000704700001CB50121042000F029F84FF499
:102520008050009000208DF8040002208DF80500F6
:1025300000208DF8060002208DF807006946024849
:10254000FEF7FDFC1CBD00000008024010B5074866
:102550000068012807D10A2002F0D2FC0348006875
:10256000012800D110BD0020FCE7000030024142EC
:1025700029B1064A12680243044B1A6004E0034A78
:1025800012688243014B1A607047000030380240E5
:1025900029B1064A12680243044B1A6004E0034A58
:1025A00012688243014B1A607047000038380240BD
:1025B00029B1064A12680243044B1A6004E0034A38
:1025C00012688243014B1A60704700004038024095
:1025D00029B1064A12680243044B1A6004E0034A18
:1025E00012688243014B1A60704700002038024095
:1025F00029B1064A12680243044B1A6004E0034AF8
:1026000012688243014B1A60704700004438024050
:1026100029B1064A12680243044B1A6004E0034AD7
:1026200012688243014B1A60704700002438024050
:10263000F0B5002100220024022500260223324F9B
:102640003F6807F00C0121B1042905D0082937D1D2
:1026500005E02E4F076036E02D4F076033E02A4F2C
:102660003F1F3F68C7F38056274F3F1F3F6807F063
:102670003F036EB1264FB7FBF3F7DFF88CC0ACF128
:10268000040CDCF800C0CCF3881C07FB0CF40CE055
:102690001E4FB7FBF3F7DFF870C0ACF1040CDCF8A9
:1026A00000C0CCF3881C07FB0CF4174F3F1F3F689A
:1026B000C7F301477F1C7D00B4FBF5F7076002E01C
:1026C000124F076000BF00BF0F4F3F6807F0F001D7
:1026D0000909104F7A5C0768D74047600A4F3F6886
:1026E00007F4E051890A0B4F7A5C4768D74087604E
:1026F000054F3F6807F46041490B064F7A5C476815
:10270000D740C760F0BD0000083802400024F40044
:1027100000127A008800002010B501460022002334
:1027200000204A11012A02D10A4C236808E0022A3B
:1027300003D1084C7034236802E0064C74342368DB
:1027400001F01F02012494401C400CB1012000E064
:10275000002010BD003802400021094A117011709C
:10276000012802D0042808D103E00121044A117095
:1027700004E00521024A117000E000BF00BF70476D
:102780007038024001490860704700003C0E474223
:10279000002100F44072B2F5407F08D1094A116867
:1027A00021F4F811084A02401143064A1160054A13
:1027B00068321268C0F30B031A43024B68331A6085
:1027C0007047000008380240FFFCFF0F10B54FF4BF
:1027D000807000F0ADF801280DD1000200F032F851
:1027E00007A002F067F90948006808B9012000E075
:1027F0000020064908604FF40030FEF785FA10BD4E
:10280000414C41524D2041210D0A0000A402434297
:10281000014600BF080900EB8000420001F00F00F4
:102820001044C0B270470146002204E0501CC2B2FE
:10283000A1F10A00C1B20A29F8DA100741EA1060D2
:102840007047000081B241F08001044A126802F032
:10285000800262EA0101014A116070470C280040C1
:10286000002101098AB242F08002044B1B6803F088
:10287000800363EA0202014B1A6070470C28004093
:1028800008B50022009200200021104A126802F0D0
:102890004002CAB9421E0D4B1A6000BF0B4A1268B3
:1028A00002F04001009A521C0092009AB2F5803F5B
:1028B00001D00029F2D0054A126802F040020AB1A4
:1028C000012002E0002000E0012008BD0C280040AB
:1028D0000348006820F0800001490860704700004C
:1028E0000C28004070B506460C4600250E480068CE
:1028F0000E4900EA0105280CE070C5F30420607061
:1029000005F03F00A070C5F3423020705EB9E0785A
:10291000FFF77EFFE0706078FFF77AFF6070A078C5
:10292000FFF776FFA07070BD042800403FFFFF0056
:1029300010B5014600200022054B1B68054C03EA38
:10294000040202EA01030BB1012000E0002010BDE7
:102950000C2800407F3F010070B506460C4600255C
:102960000F4800680F4900EA0105C5F305402070D3
:10297000C5F30620607005F07F00A07005F48000AC
:10298000000CE0705EB92078FFF742FF207060789D
:10299000FFF73EFF6070A078FFF73AFFA07070BDB0
:1029A000002800407F7F7F0010B504460449204680
:1029B000FFF798FF03492046FFF7CEFF10BD000048
:1029C000A8000020A4000020CA22174B1A6053223E
:1029D0001A6091B1144A1C3A126820F004031A4399
:1029E000114B1C3B1A60104A1C32126800F00403A1
:1029F0001A430D4B1C331A6011E00B4A1C3A126843
:102A000020F004039A43084B1C3B1A60064A1C3210
:102A1000126800F004039A43034B1C331A60FF2230
:102A2000014B1A60704700002428004030B504466E
:102A30000025CA201549086053200860FFF720FFD1
:102A400000B91DE011481C38006820F040000F4913
:102A50001C39086008460068216808430B491C3986
:102A600008600A491439A068086008460068A1880F
:102A700040EA0140054914390860FFF729FF0125A4
:102A8000FF2002490860284630BD0000242800408D
:102A900008B501460020009004480090009800EB23
:102AA000810000900098006808BD00005028004098
:102AB0002DE9F04105460C46002600274DB9607807
:102AC00000F01000102804D1607820F010000A30C7
:102AD000607005B908E06078FFF79AFE0646A078B6
:102AE000FFF796FE064600BF55B1E0780004617816
:102AF00040EA0120A1780843217840EA413611E0FC
:102B0000E078FFF790FE4FEA00486078FFF78BFE11
:102B100048EA0028A078FFF786FE48EA00082078F7
:102B200048EA4036CA201249086053200860FFF77F
:102B3000A7FE08B9002714E00E4830400C492039A0
:102B40000860FFF7C5FE0A481C38006800F0200046
:102B500030B900F0D1F808B9002702E0012700E001
:102B60000127FF20024908603846BDE8F0810000D7
:102B7000242800403FFFFF002DE9F04105460C46A8
:102B8000002600274DB92E48006800F0400000B133
:102B900002E00020E07000BF0DE02948006800F06E
:102BA000400020B12078FFF733FE064602E0002007
:102BB000E07000BF00BF55B120780004617840EAA2
:102BC0000120A1780843E17840EA014611E020782D
:102BD000FFF729FE4FEA00486078FFF724FE48EA35
:102BE0000028A078FFF71FFE48EA0008E07848EACE
:102BF0000046CA2012491C31086053200860FFF7C4
:102C00003FFE08B9002713E00E4830400C49083950
:102C10000860FFF75DFE0A48006800F0200030B948
:102C200000F06AF808B9002702E0012700E0012758
:102C3000FF2003491C3108603846BDE8F0810000E0
:102C4000082800407F7F7F00CA21054A1160532178
:102C50001160034910390860FF21116070470000BE
:102C6000242800403EB505460C46002000F08CF8B4
:102C7000284600F071F82046FFF7E6FF4FF4804049
:102C8000FFF7EEFD4FF48000FEF73EF801218803C8
:102C9000FFF79AFE012000F077F84FF480000190D2
:102CA00000208DF8080008208DF8090001208DF81B
:102CB0000A0001A8FEF73AF803208DF80000022070
:102CC0008DF801008DF8020001208DF803006846A0
:102CD000FFF7D2FB3EBD10B54FF48060FFF728FE32
:102CE000012804D18002FFF7ADFDFFF71BFA4FF476
:102CF0008000FEF709F810BD08B500220092002000
:102D00000021CA22134B1A6053221A60114A183A42
:102D1000126822F0A0020F4B183B1A6000BF0D4A48
:102D2000183A126802F02001009A521C0092009A90
:102D3000B2F5003F01D00029F1D0064A183A1268D6
:102D400002F020020AB1012000E00020FF22014B26
:102D50001A6008BD24280040CA210A4A1160532184
:102D6000116008491C39096821F00701054A1C3A1D
:102D700011601146096801431160FF21014A116089
:102D8000704700002428004018B501460023009336
:102D900000220020CA23194C23605323236049B129
:102DA000164B1C3B1B6843F48063144C1C3C236093
:102DB00001201FE0114B1C3B1B6823F480630F4C68
:102DC0001C3C236000BF0D4B183B1B6803F0040242
:102DD000009B5B1C0093009BB3F5803F01D0002A51
:102DE000F1D0064B183B1B6803F004030BB900201D
:102DF00000E00120FF23014C236018BD242800407F
:102E000008B500220092044A0092009A02EB800268
:102E10000092009A116008BD502800402DE9F04151
:102E200004460D460A48007800F076F80646094840
:102E3000007800F071F80746322E01DB322F02DAFB
:102E40000020BDE8F08126802F800120F9E70000F6
:102E50004C0100204D0100207FB504460D4602A91B
:102E600003A8FFF7DBFF064616B9002004B070BDCB
:102E7000694601A8FFF7D2FF06460EB90020F5E724
:102E8000BDF80400BDF80C10884206DCBDF80C103B
:102E9000BDF80400323081420CDBBDF80C00BDF8F7
:102EA0000410884236DCBDF80410BDF80C00323046
:102EB00081422FDABDF80000BDF80810884206DC18
:102EC000BDF80810BDF80000323081420CDBBDF8BF
:102ED0000800BDF8001088421CDCBDF80010BDF8E9
:102EE00008003230814215DABDF80C10BDF804201C
:102EF000881800EBD071C1F34F012180BDF8081094
:102F0000BDF80020881800EBD071C1F34F01298073
:102F10000120ABE70020A9E72DE9FE43804600270A
:102F2000002406E0404600F059FB2DF81400601C18
:102F300084B2052CF6DB002416E0601C85B20FE09D
:102F40003DF814003DF81510884207DD3DF8146087
:102F50003DF815002DF814002DF81560681C85B299
:102F6000052DEDDB601C84B2042CE6DB0027012478
:102F700005E03DF81400384487B2601C84B2042C8C
:102F8000F7DB032097FBF0F086B23046BDE8FE8306
:102F900070B505462846FDF737F986B200240CE0E7
:102FA00000BF4021064801F033FB0028F9D0295D1D
:102FB000034801F0F8FB601C84B2B442F0DB70BD42
:102FC000004C00402DE9F04FE5B04FF0000800251F
:102FD0000026A946282147A8FDF70BF928213DA87E
:102FE000FDF707F903203C90001F3B9003203A9027
:102FF00004203890F94903C9CDE936010027202281
:10300000F64908312EA8FDF7DBF82022F3492831D4
:1030100026A8FDF7D5F81C22F04948311FA8FDF776
:10302000CFF81C22ED49643118A8FDF7C9F8142126
:1030300013A8FDF7DEF8E949803103C9CDE9110194
:103040002422E649883108A8FDF7BAF81422E3499A
:10305000AC3103A8FDF7B4F82F200290E04A00211C
:10306000084602F0B9F80020FFF79EFC00F0B8FE19
:1030700001223AA90420FDF7ECFB9DF8E8000128A5
:1030800003D09DF8E800002842D10A223DA905207E
:10309000FDF7DFFB4EF69C701F213DAB1822CDE9FA
:1030A00000109B212420FEF773FB082247A90F2064
:1030B000FDF7CFFB4EF69C701F2147AB1822CDE9E0
:1030C0000010B7213C20FEF763FB01279DF8E800C4
:1030D00068B9192036904EF69C701F2136AB182225
:1030E000CDE90010AA21CF20FEF7A2FA10E09DF84A
:1030F000E80001280CD1182036904EF69C701F2154
:1031000036AB1822CDE90010AA21CF20FEF790FAA5
:1031100044E2002002F0E0F8701CC6B2002001F08A
:1031200045FCB0480068012800D174E0AE48008832
:10313000002813DDAC4800881E280FDAAB48008851
:1031400000280BDDA9480088322807DA00BFC82014
:1031500001F0D6FE0020A649087020E2A2480088AF
:103160006C281FDDA048008899281BDA9F4800883A
:10317000DC2817DD9D480088B0F5847F12DCC8206C
:1031800001F0BEFE77B9182036904EF69C701F21D4
:1031900036AB1822CDE90010AA21CF20FEF748FA5D
:1031A00001203C909048008899281FDD8E480088B7
:1031B000C6281BDA8D480088DC2817DD8B4800887C
:1031C000B0F5847F12DCC82001F09AFE77B919208F
:1031D00036904EF69C701F2136AB1822CDE90010B8
:1031E000AA21CF20FEF724FA00203C907E480088D8
:1031F000C62829DD7C480088F02825DA7B4800882D
:10320000DC2821DD79480088B0F5847F1CDCC820EB
:1032100001F076FE00BF002072490860704A00216C
:10322000084601F0D9FF4FF0000803203990012231
:1032300039A90420FDF74AFB00206E4908700027D9
:103240003B9001206C490860B8F1000F03D0B8F141
:10325000010F2ED13DE06948007804282AD1684842
:103260000088FA2826DD012238A90420FDF7F1FAAA
:103270009DF8E000012802D09DF8E000B8B94EF6B4
:103280009C701F2103AB1822CDE9001063211E2082
:10329000FEF7CEF94EF69C704FF4784159A31822F0
:1032A000CDE9001063217E20FEF772FA01E04FF0B5
:1032B00001086FE1322096FBF0F100FB116038B994
:1032C000B9F1000F04D10020FFF76EFB00F088FD7C
:1032D00060E14E480078032804D1681CC5B2052D72
:1032E00000DD002531462846FDF7F6F8474800780E
:1032F000042871D100F0E2FD4548807800904448F0
:103300004378C27843A13DA801F0E4FB46488078A9
:10331000009045484378027844A147A801F0DAFBC1
:103320000020FFF741FB3A48807800903848437806
:10333000C27838A15BA801F0CDFB3B4880780090B3
:1033400039484378027839A151A801F0C3FB5BA941
:103350003DA8FCF760FF002802DD01203B9080E0E3
:103360005BA93DA8FCF757FF48BB51A947A8FCF74C
:1033700052FF002802DD01203B9072E04EF69C7067
:103380001F212EAB1822CDE9001063211E20FEF76D
:103390004FF9002404E00A2001F0B2FD601CC4B221
:1033A000C82CF8DB4FF6FF701F2108AB1822CDE9BF
:1033B000001063211E20FEF73BF9002751E04EF676
:1033C0009C701F2126AB1822CDE9001063211E201E
:1033D000FEF72EF9002436E0C4E00000D45E0008B9
:1033E000F0DD020808000020440100204601002012
:1033F0000C0000200D000020A40243429C0000208D
:103400009A000020434C4F534500000098000020D4
:10341000A80000203230253032642D253032642D52
:103420002530326400000000A40000202530326402
:103430003A253032643A2530326400000A2001F027
:103440005FFD601CC4B2C82CF8DB4FF6FF701F2173
:1034500008AB1822CDE9001063211E20FEF7E8F822
:1034600000273B9801287DD19DF8F000012803D06A
:103470009DF8F000002853D19DF8F0104AA001F00B
:1034800019FB4EF69C701F2118AB1822CDE90010D5
:1034900063211E20FEF7CCF8002404E00A2001F08E
:1034A0002FFD601CC4B2C82CF8DB01223CA904200B
:1034B000FDF70CFA3DA8FCF7A7FE1FFA80FA52466A
:1034C0003DA90520FDF702FA322001F019FD47A8B9
:1034D000FCF79AFE1FFA80FA524647A90F20FDF723
:1034E000F5F9322001F00CFD3DA8FCF78DFE834676
:1034F00047A8FCF789FE58441FFA80FA524634491F
:103500000520FDF7A6F901203249087001270320A4
:103510003C9000203B90002580462F49086016E62D
:1035200000203B904EF69C701F211FAB1822CDE966
:10353000001063211E20FEF77BF84EF69C701F21C1
:1035400002AB1822CDE900106321AE20FEF720F96E
:103550004EF69C701F2111AB1822CDE9001063219B
:10356000BA2000E015E0FEF763F8002404E00A202A
:1035700001F0C6FC601CC4B2C82CF8DB4FF6FF702B
:103580001F2108AB1822CDE9001063211E20FEF791
:103590004FF800BF00BF052001F0B2FCB9E500BF45
:1035A00065B0BDE8F08F000073657420616E642023
:1035B00063686F6F7365206F6BA3AC637572746122
:1035C000696E5F7374617475733D202564200A0011
:1035D0006C0100200D000020A402434270B5064695
:1035E0000025002400201E4908601E49C1F88402FD
:1035F0001D490860304600F03BF8062001F0A6FCAB
:1036000000201A49C1F89402012001F09FFC01201A
:103610001349086001F09AFC00201449C1F8940293
:1036200000BF15E04FF6FF7000EA440400200C498B
:103630000860012001F08AFC01200C49C1F89402C5
:1036400009487838006808B1601C84B2681CC5B2AB
:10365000102DE7DB2411012003490860204670BDCE
:10366000940240420080404280824042000040423A
:1036700070B50446002500BF17E004F0800018B1C3
:1036800001200B49086002E000200949086060063B
:10369000040E002007490860012001F057FC0120BA
:1036A0000549C1F89402681CC5B2082DE5DB70BD60
:1036B0008482404294024042000040427047000031
:1036C00030B500228B071C0F0F2303FA04F20B4BBB
:1036D0008C1053F824309343084C8D1044F8253057
:1036E00023468C1053F824308C07240F00FA04F47E
:1036F0002343024C8D1044F8253030BD083801407A
:103700000CB50020019000903448006840F48030EF
:103710003249086000BF3148006800F40030009072
:103720000198401C0190009818B90198B0F5A04F7D
:10373000F1D12A48006800F4003010B10120009057
:1037400001E0002000900098012846D12348403035
:10375000006840F0805021494031086020480068EE
:1037600040F440401E4908601C48083000681B496E
:10377000083108600846006840F4004008600846C8
:10378000006840F4A05008601648091F0860081F30
:10379000006840F08070091F086000BF0F48006893
:1037A00000F000700028F9D040F205700E49086062
:1037B0000A480830006820F0030008490831086012
:1037C0000846006840F00200086000BF0348083067
:1037D000006800F00C000828F8D10CBD0038024049
:1037E0000070004008544007003C024010B50446F9
:1037F0008CBB0020334908703348008849F24131BE
:10380000884210D12C20314908802A203049088074
:103810002B2030490880F0202F4908804FF4A070F9
:103820002E49088049E02848008841F66311884203
:1038300043D12C20254908802B20254908802A20A7
:10384000244908804FF4F070234908804FF44870F1
:103850002249088031E0FFE701201A4908701A4820
:10386000008849F24131884210D12C201749088044
:103870002A20174908802B20164908804FF4A07091
:1038800015490880F0201549088016E00E48008888
:1038900041F66311884210D12C200C4908802A205F
:1038A0000B4908802B200B4908804FF448700A49C7
:1038B00008804FF4F07009490880002000F010F8EB
:1038C00010BD000036010020340100203C01002022
:1038D0003E01002040010020380100203A01002074
:1038E00070B505460024002630480078012805D12F
:1038F0002F48008849F24131884208D02B4800788F
:10390000F0B92B48008841F66311884218D1082D80
:1039100015D2DFE805F00406080A0C0E1012062581
:103920000DE007250BE0042509E0052507E001254A
:1039300005E0002503E0032501E0022500BF00BFEC
:10394000082D1CD2DFE805F00406090C0F1215182B
:1039500000BF14E044F0800411E044F040040EE0A5
:1039600044F0C0040BE044F0200408E044F060049C
:1039700005E044F0A00402E044F0E00400BF00BF12
:1039800036260B48008849F24131884201D144F083
:10399000080421463046FEF71BF90648038806480E
:1039A000028800210846FEF73DF870BD3601002070
:1039B000340100203A01002038010020BE21074ACE
:1039C00011800521921C118011460880012111806F
:1039D000FF2111800021118011807047FE1F006CB3
:1039E000042808D14FF0E021096941F004014FF0AB
:1039F000E022116107E04FF0E021096921F00401A4
:103A00004FF0E0221161704702480068401E0149F2
:103A1000086070478400002010B51548006840F425
:103A20007000134908601348006840F00100114914
:103A3000086000200F49083108600E4800680E49F0
:103A400008400C4908600D48091D0860081F0068FF
:103A500020F48020091F0860002006490C3108600E
:103A6000FFF74EFE4FF0006001498039086010BD3D
:103A700088ED00E000380240FFFFF6FE1030002421
:103A800010B504466FF00400FFF7AAFFE11704EB3E
:103A90005171C1F3C701074A11701046007800EB5D
:103AA0004001C1EBC0104FF6FF7101EAC0000249AE
:103AB000088010BD620100206401002010B50121C2
:103AC000880700F030F9012810D10B480068401C2D
:103AD00018B901200849086008E008A000F0EAFFD2
:103AE0000CA0FFF755FA00200B4908600121880758
:103AF00000F00AF910BD000050000020BCECB2E25A
:103B0000CAA7B0DC20C6F4B6AFBFB4C3C5B9B70A04
:103B1000000000002B2B2B00340000207FB5054651
:103B20000C4601210846FEF743FD0295ADF804401E
:103B30000020ADF80600ADF80C0001A94FF0804060
:103B400000F00CF91C208DF8000001208DF8010018
:103B500002208DF8020001208DF803006846FEF770
:103B60008BFC0121880700F0D2F801221146900752
:103B700000F0EAF80121880700F0C6F87FBD0000D8
:103B800010B501211D4800F0CEF8012830D11C48A5
:103B9000006820B91B480068401C1A490860194891
:103BA000006802280AD140F6C4110420FDF702FC87
:103BB000012013490860002012490860124800687B
:103BC000012815D111480068401C104908600846BA
:103BD00000680A280CD1002008600D4801F012FA94
:103BE0000B48FFF7D5F90B48007808B9FEF7DCF968
:103BF0000121024800F088F810BD000000040040D8
:103C00004800002044000020340000204C00002028
:103C1000100000200C0000207FB505460C46012155
:103C20000220FEF7C5FC0295ADF804400020ADF877
:103C30000600ADF80C0001A90F4800F08FF81D2018
:103C40008DF8000001208DF8010003208DF802009E
:103C500001208DF803006846FEF70EFC012106489E
:103C600000F055F801221146034800F06DF80121DB
:103C7000014800F049F87FBD0004004010B5012163
:103C8000074800F050F8012805D1064800680128CF
:103C900001D101F0A1F90121014800F035F810BD72
:103CA00000080040340000207FB505460C46012185
:103CB0000420FEF77DFC0295ADF804400020ADF82D
:103CC0000600ADF80C0001A90E4800F047F81E20D0
:103CD0008DF8000001208DF801008DF802008DF8AC
:103CE00003006846FEF7C8FB0121064800F00FF804
:103CF00001221146034800F027F80121014800F095
:103D000003F87FBD00080040CA430282704721B11A
:103D1000028842F00102028004E002884FF6FE733E
:103D20001A400280704730B502460020002300246C
:103D3000158A05EA0103958905EA010413B10CB15E
:103D4000012000E0002030BD1AB183890B4383813C
:103D500002E083898B438381704700000022028840
:103D6000184B98420ED0184B98420BD0B0F1804FB0
:103D700008D0164B984205D0154B984202D0154BEF
:103D8000984204D14FF68F731A404B881A43124B56
:103D9000984207D0114B984204D04FF6FF431A4087
:103DA0000B891A4302804B68C3620B880385054B5D
:103DB000984202D0044B984201D18B7A03860123AA
:103DC000838270470000014000040140000400406D
:103DD00000080040000C00400010004000140040AB
:103DE0007CB553251624214628462CA31822FDF71E
:103DF000ADFC012018212C4BCDE90010DA782146CA
:103E000005F1180398B20223FDF738FC01201821B0
:103E1000254BCDE900105A78214605F13C0398B2B4
:103E20000223FDF72BFC012018211F4BCDE90010C8
:103E30009A78214605F1600398B20223FDF71EFC33
:103E40006B2532242146284618A31822FDF77EFC54
:103E500001201821184BCDE900101A782146A8B28C
:103E60000223FDF70BFC01201821134BCDE90010B4
:103E70005A78214605F1240398B20223FDF7FEFB90
:103E8000012018210C4BCDE900109A78214605F14C
:103E9000480398B20223FDF7F1FB7CBD32302020AD
:103EA0002D20202D20200000A800002020203A20D6
:103EB000203A202000000000A40000207CB524252A
:103EC0009B241F20324908804EF69C701F21CDE9AB
:103ED0000010214628462FA31822FDF759FC012087
:103EE00018212F4BCDE90010DA78214605F1180092
:103EF0000223FDF7C3FB01201821294BCDE9001057
:103F00005A78214605F13C000223FDF7B7FB01205A
:103F10001821234BCDE900109A78214605F1600065
:103F20000223FDF7ABFB3C25B7244EF69C701F2106
:103F3000CDE90010214628461AA31822FDF728FCD7
:103F4000012018211A4BCDE900101A782146284685
:103F50000223FDF793FB01201821154BCDE900103A
:103F60005A78214605F124000223FDF787FB012042
:103F700018210F4BCDE900109A78214605F1480031
:103F80000223FDF77BFB4FF47840014908807CBD9C
:103F900030010020323020202D20202D2020000054
:103FA000A800002020203A20203A20200000000015
:103FB000A400002010B50448008849F2413188422D
:103FC00001D100F077FC10BD3401002010B588B09D
:103FD000044601210846FEF7CBFA01211020FEF726
:103FE00007FB01218803FEF703FB07220921224872
:103FF000FCF7EDFF07220A211F48FCF7E8FF4FF40A
:10400000C060069002208DF81C008DF81D00002075
:104010008DF81E0001208DF81F0006A91648FCF738
:104020008EFF02940020ADF80C00ADF80E00ADF844
:104030001000ADF814000C20ADF8120002A90F48D2
:1040400000F042FB25208DF8040002208DF80500C9
:104050008DF8060001208DF8070001A8FEF70CFA84
:10406000012240F22551054800F009FB01210348D7
:1040700000F04AFA08B010BD0000024000100140F4
:10408000F8B500250520009040F22551C84800F001
:10409000CCFA002876D0C64800F080FB044600BF6A
:1040A0004021C44800F0B4FA0028F9D02146C148A4
:1040B00000F079FBC0480068E0B93E2C19D101201E
:1040C000BD49086000F088FF42F2CF0149F63F4049
:1040D000FFF7EAFD42F2CF0142F20F70FFF79CFDBD
:1040E0000020B64908600120B54908600020B549A4
:1040F000086056E1B04800680128FAD1B24800785B
:1041000010B1012843D143E07B2C05D1AE480078A3
:10411000401CAD4908703AE0AC49AD4A12688C5475
:10412000AB480068401CAA49086008460068401E69
:10413000A649085C6B282AD10020A54A1268885439
:10414000A4A1A248FCF767F808BB0020A0490860BA
:104150009E490870487088709F48006840B90120E7
:104160009D49086042F2CF019C48FFF7D7FC0EE062
:1041700000204FF0804148629248001D006810B94D
:10418000012001E012E100208E49091D086007E1CD
:104190008E498F4A12688C548D480068401C8C49A7
:1041A000086008460068401E8849085C7D287DD16B
:1041B000002187480068401E844A11548148001D30
:1041C000006808B9012000E000207E49091D086050
:1041D0007E48FCF719F8064632467C4980A000F07C
:1041E00069FC86A17948FCF716F898B9012269465E
:1041F0000320FCF72EFB9DF80000002809D1814820
:1042000000780028FAD101207F4908707FA000F0D3
:1042100051FCB7E084A16D48FBF7FDFF98B901227E
:1042200069460320FCF715FB9DF800000028F0D13B
:10423000744800780128ECD10020734908707DA0F3
:1042400000F038FC9EE082A16048FBF7E4FF60B913
:10425000012269460320FCF7FCFA9DF800000028C3
:10426000D7D101207D4908608CE07DA15748FBF73C
:10427000D2FF58B9012269460320FCF7EAFA9DF8FB
:10428000000001287ED1754908607BE077A14F4886
:10429000FBF7C1FF002875D077A14C48FBF7BBFFA7
:1042A000A0B9042000900122694600E077E0FCF705
:1042B0000DFB01207349086073480078012801D183
:1042C000724908600020724908705BE071A13F48A4
:1042D000FBF7A1FF08BB72480078002852D10122E9
:1042E00069460320FCF7B5FA9DF80000012806D1C5
:1042F00018231A46DB215120FDF72CF905E018237D
:104300001A46C7215120FDF725F90120644908709C
:1043100001220220FCF7DAFA34E062A12B48FBF715
:104320007AFF08BB5E48007801282BD1012269463C
:104330000320FCF78EFA9DF80000012806D118230F
:104340001922DB215120FDF705F905E01823192278
:10435000C7215120FDF7FEF80020514908700122C5
:104360000220FCF7B3FA0DE051A11848FBF753FF08
:1043700040B9524800F046FE5048FEF709FE50A0F2
:1043800000F098FB002503E00020104948556D1C03
:10439000322DF9DB00200E4908600B49087000BF80
:1043A00000BF40F22551024800F09FF8F8BD000020
:1043B000004C004000100140300000202404004068
:1043C000340000208C024242400000207E01002088
:1043D0002C0000206F6B000038000020DF2202005C
:1043E0006F726465722066726F6D20736572766598
:1043F00072203D2025733D2564200A006375727488
:104400005F6F6E000F00002002000020206F7065BB
:104410006E206375727461696E2066726F6D2073B1
:1044200065727665720A0000637572745F6F666606
:1044300000000000636C6F736520637572746169BE
:104440006E2066726F6D207365727665720A000069
:10445000736D6172745F6F6E0000000004000020D5
:10446000736D6172745F6F666600000073657474CB
:10447000695F6F6E2000000073657474695F6F661A
:1044800066000000A40243420C0000200800002047
:104490000D000020616C61726D5F6F6E00000000A6
:1044A0000E000020616C61726D5F6F666600000037
:1044B0007570646174655F6F6E000000100000200D
:1044C0007570646174655F6F6E2073756363657387
:1044D0007366756C0A00000001F40072B2F5007F8B
:1044E00000D100BFCA430280704710B500220023EC
:1044F00040F66A14A14200D100BF0A120124944080
:10450000A3B2DC43048010BD21B1828942F4005281
:10451000828104E082894DF6FF731A4082817047E0
:1045200010B504463248844208D101211020FEF71C
:104530006FF800211020FEF76BF857E02D488442F9
:1045400009D101214804FEF743F800214FF400305F
:10455000FEF73EF84AE02848844209D10121880448
:10456000FEF736F800214FF48020FEF731F83DE0E9
:104570002248844209D10121C804FEF729F800210C
:104580004FF40020FEF724F830E01D48844209D1A2
:1045900001210805FEF71CF800214FF48010FEF7FA
:1045A00017F823E01748844208D101212020FEF7A4
:1045B0002FF800212020FEF72BF817E01248844244
:1045C00009D101218807FEF703F800214FF0804050
:1045D000FDF7FEFF0AE00D48844207D101214005A6
:1045E000FDF7F6FF00216005FDF7F2FF10BD0000AA
:1045F000001001400044004000480040004C0040D2
:10460000005000400014014000780040007C004051
:1046100002460020B1F5007F00D100BF13880B4097
:104620000BB1012000E00020704770B50246002465
:1046300000230025002040F66A16B14200D100BFD9
:10464000C1F3421501F01F03012606FA03F3012D01
:1046500002D19689334006E0022D02D1168A3340FA
:1046600001E0968A33400C12012606FA04F41688FB
:10467000344013B10CB1012000E0002070BDF0B552
:104680000346002400260025002040F66A17B942A0
:1046900000D100BF1846C1F3421401F01F060127E4
:1046A00007FA06F5012C01D10C3004E0022C01D1EF
:1046B000103000E014301AB107682F43076002E0A1
:1046C0000768AF430760F0BD2DE9FF4705460E467A
:1046D0000024A14600BFA046B08900B100BF2C8ACB
:1046E00024F44054F08804432C82AC8941F20C60DD
:1046F0008443B08831890843718908430443AC81FD
:10470000AC8A24F44074B0890443AC826846FDF757
:104710008FFF2048854202D01F48854202D1DDF834
:104720000C9001E0DDF80890A88900F4004040B149
:1047300009EBC90000EB091031684900B0FBF1F743
:1047400007E009EBC90000EB091031688900B0FBF4
:10475000F1F76420B7FBF0F004012009642101FBAC
:104760001078A88900F4004040B1322000EBC80066
:10477000B0FBF1F000F00700044308E0322000EB4A
:1047800008106421B0FBF1F000F00F0004432C810D
:10479000BDE8FF87001001400014014001468888F1
:1047A000C0F308007047C1F308028280704700BF61
:1047B000FEE7000010B54FF4FA7000F0A1FB4FF4D3
:1047C000FA7000F09DFB3548FEF7E2FB4FF4FA70FB
:1047D00000F096FB4FF4FA7000F092FB4FF4FA7081
:1047E00000F08EFB2E48FEF7D3FB4FF4FA7000F07A
:1047F00087FB4FF4FA7000F083FB4FF4FA7000F07F
:104800007FFB4FF4FA7000F07BFB4FF4FA7000F07E
:1048100077FB4FF4FA7000F073FB4FF4FA7000F07E
:104820006FFB4FF4FA7000F06BFB4FF4FA7000F07E
:1048300067FB4FF4FA7000F063FB1A48FEF7A8FB21
:104840004FF4FA7000F05CFB4FF4FA7000F058FB84
:104850004FF4FA7000F054FB1348FEF799FB4FF445
:10486000FA7000F04DFB4FF4FA7000F049FB0F486E
:10487000FEF78EFB4FF4FA7000F042FB4FF4FA7033
:1048800000F03EFB0A48FEF783FB4FF4FA7000F09D
:1048900037FB4FF4FA7000F033FB10BDAE00002080
:1048A000BC000020DA0000200201002011010020DD
:1048B0001E0100201CB501212720FDF759FE042010
:1048C000009000208DF804008DF8060003208DF87C
:1048D000050001208DF8070069462648FCF72FFBEC
:1048E0004FF40060009069462348FCF728FB032042
:1048F000009001208DF8040069461E48FCF71FFB5C
:104900002020009069461D48FCF719FB1C480078E0
:10491000C0B190201B490870D0201B4908709FED42
:104920001B0A1B4880ED000A9FED1A0A1A4880ED09
:10493000000A4FF4AE70194908806FF01200184950
:10494000088016E0D0200F49087090200E490870AA
:104950009FED140A0E4880ED000A9FED130A0E48E1
:1049600080ED000A6FF00A000C490880C01F0C4956
:1049700008801CBD000402400014024000000240F8
:10498000360100204C0100204D0100206452BCBDC6
:10499000500100207BF5893D540100205801002082
:1049A0005A010020DA9F883D3ABABA3D10B5044654
:1049B0004FF6FF7033490880334908803348006858
:1049C000002848D124B132493248FEF745FA34E094
:1049D0002F493048FEF740FA78B32F48B0F900006D
:1049E00000EE100AB8EEC00A2C4890ED001A2948D3
:1049F000008800EE900AF8EE600A01EE200ABCEE94
:104A0000C00A10EE100A234908802548B0F90000BA
:104A100000EE100AB8EEC00A224890ED001A1C48B9
:104A2000008800EE900AF8EE600A01EE200ABCEE63
:104A3000C00A10EE100A16490880164800881A4964
:104A40000880134800881949088019480078401CDC
:104A50001749087014E016480078022807DD0D4851
:104A60000088084908800A48008807490880002013
:104A70000F4908704FF6FF700B4908800B490880FA
:104A800010BD0000480100204A0100202C82424253
:104A90005E0100205C010020580100205001002030
:104AA0005A0100205401002044010020460100204A
:104AB000600100200FB4054B10B503A9044A029809
:104AC00000F02CF810BC5DF814FB0000E14F00086A
:104AD000680100200FB4084B10B504A902AA03987E
:104AE00000F01CF8044602A9002000F0B8F92046A6
:104AF00010BC5DF814FB00005F4E000802E008C81F
:104B0000121F08C1002AFAD170477047002001E047
:104B100001C1121F002AFBD1704700002DE9FF4F91
:104B20008BB088460546002606E025280BD0DDE937
:104B30000D1290476D1C761C28780028F5D10FB017
:104B40003046BDE8F08F0024A146A2460122AE49BE
:104B500000E0044315F8013F203B02FA03F008424D
:104B6000F7D128782A2810D06FF02F022878A0F1EA
:104B70003001092915D809EB890102EB410144F004
:104B8000020400EB01096D1CF0E758F8041B5FEA12
:104B9000010903D544F40054C9F1000944F00204AA
:104BA0006D1C28782E2817D115F8010F44F0040445
:104BB0002A280ED06FF02F022878A0F130010929A1
:104BC0000AD80AEB8A0102EB410100EB010A6D1CD5
:104BD000F2E758F804AB6D1C28786C280FD006DC7F
:104BE0004C2817D068280DD06A2814D104E0742806
:104BF00010D07A280FD10DE044F400140AE044F4F8
:104C0000801401E044F440146978814202D104F533
:104C100080146D1C6D1C2878692865D006DC00287E
:104C20008DD0632827D0642806D15DE06E2808D097
:104C300073282AD0752877D0DDE90D129047761CAD
:104C4000E0E0C4F30250022809D003280DD0D8F8C0
:104C5000001004280DD00E6008F10408D2E0D8F846
:104C60000010F217C1E90062F6E7D8F800100E80D4
:104C7000F2E70E70F0E718F8041B8DF80010002022
:104C80008DF80100EB46012003E058F804BB4FF01B
:104C9000FF3061074FF0000701D40AE07F1C574541
:104CA0000DDA8742FADB1BF807100029F6D106E07F
:104CB0007F1C8742FCDB1BF807100029F8D1DDE9D7
:104CC0000D23A9EB07008146214600F0B1F83044DE
:104CD000C61904E0DDE90D121BF8010B90477F1E99
:104CE000F8D22146484688E058F8040BC4F3025134
:104CF0004FF00A0B032900D100B2042900D140B2C1
:104D0000002802DA40422D2102E0210505D52B21A1
:104D10008DF82410012104E006E0E10710D02021E5
:104D2000F6E708AF089113E058F8040BC4F30251FA
:104D30004FF00A0B032900D180B2042900D1C0B280
:104D40000021EEE75946FBF774FA303107F8011DF0
:104D50000028F7D1ADEB070000F1200B600702D56A
:104D600024F4803401E04FF0010ADA4502DDAAEBB9
:104D70000B0000E00020824600EB0B010898014484
:104D8000A9EB01000A90E00306D4DDE90D232146DA
:104D90000A9800F04DF806444FF0000908E009A910
:104DA00011F80900DDE90D12904709F10109761C9F
:104DB00008998945F3DBE0030CD5DDE90D23214695
:104DC0000A9800F035F8064404E0DDE90D123020C1
:104DD0009047761CBAF10001AAF1010AF5DC05E062
:104DE000DDE90D1217F8010B9047761CBBF10001AD
:104DF000ABF1010BF4DC0A982146DDE90D2300F04C
:104E000005F806446D1C97E6092801002DE9F041DC
:104E1000044600251E461746880404D405E039469A
:104E20002020B0476D1C641EF9D52846BDE8F081EE
:104E30002DE9F041044600251E469046C80301D5E1
:104E4000302700E02027880404D505E04146384695
:104E5000B0476D1C641EF9D52846BDE8F0810A688C
:104E6000531C0B601070704710B50024FDF76EFBEB
:104E70000446012C09D108480078012801D10749CE
:104E8000086035200649487605E00020034908609F
:104E900030200349487610BD0E0000209C0243429A
:104EA0001000002010B501200849086000200849C2
:104EB000C1F8900201200549083908600020054921
:104EC000087005A0FFF7F6FD10BD00009482404277
:104ED0000080404254000020656C65637472696311
:104EE000616C206D6F746F7220636C6F73652073DB
:104EF00075636365737366756C6C790A00000000F6
:104F00000146114A12884A434FF0E0235A610022B9
:104F10009A611A46126942F001021A6100BF4FF00D
:104F2000E022106900F001021AB100F48032002A78
:104F3000F5D04FF0E022126922F001024FF0E02399
:104F40001A6100229A617047640100200146114AEB
:104F500012784A434FF0E0235A6100229A611A46C0
:104F6000126942F001021A6100BF4FF0E02210699D
:104F700000F001021AB100F48032002AF5D04FF09F
:104F8000E022126922F001024FF0E0231A610022B0
:104F90009A6170476201002010B50C48006820F04B
:104FA00040400A4908600846006840F080400860B8
:104FB0000020074908601420FFF7A2FF01200549DF
:104FC000C1F8BC021E20FFF7C1FF10BD0000024067
:104FD000BC0240420000404210B5FCF7D1F910BDC0
:104FE00070B504460D46A1B20548FFF7DCFB00BFD3
:104FF00080210348FFF70CFB0028F9D0204670BD44
:105000000010014070B586B0044600200590049061
:1050100000BF00BF03900520029003200190009084
:1050200014210920FCF71CF80646C6F580516422BD
:1050300001FB02F0C11700EB11510D1304A905A8E3
:10504000FBF72DFD9DF814000A2190FBF1F03030A4
:1050500060709DF8140090FBF1F201FB12003030FB
:10506000A0709DF8100090FBF1F0303020719DF899
:10507000100090FBF1F201FB1200303060710A2049
:1050800095FBF0F03030E0710A2095FBF0F100FB69
:105090001150303020723B490D70084601783AA01B
:1050A000FFF708FD012203A91046FBF7D2FB9DF88C
:1050B0000C00012804D0022807D003280FD109E0F2
:1050C0003420A0723020E07209E03620A072302037
:1050D000E07204E03920A0723020E07200BF00BF0F
:1050E000E17AA07A303800EB800001EB40003038E4
:1050F0002B490870084601782AA0FFF7DBFC2F48EF
:105100000078012803D131206073607405E02B48DA
:10511000007810B9302060736074012202A9032066
:10512000FBF797FB9DF80800012802D13120E073BE
:1051300001E03020E073012201A90220FBF789FB86
:105140009DF80400012802D13120E07401E03020F4
:10515000E074012269460420FBF77BFB9DF8000008
:10516000012802D09DF8000010B93120607501E0DF
:10517000302060753020E075214611A0FFF79AFCC1
:1051800006B070BD000000206C696768745F7374BE
:1051900072656E675F6E6F77203D2025640A0000A0
:1051A000010000206C696768745F737472656E67D4
:1051B0005F736574203D202564200A000F000020E5
:1051C000CBF9B2C9BCAFB5C4CAFDBEDD64617461C0
:1051D000203D202573200A002DE9FC4106460F469C
:1051E00014464FF00808254604EB08002978CDE95D
:1051F0000010AB886A883946304600F011F8BDE8E7
:10520000FC8110B502462AB111F8014B20020B783F
:10521000184304E011F8010B0B7840EA032010BD9D
:105220002DE9F05F81468A4615461E46DDE90A787B
:105230004FF0000B2448008841F6631188421ED0CD
:1052400007F0030068B90020FEF74AFB33462A4600
:1052500051464846FCF7E6FB51464846FCF742FCFF
:1052600016E00420FEF73CFB33462A4651464846EA
:10527000FCF7D8FB51464846FCF734FC08E0002018
:10528000FEF72EFB33462A4651464846FCF7CAFB3A
:10529000FCF794FC05FB06FB002409E007F0100076
:1052A0004146FFF7AEFF0949088008F10208641C77
:1052B0005C45F3D306480388064802880021084667
:1052C000FCF7B0FBBDE8F09F340100200020006C2B
:1052D0003A0100203801002010B50446002036496C
:1052E00008704FF400713548FBF794FE80B14FF41D
:1052F00080713248FBF78EFE50B180212F48FBF7BA
:1053000089FE28B140212D48FBF784FE002843D1B7
:105310004FF400712948FBF77DFE18B90120284998
:1053200008701AE04FF480712448FBF773FE18B937
:1053300002202349087010E080212048FBF76AFE14
:1053400018B903201E49087007E040211B48FBF7ED
:1053500061FE10B904201A490870194800781949EB
:105360000978884210D118480088401C16490880E6
:105370001348007815490870ECB9134800880128D3
:1053800019DD0020087016E000200F4908800C4845
:1053900000780C4908700EE00B480088022803DDF5
:1053A000074800780449087000200649087006493B
:1053B00008800649087010BD9900002000140240C2
:1053C0009C0000209D0000209A00002098000020F2
:1053D00010B5044614B10120324908603148006814
:1053E000002842D04FF400712F48FBF713FE78B12C
:1053F0004FF480712C48FBF70DFE48B180212A48FC
:10540000FBF708FE20B140212748FBF703FE60BBF5
:105410000A20FFF775FD4FF400712348FBF7FAFDF2
:1054200020B900201F490860012010BD4FF4807191
:105430001D48FBF7EFFD20B900201A490860022043
:10544000F3E780211848FBF7E5FD20B90020154956
:1054500008600320E9E740211348FBF7DBFDF8B9BA
:105460000020104908600420DFE74FF400710E4867
:10547000FBF7D0FD012813D101020B48FBF7CAFD51
:1054800001280DD180210848FBF7C4FD012807D170
:1054900040210548FBF7BEFD012801D10149086004
:1054A0000020C2E7A00000200014024090B0FF25B9
:1054B00000200E900D90A820FEF7E2FAFBF744FAC8
:1054C000FCF74AFF0120FC490860FBF785FFFBF76A
:1054D00077FC4FF47840F94908804EF69C70F84903
:1054E00008804FF4E130FEF771FDF6A0FFF7E2FA15
:1054F0004FF4A060FCF7FCFFFBF722FA0AE0F4A0EF
:10550000FFF7D8FAF748006808B9012000E000204A
:10551000F4490860FBF786F90028F0D109E0F1486A
:10552000001D006808B9012000E00020ED49091DB8
:105530000860FBF7E1FA0028F1D1FCF7EBFFFAF77E
:1055400089FF14210920FBF78BFD0446C4F5805127
:10555000642201FB02F0C11700EB1151C1F30731C6
:10556000E14A1170FCF732FF00210420FDF77AFBBD
:1055700042F2CF014CF24F30FEF74EFB4FF4E130D8
:10558000FBF7FAFAFFF716F9FCF72AFBFEF712FD14
:10559000D6A0FFF78FFAFBF7F7F9FBF7CFFA012256
:1055A0000FA91046FBF755F99DF83C0001280ED0D5
:1055B0009DF83C0002280AD09DF83C00032806D044
:1055C00001200F9001220FA91046FBF77FF901225D
:1055D000C8490220FBF73DF9C648007850B1C548DC
:1055E0000078012806D00020C2490870012202205C
:1055F000FBF76CF901220FA90320FBF72AF99DF8AC
:105600003C0050B19DF83C00012806D000200F90CE
:1056100001220FA90320FBF759F90421B648FBF733
:10562000F9FC40B90221B448FBF7F4FC18B9012099
:10563000B249087002E00020B0490870FDE39DF80F
:105640003C00002878D0012877D1AD490870AD4AD8
:1056500000210846FFF7C0FDFCF7A6FC0CA90020BE
:10566000FDF77AF99DF8320000909DF831309DF8F1
:105670003020A5A102A8FFF72DFA40F664004FF6EE
:10568000FF7102AB1822CDE9001000218F20FCF73A
:105690007FF801220DA91046FBF7DBF89DF83400D6
:1056A000012806D118231522DB21B320FBF752FF76
:1056B00014E09DF83400022806D118231622DB21BD
:1056C000B320FBF747FF09E09DF83400032805D11C
:1056D00018231722DB21B320FBF73CFF8748007813
:1056E00030B9182319228A21B820FBF733FF09E0CB
:1056F00082480078012805D118231A468A21B8204B
:10570000FBF728FF01227B490220FBF7A2F879482A
:10571000007830B918231922DB215120FBF71AFF3A
:1057200009E074480078012805D118231A46DB21C6
:105730005120FBF70FFF9AE19CE181E30020FFF786
:1057400035F9754800887F2846DD73480088A7280A
:1057500042DA72480088F3283EDD70480088B0F5D0
:105760008D7F39DCC820FFF7CBFB9DF83400401C4F
:10577000C0B20D909DF83400032808DD01200D9083
:1057800018231522DB21B320FBF7E4FE1FE09DF870
:105790003400012806D118231522DB21B320FBF7A2
:1057A000D9FE14E09DF83400022806D118231622F1
:1057B000DB21B320FBF7CEFE09E09DF8340003287F
:1057C00005D118231722DB21B320FBF7C3FE0122EA
:1057D0000DA91046FBF77AF84F480088AA2846DD45
:1057E0004D480088D22842DA4C480088F3283EDD34
:1057F0004A480088B0F58D7F39DCC820FFF780FB70
:105800009DF83400401EC0B20D909DF83400012870
:1058100008DA03200D9018231722DB21B320FBF7B1
:1058200099FE1FE09DF83400012806D118231522A7
:10583000DB21B320FBF78EFE14E09DF83400022834
:1058400006D118231622DB21B320FBF783FE09E0E3
:105850009DF83400032805D118231722DB21B3203B
:10586000FBF778FE01220DA91046FBF72FF82C4814
:105870000068012800D113E027480088002851DD86
:105880002548008823284DDA24480088872849DDE8
:1058900022480088BE2845DAC820FFF731FB00BF48
:1058A00000201F4908600F900E9001220EA90320CE
:1058B000FBF70CF8DCE00000A402434230010020BA
:1058C000320100207265736574202D2D2D2D0A0084
:1058D0004154323443585820BCECB2E2CAA7B0DC81
:1058E0000A0000008C0242420000002073746172C2
:1058F00074200A000E000020001402400F00002057
:1059000080000020F8350508253032643A25303211
:10591000643A253032640000440100204601002032
:1059200004000020FD4800881E2834DDFB48008864
:10593000502830DAFA480088D2282CDDF848008850
:10594000B0F5827F27DAC820FFF7DAFAF548007849
:1059500068B918231A46DB215120FBF7FBFD012013
:10596000F049087001220220FAF7B0FF10E0ED487C
:10597000007801280CD118231922DB215120FBF7D4
:10598000E9FD0020E749087001220220FAF79EFF96
:10599000E5A0FFF78FF8E6480078012802D1FFF76D
:1059A00063FA02E03020E3494876E3480078E349AF
:1059B0000978884216DDE2480078012827D1E148BD
:1059C0000078012823D1FFF76DFA0020DC49087028
:1059D000182319228A21B820FBF7BCFDDAA0FFF7B3
:1059E00069F814E0D648007888B9D64800780128CC
:1059F0000DD100F035FA0120D149087018231A465C
:105A00008A21B820FBF7A6FDDBA0FFF753F8E34897
:105A10000078012814D10221E148FBF7FBFA0128A4
:105A200025D10A20FFF76CFA0221DD48FBF7F2FAD4
:105A300001281CD100F03EFA0320D849087016E076
:105A4000D648007898B90421D548FBF7E3FA012835
:105A50000DD10A20FFF754FA0421D148FBF7DAFAF6
:105A6000012804D100F026FA0320CC49087065E62D
:105A700000BFE5E1CB4A00210846FFF7ADFBFCF78C
:105A800093FA0CA90020FCF767FF9DF83200009004
:105A90009DF831309DF83020AFF2941102A8FFF745
:105AA00019F840F664004FF6FF7102AB1822CDE9F9
:105AB000001000218F20FBF76BFEA148007830B961
:105AC000182319228021B820FBF744FD09E09C48E7
:105AD0000078012805D118231A468021B820FBF749
