:020000040800F2
:10000000F80400209D010008491F00088B0E00081D
:100010009D1E0008E9080008B33C0008000000002D
:10002000000000000000000000000000512F000848
:10003000270A000800000000E51F00089D320008A4
:10004000B7010008B7010008B70100081127000830
:10005000B7010008B7010008B7010008B7010008A0
:10006000B7010008B7010008B7010008B701000890
:10007000B7010008B7010008B7010008B701000880
:10008000B7010008B7010008B7010008B701000870
:10009000B7010008B7010008B7010008290A0008E5
:1000A000B7010008B7010008B7010008B701000850
:1000B000513300081534000801350008B701000865
:1000C000B7010008B7010008B7010008B701000830
:1000D000B7010008B7010008B7010008B701000820
:1000E000B701000805220008B7010008B7010008A1
:1000F000B7010008B7010008B7010008B701000800
:10010000B7010008B7010008B7010008B7010008EF
:10011000B9380008B7010008B7010008B7010008A6
:10012000B7010008B7010008B7010008B7010008CF
:10013000B7010008B7010008B7010008B7010008BF
:10014000B7010008B7010008B7010008B7010008AF
:10015000B7010008B7010008B7010008B70100089F
:10016000B7010008B7010008B7010008B70100088F
:10017000B7010008B7010008B7010008B70100087F
:10018000B7010008B7010008DFF80CD000F078F9DB
:10019000004800471D470008F80400200648804733
:1001A00006480047FEE7FEE7FEE7FEE7FEE7FEE75C
:1001B000FEE7FEE7FEE7FEE7AD3200088901000832
:1001C000421C10F8011B0029FBD1801A704710B5A2
:1001D000002200E0521C835C8C5CA34201D1002B06
:1001E000F8D1D8B2E1B2401A10BD2DE9FE4F81EA34
:1001F000030404F0004421F0004100944FF0000B90
:1002000023F0004350EA01045ED052EA03045BD0BD
:10021000C3F30A54C1F30A552C44A4F2F3340194F5
:10022000A0FB0254C1F3130141F48011C3F3130383
:1002300043F4801301FB024400FB034E840A970A37
:1002400044EA815447EA8357A4FB076802958D0A64
:1002500005FB07854FEA932C04FB0C542705029DF0
:100260004FEA065847EA1637B5EB08056EEB070C60
:10027000870E920E47EA811742EA8312A7FB02011A
:10028000B6EB0B0164EB00042B0D43EA0C335E1854
:1002900044EB1C50DA465146E7FB0201C5F3130458
:1002A0004FEA0B3343EA14534FEA0432019C43EA0A
:1002B0000603A4F10C040294009CCDE900B400F004
:1002C00091F803B0BDE8F08F00200146F9E700F097
:1002D000004230F000400AD0C10D01F56071C0F35A
:1002E000160042EA0151C20840071143704700203E
:1002F0000146704701F0004330B421F0004150EA5C
:10030000010206D00A0DA2F56072C1F31301002AA2
:1003100002DC30BC00207047440F44EAC104C10035
:10032000E01830BC00EBC25000F016B830B50B46F8
:10033000014600202022012409E021FA02F59D4215
:1003400005D303FA02F5491B04FA02F52844151EE9
:10035000A2F10102F1DC30BD0029A8BF7047401CAA
:10036000490008BF20F00100704710B4B0FA80FCCB
:1003700000FA0CF050EA010404BF10BC704749B108
:10038000CCF1200421FA04F411FA0CF118BF012178
:1003900021430843A3EB0C01CB1D4FEA00614FEA58
:1003A000102042BF002010BC704700EBC350104427
:1003B0000029A4BF10BC7047401C490008BF20F0B2
:1003C000010010BC704710B5141E73F1000408DA68
:1003D000401C41F1000192185B411A4301D120F009
:1003E000010010BD2DE9F04D92469B4611B1B1FAC6
:1003F00081F202E0B0FA80F22032904600F052F82A
:1004000004460F4640EA0A0041EA0B0153465A46A9
:10041000084313D0114653EA010019D0C8F1400235
:10042000504600F04EF805460E46504659464246A4
:1004300000F038F8084305D0012004E02046394692
:10044000BDE8F08D0020054346EAE0762C433743B3
:100450000A986305E40AA0EB08000022FD0A44EABA
:1004600047540A3002D500200146E9E7010510197A
:100470006941DDE9084500196941BDE8F04DA2E791
:10048000064C074D06E0E06840F0010394E80700E1
:1004900098471034AC42F6D3FFF77AFE107907087C
:1004A00030790708202A04DB203A00FA02F1002004
:1004B00070479140C2F1200320FA03F319439040A2
:1004C0007047202A04DB203A21FA02F0002170470D
:1004D00021FA02F3D040C2F12002914008431946AC
:1004E00070470146C86C80B270470246002013680E
:1004F0000B400BB1012000E000207047F0B504462E
:100500000D4600200021092D11DDE068A5F10A0645
:1005100006EB4607072606FA07F18843A5F10A0607
:1005200006EB460603FA06F10843E0600CE020699A
:1005300005EB4507072606FA07F1884305EB450654
:1005400003FA06F108432061072A0FDA606B561E92
:1005500006EB86071F2606FA07F18843561E06EBB0
:10056000860605FA06F10843606322E00D2A0FDAD9
:10057000206BD61F06EB86071F2606FA07F1884375
:10058000D61F06EB860605FA06F10843206310E045
:10059000E06AA2F10D0606EB86071F2606FA07F1B0
:1005A0008843A2F10D0606EB860605FA06F108431C
:1005B000E062F0BD816841F08041816070470000D9
:1005C0007CB505460C46322094FBF0F100FB11404F
:1005D000C8B94FF6FF701F2160A31822CDE90010A3
:1005E0004FF48C711E2000F0A7FF4FF6FF701F2103
:1005F000CDE900105F4850F8253018224FF48C7177
:10060000A22000F099FF5C480078012803D05A48E6
:10061000007802285FD15848007801282BD1062D98
:1006200028D2DFE805F003090F151B215348C078D5
:10063000401C5249C8701DE050484078401C4F494A
:10064000487017E04D488078401C4C49887011E094
:100650004B480078401C4A4908700BE048484078F5
:10066000401C4749487005E045488078401C444993
:10067000887000BF00BF4048007802282BD1062DAB
:1006800028D2DFE805F003090F151B213B48C0788D
:10069000401E3A49C8701DE038484078401E37492E
:1006A000487017E035488078401E3449887011E062
:1006B00033480078401E324908700BE030484078DB
:1006C000401E2F49487005E02D488078401E2C4977
:1006D000887000BF00BF962C01D102F0C3FF062D29
:1006E0003AD2DFE805F0030C151E2730312C05D176
:1006F00024A31822DC21722000F0FCFE2CE0312C17
:1007000005D120A31822DC21962000F0F3FE23E07F
:10071000312C05D11BA31822DC21BA2000F0EAFEFF
:100720001AE0312C05D117A31822FA215A2000F023
:10073000E1FE11E0312C05D112A31822FA217E200E
:1007400000F0D8FE08E0312C05D10EA31822FA21C2
:10075000A22000F0CFFE00BF00BF7CBD506C6561E1
:100760007365205365742020202020202020202025
:1007700000000000440000207400002084000020DD
:10078000800000202020000010B5FF2000F024F899
:100790000446552C01D1002010BD5521FF2000F04A
:1007A00059F8FF2000F018F80446552C01D100201C
:1007B000F2E70120F0E770B506460C46154608E062
:1007C0003046721C96B200F007F804F8010B681E60
:1007D00085B2002DF4D170BD70B50446002600F03E
:1007E00037FC2546E11704EB11610912A02202EB48
:1007F0004101C8B200F082FB00F076FCE11704EB87
:1008000011610912A4EB0121C8B200F077FB00F0DE
:100810006BFC00F01DFCA12000F070FB00F064FCFC
:10082000002000F035FB064600F038FC304670BD75
:1008300070B505460C46164606E02178284600F0BD
:1008400009F8681C85B2641C3000A6F101018EB263
:10085000F3D170BD70B504460E4600F0F9FB254695
:10086000E11704EB11610912A02202EB4101C8B2A9
:1008700000F044FB00F038FCE11704EB11610912B1
:10088000A4EB0121C8B200F039FB00F02DFC30468A
:1008900000F034FB00F028FC00F000FC0A2003F01C
:1008A000F7FC70BD10B500F085FB10BD1CB5012133
:1008B000402001F099FB01208DF8040000208DF804
:1008C00006008020009001208DF8070002208DF89E
:1008D00005006946034800F030FA8021014800F025
:1008E000A0FA1CBD0018024000BFFEE710B502468A
:1008F000012000E050430B00A1F10104E1B2F9D165
:1009000010BD000010B500241448006820F04040DD
:100910001249086008460068086004E0601CC4B220
:10092000012003F0DBFC0E48006808B1642CF5DB05
:10093000642C01DB012010BD002404E0601CC4B263
:10094000012003F0CBFC0648006808B9642CF5DBF5
:10095000642C01DB0120EEE70020ECE70000024000
:100960003C02404210B5002404E0601CC4B20120E7
:1009700003F0B4FC0D48006808B1642CF5DB0024DA
:1009800004E0601CC4B2012003F0A8FC0748006822
:1009900008B9642CF5DB282003F0A0FC03480068AC
:1009A00008B1012010BD0020FCE700003C024042DD
:1009B00070B50024002506E06006040EFFF7D2FFA4
:1009C0000443681CC5B2082DF6DB204670BD7CB51B
:1009D00005460E4603F0A8FCFFF794FFF8B9002483
:1009E00005E0FFF7E5FF0DF80400601CC4B2052C1C
:1009F000F7DB9DF800009DF8011008449DF80210F7
:100A000008449DF8031008449DF80410884208D15A
:100A10009DF8000030709DF80200287001E0012070
:100A20007CBD0020FCE7704710B5402000F070F856
:100A300078B10A2003F02CFC40211C4800F0E8F9B2
:100A400020B903F0A7FC1AA003F036FA402000F00A
:100A500059F8802000F05CF878B10A2003F018FC07
:100A60008021124800F0D4F920B903F0FFFB17A051
:100A700003F022FA802000F045F84FF4807000F077
:100A800047F888B10A2003F003FC4FF4807107484F
:100A900000F0BEF920B904F03FF913A003F00CFAFE
:100AA0004FF4807000F02EF810BD000000140240DA
:100AB0000A6B657933207465737420627920696EDE
:100AC000746572727570740A000000000A6B6579B3
:100AD00032207465737420627920696E7465727255
:100AE0007570740A000000000A6B65793120746526
:100AF000737420627920696E746572727570740AFD
:100B0000000000000149086070470000143C0140EB
:100B100001460020034A12680A400AB1012000E0A1
:100B200000207047143C0140002123498279002AAB
:100B30003AD00A46126803689A430B461A600A1DA7
:100B4000126803689A430B1D1A60027911440A68FF
:100B500003681A430A60184A0832126803689A4305
:100B6000154B08331A601A1D126803689A43124B1A
:100B70000C331A604279102A0ED11A1F12680368CA
:100B80001A430D4B08331A601A1D126803681A4382
:100B9000094B0C331A600DE00749427911440A6889
:100BA00003681A430A6005E0027911440A68036881
:100BB0009A430A6070470000003C01400EB500F007
:100BC00009FB0121880301F03FFA0621052002F00C
:100BD000C1F90821052002F0BDF90721052002F026
:100BE000B9F94FF4E070019000208DF808000C2056
:100BF0008DF8090001208DF80A0001A8FFF794FF85
:100C000017208DF8000003208DF8010002208DF8D8
:100C1000020001208DF80300684601F097F90EBD2F
:100C200051B18200A2F1C042126842F00103820079
:100C3000A2F1C042136009E08200A2F1C042126832
:100C4000034B1A408300A3F1C0431A6070470000B1
:100C5000FEFF0F00D0E901121143C268114302697F
:100C600011434269114382691143C2691143026A07
:100C70001143426A1143826A1143C26A1143026BF3
:100C8000114302689200A2F1C042116081680829F4
:100C90000BD101688900A1F1C041096841F040020F
:100CA00001688900A1F1C0410A60416B0968426B8B
:100CB000526841EA0211426B926841EA0221426B9A
:100CC000928941EA0241426B128A41EA0251426B27
:100CD000127D41EA0261426B926911430268521C23
:100CE0009200A2F1C0421160C16AB1F5804F1BD1E0
:100CF000816B0968826B526841EA0211826B9268CB
:100D000041EA0221826B128A41EA0251826B127D12
:100D100041EA0261826B9269114302689200A2F17A
:100D2000C042C2F8041107E06FF070420168890008
:100D3000A1F1C041C1F804217047F0B50A46002175
:100D40000023002400BF3DE0012505FA01F31568EA
:100D500005EA03049C4234D105684F000326BE40D7
:100D6000B543056015794E00B5400668354305600A
:100D70001579012D02D01579022D16D185684F0005
:100D80000326BE40B543856055794E00B540866860
:100D900035438560456801268E40B543456045680A
:100DA00096798E40B6B235434560C5684F0003263C
:100DB000BE40B543C560D5794E00B540C6683543E1
:100DC000C560491C1029BFD3F0BDF0B50023002435
:100DD0004D07ED0E02FA05F3CE1000F1200555F88F
:100DE00026504E07F70E0F26BE40B543CF1000F138
:100DF000200646F82750CE1000F1200555F8265061
:100E000045EA0304CE1000F1200545F82640F0BD68
:100E10000246002013690B400BB1012000E00020C6
:100E200070474183704701837047000010B5044646
:100E30000723012221460848FFF760FB0648FFF719
:100E4000B9FB00BF02210448FFF74FFB0028F9D08F
:100E50000148FFF746FB10BD002201402DE9F0419B
:100E600007460C460025002608E03846FFF7DEFF5F
:100E70000544052003F00CFA701CC6B2A642F4DB50
:100E8000B5FBF4F080B2BDE8F08100BFFEE70000E2
:100E900070B5054600241648006820F44020144927
:100EA0000860084600680860002616E00020114926
:100EB0000860022003F012FA01200F49C1F8A002D5
:100EC0006006040E0B487C38006808B1601CC4B290
:100ED000012003F003FA701CC6B2082EE6DB15B938
:100EE00000F08EF801E000F03DF8204670BD0000F3
:100EF00000040240A08240420080404270B5044697
:100F00001548006820F4402013490860084600682E
:100F100040F480200860002010490860002517E098
:100F2000E0090E49091D08606006040E022003F066
:100F3000D5F901200A49C1F8A002022003F0CEF938
:100F4000002006490860022003F0C8F9681CC5B2F9
:100F5000082DE5DB70BD000000040240A082404285
:100F60000080404210B500200F4908600F4800681B
:100F700020F440200D4908600846006840F48020B5
:100F8000086000200A49C1F8A402022003F0A6F973
:100F9000012005490860022003F0A0F9002004495F
:100FA000C1F8A00210BD0000A0824042000402402F
:100FB000008040421CB50121022001F015F84FF4D9
:100FC0004070009001208DF8040000208DF806008C
:100FD00003208DF8050001208DF8070069460548BB
:100FE000FFF7ABFE0120044908600449C1F8A402E0
:100FF0001CBD000000040240A0824042008040422C
:1010000010B500200F4908600F48006820F4402008
:101010000D4908600846006840F4802008600120FF
:101020000A49C1F8A402022003F058F90120054939
:101030000860022003F052F900200449C1F8A00220
:1010400010BD0000A08240420004024000804042E7
:1010500010B50F48006820F440200D49086008468C
:10106000006840F48020086001200A4908600A49AD
:10107000C1F8A002042003F031F9002005490860FE
:10108000042003F02BF900200349C1F8A00210BD91
:1010900000040240A48240420080404210B50F4844
:1010A000006820F440200D4908600846006840F4BC
:1010B0008020086000200A4908600A49C1F8A4029B
:1010C000042003F00BF90120054908600549C1F827
:1010D000A402042003F002F910BD00000004024045
:1010E000A08240420080404210B5002413480068AE
:1010F00020F440201149086008460068086001207B
:101100000F49086003F0EAF801200E49C1F8A00277
:1011100003F0E4F807E0601CC4B2FA2C03DDFFF72B
:10112000BDFF012010BD0648803800680028F2D1BC
:101130000349091F086000BFF4E7000000040240F3
:10114000A482404200804042D321074A1180911C72
:101150000888088808884FF6FF7101EA0020911C72
:101160000988084370470000FE1F006C4CF6CC4015
:101170000149086070470000003000404AF6AA208C
:101180000149086070470000003000400149486094
:10119000704700000030004001498860704700003F
:1011A00000300040014908607047000000300040F6
:1011B00070B505460C4645F25550FFF7F3FF28463B
:1011C000FFF7E4FF2046FFF7E7FFFFF7D7FFFFF742
:1011D000CDFF70BD1CB50121202000F005FF0020CF
:1011E0008DF804008DF806004FF470700090012017
:1011F0008DF8070002208DF8050069460148FFF7C9
:101200009CFD1CBD0014024070B50446002500265C
:10121000094800880949098800FB01F600210846B1
:1012200000F034FB00F09EFB00BF02E004480480A5
:101230006D1CB542FAD370BD9000002092000020D2
:101240000020006C70B505460E461446314628460F
:1012500000F098F90348008803490880881C04803E
:1012600070BD000094000020FE1F006C2DE9FF4FB0
:10127000074616461C46BB460C2C01D198460AE090
:10128000102C01D1A04606E0182C02D14FF03008F6
:1012900001E0BDE8FF8FA6F12000C6B2002548E0BE
:1012A0000C2C07D106EB4600244901EB800010F816
:1012B000059010E0102C05D1214800EB061010F825
:1012C000059008E0182C06D106EB46001D4901EBFD
:1012D000001010F805904FF0000A24E009F001001A
:1012E00030B11948028838460199FFF7ABFF05E095
:1012F0004BF6186238460199FFF7A4FF4FEA6909D7
:10130000781C87B2A7EB0B0104EBD472B1EB620F30
:1013100005D15F460198401C80B2019006E00AF1B9
:10132000010000F0FF0ABAF1080FD7DB00BF681C0C
:10133000C5B24545B4DB00BFABE7000094540008DC
:1013400008590008F85E0008880000202DE9FF4FCA
:1013500004460F461E46A346182E02D14FF04808F9
:1013600001E0BDE8FF8F002532E0182E07D102987A
:1013700000EBC000184901EBC00010F805904FF0D9
:10138000000A1FE009F0010030B114480288394614
:101390002046FFF757FF05E04BF618623946204616
:1013A000FFF750FF4FEA6909601C84B2A4EB0B0001
:1013B000182803D15C46781C87B206E00AF10100C8
:1013C00000F0FF0ABAF1080FDCDB00BF681CC5B2F1
:1013D0004545CADB00BFC4E7444D00088800002033
:1013E000F0B505460F4616461C460DE022783346FA
:1013F00039462846FFF7AAFFA81985B20848008891
:10140000854200DB0AE0241D2068002806DB2068F6
:10141000642803DC2068401C0028E7D100BFF0BD31
:10142000900000202DE9FF4F81B0074690461E46F0
:101430000E9CC3464FF0000906E00A20BBFBF0FB00
:1014400009F1010000F0FF09BBF1000FF5D1B14532
:1014500008DD26A322463846029900F04BF805B075
:10146000BDE8F08F00253CE0A6EB0900A8421BDD9B
:101470000F9860B104EBD471491001FB057188B27B
:101480002346302200940299FFF7F0FE27E004EB98
:10149000D471491001FB057188B2234620220094C3
:1014A0000299FFF7E3FE1AE0701B401EC1B20A204A
:1014B000FFF71CFAB8FBF0F00A21B0FBF1F201FBD8
:1014C000120A04EBD471491001FB057188B20AF1CC
:1014D0003001CAB2234600940299FFF7C7FE681C88
:1014E000C5B2B542C0DB00BFB9E700004552524F5C
:1014F00052000000F0B506460F4615461C4611E0A6
:1015000022782B4639463046FFF7B0FE284605EBD9
:10151000D07106EB61018EB206480088864200DB7E
:1015200006E0641C2078202802DB20787E28E7DD96
:1015300000BFF0BD900000202DE9F04F04460D469D
:1015400016461F46DDE909890C48B0F800A00C4892
:10155000B0F800B00948A0F800800948A0F8009051
:101560003B46324629462046FFF7C4FF0348A0F811
:1015700000A00348A0F800B0BDE8F08F880000206C
:101580008A00002030B504460D462946204600F06A
:101590007DF900F0E7F9024800880249088030BD73
:1015A000880000200020006C00B59FB00121782049
:1015B00000F01AFD0121084600F026FD4FF480607E
:1015C0001D9001208DF8780000208DF87A0002200F
:1015D0008DF8790001208DF87B001DA97748FFF771
:1015E000ACFB4CF233701D9002208DF87800002087
:1015F0008DF87A0003208DF8790001208DF87B00AA
:101600001DA96F48FFF799FB4FF680701D900220CF
:101610008DF8780000208DF87A0003208DF879008D
:1016200001208DF87B001DA96648FFF786FB04208A
:101630001D9002208DF8780000208DF87A0003209C
:101640008DF8790001208DF87B001DA95E48FFF719
:1016500074FB4FF480501D9002208DF8780000201C
:101660008DF87A0003208DF8790001208DF87B0039
:101670001DA95548FFF761FB0C2200215048FFF7D8
:10168000A4FB0C2201214E48FFF79FFB0C220421F2
:101690004B48FFF79AFB0C2205214948FFF795FBC1
:1016A0000C2208214648FFF790FB0C2209214448F0
:1016B000FFF78BFB0C220A214148FFF786FB0C2227
:1016C0000E213F48FFF781FB0C220F213C48FFF71A
:1016D0007CFB0C2207213B48FFF777FB0C220821FB
:1016E0003848FFF772FB0C2209213648FFF76DFBE3
:1016F0000C220A213348FFF768FB0C220B213148EA
:10170000FFF763FB0C2211462E48FFF75EFB0C220D
:101710000D212C48FFF759FB0C220E212948FFF719
:1017200054FB0C220F212748FFF74FFB0C2202210C
:101730002548FFF74AFB0C2211462348FFF745FBDB
:101740000F200790002008903C20099000200A906C
:101750000B900C900D900820009000200190072025
:1017600002900020039004900590069006200E90B1
:1017700000200F90109010201190002012901490D3
:101780001390159016904FF48050179000201890E9
:101790004FF48040199000201A9007A81B90CDF8B4
:1017A00070D00EA8FFF756FA01210620FFF738FA8D
:1017B000322002F06DFD1FB000BD00000014024099
:1017C000000C0240001002400018024030B584189E
:1017D000641EA2B2CC18641EA3B2264C24786CBB43
:1017E000254C248841F66315AC4227D1234C24882C
:1017F000A41A241AA0B2CC18641EA3B2204C2488C8
:10180000204D2C800412AD1C2C80C4B22C80841876
:10181000641EC4F30F242C808418641EE4B22C8050
:10182000194C2488AD1E2C800C12AD1C2C80CCB21F
:101830002C801C122C80DCB22C8019E0104C2488E7
:10184000104D2C800412AD1C2C80C4B22C801412BC
:101850002C80D4B22C800C4C2488AD1E2C800C1211
:10186000AD1C2C80CCB22C801C122C80DCB22C80C5
:1018700030BD00008E0000208C0000209000002071
:1018800096000020FE1F006C980000202E4A12884F
:1018900049F241339A4212D12C4A12882C4B1A80B9
:1018A00002129B1C1A80C2B21A802A4A12889B1EFE
:1018B0001A800A129B1C1A80CAB21A8042E0224A7D
:1018C000128841F663139A423CD1234A12788AB9AE
:1018D000224A1288521E121A90B21C4A12881C4BBD
:1018E0001A8000229B1C1A801A8002121A80C2B22F
:1018F0001A8013E0154A1288154B1A8002129B1C9D
:101900001A80C2B21A80154A1288521EC2F30F22E0
:101910001A80124A1278521ED2B21A800D4A1288C8
:101920000B4B1A800A129B1C1A80CAB21A800C4AEE
:101930001288521EC2F30F221A80094A1278521ED0
:10194000D2B21A80704700008C0000209600002060
:10195000FE1F006C980000208E00002090000020E8
:101960009200002002480088024908807047000069
:1019700094000020FE1F006C024A1080921C11800F
:1019800070470000FE1F006C10B5FFF70DFEFFF75B
:10199000DBFBEB4908800846008849F24131884268
:1019A00023D0A120E7490880881C0088E4490880EA
:1019B000E448801C00880880084600884FF6FF71C4
:1019C00001EA0020DE490880DE48801C0088098882
:1019D0000843DB4908800846008845F26171884267
:1019E00003D141F66310D6490880D548008849F2F2
:1019F000413188421CD1D448006820F00F004FF0DC
:101A00002041C1F81C010846D0F81C0120F4706088
:101A1000C1F81C010846D0F81C0140F00300C1F8D1
:101A20001C010846D0F81C0140F40070C1F81C01EC
:101A3000C348008849F2413188427DD1CF20C14955
:101A400008800020891C0880C12008803020088080
:101A5000ED20891E08806420891C088003200880EE
:101A60001220088081200880E820891E08808520B7
:101A7000891C0880102008807A200880CB20891ECD
:101A800008803920891C08802C20088000200880CC
:101A90003420088002200880F720891E088020203A
:101AA000891C0880EA20891E08800020891C088083
:101AB0000880C020891E08801B20891C0880C12046
:101AC000891E08800120891C0880C520891E088085
:101AD0003020891C08800880C720891E0880B72014
:101AE000891C08803620891E08804820891C0880AF
:101AF0003A20891E08805520891C0880B120891E43
:101B000008800020891C08801A200880B620891EC1
:101B100008800A20891C0880A2200880F220891EE3
:101B200008800020891C08802620891E088001204A
:101B3000891C0880E02000E060E0891E08800F20FA
:101B4000891C08802A200880282008800820088016
:101B50000E2008800820088054200880A9200880D2
:101B6000432008800A2008800F2008800020088079
:101B7000088008800880E120891E08800020891CD8
:101B80000880152008801720088007200880112071
:101B90000880062008802B200880562008803C20E2
:101BA000088005200880102008800F2008803F2032
:101BB000088008800F2008802B20891E08800020C4
:101BC000891C08800880012008803F2008802A2086
:101BD000891E08800020891C088008800880EF206A
:101BE00008801120891E0880782002F051FB2920EE
:101BF0005449088001205549086098E05048008801
:101C000041F663118842F8D1E2204E4908801D2038
:101C1000891C08800220088004200880642002F0CB
:101C20005DFBE020474908800120891C08800A20CC
:101C300002F02EFBE020434908800320891C088025
:101C40000C2002F025FB01203E4908800A2002F00A
:101C50001FFBE6203B4908802F20891C0880FF20BD
:101C600008800880B020891E08802020891C0880F8
:101C7000002008800320088040F21F3008800120E7
:101C8000088040F2DF10088000200880B420891E00
:101C900008800420891C088040F21F400880002032
:101CA00008802E2008800020088008800880088096
:101CB000B620891E08800220891C08804FF403701A
:101CC0000880002008801720088015200880002048
:101CD00008800880F020891E08800320891C088065
:101CE0002920891E0880D02008800020891C0880B7
:101CF000BE20891E08800520891C0880FE200880DF
:101D0000012008800020088008800880B820891EF3
:101D100008800320891C088001200880BA20891EC1
:101D200008800120891C0880FF2001F091FA002022
:101D300001F0A6F94FF6FF70FFF766FA10BD00003C
:101D40008C000020FE1F006C1C0100A0A8824242F3
:101D500030B58DB0002500244FF478402C49088020
:101D60005F252F242B4840788DF830002948807853
:101D70008DF83100214628460CAB1822FFF7BAFB3C
:101D8000214605F1180018231322FFF7DFFA00BFE0
:101D90005024204800798DF830001E4840798DF895
:101DA0003100214628460CAB1822FFF7A3FB214641
:101DB00005F1180018231422FFF7C8FA00BF712498
:101DC0001448C0798DF830001248407A8DF83100FF
:101DD000214628460CAB1822FFF78CFB052540F264
:101DE00027140BA9002000F099FA9DF82E0000900E
:101DF0009DF82D309DF82F2007A101A802F06CF866
:101E00002146284601AB1822FFF774FB0DB030BD08
:101E100088000020000000203230253032642D255B
:101E20003032642D25303264000000001CB50121E1
:101E3000502000F0D9F81820009001208DF80400FF
:101E400000208DF8060003208DF8050001208DF894
:101E5000070069460F48FEF770FF4FF400700090CE
:101E600001208DF8040000208DF8060003208DF875
:101E7000050001208DF8070069460748FEF75DFF61
:101E800018210448FEF7CFFF4FF400710248FEF717
:101E9000CAFF1CBD001002400018024000BFFEE750
:101EA0003EB541F6FF740121080700F0BDF801209E
:101EB00000F092F8002000F007FB45F23001884264
:101EC0003BD0012000F064F904E0601C84B20A20D9
:101ED00002F0DEF9412000F03BF90028F5D00CB902
:101EE00001203EBD4FF4807000F06EF9012000F03B
:101EF00065F97F200190FF20029000200090684645
:101F000000F0B0FA0E200E4908702D2048703220E3
:101F10008870002000F04CFB08200A4988700220DD
:101F20004870062008702020C870012000F0DCFAFC
:101F300045F23001002000F089FC0020D1E70000CC
:101F400080000020840000207047000070B5002150
:101F500000230F22C4781CB3174C246804F4E064F7
:101F6000C4F5E064C4F30721C1F10404E3B20A41FB
:101F700044789C40E1B28478144021430C07210E40
:101F80000E4C05786155047804F01F050124AC401F
:101F900005786D11AD0005F1E025C5F8004109E0B7
:101FA000047804F01F050124AC40054D0678761135
:101FB00045F8264070BD00000CED00E000E400E0B4
:101FC00080E100E002490143024A116070470000CD
:101FD0000000FA050CED00E00149086270470000BE
:101FE00000000E427047000029B1064A1268024301
:101FF000044B1A6004E0034A12688243014B1A60E2
:10200000704700003038024029B1064A1268024386
:10201000044B1A6004E0034A12688243014B1A60C1
:10202000704700003838024029B1064A126802435E
:10203000044B1A6004E0034A12688243014B1A60A1
:10204000704700004038024029B1064A1268024336
:10205000044B1A6004E0034A12688243014B1A6081
:102060007047000044380240F0B5002100220024EF
:10207000022500260223324F3F6807F00C0121B1F0
:10208000042905D0082937D105E02E4F076036E036
:102090002D4F076033E02A4F3F1F3F68C7F380563C
:1020A000274F3F1F3F6807F03F036EB1264FB7FB36
:1020B000F3F7DFF88CC0ACF1040CDCF800C0CCF313
:1020C000881C07FB0CF40CE01E4FB7FBF3F7DFF89E
:1020D00070C0ACF1040CDCF800C0CCF3881C07FB2A
:1020E0000CF4174F3F1F3F68C7F301477F1C7D006B
:1020F000B4FBF5F7076002E0124F076000BF00BFB6
:102100000F4F3F6807F0F0010909104F7A5C07682C
:10211000D74047600A4F3F6807F4E051890A0B4FE8
:102120007A5C4768D7408760054F3F6807F4604195
:10213000490B064F7A5C4768D740C760F0BD000086
:10214000083802400024F40000127A0064000020E5
:1021500010B501460022002300204A11012A02D1B5
:102160000A4C236808E0022A03D1084C7034236823
:1021700002E0064C7434236801F01F0201249440ED
:102180001C400CB1012000E0002010BD00380240CE
:102190000021094A11701170012802D0042808D1C9
:1021A00003E00121044A117004E00521024A117084
:1021B00000E000BF00BF704770380240014908606E
:1021C000704700003C0E4742002100F44072B2F517
:1021D000407F08D1094A116821F4F811084A0240E9
:1021E0001143064A1160054A68321268C0F30B03B6
:1021F0001A43024B68331A607047000008380240E7
:10220000FFFCFF0F10B54FF4807000F0ADF801280F
:102210000DD1000200F032F807A001F04DFE094890
:10222000006808B9012000E00020064908604FF46A
:102230000030FEF767FC10BD414C41524D2041215A
:102240000D0A0000A4024342014600BF080900EB4A
:102250008000420001F00F001044C0B270470146F8
:10226000002204E0501CC2B2A1F10A00C1B20A2946
:10227000F8DA100741EA10607047000081B241F0BF
:102280008001044A126802F0800262EA0101014AF8
:10229000116070470C280040002101098AB242F009
:1022A0008002044B1B6803F0800363EA0202014BC7
:1022B0001A6070470C28004008B5002200920020E8
:1022C0000021104A126802F04002CAB9421E0D4BAA
:1022D0001A6000BF0B4A126802F04001009A521CBB
:1022E0000092009AB2F5803F01D00029F2D0054A51
:1022F000126802F040020AB1012002E0002000E072
:10230000012008BD0C2800400348006820F0800030
:1023100001490860704700000C28004070B506466F
:102320000C4600250E4800680E4900EA0105280CFD
:10233000E070C5F30420607005F03F00A070C5F3A5
:10234000423020705EB9E078FFF77EFFE070607881
:10235000FFF77AFF6070A078FFF776FFA07070BD7E
:10236000042800403FFFFF0010B501460020002276
:10237000054B1B68054C03EA040202EA01030BB19A
:10238000012000E0002010BD0C2800407F3F01002C
:1023900070B506460C4600250F4800680F4900EA54
:1023A0000105C5F305402070C5F30620607005F0F7
:1023B0007F00A07005F48000000CE0705EB920780A
:1023C000FFF742FF20706078FFF73EFF6070A07853
:1023D000FFF73AFFA07070BD002800407F7F7F00AC
:1023E00010B5044604492046FFF798FF03492046EC
:1023F000FFF7CEFF10BD0000840000208000002009
:10240000CA22174B1A6053221A6091B1144A1C3A1F
:10241000126820F004031A43114B1C3B1A60104A47
:102420001C32126800F004031A430D4B1C331A606F
:1024300011E00B4A1C3A126820F004039A43084B3F
:102440001C3B1A60064A1C32126800F004039A43CF
:10245000034B1C331A60FF22014B1A6070470000C7
:102460002428004030B504460025CA2015490860DC
:1024700053200860FFF720FF00B91DE011481C3809
:10248000006820F040000F491C39086008460068C9
:10249000216808430B491C3908600A491439A068AF
:1024A000086008460068A18840EA014005491439DF
:1024B0000860FFF729FF0125FF2002490860284630
:1024C00030BD00002428004008B5014600200090DF
:1024D00004480090009800EB81000090009800688C
:1024E00008BD0000502800402DE9F04105460C468B
:1024F000002600274DB9607800F01000102804D1A4
:10250000607820F010000A30607005B908E060784B
:10251000FFF79AFE0646A078FFF796FE064600BF34
:1025200055B1E0780004617840EA0120A1780843C1
:10253000217840EA413611E0E078FFF790FE4FEA5B
:1025400000486078FFF78BFE48EA0028A078FFF784
:1025500086FE48EA0008207848EA4036CA20124938
:10256000086053200860FFF7A7FE08B9002714E0B1
:102570000E4830400C4920390860FFF7C5FE0A4874
:102580001C38006800F0200030B900F0DBF808B912
:10259000002702E0012700E00127FF200249086030
:1025A0003846BDE8F0810000242800403FFFFF00CE
:1025B0002DE9F04105460C46002600274DB92E486E
:1025C000006800F0400000B102E00020E07000BFB1
:1025D0000DE02948006800F0400020B12078FFF7A6
:1025E00033FE064602E00020E07000BF00BF55B198
:1025F00020780004617840EA0120A1780843E1785E
:1026000040EA014611E02078FFF729FE4FEA004832
:102610006078FFF724FE48EA0028A078FFF71FFE45
:1026200048EA0008E07848EA0046CA2012491C310E
:10263000086053200860FFF73FFE08B9002713E049
:102640000E4830400C4908390860FFF75DFE0A4823
:10265000006800F0200030B900F074F808B90027D5
:1026600002E0012700E00127FF2003491C31086038
:102670003846BDE8F0810000082800407F7F7F00D9
:10268000CA21054A116053211160034910390860BD
:10269000FF21116070470000242800403EB5054628
:1026A0000C46002000F096F8284600F07BF8204603
:1026B000FFF7E6FF4FF48040FFF7EEFD4FF4800098
:1026C000FEF720FA01218803FFF79AFE012000F0AF
:1026D00081F84FF48000019000208DF80800082058
:1026E0008DF8090001208DF80A0001A8FEF71CFAF8
:1026F00003208DF8000002208DF801008DF8020003
:1027000001208DF803006846FFF720FC3EBD000065
:1027100010B54FF48060FFF727FE01280AD1800230
:10272000FFF7ACFD0648006808B9012000E0002072
:10273000034908604FF48000FEF7E4F910BD000083
:102740008C02424208B50022009200200021CA22D9
:10275000134B1A6053221A60114A183A126822F079
:10276000A0020F4B183B1A6000BF0D4A183A1268BE
:1027700002F02001009A521C0092009AB2F5003F2C
:1027800001D00029F1D0064A183A126802F020025E
:102790000AB1012000E00020FF22014B1A6008BDB1
:1027A00024280040CA210A4A1160532111600849B7
:1027B0001C39096821F00701054A1C3A11601146CD
:1027C000096801431160FF21014A11607047000050
:1027D0002428004018B50146002300930022002061
:1027E000CA23194C23605323236049B1164B1C3B69
:1027F0001B6843F48063144C1C3C236001201FE0E1
:10280000114B1C3B1B6823F480630F4C1C3C236062
:1028100000BF0D4B183B1B6803F00402009B5B1CC0
:102820000093009BB3F5803F01D0002AF1D0064B06
:10283000183B1B6803F004030BB9002000E00120E3
:10284000FF23014C236018BD2428004008B5002256
:102850000092044A0092009A02EB80020092009AD1
:10286000116008BD502800402DE9F04104460D4696
:102870000A48007800F076F806460948007800F02B
:1028800071F80746322E01DB322F02DA0020BDE854
:10289000F08126802F800120F9E70000A4000020AD
:1028A000A50000207FB504460D4602A903A8FFF746
:1028B000DBFF064616B9002004B070BD694601A8CA
:1028C000FFF7D2FF06460EB90020F5E7BDF8040079
:1028D000BDF80C10884206DCBDF80C10BDF80400F1
:1028E000323081420CDBBDF80C00BDF80410884288
:1028F00036DCBDF80410BDF80C00323081422FDA0E
:10290000BDF80000BDF80810884206DCBDF80810CC
:10291000BDF80000323081420CDBBDF80800BDF884
:10292000001088421CDCBDF80010BDF808003230F1
:10293000814215DABDF80C10BDF80420881800EBB0
:10294000D071C1F34F012180BDF80810BDF80020FF
:10295000881800EBD071C1F34F0129800120ABE74B
:102960000020A9E72DE9FE4380460027002406E069
:10297000404600F07DFA2DF81400601C84B2052C4E
:10298000F6DB002416E0601C85B20FE03DF8140071
:102990003DF81510884207DD3DF814603DF815003C
:1029A0002DF814002DF81560681C85B2052DEDDB9F
:1029B000601C84B2042CE6DB0027012405E03DF80E
:1029C0001400384487B2601C84B2042CF7DB032067
:1029D00097FBF0F086B23046BDE8FE8370B5054641
:1029E0002846FDF7EDFB86B200240CE000BF402135
:1029F000064801F08EF80028F9D0295D034801F05F
:102A000054F9601C84B2B442F0DB70BD004C00404D
:102A10002DE9F047ACB00027062500264FF000084E
:102A2000032003904FF0FF3902904FF47840DE49C5
:102A300008800020FFF7D4FC00F014FEDB4A0021E0
:102A4000084601F06FFD012202A90420FDF7B3FE44
:102A50009DF80800012802D09DF8080058BB0A2202
:102A600004A90520FDF7A7FE322001F011FC082281
:102A70000EA90F20FDF79FFE4FF6FF701F2104AB3C
:102A80001822CDE9001039214620FEF755FD4FF6FA
:102A9000FF701F210EAB1822CDE9001051214620F6
:102AA000FEF74AFD9DF8080030B9182319226C2161
:102AB0006E20FEF74BFC09E09DF80800012805D1C7
:102AC00018231A466C216E20FEF740FC66E10020B8
:102AD00001F0A8FD701CC6B2002001F069F9B448ED
:102AE000008800280FDDB248008824280BDAB1489E
:102AF0000088002807DDAF480088262803DAC820B0
:102B000001F0C6FB4BE1AA4800881E2816DDA84844
:102B10000088562812DAA748008891280EDDA548BB
:102B20000088B7280ADAC82001F0B2FB18231A4639
:102B30006C216E20FEF70AFC012003909C4800885F
:102B40009A2816DD9A480088D22812DA9948008817
:102B500091280EDD97480088B7280ADAC82001F0CE
:102B600097FB182319226C216E20FEF7EFFB002043
:102B700003908F480088C5281BDD8D480088F02809
:102B800017DA8C480088002813DD8A4800882B2833
:102B90000FDAC82001F07CFB844A0021084601F0CE
:102BA000C1FC002703200390012203A90420FDF7A4
:102BB0003FFE17B1012F09D118E07F4800780428A3
:102BC00005D17E480088FA2801DD0127E2E03220A5
:102BD00096FBF0F100FB116038B9B8F1000F04D199
:102BE0000020FFF7FDFB00F03DFDD3E074480078C6
:102BF000032804D1681CC5B2052D00DD002531462F
:102C00002846FDF7DDFC6E480078042878D100F0F6
:102C10008DFD6C48807800906A484378C2786AA13C
:102C200004A801F059F96D48807800906B4843780A
:102C300002786BA10EA801F04FF90020FFF7D0FB3E
:102C40006048807800905F484378C2785EA122A8EF
:102C500001F042F96148807800906048437802783A
:102C60005FA118A801F038F922A904A8FDF7AFFA6E
:102C7000002802DD4FF0010938E022A904A8FDF781
:102C8000A6FAF0B918A90EA8FDF7A1FA002802DDEE
:102C90004FF001092AE04FF6FF701F2154A31822BC
:102CA000CDE900104FF48C711E20FEF745FC002486
:102CB00004E00A2001F0ECFA601CC4B2C82CF8DB76
:102CC00014E04FF6FF701F214EA31822CDE900102B
:102CD0004FF48C711E20FEF72FFC002404E00A2024
:102CE00001F0D6FA601CC4B2C82CF8DBB9F1010FB0
:102CF0004FD19DF80C00032831D09DF80C1000E056
:102D000047E045A001F0D8F84FF6FF701F214CA313
:102D10001822CDE900104FF48C711E20FEF70CFC38
:102D2000012203A90420FDF783FD04A8FDF748FA5A
:102D30001FFA80FA524604A90520FDF779FD3220DA
:102D400001F0A6FA0EA8FDF73BFA1FFA80FA5246E8
:102D50000EA90F20FDF76CFD002500271AE04FF6A5
:102D6000FF701F213CA31822CDE900104FF48C7195
:102D70000020FEF7E1FB002404E00A2001F088FABD
:102D8000601CC4B2C82CF8DB084A0021084601F0D8
:102D9000C9FB00BF00BF052001F07AFA97E600BF2B
:102DA0002CB0BDE8F087000088000020C870000843
:102DB0009C0000209E00002078000020760000206B
:102DC00074000020840000203230253032642D252C
:102DD0003032642D25303264000000008000002075
:102DE000253032643A253032643A253032640000AE
:102DF000506C656173652052657365742074696DEC
:102E000065000000506C65617365205265736574E0
:102E1000206461746500000073657420616E642035
:102E200063686F6F7365206F6BA3AC6375727461B9
:102E3000696E5F7374617475733D202564200A00A8
:102E400041646A7573742054494D204F4B202020F3
:102E50002020202020202000506C656173652063B5
:102E6000686F6F7365206F6E2F6F666600000000DD
:102E700070B506460025002400201E4908601E4942
:102E8000C1F884021D490860304600F03BF8062076
:102E900001F024FA00201A49C1F89402012001F03F
:102EA0001DFA01201349086001F018FA00201449A6
:102EB000C1F8940200BF15E04FF6FF7000EA440429
:102EC00000200C490860012001F008FA01200C499B
:102ED000C1F8940209487838006808B1601C84B2CF
:102EE000681CC5B2102DE7DB2411012003490860DE
:102EF000204670BD940240420080404280824042A1
:102F00000000404270B50446002500BF17E004F001
:102F1000800018B101200B49086002E00020094937
:102F200008606006040E002007490860012001F0D7
:102F3000D5F901200549C1F89402681CC5B2082DD5
:102F4000E5DB70BD84824042940240420000404272
:102F50007047000030B500228B071C0F0F2303FAC7
:102F600004F20B4B8C1053F824309343084C8D1013
:102F700044F8253023468C1053F824308C07240F56
:102F800000FA04F42343024C8D1044F8253030BD80
:102F9000083801400CB500200190009034480068CA
:102FA00040F480303249086000BF3148006800F4C6
:102FB000003000900198401C0190009818B90198C9
:102FC000B0F5A04FF1D12A48006800F4003010B1EC
:102FD0000120009001E0002000900098012846D1D7
:102FE00023484030006840F080502149403108605B
:102FF0002048006840F440401E4908601C480830E2
:1030000000681B49083108600846006840F4004029
:1030100008600846006840F4A05008601648091F80
:103020000860081F006840F08070091F086000BF3A
:103030000F48006800F000700028F9D040F20570D9
:103040000E4908600A480830006820F0030008496B
:10305000083108600846006840F00200086000BFC0
:1030600003480830006800F00C000828F8D10CBDB7
:10307000003802400070004008544007003C024005
:1030800010B504468CBB00203349087033480088D3
:1030900049F24131884210D12C20314908802A2040
:1030A000304908802B2030490880F0202F490880C3
:1030B0004FF4A0702E49088049E02848008841F666
:1030C0006311884243D12C20254908802B202549B3
:1030D00008802A20244908804FF4F0702349088092
:1030E0004FF448702249088031E0FFE701201A4977
:1030F00008701A48008849F24131884210D12C20CA
:10310000174908802A20174908802B201649088073
:103110004FF4A07015490880F0201549088016E08A
:103120000E48008841F66311884210D12C200C49CA
:1031300008802A200B4908802B200B4908804FF477
:1031400048700A4908804FF4F0700949088000204F
:1031500000F010F810BD00008E0000208C00002050
:10316000940000209600002098000020900000208D
:103170009200002070B505460024002630480078F3
:10318000012805D12F48008849F24131884208D0F2
:103190002B480078F0B92B48008841F6631188422B
:1031A00018D1082D15D2DFE805F00406080A0C0E28
:1031B000101206250DE007250BE0042509E0052582
:1031C00007E0012505E0002503E0032501E00225D5
:1031D00000BF00BF082D1CD2DFE805F00406090C73
:1031E0000F12151800BF14E044F0800411E044F001
:1031F00040040EE044F0C0040BE044F0200408E07A
:1032000044F0600405E044F0A00402E044F0E0046F
:1032100000BF00BF36260B48008849F24131884282
:1032200001D144F0080421463046FEF7A5FB0648CC
:1032300003880648028800210846FEF7C7FA70BDD9
:103240008E0000208C0000209200002090000020C2
:10325000BE21074A11800521921C11801146088069
:1032600001211180FF211180002111801180704700
:10327000FE1F006C042808D14FF0E021096941F0DD
:1032800004014FF0E022116107E04FF0E0210969ED
:1032900021F004014FF0E0221161704702480068FC
:1032A000401E0149086070476000002010B51548B5
:1032B000006840F47000134908601348006840F04B
:1032C00001001149086000200F49083108600E48CC
:1032D00000680E4908400C4908600D48091D086047
:1032E000081F006820F48020091F0860002006499C
:1032F0000C310860FFF74EFE4FF000600149803945
:10330000086010BD88ED00E000380240FFFFF6FEC7
:103310001030002410B504466FF00400FFF7AAFF38
:10332000E11704EB5171C1F3C701074A1170104650
:10333000007800EB4001C1EBC0104FF6FF7101EACD
:10334000C0000249088010BDBA000020BC00002067
:1033500010B50121880700F028F9012810D10B4889
:103360000068401C18B901200849086008E008A05E
:10337000FFF734FB00200749086007A000F09CFD20
:103380000121880700F002F910BD00003C00002078
:103390002B2B2B0020000020BCECB2E2CAA7B0DC33
:1033A00020C6F4B6AFBFB4C3C5B9B70A0000000069
:1033B0007FB505460C4601210846FEF735FE02950D
:1033C000ADF804400020ADF80600ADF80C0001A9EE
:1033D0004FF0804000F004F91C208DF8000001201F
:1033E0008DF8010002208DF8020001208DF8030005
:1033F0006846FEF7ABFD0121880700F0CAF80122FC
:103400001146900700F0E2F80121880700F0BEF8AD
:103410007FBD000010B501211A4800F0C6F8012850
:103420002BD11948006820B918480068401C17497A
:1034300008601648006802280AD140F6C41104202A
:10344000FDF7B6FE01201049086000200F49086012
:103450000F480068012810D10E480068401C0D4933
:103460000860084600680A2807D1002008600A485A
:1034700000F0A0FF0848FFF7B1FA0121014800F071
:1034800085F810BD0004004034000020300000200A
:103490002000002038000020000000207FB50546F5
:1034A0000C4601210220FEF7BFFD0295ADF8044055
:1034B0000020ADF80600ADF80C0001A90F4800F09F
:1034C0008FF81D208DF8000001208DF801000320E9
:1034D0008DF8020001208DF803006846FEF736FDE6
:1034E0000121064800F055F801221146034800F07A
:1034F0006DF80121014800F049F87FBD000400404B
:1035000010B50121074800F050F8012805D1064800
:103510000068012801D100F027FF0121014800F0D7
:1035200035F810BD00080040200000207FB505469A
:103530000C4601210420FEF777FD0295ADF804400A
:103540000020ADF80600ADF80C0001A90E4800F00F
:1035500047F81E208DF8000001208DF801008DF83D
:1035600002008DF803006846FEF7F0FC01210648D2
:1035700000F00FF801221146034800F027F801215E
:10358000014800F003F87FBD00080040CA430282F2
:10359000704721B1028842F00102028004E00288F3
:1035A0004FF6FE731A400280704730B50246002085
:1035B00000230024158A05EA0103958905EA010420
:1035C00013B10CB1012000E0002030BD1AB1838995
:1035D0000B43838102E083898B4383817047000022
:1035E00000220288184B98420ED0184B98420BD0FC
:1035F000B0F1804F08D0164B984205D0154B984239
:1036000002D0154B984204D14FF68F731A404B8865
:103610001A43124B984207D0114B984204D04FF6F0
:10362000FF431A400B891A4302804B68C3620B8820
:103630000385054B984202D0044B984201D18B7A06
:10364000038601238382704700000140000401408B
:103650000004004000080040000C00400010004042
:10366000001400401CB527A31822DC211E20FDF702
:1036700041FF01201821CDE900102648C27802231D
:10368000DC217220FDF7CEFE01201821CDE90010CB
:10369000204842780223DC219620FDF7C3FE01205A
:1036A0001821CDE900101B4882780223DC21BA20C2
:1036B000FDF7B8FE18A31822FA211E20FDF71AFF05
:1036C00001201821CDE90010174802780223FA21C1
:1036D0005A20FDF7A7FE01201821CDE9001012485D
:1036E00042780223FA217E20FDF79CFE012018215A
:1036F000CDE900100C4882780223FA21A220FDF7C0
:1037000091FE1CBD446174653A323020202D20208A
:103710002D2020008400002054696D653A20203A55
:1037200020203A2020000000800000201CB527A3A4
:10373000182239214620FDF7DDFE01201821CDE9B0
:1037400000102548C278022339215E20FDF76AFE69
:1037500001201821CDE900101F48427802233921A9
:103760008220FDF75FFE01201821CDE900101A48E4
:10377000827802233921A620FDF754FE17A31822D0
:1037800051214620FDF7B6FE01201821CDE9001099
:1037900015480278022351214620FDF743FE0120FF
:1037A0001821CDE9001010484278022351216A20E7
:1037B000FDF738FE01201821CDE900100A48827873
:1037C000022351218E20FDF72DFE1CBD323020201A
:1037D0002D20202D202000008400002020203A20D1
:1037E000203A2020000000008000002010B504488E
:1037F000008849F24131884201D100F05DFA10BDE4
:103800008C00002010B588B0044601210846FEF760
:10381000EBFB01211020FEF717FC01218803FEF7C6
:1038200013FC072209212248FDF7CFFA07220A21BB
:103830001F48FDF7CAFA4FF4C060069002208DF8C9
:103840001C008DF81D0000208DF81E0001208DF851
:103850001F0006A91648FDF770FA02940020ADF883
:103860000C00ADF80E00ADF81000ADF814000C20FF
:10387000ADF8120002A90F4800F0A8F925208DF834
:10388000040002208DF805008DF8060001208DF857
:10389000070001A8FEF75AFB012240F22551054816
:1038A00000F06EF90121034800F027F908B010BDBF
:1038B000000002400010014070B5002540F2255183
:1038C000674800F033F9002874D0654800F0E8F943
:1038D000044600BF4021634800F01BF90028F9D0DE
:1038E0002146604800F0E1F95F480068E0B93E2CED
:1038F00019D100205D49086001205B49086000F093
:1039000033FD42F2CF0149F63F40FFF70FFE42F28E
:10391000CF0142F20F70FFF7C1FD0020544908604B
:1039200001205449086095E04F4800680128FAD109
:103930005148007810B1012841D141E07B2C0DD1D4
:103940004E48006808B9012000E000204B4908609B
:1039500049480078401C4849087030E04849494AC5
:1039600012688C5447480068401C46490860084665
:103970000068401E4249085C6B2820D10020414A63
:103980001268885440A13E48FCF721FCB8B90020D9
:103990003C4908603A490870487088703B480068A4
:1039A00048B901203949086042F2CF013848FFF791
:1039B000FFFC04E053E000204FF08041486248E003
:1039C0002F49304A12688C542E480068401C2D49FB
:1039D000086008460068401E2949085C7D2837D1E8
:1039E000002128480068401E254A11542348001D24
:1039F000006808B9012000E000202049091D086086
:103A00001F48FCF7DDFB064632461D4921A000F0A9
:103A100053FA28A11A48FCF7DAFB28B927A000F0CE
:103A20004BFA00F0B7FC06E02AA11548FCF7CFFBE3
:103A300008B901F071F9002503E00020104948554C
:103A40006D1C322DF9DB00200E4908600A49087010
:103A500000BF00BF40F22551014800F03FF870BDA3
:103A6000004C0040001001401C000020A402434212
:103A700024040040200000202C0000208C02424240
:103A8000C4000020180000206F6B000024000020FC
:103A9000DF220200746865206F72646572206672AE
:103AA0006F6D207365727665722D2D2D2D2D25730A
:103AB0003D25640068656C6C6F00000074686520CB
:103AC0006F726465722068617320726563656976E0
:103AD00065640A00776F726C6400000010B5002204
:103AE000002340F66A14A14200D100BF0A1201244B
:103AF0009440A3B2DC43048010BD21B1828942F41A
:103B00000052828104E082894DF6FF731A4082815F
:103B1000704702460020B1F5007F00D100BF138836
:103B20000B400BB1012000E00020704770B5024649
:103B3000002400230025002040F66A16B14200D17F
:103B400000BFC1F3421501F01F03012606FA03F37B
:103B5000012D02D19689334006E0022D02D1168A4A
:103B6000334001E0968A33400C12012606FA04F431
:103B70001688344013B10CB1012000E0002070BD64
:103B8000F0B50346002400260025002040F66A1701
:103B9000B94200D100BF1846C1F3421401F01F061C
:103BA000012707FA06F5012C01D10C3004E0022CA4
:103BB00001D1103000E014301AB107682F430760BC
:103BC00002E00768AF430760F0BD00002DE9FF4742
:103BD00005460E460024A14600BFA046B08900B1AC
:103BE00000BF2C8A24F44054F08804432C82AC8912
:103BF00041F20C608443B0883189084371890843DD
:103C00000443AC81AC8A24F44074B0890443AC8290
:103C10006846FEF729FA2048854202D01F488542AF
:103C200002D1DDF80C9001E0DDF80890A88900F4DD
:103C3000004040B109EBC90000EB091031684900B0
:103C4000B0FBF1F707E009EBC90000EB09103168A0
:103C50008900B0FBF1F76420B7FBF0F00401200904
:103C6000642101FB1078A88900F4004040B13220A3
:103C700000EBC800B0FBF1F000F00700044308E0DF
:103C8000322000EB08106421B0FBF1F000F00F00CF
:103C900004432C81BDE8FF8700100140001401405F
:103CA00001468888C0F308007047C1F3080282808B
:103CB000704700BFFEE700001CB501212720FEF77A
:103CC00093F90420009000208DF804008DF8060080
:103CD00003208DF8050001208DF80700694626486D
:103CE000FDF72BF84FF40060009069462348FDF77C
:103CF00024F80320009001208DF8040069461E4836
:103D0000FDF71BF82020009069461D48FDF715F8C7
:103D10001C480078C0B190201B490870D0201B4976
:103D200008709FED1B0A1B4880ED000A9FED1A0AE0
:103D30001A4880ED000A4FF4AE70194908806FF000
:103D400012001849088016E0D0200F490870902012
:103D50000E4908709FED140A0E4880ED000A9FED91
:103D6000130A0E4880ED000A6FF00A000C49088023
:103D7000C01F0C4908801CBD000402400014024012
:103D8000000002408E000020A4000020A5000020BA
:103D90006452BCBDA80000207BF5893DAC0000202A
:103DA000B0000020B2000020DA9F883D3ABABA3D48
:103DB00010B504464FF6FF70334908803349088038
:103DC00033480068002848D124B132493248FEF710
:103DD00069FD34E02F493048FEF764FD78B32F4881
:103DE000B0F9000000EE100AB8EEC00A2C4890EDC1
:103DF000001A2948008800EE900AF8EE600A01EEE9
:103E0000200ABCEEC00A10EE100A2349088025489B
:103E1000B0F9000000EE100AB8EEC00A224890ED9A
:103E2000001A1C48008800EE900AF8EE600A01EEC5
:103E3000200ABCEEC00A10EE100A16490880164887
:103E400000881A49088013480088194908801948D1
:103E50000078401C1749087014E0164800780228C2
:103E600007DD0D480088084908800A48008807498E
:103E7000088000200F4908704FF6FF700B4908803A
:103E80000B49088010BD0000A0000020A200002007
:103E90002C824242B6000020B4000020B000002076
:103EA000A8000020B2000020AC0000209C000020F0
:103EB0009E000020B80000200FB4054B10B503A9E8
:103EC000044A029800F02CF810BC5DF814FB0000C6
:103ED00071430008C00000200FB4084B10B504A9BE
:103EE00002AA039800F01CF8044602A9002000F082
:103EF000B8F9204610BC5DF814FB000063420008CE
:103F000002E008C8121F08C1002AFAD170477047A2
:103F1000002001E001C1121F002AFBD17047000000
:103F20002DE9FF4F8BB088460546002606E0252880
:103F30000BD0DDE90D1290476D1C761C2878002807
:103F4000F5D10FB03046BDE8F08F0024A146A2465F
:103F50000122AE4900E0044315F8013F203B02FA7C
:103F600003F00842F7D128782A2810D06FF02F02EA
:103F70002878A0F13001092915D809EB890102EB55
:103F8000410144F0020400EB01096D1CF0E758F810
:103F9000041B5FEA010903D544F40054C9F1000988
:103FA00044F002046D1C28782E2817D115F8010F53
:103FB00044F004042A280ED06FF02F022878A0F1D4
:103FC000300109290AD80AEB8A0102EB410100EB12
:103FD000010A6D1CF2E758F804AB6D1C28786C28B8
:103FE0000FD006DC4C2817D068280DD06A2814D1D1
:103FF00004E0742810D07A280FD10DE044F40014A6
:104000000AE044F4801401E044F4401469788142E9
:1040100002D104F580146D1C6D1C2878692865D0C8
:1040200006DC00288DD0632827D0642806D15DE007
:104030006E2808D073282AD0752877D0DDE90D12B4
:104040009047761CE0E0C4F30250022809D0032810
:104050000DD0D8F8001004280DD00E6008F1040827
:10406000D2E0D8F80010F217C1E90062F6E7D8F8FC
:1040700000100E80F2E70E70F0E718F8041B8DF8C0
:10408000001000208DF80100EB46012003E058F8F5
:1040900004BB4FF0FF3061074FF0000701D40AE086
:1040A0007F1C57450DDA8742FADB1BF80710002901
:1040B000F6D106E07F1C8742FCDB1BF807100029C5
:1040C000F8D1DDE90D23A9EB07008146214600F078
:1040D000B1F83044C61904E0DDE90D121BF8010BFC
:1040E00090477F1EF8D22146484688E058F8040BD6
:1040F000C4F302514FF00A0B032900D100B2042986
:1041000000D140B2002802DA40422D2102E0210510
:1041100005D52B218DF82410012104E006E0E107EC
:1041200010D02021F6E708AF089113E058F8040BEF
:10413000C4F302514FF00A0B032900D180B20429C5
:1041400000D1C0B20021EEE75946FCF7EFF830315C
:1041500007F8011D0028F7D1ADEB070000F1200B97
:10416000600702D524F4803401E04FF0010ADA45FB
:1041700002DDAAEB0B0000E00020824600EB0B0101
:1041800008980144A9EB01000A90E00306D4DDE998
:104190000D2321460A9800F04DF806444FF000091F
:1041A00008E009A911F80900DDE90D12904709F1AD
:1041B0000109761C08998945F3DBE0030CD5DDE99C
:1041C0000D2321460A9800F035F8064404E0DDE9A5
:1041D0000D1230209047761CBAF10001AAF1010AB5
:1041E000F5DC05E0DDE90D1217F8010B9047761CB0
:1041F000BBF10001ABF1010BF4DC0A982146DDE9CB
:104200000D2300F005F806446D1C97E6092801000F
:104210002DE9F041044600251E461746880404D4C3
:1042200005E039462020B0476D1C641EF9D52846AC
:10423000BDE8F0812DE9F041044600251E46904678
:10424000C80301D5302700E02027880404D505E005
:1042500041463846B0476D1C641EF9D52846BDE876
:10426000F0810A68531C0B601070704701200549EB
:10427000086000200449C1F8AC020120034908602D
:1042800070470000A88240420080404298024142AC
:104290000146114A12884A434FF0E0235A61002236
:1042A0009A611A46126942F001021A6100BF4FF08A
:1042B000E022106900F001021AB100F48032002AF5
:1042C000F5D04FF0E022126922F001024FF0E02316
:1042D0001A6100229A617047BC0000200146114A11
:1042E00012784A434FF0E0235A6100229A611A463D
:1042F000126942F001021A6100BF4FF0E02210691A
:1043000000F001021AB100F48032002AF5D04FF01B
:10431000E022126922F001024FF0E0231A6100222C
:104320009A617047BA00002010B50C48006820F070
:1043300040400A4908600846006840F08040086034
:104340000020074908601420FFF7A2FF012005495B
:10435000C1F8BC021E20FFF7C1FF10BD00000240E3
:10436000BC0240420000404210B5FCF707FF10BD00
:1043700070B504460D46A1B20548FFF796FC00BF94
:1043800080210348FFF7C5FB0028F9D0204670BD07
:10439000001001400120044908600449C1F8AC0242
:1043A0000020034908607047A882404200804042D4
:1043B0009802414210B52DED068B90B004460020C6
:1043C00008EE100A9FED410AF0EE408A0CA9FDF7B5
:1043D000A5FF9DF8320000909DF831309DF8332004
:1043E0003BA102A8FFF778FD9DF830203EA102A86E
:1043F000FFF772FD0DA90020FDF7CAFF9DF83600FA
:1044000000909DF835309DF8342039A102A8FFF7BF
:1044100063FD14210920FCF721FD08EE100AB8EE17
:10442000480A10EE100AFBF752FF41EC1A0B9FED01
:10443000350B53EC102BFBF7D8FE41EC190BFBF7B7
:1044400059FF08EE900A0EA90FA8FCF7C0FA9DF8D4
:104450003C000A2190FBF1F0303060709DF83C0088
:1044600090FBF1F201FB12003030A0709DF8380093
:1044700090FBF1F0303020719DF8380090FBF1F2A4
:1044800001FB120030306071B2EE040A28EE800A9F
:10449000BDEEC00A10EE100A90FBF1F03030E07172
:1044A000B2EE040A28EE800ABDEEC00A10EE100A31
:1044B00090FBF1F201FB120030306072214613A034
:1044C000FFF7FAFC10B0BDEC068B10BD0000000039
:1044D000446174653A3230253032642D25303264BF
:1044E0002D253032640000005765656B3A25640065
:1044F00054696D653A253032643A253032643A2584
:10450000303264006666666666664A3FCBF9B2C9B9
:10451000BCAFB5C4CAFDBEDD64617461203D202519
:1045200073200A002DE9FC4106460F4614464FF061
:104530000808254604EB08002978CDE90010AB886F
:104540006A883946304600F011F8BDE8FC8110B5A4
:1045500002462AB111F8014B20020B78184304E0FF
:1045600011F8010B0B7840EA032010BD2DE9F05F34
:1045700081468A4615461E46DDE90A784FF0000B53
:104580002448008841F6631188421ED007F00300DA
:1045900068B90020FEF7EEFD33462A4651464846EC
:1045A000FDF714F951464846FDF770F916E004206E
:1045B000FEF7E0FD33462A4651464846FDF706F928
:1045C00051464846FDF762F908E00020FEF7D2FDAB
:1045D00033462A4651464846FDF7F8F8FDF7C2F93A
:1045E00005FB06FB002409E007F010004146FFF739
:1045F000AEFF0949088008F10208641C5C45F3D34A
:10460000064803880648028800210846FDF7DEF8C0
:10461000BDE8F09F8C0000200020006C920000207C
:104620009000002010B504460020364908704FF471
:1046300000713548FCF7ECFB80B14FF480713248D3
:10464000FCF7E6FB50B180212F48FCF7E1FB28B1D5
:1046500040212D48FCF7DCFB002843D14FF40071CA
:104660002948FCF7D5FB18B90120284908701AE041
:104670004FF480712448FCF7CBFB18B90220234982
:10468000087010E080212048FCF7C2FB18B9032015
:104690001E49087007E040211B48FCF7B9FB10B920
:1046A00004201A4908701948007819490978884285
:1046B00010D118480088401C16490880134800781B
:1046C00015490870ECB913480088012819DD00204D
:1046D000087016E000200F4908800C4800780C494B
:1046E00008700EE00B480088022803DD07480078B8
:1046F00004490870002006490870064908800649E8
:10470000087010BD750000200014024078000020E1
:1047100079000020760000207400002088B000BFDF
:1047200000BF00BF00BF00BF002006900590FE4AFA
:1047300007CA02AB07C300200190A820FEF7EAFDDC
:10474000FCF7B4F8FDF772FBFCF744FDFCF736FA12
:104750004FF4E130FFF756F8F4A0FFF7ADFB4FF44C
:10476000A060FDF72FFCFCF79DF80AE0F2A0FFF730
:10477000A3FBF648006808B9012000E00020F349D7
:104780000860FCF701F80028F0D1FDF7FDF8FFF70D
:104790002DF8EFA0FFF790FBFDF782FB002104202E
:1047A000FDF77CFFFDF7D4FA012207A91046FCF7BC
:1047B00002F89DF81C0001280ED09DF81C0002286C
:1047C0000AD09DF81C00032806D001200790012282
:1047D00007A91046FCF72CF8012207A90220FBF7D5
:1047E000EAFF9DF81C0050B19DF81C00012806D07E
:1047F00000200790012207A90220FCF719F80122E6
:1048000007A90320FBF7D7FF9DF81C0050B19DF8C6
:104810001C00012806D000200790012207A90320D0
:10482000FCF706F870E29DF81C0000287ED00128F5
:104830007DD1C94A00210846FFF774FE012201A973
:104840001046FBF7B8FF9DF80400012806D1182395
:1048500015229421A720FCF779FD14E09DF80400AF
:10486000022806D1182316229421A720FCF76EFDFA
:1048700009E09DF80400032805D11823172294218C
:10488000A720FCF763FDB548007830B9182319223A
:10489000B9218720FCF75AFD09E0B04800780128CB
:1048A00005D118231A46B9218720FCF74FFD0B20AC
:1048B00002900C20039002AB1822DF218720FCF726
:1048C0008FFD012206A90220FBF775FF9DF8180055
:1048D00038B9182319224FF48471CD20FCF736FD26
:1048E0000AE09DF81800012806D118231A464FF453
:1048F0008471CD20FCF72AFDF0E00020FFF758FA84
:1049000097480088802848DD95480088A42844DA24
:10491000944800888F2840DD92480088B3283CDA0C
:10492000C820FFF7B5FC9DF8040001E0D9E0EAE1FA
:10493000401CC0B201909DF80400032808DD01204E
:104940000190182315229421A720FCF7FFFC1FE0FB
:104950009DF80400012806D1182315229421A720D0
:10496000FCF7F4FC14E09DF80400022806D118239B
:1049700016229421A720FCF7E9FC09E09DF8040029
:10498000032805D1182317229421A720FCF7DEFC69
:10499000012201A91046FBF74BFF71480088C3288C
:1049A00045DD6F480088E72841DA6E4800888F2887
:1049B0003DDD6C480088B32839DAC820FFF768FC71
:1049C0009DF80400401EC0B201909DF8040001282B
:1049D00008DA03200190182317229421A720FCF75E
:1049E000B5FC1FE09DF80400012806D1182315220C
:1049F0009421A720FCF7AAFC14E09DF804000228EB
:104A000006D1182316229421A720FCF79FFC09E069
:104A10009DF80400032805D1182317229421A7200C
:104A2000FCF794FC012201A91046FBF701FF4C485A
:104A30000088052817DD4A4800882D2813DA4948E0
:104A40000088CE280FDD47480088F6280BDAC820FA
:104A5000FFF71EFC002007900590012205A9032006
:104A6000FBF7E6FE3BE03E480088002836DD3C4888
:104A700000882D2832DA3B480088FF282EDD39488F
:104A80000088B0F5967F29DAC820FFF701FC9DF871
:104A9000180070B918231A464FF48471CD20FCF722
:104AA00055FC01200690012206A90220FBF7C0FE5A
:104AB00011E09DF8180001280DD1182319224FF498
:104AC0008471CD20FCF742FC00200690012206A94B
:104AD0000220FBF7ADFE24A0FFF7EEF90DE700BFC3
:104AE00011E1234A00210846FFF71CFD1B4800780E
:104AF00030B9182319228F218C20FCF727FC09E0FC
:104B000016480078012805D118231A468F218C20D9
:104B1000FCF71CFC0D2002900E20039002AB182223
:104B2000AD218C2026E00000384D000872657365C9
:104B300074202D2D2D2D0A00415432344358582015
:104B4000BCECB2E2CAA7B0DC0A0000008C02424210
:104B50007374617274200A00D82005084000002098
:104B60009C0000209E000020B7E4C3F9C6F70A00AD
:104B7000D0C80208FCF734FC012206A90220FBF78A
:104B80001AFE9DF8180038B9182319224FF48471C1
:104B9000CD20FCF7DBFB0AE09DF81800012806D1C8
:104BA00018231A464FF48471CD20FCF7CFFBA7E001
:104BB0000020FFF7FDF855480088002818DD53480D
:104BC0000088282814DA52480088A82810DD5048A8
:104BD0000088D0280CDA4FF49670FFF759FB0120BB
:104BE00007900590012205A90320FBF721FE88E02C
:104BF00046480088642817DD444800888F2813DA67
:104C000043480088CB280FDD41480088F5280BDA9F
:104C1000C820FFF73DFB18231A468F218C20FCF794
:104C200095FB01203B49087038480088932817DD20
:104C300036480088BE2813DA35480088CB280FDDB7
:104C400033480088F5280BDAC820FFF721FB18232A
:104C500019228F218C20FCF779FB00202D49087048
:104C60002A480088BE2812DD28480088E6280EDA87
:104C700027480088E2280ADD25480088B0F5857FAE
:104C800005DAC820FFF704FBFDF7C2FE39E01F4834
:104C90000088002834DD1D4800882D2830DA1C48A3
:104CA0000088FF282CDD1A480088B0F5967F27DAA7
:104CB0004FF49670FFF7ECFA9DF8180070B91823BE
:104CC0001A464FF48471CD20FCF740FB012006907A
:104CD000012206A90220FBF7ABFD11E09DF81800A8
:104CE00001280DD1182319224FF48471CD20FCF72F
:104CF0002DFB00200690012206A90220FBF798FD5B
:104D000056E700BF00BF00BF8DE500009C000020FB
:104D10009E0000204000002001200449086000207F
:104D20000349C1F8AC02034908607047A8824042B9
:104D300000804042980241420B0000000C0000003D
:104D4000FFFFFFFF00000000000008000430FE0726
:104D500020020400020480FE078202044C02044880
:104D6000020448FE0720020420000020FF1F2091BB
:104D7000081091081E9108189108189108189108B8
:104D8000189128F8FF7F00000000000000000000DC
:104D9000000008000830FE1F30060820060880FECC
:104DA0000F8206084C060858060848FE0F20160910
:104DB0002010012010311011311A13191C120D0886
:104DC00016050812030810010C1021C8FF7F00000F
:104DD000000000000000000008000030000030105B
:104DE000F0FF3F100201100403100411F0FF3F1008
:104DF000040110040110FC0110040110000098FFD0
:104E00000718040208040108880008500004700014
:104E1000048C0302037EE00010000000000000008C
:104E20000000001800001800201802401806801822
:104E300003801901009900009810FEFF3F006300F5
:104E400000630000630000610000610000612080D9
:104E5000612080602040602020406018C03F060034
:104E60000000000000000000000000F91FF84318D7
:104E700008410808610808210808110EF80904080B
:104E8000050008F11F083108083108083108F8F159
:104E90000F08310888000010210410610818C2189A
:104EA00018C2300CC2300C022000000000000000CC
:104EB000000000F80FFC110880110880110880F133
:104EC0000F809908F8810188810108800108F83F66
:104ED0000C8811FC891180881180F81F808811804E
:104EE0008409808011C0803140807F787E603002EC
:104EF000000000000000000008000030000030103A
:104F0000F0FF3F100201100403100411F0FF3F10E6
:104F1000040110040110FC0110040110000098FFAE
:104F200007180402080401088800085000047000F3
:104F3000048C0302037EE00010000000000000006B
:104F40000800001000103000F0FF3F180010088724
:104F500009CC080E300808000404E0FF0F20080404
:104F6000200C0420FC052082042045042068042035
:104F70003004207804204604A04104E0FF0720000C
:104F800004000000000000000800001800001000ED
:104F9000F8FF3F0800100C4308808107C0180C3050
:104FA00018180C1800F0FF0F3018083018083018C7
:104FB0000830180830180830180830180F30180654
:104FC00000180000180000080000000000000000A9
:104FD0000000C0400080400280400C8040188440A7
:104FE0001888401098401090FF3F80C0008040011A
:104FF000C06001A060019020018C200286300280F8
:10500000100680180C80081C800438800230400193
:105010000000000000000000080000080000080078
:10502000000C10FCFF3F00140000240000260000CC
:105030004200008301800C0760183E18101806001B
:1050400000000C009019049010189810199C001181
:105050008C001180010100FF0100000000000060D1
:105060000000600000F0DF3F30C33018C33098C349
:1050700030FCFF3080C13080C730C0DD3FE0F83009
:1050800070D80098FF0F8C010680010680FF078012
:10509000010680010680010680FF0F80010E0000DE
:1050A00006000000000000C00000C0C101E0C01800
:1050B00060C63C30CC0E1CDF03FCD90000D860F881
:1050C000CF6038CE7F380E00F86F0038CE1838CE5B
:1050D0003C38CE0EF8CF0338CE6038CE6038CE6084
:1050E00038CEE0B8CF7F18060000000000000000B6
:1050F000000000000E00F01FF81F0000180000184C
:105100000000180CF8FF1F0018000018000018001D
:10511000001830FEFF7F0018000018000018000083
:105120001800001800001800801B00001E00000C72
:10513000000000000000000000000080010080016D
:10514000008601FC8F0100800100F07F008071FE6D
:105150009F71C08071E0807160803170833130C692
:105160003118CE3018CC30FC7F301C783000303015
:1051700000983B000E1E00030C0000000000002001
:10518000100220300220300220FF3F203102FE3189
:105190000220F81F300808700808B0F80FB8090896
:1051A00028090828F80F24C80824400022FF3F20BF
:1051B000400120600120200220100C200C782003E8
:1051C0000000000000000000200000600200600CF1
:1051D00000600C006018FCFF3F00600000600000F1
:1051E0004000004000FC4F0080400080C00080C0B4
:1051F00000808000808001800021801E23C0012665
:105200003C003C0C00380000600000000000000082
:105210000000300000600000C0FC3FC800100858CB
:1052200010089811089012E8FF13081010C8171101
:10523000C89611C89611C8B710C86610086C1088B7
:10524000631268901208081308061208001E08006E
:1052500008000000000000402000C0600040600026
:10526000E0FF1F20600030600010FE0F30040438A3
:10527000040438040434FC0732040430040430FC11
:105280000730040430040430040430FC0730040404
:10529000300424F0FF7F3000000000000000000018
:1052A000000000000030000048F801480C164806D5
:1052B00018300318000110800110800100800100E7
:1052C0008001008001008001000001000003000057
:1052D0000308000604001C0300F0000000000000AA
:1052E00000000000000000000000000000000000BE
:1052F000E0001810010C10010610010310810110CC
:105300008100104100E020000010020088050084A8
:105310000800820800C10880C0084080082080087A
:105320001000070000000000000000000000000066
:10533000000000F03FFC0F3800063800063800E699
:105340003FF0E738306600386000186000FCFF7FEF
:1053500018663030C630608633E0863300073CC0C4
:10536000073770C6311E76300C0638C0033E800108
:105370000C000000000000001800003800001800B9
:10538000001800001800F8FF3F381838381838386F
:105390001838381838381838381838F8FF3F38189F
:1053A000381818180018000018000018000018001D
:1053B0000038000038000018000000000000000065
:1053C000000000F81FFC331880331880331880F376
:1053D0001F80BB19F8830398830318800318F87F94
:1053E0001C9833FC9B3380993380F93F809933803C
:1053F0008D1B808133C08173C080FFF8FEE0700692
:1054000000000000000000000000000018FCFF3F4A
:1054100000830100830100830100830100830100F8
:105420008301008331FEFF7F00830100830100833D
:1054300001808301808101808101C08001E08001C1
:105440007080011880010C80010000000000000045
:10545000800180830300870100C60000C600F8FFBA
:105460003F003800003800003800001800001830F5
:10547000FEFF7F007800007C0000CC0000CE010021
:10548000860100030380010EE0003C3800F80C00A8
:1054900030000000000000000000000000000000DC
:1054A00000000404040404040004000000140A0AB8
:1054B0000000000000000000000014143F140A3F28
:1054C0000A0A000000041E1505060C14150F04003E
:1054D000000012150D0A142C2A1200000000040A04
:1054E0000A1E151509360000000202010000000026
:1054F000000000000020100808080808081020001C
:10550000000204080808080808040200000000045B
:10551000150E0E150400000000000404041F04040E
:105520000400000000000000000000000002020172
:1055300000000000001F000000000000001008082C
:10554000080404020202010000000E1111111111E1
:10555000110E00000000040604040404040E000000
:1055600000000E1111080402011F000000000E11BE
:10557000100C1010110E00000000080C0A0A091E81
:105580000818000000001F01010F1010110E00008C
:1055900000000E09010F1111110E000000001F097B
:1055A000080404040404000000000E11110E11117F
:1055B000110E000000000E1111111E10120E00003D
:1055C00000000000040000000004000000000000D3
:1055D0000004000000040400002010080402040875
:1055E00010200000000000001F00001F000000004D
:1055F00000020408102010080402000000000E1130
:10560000110804040004000000000E111915151DF6
:10561000011E0000000004040C0A0A1E12330000E0
:1056200000000F12120E1212120F000000001E11C5
:1056300001010101110E000000000F1212121212DE
:10564000120F000000001F120A0E0A02121F0000B3
:1056500000001F120A0E0A020207000000001C12BE
:1056600001013911120C000000003312121E121237
:105670001233000000001F0404040404041F00008F
:1056800000003E0808080808080907000000371253
:105690000A060A0A1237000000000702020202028C
:1056A000223F000000001B1B1B1B151515150000D9
:1056B00000003B1216161A1A1217000000000E11F5
:1056C00011111111110E000000000F12120E020232
:1056D0000207000000000E1111111117190E180019
:1056E00000000F12120E0A121237000000001E11E5
:1056F00001060810110F000000001F150404040427
:10570000040E00000000331212121212120C0000DC
:1057100000003312120A0A0C0404000000001515E0
:10572000150E0A0A0A0A000000001B0A0A04040AED
:105730000A1B000000001B0A0A040404040E0000F7
:1057400000001F0908040402121F0000001C0404CA
:105750000404040404041C000002020204040808F7
:1057600008100000000E08080808080808080E00C5
:1057700000040A000000000000000000000000001B
:10578000000000000000003F0004000000000000D6
:105790000000000000000000000C121C123C000081
:1057A00000000302020E1212120E000000000000A0
:1057B000001C1202021C000000001810101C121223
:1057C000123C000000000000000C121E021C000031
:1057D00000003804041E0404041E00000000000041
:1057E000003C120C021E221C00000302020E1212C8
:1057F000123700000000040000060404040E00003C
:1058000000000800000C0808080808070000030250
:10581000023A0A0E123700000000070404040404D0
:10582000041F000000000000000F151515150000F2
:1058300000000000000F12121237000000000000EC
:10584000000C1212120C000000000000000F1212D7
:10585000120E020700000000001C1212121C103869
:1058600000000000001B060202070000000000000C
:10587000001E020C101E000000000004040E0404B0
:105880000418000000000000001B1212123C00006F
:10589000000000000037120A0C04000000000000A5
:1058A0000015150E0A0A000000000000001B0A0483
:1058B0000A1B0000000000000037120A0C04040359
:1058C00000000000001E0804041E00000018080864
:1058D0000804080808081800080808080808080844
:1058E0000808080800060404040804040404060068
:1058F0000225180000000000000000000000000069
:105900000000000000000000000000000000000097
:10591000000000000000000000000008080808085F
:10592000080800001818000000486C24120000004D
:1059300000000000000000000000002424247F126A
:1059400012127F12121200000000081C2A2A0A0CF0
:105950001828282A2A1C08080000002225151515D9
:105960002A585454542200000000000C1212120A4B
:1059700076252911916E0000000606040300000040
:10598000000000000000000000402010100808087F
:105990000808081010204000000204080810101029
:1059A00010101008080402000000000008086B1C1A
:1059B0001C6B080800000000000000000808080830
:1059C0007F08080808000000000000000000000038
:1059D00000000000060604030000000000000000B4
:1059E000FE000000000000000000000000000000B9
:1059F000000000000606000000008040402020104B
:105A00001008080404020200000000182442424268
:105A10004242424224180000000000080E08080814
:105A200008080808083E00000000003C42424220EE
:105A300020100804427E00000000003C4242201872
:105A400020404042221C0000000000203028242476
:105A500022227E20207800000000007E0202021A2E
:105A600026404042221C0000000000382402021A96
:105A700026424242241800000000007E222210101C
:105A800008080808080800000000003C42424224C0
:105A900018244242423C00000000001824424242C6
:105AA00064584040241C000000000000000018184A
:105AB00000000000181800000000000000000008AE
:105AC0000000000000080804000000402010080446
:105AD00002040810204000000000000000007F00C9
