:020000040800F2
:10000000180500209D010008050F00083F0D00089D
:10001000510E0008590700081323000800000000D3
:10002000000000000000000000000000911800081F
:10003000C108000800000000A10F0008E91900082D
:10004000B7010008B7010008B7010008051700084C
:10005000B7010008B7010008B7010008B7010008A0
:10006000B7010008B7010008B7010008B701000890
:10007000B7010008B7010008B7010008B701000880
:10008000B7010008B7010008B7010008B701000870
:10009000B7010008B7010008B7010008E909000826
:1000A000B7010008B7010008B7010008B701000850
:1000B0009D1A0008611B00084D1C0008B7010008CC
:1000C000B7010008B7010008B7010008B701000830
:1000D000B7010008B7010008B7010008B701000820
:1000E000B701000819120008B7010008B70100089D
:1000F000B7010008B7010008B7010008B701000800
:10010000B7010008B7010008B7010008B7010008EF
:10011000651E0008B7010008B7010008B701000814
:10012000B7010008B7010008B7010008B7010008CF
:10013000B7010008B7010008B7010008B7010008BF
:10014000B7010008B7010008B7010008B7010008AF
:10015000B7010008B7010008B7010008B70100089F
:10016000B7010008B7010008B7010008B70100088F
:10017000B7010008B7010008B7010008B70100087F
:10018000B7010008B7010008DFF80CD000F078F9DB
:10019000004800479D2A00081805002006488047AF
:1001A00006480047FEE7FEE7FEE7FEE7FEE7FEE75C
:1001B000FEE7FEE7FEE7FEE7F919000889010008FF
:1001C000421C10F8011B0029FBD1801A704710B5A2
:1001D000002200E0521C835C8C5CA34201D1002B06
:1001E000F8D1D8B2E1B2401A10BD2DE9FE4F81EA34
:1001F000030404F0004421F0004100944FF0000B90
:1002000023F0004350EA01045ED052EA03045BD0BD
:10021000C3F30A54C1F30A552C44A4F2F3340194F5
:10022000A0FB0254C1F3130141F48011C3F3130383
:1002300043F4801301FB024400FB034E840A970A37
:1002400044EA815447EA8357A4FB076802958D0A64
:1002500005FB07854FEA932C04FB0C542705029DF0
:100260004FEA065847EA1637B5EB08056EEB070C60
:10027000870E920E47EA811742EA8312A7FB02011A
:10028000B6EB0B0164EB00042B0D43EA0C335E1854
:1002900044EB1C50DA465146E7FB0201C5F3130458
:1002A0004FEA0B3343EA14534FEA0432019C43EA0A
:1002B0000603A4F10C040294009CCDE900B400F004
:1002C00091F803B0BDE8F08F00200146F9E700F097
:1002D000004230F000400AD0C10D01F56071C0F35A
:1002E000160042EA0151C20840071143704700203E
:1002F0000146704701F0004330B421F0004150EA5C
:10030000010206D00A0DA2F56072C1F31301002AA2
:1003100002DC30BC00207047440F44EAC104C10035
:10032000E01830BC00EBC25000F016B830B50B46F8
:10033000014600202022012409E021FA02F59D4215
:1003400005D303FA02F5491B04FA02F52844151EE9
:10035000A2F10102F1DC30BD0029A8BF7047401CAA
:10036000490008BF20F00100704710B4B0FA80FCCB
:1003700000FA0CF050EA010404BF10BC704749B108
:10038000CCF1200421FA04F411FA0CF118BF012178
:1003900021430843A3EB0C01CB1D4FEA00614FEA58
:1003A000102042BF002010BC704700EBC350104427
:1003B0000029A4BF10BC7047401C490008BF20F0B2
:1003C000010010BC704710B5141E73F1000408DA68
:1003D000401C41F1000192185B411A4301D120F009
:1003E000010010BD2DE9F04D92469B4611B1B1FAC6
:1003F00081F202E0B0FA80F22032904600F052F82A
:1004000004460F4640EA0A0041EA0B0153465A46A9
:10041000084313D0114653EA010019D0C8F1400235
:10042000504600F04EF805460E46504659464246A4
:1004300000F038F8084305D0012004E02046394692
:10044000BDE8F08D0020054346EAE0762C433743B3
:100450000A986305E40AA0EB08000022FD0A44EABA
:1004600047540A3002D500200146E9E7010510197A
:100470006941DDE9084500196941BDE8F04DA2E791
:10048000064C074D06E0E06840F0010394E80700E1
:1004900098471034AC42F6D3FFF77AFE2C2B0008B5
:1004A0004C2B0008202A04DB203A00FA02F100203D
:1004B00070479140C2F1200320FA03F319439040A2
:1004C0007047202A04DB203A21FA02F0002170470D
:1004D00021FA02F3D040C2F12002914008431946AC
:1004E000704721B1826842F00102826003E08268B5
:1004F00022F00102826070470021084A1168084A10
:100500001140D0E900231A4383681A43C3681A4391
:100510001143044AC2F80413704700000423014049
:10052000E030FCFF002001400146C86C80B27047FB
:100530000246002013680B400BB1012000E00020B0
:100540007047000030B50246002000235068104C70
:1005500020400D790C6844EA0524204350609068DF
:100560000C4C2040D1E903542C438D682C434D7929
:1005700044EA450420439060D06A20F470000C7D6A
:10058000641EE4B2234340EA0350D06230BD000051
:10059000FFFEFFFCFDF7FFC0F0B504460D4600204E
:1005A0000021092D11DDE068A5F10A0606EB4607DA
:1005B000072606FA07F18843A5F10A0606EB460668
:1005C00003FA06F10843E0600CE0206905EB4507FB
:1005D000072606FA07F1884305EB450603FA06F1FC
:1005E00008432061072A0FDA606B561E06EB860768
:1005F0001F2606FA07F18843561E06EB860605FA03
:1006000006F10843606322E00D2A0FDA206BD61F43
:1006100006EB86071F2606FA07F18843D61F06EB6E
:10062000860605FA06F10843206310E0E06AA2F1AD
:100630000D0606EB86071F2606FA07F18843A2F18E
:100640000D0606EB860605FA06F10843E062F0BDEA
:10065000816841F0804181607047000000B58DB035
:100660000121202000F0BAFC0121880200F0E6FC04
:1006700008200B9003208DF8300000208DF8330007
:100680000BA9154800F0B4FA0121880200F0E6FC3D
:1006900000214FF4806000F0E1FC002007900A90F8
:1006A00009904FF48030089007A8FFF725FF00203D
:1006B00001908DF808008DF8090003900590012045
:1006C0008DF8180001A90548FFF73CFF01210348F8
:1006D000FFF707FF0DB000BD0014024000220140EB
:1006E00010B507E00C48006808B9012000E00020C0
:1006F0000949086000F0C4F80028F3D1FFF7AEFF05
:1007000000F0A8FB0021042000F0C2FF00F0DAF89E
:1007100000F048FC10BD0000900242421CB50121CF
:10072000402000F05BFC01208DF8040000208DF8D3
:1007300006008020009001208DF8070002208DF82F
:1007400005006946034800F053FA8021014800F093
:10075000C3FA1CBD0018024000BFFEE710B500241C
:100760001448006820F040401249086008460068BC
:10077000086004E0601CC4B2012002F05FF80E487B
:10078000006808B1642CF5DB642C01DB012010BD8E
:10079000002404E0601CC4B2012002F04FF80648B7
:1007A000006808B9642CF5DB642C01DB0120EEE75E
:1007B0000020ECE7000002403C02404210B500245B
:1007C00004E0601CC4B2012002F038F80D48006853
:1007D00008B1642CF5DB002404E0601CC4B20120E5
:1007E00002F02CF80748006808B9642CF5DB2820D3
:1007F00002F024F80348006808B1012010BD002071
:10080000FCE700003C02404270B50024002506E0F1
:100810006006040EFFF7D2FF0443681CC5B2082D22
:10082000F6DB204670BD7CB505460E4602F02CF87E
:10083000FFF794FFF8B9002405E0FFF7E5FF0DF896
:100840000400601CC4B2052CF7DB9DF800009DF885
:10085000011008449DF8021008449DF80310084454
:100860009DF80410884208D19DF8000030709DF872
:100870000200287001E001207CBD0020FCE70000A0
:100880001CB50121084600F0A9FB4FF40040009080
:1008900001208DF8040000208DF8060002208DF85C
:1008A000050001208DF807006946044800F0A0F912
:1008B00001F0EAFFFFF752FF1CBD000000000240FC
:1008C000704700001CB50121022000F087FB0121C8
:1008D000042000F083FB4FF44060009001208DF86D
:1008E000040002208DF8050000208DF8060001208C
:1008F0008DF807006946094800F07AF94020009019
:100900006946074800F074F94021054800F0E4F911
:100910004FF44061014800F0DFF91CBD00040240C3
:100920000008024010B588B004460121C80400F058
:1009300065FB0121084600F051FB0121880300F00E
:100940007DFB274801F09EFB08220021254800F08E
:1009500097F908220121234800F092F9032006901C
:1009600002208DF81C008DF81D0000208DF81E005F
:1009700001208DF81F0006A91A4800F039F90294E9
:100980000020ADF80C00ADF80E00ADF81000ADF889
:1009900014000C20ADF8120002A9114801F046FC29
:1009A000012240F225510E4801F01BFC40210C4869
:1009B00001F044FB34208DF8040002208DF805007E
:1009C00000208DF8060001208DF8070001A800F036
:1009D0009BFA0121024801F049FB08B010BD00005C
:1009E000004C00400000024010B5402000F078F8B4
:1009F00078B10A2001F0FCFE40211F4800F063F9A5
:100A000020B901F077FF1DA001F006FD402000F0A5
:100A100061F8802000F064F890B10A2001F0E8FE4F
:100A20008021154800F04FF938B901F0CFFE312090
:100A30001949887419A001F0EFFC802000F04AF8F1
:100A40004FF4807000F04CF8A0B10A2001F0D0FE05
:100A50004FF48071084800F036F938B902F056F8C2
:100A600030200D49887414A001F0D6FC4FF480703A
:100A700000F030F810BD0000001402400A6B6579E8
:100A800033207465737420627920696E74657272A4
:100A90007570740A00000000000000200A6B657980
:100AA00032207465737420627920696E7465727285
:100AB0007570740A000000000A6B65793120746556
:100AC000737420627920696E746572727570740A2D
:100AD000000000000149086070470000143C01401C
:100AE00001460020034A12680A400AB1012000E0D2
:100AF00000207047143C0140002123498279002ADC
:100B00003AD00A46126803689A430B461A600A1DD7
:100B1000126803689A430B1D1A60027911440A682F
:100B200003681A430A60184A0832126803689A4335
:100B3000154B08331A601A1D126803689A43124B4A
:100B40000C331A604279102A0ED11A1F12680368FA
:100B50001A430D4B08331A601A1D126803681A43B2
:100B6000094B0C331A600DE00749427911440A68B9
:100B700003681A430A6005E0027911440A680368B1
:100B80009A430A6070470000003C01400EB500F037
:100B90000DF90121880300F051FA0621052000F02B
:100BA00079FE0821052000F075FE0721052000F0E0
:100BB00071FE4FF4E070019000208DF808000C20C9
:100BC0008DF8090001208DF80A0001A8FFF794FFB5
:100BD00017208DF8000003208DF8010002208DF809
:100BE000020001208DF80300684600F08DF90EBD6B
:100BF000F0B50A4600210023002400BF3DE0012596
:100C000005FA01F3156805EA03049C4234D105682E
:100C10004F000326BE40B543056015794E00B54030
:100C20000668354305601579012D02D01579022D2E
:100C300016D185684F000326BE40B54385605579BF
:100C40004E00B540866835438560456801268E4074
:100C5000B5434560456896798E40B6B235434560E8
:100C6000C5684F000326BE40B543C560D5794E0028
:100C7000B540C6683543C560491C1029BFD3F0BDD7
:100C8000F0B5002300244D07ED0E02FA05F3CE1057
:100C900000F1200555F826504E07F70E0F26BE40EE
:100CA000B543CF1000F1200646F82750CE1000F1D2
:100CB000200555F8265045EA0304CE1000F1200522
:100CC00045F82640F0BD0246002013690B400BB1E9
:100CD000012000E000207047418370470183704786
:100CE00010B504460723012221460848FFF754FCAB
:100CF0000648FFF7ADFC00BF02210448FFF718FCCF
:100D00000028F9D00148FFF70FFC10BD0022014078
:100D10002DE9F04107460C460025002608E038463C
:100D2000FFF7DEFF0544052001F062FD701CC6B22E
:100D3000A642F4DBB5FBF4F080B2BDE8F08100BF61
:100D4000FEE700004CF6CC40014908607047000007
:100D5000003000404AF6AA200149086070470000B0
:100D600000300040014948607047000000300040FA
:100D70000149886070470000003000400149086068
:100D8000704700000030004070B505460C4645F243
:100D90005550FFF7F3FF2846FFF7E4FF2046FFF723
:100DA000E7FFFFF7D7FFFFF7CDFF70BD1CB50121AF
:100DB000202000F013F900208DF804008DF80600C3
:100DC0004FF47070009001208DF8070002208DF81C
:100DD000050069460148FFF70BFF1CBD00140240E7
:100DE0001CB50121502000F0F9F8182000900120D6
:100DF0008DF8040000208DF8060003208DF8050012
:100E000001208DF8070069460F48FFF7F1FE4FF407
:100E10000070009001208DF8040000208DF806007D
:100E200003208DF8050001208DF80700694607486A
:100E3000FFF7DEFE18210448FFF750FF4FF4007162
:100E40000248FFF74BFF1CBD001002400018024093
:100E500000BFFEE710B586B041F6FF740121080718
:100E600000F0CCF8012000F095F8002000F026FBFF
:100E700045F23001884243D0012000F093F904E0AC
:100E8000601C84B20A2001F0B3FC412000F06AF932
:100E90000028F5D014B9012006B010BD4FF48070C1
:100EA00000F09CF9012000F093F97F200490FF20CE
:100EB00005900020039003A800F0CEFA08208DF8DA
:100EC000080014208DF8090032208DF80A0002A9CC
:100ED000002000F067FB20208DF8060006208DF82A
:100EE000050002208DF8040019208DF8070001A9E3
:100EF000012000F0F3FA45F23001002000F0A0FCE0
:100F00000020C9E77047000070B5002100230F22C0
:100F1000C4781CB3174C246804F4E064C4F5E0649E
:100F2000C4F30721C1F10404E3B20A4144789C40B0
:100F3000E1B28478144021430C07210E0E4C057851
:100F40006155047804F01F050124AC4005786D114B
:100F5000AD0005F1E025C5F8004109E0047804F092
:100F60001F050124AC40054D0678761145F8264052
:100F700070BD00000CED00E000E400E080E100E066
:100F800002490143024A1160704700000000FA055F
:100F90000CED00E0014908627047000000000E42BD
:100FA000704700001CB50121042000F017F84FF431
:100FB0008050009000208DF8040002208DF805007C
:100FC00000208DF8060002208DF8070069460248CF
:100FD000FFF70EFE1CBD00000008024029B1064AC2
:100FE00012680243044B1A6004E0034A1268824309
:100FF000014B1A60704700003038024029B1064AA0
:1010000012680243044B1A6004E0034A12688243E8
:10101000014B1A60704700004038024029B1064A6F
:1010200012680243044B1A6004E0034A12688243C8
:10103000014B1A60704700002038024029B1064A6F
:1010400012680243044B1A6004E0034A12688243A8
:10105000014B1A60704700004438024029B1064A2B
:1010600012680243044B1A6004E0034A1268824388
:10107000014B1A607047000024380240F0B500218F
:1010800000220024022500260223324F3F6807F089
:101090000C0121B1042905D0082937D105E02E4FD4
:1010A000076036E02D4F076033E02A4F3F1F3F684F
:1010B000C7F38056274F3F1F3F6807F03F036EB1CD
:1010C000264FB7FBF3F7DFF88CC0ACF1040CDCF86B
:1010D00000C0CCF3881C07FB0CF40CE01E4FB7FBE0
:1010E000F3F7DFF870C0ACF1040CDCF800C0CCF30F
:1010F000881C07FB0CF4174F3F1F3F68C7F30147DD
:101100007F1C7D00B4FBF5F7076002E0124F07601B
:1011100000BF00BF0F4F3F6807F0F0010909104FF3
:101120007A5C0768D74047600A4F3F6807F4E05190
:10113000890A0B4F7A5C4768D7408760054F3F6844
:1011400007F46041490B064F7A5C4768D740C76097
:10115000F0BD0000083802400024F40000127A00BC
:101160004400002010B501460022002300204A114F
:10117000012A02D10A4C236808E0022A03D1084C54
:101180007034236802E0064C7434236801F01F02B7
:10119000012494401C400CB1012000E0002010BD4F
:1011A000003802400021094A11701170012802D054
:1011B000042808D103E00121044A117004E005214C
:1011C000024A117000E000BF00BF70477038024053
:1011D00001490860704700003C0E4742002100F4BE
:1011E0004072B2F5407F08D1094A116821F4F81124
:1011F000084A02401143064A1160054A68321268E3
:10120000C0F30B031A43024B68331A6070470000A7
:1012100008380240FFFCFF0F10B54FF4807000F05B
:10122000ADF801280DD1000200F032F807A001F05E
:10123000F3F80948006808B9012000E000200649D9
:1012400008604FF40030FFF745FC10BD414C41529F
:101250004D2041210D0A0000A4024342014600BF77
:10126000080900EB8000420001F00F001044C0B2FA
:1012700070470146002204E0501CC2B2A1F10A00EE
:10128000C1B20A29F8DA100741EA1060704700007D
:1012900081B241F08001044A126802F0800262EAE1
:1012A0000101014A116070470C280040002101092A
:1012B0008AB242F08002044B1B6803F0800363EAA9
:1012C0000202014B1A6070470C28004008B500224A
:1012D000009200200021104A126802F04002CAB9B0
:1012E000421E0D4B1A6000BF0B4A126802F040010B
:1012F000009A521C0092009AB2F5803F01D000295A
:10130000F2D0054A126802F040020AB1012002E060
:10131000002000E0012008BD0C28004003480068C0
:1013200020F0800001490860704700000C28004050
:1013300070B506460C4600250E4800680E4900EAC6
:101340000105280CE070C5F30420607005F03F0033
:10135000A070C5F3423020705EB9E078FFF77EFFE1
:10136000E0706078FFF77AFF6070A078FFF776FF93
:10137000A07070BD042800403FFFFF0010B501467B
:1013800000200022054B1B68054C03EA040202EA18
:1013900001030BB1012000E0002010BD0C2800402B
:1013A0007F3F010070B506460C4600250F480068D7
:1013B0000F4900EA0105C5F305402070C5F306207A
:1013C000607005F07F00A07005F48000000CE070F4
:1013D0005EB92078FFF742FF20706078FFF73EFF8C
:1013E0006070A078FFF73AFFA07070BD0028004041
:1013F0007F7F7F00CA22174B1A6053221A6091B177
:10140000144A1C3A126820F004031A43114B1C3B87
:101410001A60104A1C32126800F004031A430D4B84
:101420001C331A6011E00B4A1C3A126820F00403C6
:101430009A43084B1C3B1A60064A1C32126800F0A3
:1014400004039A43034B1C331A60FF22014B1A60BA
:10145000704700002428004030B504460025CA200B
:101460001549086053200860FFF730FF00B91DE000
:1014700011481C38006820F040000F491C390860F2
:1014800008460068216808430B491C3908600A496E
:101490001439A068086008460068A18840EA014045
:1014A000054914390860FFF739FF0125FF2002497B
:1014B0000860284630BD00002428004008B50146D9
:1014C0000020009004480090009800EB81000090FC
:1014D0000098006808BD0000502800402DE9F04148
:1014E00005460C46002600274DB9607800F0100034
:1014F000102804D1607820F010000A30607005B91F
:1015000008E06078FFF7AAFE0646A078FFF7A6FE7F
:10151000064600BF55B1E0780004617840EA01203A
:10152000A1780843217840EA413611E0E078FFF7DE
:10153000A0FE4FEA00486078FFF79BFE48EA0028CB
:10154000A078FFF796FE48EA0008207848EA40367F
:10155000CA201249086053200860FFF7B7FE08B997
:10156000002714E00E4830400C4920390860FFF78E
:10157000D5FE0A481C38006800F0200030B900F0A1
:10158000DBF808B9002702E0012700E00127FF206F
:10159000024908603846BDE8F08100002428004078
:1015A0003FFFFF002DE9F04105460C4600260027CD
:1015B0004DB92E48006800F0400000B102E0002064
:1015C000E07000BF0DE02948006800F0400020B145
:1015D0002078FFF743FE064602E00020E07000BFDF
:1015E00000BF55B120780004617840EA0120A1785D
:1015F0000843E17840EA014611E02078FFF739FE20
:101600004FEA00486078FFF734FE48EA0028A078E7
:10161000FFF72FFE48EA0008E07848EA0046CA20B3
:1016200012491C31086053200860FFF74FFE08B9CB
:10163000002713E00E4830400C4908390860FFF7D6
:101640006DFE0A48006800F0200030B900F074F820
:1016500008B9002702E0012700E00127FF20034925
:101660001C3108603846BDE8F081000008280040C1
:101670007F7F7F00CA21054A116053211160034911
:1016800010390860FF2111607047000024280040D5
:101690003EB505460C46002000F096F8284600F0BE
:1016A0007BF82046FFF7E6FF4FF48040FFF7FEFD92
:1016B0004FF48000FFF70EFA01218803FFF79AFE2E
:1016C000012000F081F84FF48000019000208DF897
:1016D000080008208DF8090001208DF80A0001A8F3
:1016E000FFF70AFA03208DF8000002208DF80100B0
:1016F0008DF8020001208DF803006846FFF704FC16
:101700003EBD000010B54FF48060FFF737FE0128A2
:101710000AD18002FFF7BCFD0648006808B9012025
:1017200000E00020034908604FF48000FFF7D2F981
:1017300010BD00008C02424208B500220092002039
:101740000021CA22134B1A6053221A60114A183A18
:10175000126822F0A0020F4B183B1A6000BF0D4A1E
:10176000183A126802F02001009A521C0092009A66
:10177000B2F5003F01D00029F1D0064A183A1268AC
:1017800002F020020AB1012000E00020FF22014BFC
:101790001A6008BD24280040CA210A4A116053215A
:1017A000116008491C39096821F00701054A1C3AF3
:1017B00011601146096801431160FF21014A11605F
:1017C000704700002428004018B50146002300930C
:1017D00000220020CA23194C23605323236049B1FF
:1017E000164B1C3B1B6843F48063144C1C3C236069
:1017F00001201FE0114B1C3B1B6823F480630F4C3E
:101800001C3C236000BF0D4B183B1B6803F0040217
:10181000009B5B1C0093009BB3F5803F01D0002A26
:10182000F1D0064B183B1B6803F004030BB90020F2
:1018300000E00120FF23014C236018BD2428004054
:1018400008B500220092044A0092009A02EB80023E
:101850000092009A116008BD5028004070B50546FE
:101860002846FEF7ADFC86B200240CE000BF402104
:10187000064800F07FFC0028F9D0295D034800F0FD
:1018800044FD601C84B2B442F0DB70BD004C0040EB
:101890007047000030B500228B071C0F0F2303FA9E
:1018A00004F20B4B8C1053F824309343084C8D10EA
:1018B00044F8253023468C1053F824308C07240F2D
:1018C00000FA04F42343024C8D1044F8253030BD57
:1018D000083801400CB500200190009034480068A1
:1018E00040F480303249086000BF3148006800F49D
:1018F000003000900198401C0190009818B90198A0
:10190000B0F5A04FF1D12A48006800F4003010B1C2
:101910000120009001E0002000900098012846D1AD
:1019200023484030006840F0805021494031086031
:101930002048006840F440401E4908601C480830B8
:1019400000681B49083108600846006840F4004000
:1019500008600846006840F4A05008601648091F57
:101960000860081F006840F08070091F086000BF11
:101970000F48006800F000700028F9D040F20570B0
:101980000E4908600A480830006820F00300084942
:10199000083108600846006840F00200086000BF97
:1019A00003480830006800F00C000828F8D10CBD8E
:1019B000003802400070004008544007003C0240DC
:1019C000042808D14FF0E021096941F004014FF0EB
:1019D000E022116107E04FF0E021096921F00401E4
:1019E0004FF0E0221161704702480068401E014933
:1019F000086070474000002010B51548006840F4AA
:101A00007000134908601348006840F00100114954
:101A1000086000200F49083108600E4800680E4930
:101A200008400C4908600D48091D0860081F00683F
:101A300020F48020091F0860002006490C3108604E
:101A4000FFF748FF4FF0006001498039086010BD82
:101A500088ED00E000380240FFFFF6FE1030002461
:101A600010B504466FF00400FFF7AAFFE11704EB7E
:101A70005171C1F3C701074A11701046007800EB9D
:101A80004001C1EBC0104FF6FF7101EAC0000249EE
:101A9000088010BDD6000020D800002010B501211C
:101AA000880700F028F9012810D10B480068401C75
:101AB00018B901200849086008E008A0FFF7CEFE29
:101AC00000200749086007A000F0A6FC0121880754
:101AD00000F002F910BD00003C0000202B2B2B0071
:101AE00020000020BCECB2E2CAA7B0DC20C6F4B6ED
:101AF000AFBFB4C3C5B9B70A000000007FB5054643
:101B00000C4601210846FFF779FA0295ADF804402A
:101B10000020ADF80600ADF80C0001A94FF08040A0
:101B200000F004F91C208DF8000001208DF8010060
:101B300002208DF8020001208DF803006846FFF7AF
:101B4000E3F90121880700F0CAF801221146900745
:101B500000F0E2F80121880700F0BEF87FBD000028
:101B600010B501211A4800F0C6F801282AD11948F9
:101B7000006820B918480068401C174908601648DA
:101B8000006802280AD140F6C4110420FFF7FCF8CF
:101B900001201049086000200F4908600F480068C4
:101BA00001280FD10E480068401C0D490860084606
:101BB0000068052806D10020086000F0ABFE094847
:101BC000FFF74CFE0121024800F086F810BD00002E
:101BD00000040040340000203000002020000020DD
:101BE00038000020000000207FB505460C4601218A
:101BF0000220FFF703FA0295ADF804400020ADF88B
:101C00000600ADF80C0001A90F4800F08FF81D2068
:101C10008DF8000001208DF8010003208DF80200EE
:101C200001208DF803006846FFF76EF90121064890
:101C300000F055F801221146034800F06DF801212B
:101C4000014800F049F87FBD0004004010B50121B3
:101C5000074800F050F8012805D10648006801281F
:101C600001D100F031FE0121014800F035F810BD2E
:101C700000080040200000207FB505460C460121E9
:101C80000420FFF7BBF90295ADF804400020ADF841
:101C90000600ADF80C0001A90E4800F047F81E2020
:101CA0008DF8000001208DF801008DF802008DF8FC
:101CB00003006846FFF728F90121064800F00FF8F5
:101CC00001221146034800F027F80121014800F0E5
:101CD00003F87FBD00080040CA430282704721B16B
:101CE000028842F00102028004E002884FF6FE738F
:101CF0001A400280704730B50246002000230024BD
:101D0000158A05EA0103958905EA010413B10CB1AE
:101D1000012000E0002030BD1AB183890B4383818C
:101D200002E083898B438381704700000022028890
:101D3000184B98420ED0184B98420BD0B0F1804F00
:101D400008D0164B984205D0154B984202D0154B3F
:101D5000984204D14FF68F731A404B881A43124BA6
:101D6000984207D0114B984204D04FF6FF431A40D7
:101D70000B891A4302804B68C3620B880385054BAD
:101D8000984202D0044B984201D18B7A03860123FA
:101D900083827047000001400004014000040040BD
:101DA00000080040000C00400010004000140040FB
:101DB00010B588B0044601210846FFF70FF901214C
:101DC0001020FFF73BF901218803FFF737F90722BD
:101DD00009212248FEF754FF07220A211F48FEF777
:101DE0004FFF4FF4C060069002208DF81C008DF864
:101DF0001D0000208DF81E0001208DF81F0006A98F
:101E00001648FEF7F5FE02940020ADF80C00ADF880
:101E10000E00ADF81000ADF814000C20ADF8120063
:101E200002A90F4800F002FA25208DF804000220D4
:101E30008DF805008DF8060001208DF8070001A837
:101E4000FFF762F8012240F22551054800F0C9F978
:101E50000121034800F00AF908B010BD000002405B
:101E60000010014070B5002540F225515E4800F099
:101E70008EF9002874D05C4800F042FA044600BF96
:101E800040215A4800F076F90028F9D021465748F9
:101E900000F03BFA56480068E0B93E2C19D100200A
:101EA0005449086001205249086000F00DFD42F2DB
:101EB000CF0149F63F40FFF7DFFE42F2CF0142F289
:101EC0000F70FFF791FE00204B49086001204B493D
:101ED000086083E04648006801287FD148480078C0
:101EE00010B1012879D141E07B2C0DD14548006823
:101EF00008B9012000E0002042490860404800780D
:101F0000401C3F49087030E03F49404A12688C54F9
:101F10003E480068401C3D49086008460068401E75
:101F20003949085C6B2820D10020384A126888544F
:101F300037A13548FEF74BF9B8B90020334908609E
:101F400031490870487088703248006848B90120EB
:101F50003049086042F2CF012F48FFF7CFFD04E07F
:101F600041E000204FF08041486236E02649274A90
:101F700012688C5425480068401C244908600846B3
:101F80000068401E2049085C7D2825D100211F489B
:101F90000068401E1C4A11541A48001D006808B908
:101FA000012000E000201749091D08601648FEF7CF
:101FB00007F906463246144918A000F02DFA00250C
:101FC00003E00020104948556D1C322DF9DB00203C
:101FD0000E4908600A49087000BF00BF40F2255151
:101FE000014800F034F870BD004C00400010014082
:101FF0001C000020A40243422404004020000020D2
:102000002C0000208C024242E0000020180000203A
:102010006F6B000024000020BFD4010074686520AD
:102020006F726465722066726F6D2073657276657B
:10203000722D2D2D2D2D25733D25640001F4007288
:10204000B2F5007F00D100BFCA430280704710B5CF
:102050000022002340F66A14A14200D100BF0A12F8
:1020600001249440A3B2DC43048010BD21B18289D5
:1020700042F40052828104E082894DF6FF731A40D7
:102080008281704710B504463248844208D101214C
:102090001020FEF7E3FF00211020FEF7DFFF57E0DE
:1020A0002D48844209D101214804FEF7B7FF0021E1
:1020B0004FF40030FEF7B2FF4AE02848844209D1CD
:1020C00001218804FEF7AAFF00214FF48020FEF7CB
:1020D000A5FF3DE02248844209D10121C804FEF752
:1020E0009DFF00214FF40020FEF798FF30E01D48CF
:1020F000844209D101210805FEF790FF00214FF429
:102100008010FEF78BFF23E01748844208D101219D
:102110002020FEF7A3FF00212020FEF79FFF17E0FD
:102120001248844209D101218807FEF777FF002178
:102130004FF08040FEF772FF0AE00D48844207D15D
:1021400001214005FEF76AFF00216005FEF766FFEA
:1021500010BD000000100140004400400048004055
:10216000004C004000500040001401400078004046
:10217000007C004002460020B1F5007F00D100BF86
:1021800013880B400BB1012000E00020704770B5B0
:102190000246002400230025002040F66A16B142C2
:1021A00000D100BFC1F3421501F01F03012606FA5A
:1021B00003F3012D02D19689334006E0022D02D1AE
:1021C000168A334001E0968A33400C12012606FA43
:1021D00004F41688344013B10CB1012000E0002053
:1021E00070BDF0B50346002400260025002040F60F
:1021F0006A17B94200D100BF1846C1F3421401F07A
:102200001F06012707FA06F5012C01D10C3004E066
:10221000022C01D1103000E014301AB107682F43AE
:10222000076002E00768AF430760F0BD2DE9FF4794
:1022300005460E460024A14600BFA046B08900B165
:1022400000BF2C8A24F44054F08804432C82AC89CB
:1022500041F20C608443B088318908437189084396
:102260000443AC81AC8A24F44074B0890443AC824A
:102270006846FEF703FF2048854202D01F4885428A
:1022800002D1DDF80C9001E0DDF80890A88900F497
:10229000004040B109EBC90000EB0910316849006A
:1022A000B0FBF1F707E009EBC90000EB091031685A
:1022B0008900B0FBF1F76420B7FBF0F004012009BE
:1022C000642101FB1078A88900F4004040B132205D
:1022D00000EBC800B0FBF1F000F00700044308E099
:1022E000322000EB08106421B0FBF1F000F00F0089
:1022F00004432C81BDE8FF87001001400014014019
:1023000001468888C0F308007047C1F30802828044
:10231000704700BFFEE7000010B54FF4FA7000F000
:1023200067FA4FF4FA7000F063FA3548FFF796FA4F
:102330004FF4FA7000F05CFA4FF4FA7000F058FABB
:102340004FF4FA7000F054FA2E48FFF787FA4FF472
:10235000FA7000F04DFA4FF4FA7000F049FA4FF4B9
:10236000FA7000F045FA4FF4FA7000F041FA4FF4B9
:10237000FA7000F03DFA4FF4FA7000F039FA4FF4B9
:10238000FA7000F035FA4FF4FA7000F031FA4FF4B9
:10239000FA7000F02DFA4FF4FA7000F029FA1A489A
:1023A000FFF75CFA4FF4FA7000F022FA4FF4FA707B
:1023B00000F01EFA4FF4FA7000F01AFA1348FFF713
:1023C0004DFA4FF4FA7000F013FA4FF4FA7000F07F
:1023D0000FFA0F48FFF742FA4FF4FA7000F008FACC
:1023E0004FF4FA7000F004FA0A48FFF737FA4FF496
:1023F000FA7000F0FDF94FF4FA7000F0F9F910BD31
:10240000540000206200002080000020A80000206E
:10241000B7000020C40000200FB4054B10B503A97D
:10242000044A029800F02CF810BC5DF814FB000080
:10243000D1280008DC0000200FB4084B10B504A917
:1024400002AA039800F01CF8044602A9002000F03C
:10245000B8F9204610BC5DF814FB0000C327000843
:1024600002E008C8121F08C1002AFAD1704770475D
:10247000002001E001C1121F002AFBD170470000BB
:102480002DE9FF4F8BB088460546002606E025283B
:102490000BD0DDE90D1290476D1C761C28780028C2
:1024A000F5D10FB03046BDE8F08F0024A146A2461A
:1024B0000122AE4900E0044315F8013F203B02FA37
:1024C00003F00842F7D128782A2810D06FF02F02A5
:1024D0002878A0F13001092915D809EB890102EB10
:1024E000410144F0020400EB01096D1CF0E758F8CB
:1024F000041B5FEA010903D544F40054C9F1000943
:1025000044F002046D1C28782E2817D115F8010F0D
:1025100044F004042A280ED06FF02F022878A0F18E
:10252000300109290AD80AEB8A0102EB410100EBCC
:10253000010A6D1CF2E758F804AB6D1C28786C2872
:102540000FD006DC4C2817D068280DD06A2814D18B
:1025500004E0742810D07A280FD10DE044F4001460
:102560000AE044F4801401E044F4401469788142A4
:1025700002D104F580146D1C6D1C2878692865D083
:1025800006DC00288DD0632827D0642806D15DE0C2
:102590006E2808D073282AD0752877D0DDE90D126F
:1025A0009047761CE0E0C4F30250022809D00328CB
:1025B0000DD0D8F8001004280DD00E6008F10408E2
:1025C000D2E0D8F80010F217C1E90062F6E7D8F8B7
:1025D00000100E80F2E70E70F0E718F8041B8DF87B
:1025E000001000208DF80100EB46012003E058F8B0
:1025F00004BB4FF0FF3061074FF0000701D40AE041
:102600007F1C57450DDA8742FADB1BF807100029BB
:10261000F6D106E07F1C8742FCDB1BF8071000297F
:10262000F8D1DDE90D23A9EB07008146214600F032
:10263000B1F83044C61904E0DDE90D121BF8010BB6
:1026400090477F1EF8D22146484688E058F8040B90
:10265000C4F302514FF00A0B032900D100B2042940
:1026600000D140B2002802DA40422D2102E02105CB
:1026700005D52B218DF82410012104E006E0E107A7
:1026800010D02021F6E708AF089113E058F8040BAA
:10269000C4F302514FF00A0B032900D180B2042980
:1026A00000D1C0B20021EEE75946FDF73FFE3031C0
:1026B00007F8011D0028F7D1ADEB070000F1200B52
:1026C000600702D524F4803401E04FF0010ADA45B6
:1026D00002DDAAEB0B0000E00020824600EB0B01BC
:1026E00008980144A9EB01000A90E00306D4DDE953
:1026F0000D2321460A9800F04DF806444FF00009DA
:1027000008E009A911F80900DDE90D12904709F167
:102710000109761C08998945F3DBE0030CD5DDE956
:102720000D2321460A9800F035F8064404E0DDE95F
:102730000D1230209047761CBAF10001AAF1010A6F
:10274000F5DC05E0DDE90D1217F8010B9047761C6A
:10275000BBF10001ABF1010BF4DC0A982146DDE985
:102760000D2300F005F806446D1C97E609280100CA
:102770002DE9F041044600251E461746880404D47E
:1027800005E039462020B0476D1C641EF9D5284667
:10279000BDE8F0812DE9F041044600251E46904633
:1027A000C80301D5302700E02027880404D505E0C0
:1027B00041463846B0476D1C641EF9D52846BDE831
:1027C000F0810A68531C0B601070704701200549A6
:1027D000086000200449C1F8AC02012003490860E8
:1027E00070470000A8824042008040429802414267
:1027F0000146114A12884A434FF0E0235A610022F1
:102800009A611A46126942F001021A6100BF4FF044
:10281000E022106900F001021AB100F48032002AAF
:10282000F5D04FF0E022126922F001024FF0E023D0
:102830001A6100229A617047D80000200146114AAF
:1028400012784A434FF0E0235A6100229A611A46F7
:10285000126942F001021A6100BF4FF0E0221069D4
:1028600000F001021AB100F48032002AF5D04FF0D6
:10287000E022126922F001024FF0E0231A610022E7
:102880009A617047D600002010B50C48006820F00F
:1028900040400A4908600846006840F080400860EF
:1028A0000020074908601420FFF7A2FF0120054916
:1028B000C1F8BC021E20FFF7C1FF10BD000002409E
:1028C000BC0240420000404210B5FEF743FA10BD82
:1028D00070B504460D46A1B20548FFF716FD00BFCE
:1028E00080210348FFF746FC0028F9D0204670BD40
:1028F000001001400120044908600449C1F8AC02FD
:102900000020034908607047A8824042008040428E
:102910009802414200B52DED068B8FB0002008EEE5
:10292000100A9FED470AF0EE408A0BA9FEF700FD62
:102930009DF82E0000909DF82D309DF82F2041A18C
:1029400001A8FFF779FD9DF82C2044A101A8FFF70D
:1029500073FD0CA90020FEF725FD9DF832000090C4
:102960009DF831309DF830203EA101A8FFF764FDAD
:1029700014210920FEF7CCF908EE100AB8EE480A37
:1029800010EE100AFDF7A3FC41EC1A0B9FED3A0B79
:1029900053EC102BFDF729FC41EC190BFDF7AAFCB9
:1029A00008EE900A0DA90EA8FDF73DFF9DF838002E
:1029B0000A2190FBF1F03030314948709DF8380021
:1029C0000A2190FBF1F201FB120030302C49887093
:1029D0009DF834000A2190FBF1F03030284908714D
:1029E0009DF834000A2190FBF1F201FB1200303017
:1029F00023494871B2EE040A28EE800ABDEEC00AEF
:102A000010EE100A0A2190FBF1F030301C49C87119
:102A1000B2EE040A28EE800ABDEEC00A10EE100ADB
:102A20000A2190FBF1F201FB120030301449487288
:102A300014A0FFF7F1FC0FB0BDEC068B00BD000049
:102A400000000000446174653A3230253032642D54
:102A5000253032642D253032640000005765656BE7
:102A60003A25640054696D653A253032643A253060
:102A700032643A25303264006666666666664A3FAE
:102A800000000020CBF9B2C9BCAFB5C4CAFDBEDDA1
:102A900064617461203D202573200A0000BF00BFDF
:102AA00000BF00BFA820FEF7DBFFFDF737FEFEF7F3
:102AB00097F9FEF77BF9FEF769F84FF4E130FFF77D
:102AC00077F90DA0FFF7A8FC4FF4A060FEF758FAC5
:102AD00042F2CF014CF24F30FFF786F84FF4E1306D
:102AE000FDF720FFFFF718FCFDF7FAFD05A0FFF743
:102AF00093FC00BFFEE700007265736574202D2D06
:102B00002D2D0A007374617274200A00012004499B
:102B1000086000200349C1F8AC020349086070470F
:102B2000A882404200804042980241424C2B00085B
:102B300000000020E0000000602400082C2C0008A9
:102B4000E000002038040000702400082331312CFC
:102B500032322C332E322C342E302C35352C312C75
:102B60003023000000000000000000000000000012
:102B7000000000000000000000000000FFFFFFFF59
:102B80000000000000000000FFFFFFFF0000000049
:102B90000000000001020304010203040607080903
:102BA00041542B43574D4F44453D310D0A0041548C
:102BB0002B43574A41503D224C49222C2231333974
:102BC0003237303433383339220D0A0041542B4325
:102BD000495053544152543D22544350222C2274A4
:102BE00063702E746C696E6B2E696F222C383634CC
:102BF000370D0A0041542B4349504D4F44453D3158
:102C00000D0A0041542B43495053454E440D0A00D0
:102C100037475734365243314937363945344758A8
:0C2C2000000000000000000000000000A8
:040000050800018965
:00000001FF
