:020000040800F2
:10000000980500209D0100081D1F00085B0C0008DA
:10001000711E0008890700089B3F000800000000CF
:100020000000000000000000000000000D3000088B
:10003000A307000800000000B91F0008593300089A
:10004000B7010008B7010008B701000881270008C0
:10005000B7010008B7010008B7010008B7010008A0
:10006000B7010008B7010008B7010008B701000890
:10007000B7010008B7010008B7010008B701000880
:10008000B7010008B7010008B7010008B701000870
:10009000B7010008B7010008B701000869080008A7
:1000A000B7010008B7010008B7010008B701000850
:1000B0000D340008D1340008AD350008B701000840
:1000C000B7010008B7010008B7010008B701000830
:1000D000B7010008B7010008B7010008B701000820
:1000E000B701000875220008B7010008B701000831
:1000F000B7010008B7010008B7010008B701000800
:10010000B7010008B7010008B7010008B7010008EF
:1001100065390008B7010008B7010008B7010008F9
:10012000B7010008B7010008B7010008B7010008CF
:10013000B7010008B7010008B7010008B7010008BF
:10014000B7010008B7010008B7010008B7010008AF
:10015000B7010008B7010008B7010008B70100089F
:10016000B7010008B7010008B7010008B70100088F
:10017000B7010008B7010008B7010008B70100087F
:10018000B7010008B7010008DFF80CD000F056F8FE
:1001900000480047614A000898050020064880474B
:1001A00006480047FEE7FEE7FEE7FEE7FEE7FEE75C
:1001B000FEE7FEE7FEE7FEE7693300088901000875
:1001C000D2B201E000F8012B491EFBD27047002299
:1001D000F6E710B513460A4604461946FFF7F0FF46
:1001E000204610BD421C10F8011B0029FBD1801ACB
:1001F000704710B5002200E0521C835C8C5CA34267
:1002000001D1002BF8D1D8B2E1B2401A10BD30B5FF
:100210000B46014600202022012409E021FA02F5C4
:100220009D4205D303FA02F5491B04FA02F528445E
:10023000151EA2F10102F1DC30BD0000064C074D95
:1002400006E0E06840F0010394E8070098471034A6
:10025000AC42F6D3FFF79CFFAC7C0708CC7C0708C8
:1002600070B58C1810F8015B15F0070301D110F878
:10027000013B2A1106D110F8012B03E010F8016BA5
:1002800001F8016B5B1EF9D12B0705D40023521E28
:100290000DD401F8013BFAE710F8013BCB1A921C90
:1002A00003E013F8015B01F8015B521EF9D5A1428E
:1002B000D8D3002070BD00007CB505460C46322026
:1002C00094FBF0F100FB1140C8B94FF6FF701F21FD
:1002D000CAA31822CDE900104FF48C711E2001F042
:1002E00013F84FF6FF701F21CDE90010C94850F8F0
:1002F000253018224FF48C71A22001F005F8C64871
:100300000078012803D0C4480078022875D1C2487B
:100310000078012872D1062D09D2DFE805F0030923
:1003200017768492BD48C078401CBC49C87096E0DE
:10033000BA4840780C2803D10120B849487004E03D
:10034000B6484078401CB549487088E0B349897880
:100350001C2910D1B149497802290CD1AF49C8787C
:10036000C11700EB91718910A0EB810119B1012037
:10037000AA49887048E0A94989781D2910D1A74960
:10038000497802290CD1A549C878C11700EB9171B1
:100390008910A0EB810119B90120A049887033E0D0
:1003A0009E4880781E2820D19C4840780D281BD27A
:1003B000DFE800F01A0E1A0F071008111209130ACD
:1003C000140000BF00BF00BF0120944988700BE0FB
:1003D00000BF00BF00BF00BF00BF00BF8F488078D4
:1003E000401C8E49887000BF0EE08C4880781F2822
:1003F00005D101208949887006E0A6E030E08748F1
:100400008078401C8549887029E085480078172845
:1004100003D100208249087004E081480078401C24
:100420007F4908701BE07E4840783B2803D10020BC
:100430007B49487004E07A484078401C784948700D
:100440000DE0774880783B2803D1002074498870FC
:1004500004E073488078401C7149887000BF00BF79
:100460006D480078022870D1062D09D2DFE805F02A
:100470000309175966746948C078401E6749C870F7
:1004800077E066484078012803D10C206349487022
:1004900004E062484078401E6049487069E05F4867
:1004A0008078012837D15D49C878C11700EB917178
:1004B0008910A0EB810139B958494978022903D143
:1004C0001D20564988702BE054484078022803D1FB
:1004D0001C205249887023E0504840780D2819D2DA
:1004E000DFE800F0180718081109120A0B130C14A2
:1004F0000D0000BF00BF00BF00BF00BF00BF1F2036
:100500004649887006E000BF00BF00BF1E20434977
:10051000887000BF04E041488078401E3F498870E1
:1005200027E03F48007818B917203D49087004E0DB
:100530003B480078401E3A4908701AE03848007875
:1005400020B93B203649487005E013E03448407834
:10055000401E334948700CE03148807818B93B2080
:100560002F49887004E02E488078401E2C498870FE
:1005700000BF00BF962C01D103F0CAF8062D3AD275
:10058000DFE805F0030C151E2730312C05D125A31B
:100590001822DC21722000F095FE2CE0312C05D1D0
:1005A00020A31822DC21962000F08CFE23E0312CC1
:1005B00005D11CA31822DC21BA2000F083FE1AE02A
:1005C000312C05D117A31822FA215A2000F07AFE07
:1005D00011E0312C05D113A31822FA217E2000F05E
:1005E00071FE08E0312C05D10EA31822FA21A220B9
:1005F00000F068FE00BF00BF7CBD0000506C65616C
:100600007365205365742020202020202020202086
:1006100000000000480000207C0000208C0000202A
:10062000880000202020000010B5FF2000F024F8F2
:100630000446552C01D1002010BD5521FF2000F0AB
:1006400059F8FF2000F018F80446552C01D100207D
:10065000F2E70120F0E770B506460C46154608E0C3
:100660003046721C96B200F007F804F8010B681EC1
:1006700085B2002DF4D170BD70B50446002600F09F
:10068000CFFB2546E11704EB11610912A02202EB12
:100690004101C8B200F01AFB00F00EFCE11704EBB8
:1006A00011610912A4EB0121C8B200F00FFB00F0A8
:1006B00003FC00F0B5FBA12000F008FB00F0FCFB00
:1006C000002000F0CDFA064600F0D0FB304670BDA9
:1006D00070B505460C46164606E02178284600F01F
:1006E00009F8681C85B2641C3000A6F101018EB2C5
:1006F000F3D170BD70B504460E4600F091FB25465F
:10070000E11704EB11610912A02202EB4101C8B20A
:1007100000F0DCFA00F0D0FBE11704EB11610912E4
:10072000A4EB0121C8B200F0D1FA00F0C5FB3046BD
:1007300000F0CCFA00F0C0FB00F098FB0A2003F0B8
:100740008FFF70BD10B500F01DFB10BD1CB5012161
:10075000402001F061FC01208DF8040000208DF89C
:1007600006008020009001208DF8070002208DF8FF
:1007700005006946034800F0F8F98021014800F0BF
:1007800068FA1CBD0018024000BFFEE710B5024623
:10079000012000E050430B00A1F10104E1B2F9D1C6
:1007A00010BD704710B588B004460121C80401F09F
:1007B00053FC0121084601F02FFC0121880301F0C0
:1007C0006BFC274803F0A2FA08220021254800F01C
:1007D00014FA08220121234800F00FFA03200690A2
:1007E00002208DF81C008DF81D0000208DF81E00E1
:1007F00001208DF81F0006A91A4800F0B6F90294EE
:100800000020ADF80C00ADF80E00ADF81000ADF80A
:1008100014000C20ADF8120002A9114803F04AFBA5
:10082000012240F225510E4803F01FFB40210C48E5
:1008300003F048FA34208DF8040002208DF80500FA
:1008400000208DF8060001208DF8070001A801F0B6
:1008500067FB0121024803F04DFA08B010BD00000B
:10086000004C00400000024010B5402000F068F845
:1008700068B10A2003F0F4FE4021194800F0E0F9C5
:1008800010B918A003F00CFD402000F053F88020B0
:1008900000F056F868B10A2003F0E2FE802110480B
:1008A00000F0CEF910B915A003F0FAFC802000F09A
:1008B00041F84FF4807000F043F878B10A2003F05B
:1008C000CFFE4FF48071064800F0BAF910B912A0BB
:1008D00003F0E6FC4FF4807000F02CF810BD00002F
:1008E000001402406B65793320746573742062795B
:1008F00020696E746572727570740A000A6B65798E
:1009000032207465737420627920696E7465727226
:100910007570740A000000000A6B657931207465F7
:10092000737420627920696E746572727570740ACE
:10093000000000000149086070470000143C0140BD
:1009400001460020034A12680A400AB1012000E073
:1009500000207047143C0140002123498279002A7D
:100960003AD00A46126803689A430B461A600A1D79
:10097000126803689A430B1D1A60027911440A68D1
:1009800003681A430A60184A0832126803689A43D7
:10099000154B08331A601A1D126803689A43124BEC
:1009A0000C331A604279102A0ED11A1F126803689C
:1009B0001A430D4B08331A601A1D126803681A4354
:1009C000094B0C331A600DE00749427911440A685B
:1009D00003681A430A6005E0027911440A68036853
:1009E0009A430A6070470000003C01400EB500F0D9
:1009F000D9FA0121880301F04FFB0621052002F0FE
:100A000007FB0821052002F003FB0721052002F067
:100A1000FFFA4FF4E070019000208DF808000C20E0
:100A20008DF8090001208DF80A0001A8FFF794FF56
:100A300017208DF8000003208DF8010002208DF8AA
:100A4000020001208DF80300684601F069FA0EBD2E
:100A500051B18200A2F1C042126842F0010382004B
:100A6000A2F1C042136009E08200A2F1C042126804
:100A7000034B1A408300A3F1C0431A607047000083
:100A8000FEFF0F00D0E901121143C2681143026951
:100A900011434269114382691143C2691143026AD9
:100AA0001143426A1143826A1143C26A1143026BC5
:100AB000114302689200A2F1C042116081680829C6
:100AC0000BD101688900A1F1C041096841F04002E1
:100AD00001688900A1F1C0410A60416B0968426B5D
:100AE000526841EA0211426B926841EA0221426B6C
:100AF000928941EA0241426B128A41EA0251426BF9
:100B0000127D41EA0261426B926911430268521CF4
:100B10009200A2F1C0421160C16AB1F5804F1BD1B1
:100B2000816B0968826B526841EA0211826B92689C
:100B300041EA0221826B128A41EA0251826B127DE4
:100B400041EA0261826B9269114302689200A2F14C
:100B5000C042C2F8041107E06FF0704201688900DA
:100B6000A1F1C041C1F804217047F0B50A46002147
:100B70000023002400BF3DE0012505FA01F31568BC
:100B800005EA03049C4234D105684F000326BE40A9
:100B9000B543056015794E00B540066835430560DC
:100BA0001579012D02D01579022D16D185684F00D7
:100BB0000326BE40B543856055794E00B540866832
:100BC00035438560456801268E40B54345604568DC
:100BD00096798E40B6B235434560C5684F0003260E
:100BE000BE40B543C560D5794E00B540C6683543B3
:100BF000C560491C1029BFD3F0BDF0B50023002407
:100C00004D07ED0E02FA05F3CE1000F1200555F860
:100C100026504E07F70E0F26BE40B543CF1000F109
:100C2000200646F82750CE1000F1200555F8265032
:100C300045EA0304CE1000F1200545F82640F0BD3A
:100C40000246002013690B400BB1012000E0002098
:100C50007047418370470183704700BFFEE7000083
:100C600070B5054600241648006820F44020144959
:100C70000860084600680860002616E00020114958
:100C80000860022003F012FD01200F49C1F8A00204
:100C90006006040E0B487C38006808B1601CC4B2C2
:100CA000012003F003FD701CC6B2082EE6DB15B967
:100CB00000F08EF801E000F03DF8204670BD000025
:100CC00000040240A08240420080404270B50446C9
:100CD0001548006820F44020134908600846006861
:100CE00040F480200860002010490860002517E0CB
:100CF000E0090E49091D08606006040E022003F099
:100D0000D5FC01200A49C1F8A002022003F0CEFC64
:100D1000002006490860022003F0C8FC681CC5B228
:100D2000082DE5DB70BD000000040240A0824042B7
:100D30000080404210B500200F4908600F4800684D
:100D400020F440200D4908600846006840F48020E7
:100D5000086000200A49C1F8A402022003F0A6FCA2
:100D6000012005490860022003F0A0FC002004498E
:100D7000C1F8A00210BD0000A08240420004024061
:100D8000008040421CB50121022001F045F94FF4DA
:100D90004070009001208DF8040000208DF80600BE
:100DA00003208DF8050001208DF8070069460548ED
:100DB000FFF7DBFE0120044908600449C1F8A402E2
:100DC0001CBD000000040240A0824042008040425E
:100DD00010B500200F4908600F48006820F440203B
:100DE0000D4908600846006840F480200860012032
:100DF0000A49C1F8A402022003F058FC0120054969
:100E00000860022003F052FC00200449C1F8A0024F
:100E100010BD0000A0824042000402400080404219
:100E200010B50F48006820F440200D4908600846BE
:100E3000006840F48020086001200A4908600A49DF
:100E4000C1F8A002042003F031FC0020054908602D
:100E5000042003F02BFC00200349C1F8A00210BDC0
:100E600000040240A48240420080404210B50F4876
:100E7000006820F440200D4908600846006840F4EE
:100E80008020086000200A4908600A49C1F8A402CD
:100E9000042003F00BFC0120054908600549C1F856
:100EA000A402042003F002FC10BD00000004024074
:100EB000A08240420080404210B5002413480068E0
:100EC00020F44020114908600846006808600120AD
:100ED0000F49086003F0EAFB01200E49C1F8A002A7
:100EE00003F0E4FB07E0601CC4B2FA2C03DDFFF75B
:100EF000BDFF012010BD0648803800680028F2D1EF
:100F00000349091F086000BFF4E700000004024025
:100F1000A482404200804042D321074A1180911CA4
:100F20000888088808884FF6FF7101EA0020911CA4
:100F30000988084370470000FE1F006C4CF6CC4047
:100F40000149086070470000003000404AF6AA20BE
:100F500001490860704700000030004001494860C6
:100F60007047000000300040014988607047000071
:100F70000030004001490860704700000030004028
:100F800070B505460C4645F25550FFF7F3FF28466D
:100F9000FFF7E4FF2046FFF7E7FFFFF7D7FFFFF774
:100FA000CDFF70BD1CB50121202001F035F80020D7
:100FB0008DF804008DF806004FF470700090012049
:100FC0008DF8070002208DF8050069460148FFF7FB
:100FD000CCFD1CBD0014024070B50446002500265F
:100FE000094800880949098800FB01F600210846E4
:100FF00000F034FB00F09EFB00BF02E004480480D8
:101000006D1CB542FAD370BD1C0100201E010020EA
:101010000020006C70B505460E4614463146284641
:1010200000F098F90348008803490880881C048070
:1010300070BD000020010020FE1F006C2DE9FF4F55
:10104000074616461C46BB460C2C01D198460AE0C2
:10105000102C01D1A04606E0182C02D14FF0300828
:1010600001E0BDE8FF8FA6F12000C6B2002548E0F0
:101070000C2C07D106EB4600244901EB800010F848
:10108000059010E0102C05D1214800EB061010F857
:10109000059008E0182C06D106EB46001D4901EB2F
:1010A000001010F805904FF0000A24E009F001004C
:1010B00030B11948028838460199FFF7ABFF05E0C7
:1010C0004BF6186238460199FFF7A4FF4FEA690909
:1010D000781C87B2A7EB0B0104EBD472B1EB620F63
:1010E00005D15F460198401C80B2019006E00AF1EC
:1010F000010000F0FF0ABAF1080FD7DB00BF681C3F
:10110000C5B24545B4DB00BFABE70000305800086E
:10111000A45C000894620008140100202DE9FF4F30
:1011200004460F461E46A346182E02D14FF048082B
:1011300001E0BDE8FF8F002532E0182E07D10298AC
:1011400000EBC000184901EBC00010F805904FF00B
:10115000000A1FE009F0010030B114480288394646
:101160002046FFF757FF05E04BF618623946204648
:10117000FFF750FF4FEA6909601C84B2A4EB0B0033
:10118000182803D15C46781C87B206E00AF10100FA
:1011900000F0FF0ABAF1080FDCDB00BF681CC5B223
:1011A0004545CADB00BFC4E7E05000081401002039
:1011B000F0B505460F4616461C460DE0227833462C
:1011C00039462846FFF7AAFFA81985B208480088C3
:1011D000854200DB0AE0241D2068002806DB206829
:1011E000642803DC2068401C0028E7D100BFF0BD64
:1011F0001C0100202DE9FF4F81B0074690461E4696
:101200000E9CC3464FF0000906E00A20BBFBF0FB32
:1012100009F1010000F0FF09BBF1000FF5D1B14564
:1012200008DD26A322463846029900F04BF805B0A7
:10123000BDE8F08F00253CE0A6EB0900A8421BDDCD
:101240000F9860B104EBD471491001FB057188B2AD
:101250002346302200940299FFF7F0FE27E004EBCA
:10126000D471491001FB057188B2234620220094F5
:101270000299FFF7E3FE1AE0701B401EC1B20A207C
:10128000FFF784FAB8FBF0F00A21B0FBF1F201FBA2
:10129000120A04EBD471491001FB057188B20AF1FE
:1012A0003001CAB2234600940299FFF7C7FE681CBA
:1012B000C5B2B542C0DB00BFB9E700004552524F8E
:1012C00052000000F0B506460F4615461C4611E0D8
:1012D00022782B4639463046FFF7B0FE284605EB0C
:1012E000D07106EB61018EB206480088864200DBB1
:1012F00006E0641C2078202802DB20787E28E7DDC9
:1013000000BFF0BD1C0100202DE9F04F04460D4642
:1013100016461F46DDE909890C48B0F800A00C48C4
:10132000B0F800B00948A0F800800948A0F8009083
:101330003B46324629462046FFF7C4FF0348A0F843
:1013400000A00348A0F800B0BDE8F08F1401002011
:101350001601002030B504460D462946204600F00F
:101360007DF900F0E7F9024800880249088030BDA5
:10137000140100200020006C00B59FB001217820EE
:1013800000F04AFE0121084600F056FE4FF480604E
:101390001D9001208DF8780000208DF87A00022041
:1013A0008DF8790001208DF87B001DA97748FFF7A3
:1013B000DCFB4CF233701D9002208DF87800002089
:1013C0008DF87A0003208DF8790001208DF87B00DC
:1013D0001DA96F48FFF7C9FB4FF680701D900220D2
:1013E0008DF8780000208DF87A0003208DF87900C0
:1013F00001208DF87B001DA96648FFF7B6FB04208D
:101400001D9002208DF8780000208DF87A000320CE
:101410008DF8790001208DF87B001DA95E48FFF74B
:10142000A4FB4FF480501D9002208DF8780000201E
:101430008DF87A0003208DF8790001208DF87B006B
:101440001DA95548FFF791FB0C2200215048FFF7DA
:10145000D4FB0C2201214E48FFF7CFFB0C220421C4
:101460004B48FFF7CAFB0C2205214948FFF7C5FB93
:101470000C2208214648FFF7C0FB0C2209214448F2
:10148000FFF7BBFB0C220A214148FFF7B6FB0C22F9
:101490000E213F48FFF7B1FB0C220F213C48FFF71C
:1014A000ACFB0C2207213B48FFF7A7FB0C220821CD
:1014B0003848FFF7A2FB0C2209213648FFF79DFBB5
:1014C0000C220A213348FFF798FB0C220B213148EC
:1014D000FFF793FB0C2211462E48FFF78EFB0C22E0
:1014E0000D212C48FFF789FB0C220E212948FFF71C
:1014F00084FB0C220F212748FFF77FFB0C220221DF
:101500002548FFF77AFB0C2211462348FFF775FBAD
:101510000F200790002008903C20099000200A909E
:101520000B900C900D900820009000200190072057
:1015300002900020039004900590069006200E90E3
:1015400000200F9010901020119000201290149005
:101550001390159016904FF480501790002018901B
:101560004FF48040199000201A9007A81B90CDF8E6
:1015700070D00EA8FFF786FA01210620FFF768FA5F
:10158000322003F06DF81FB000BD000000140240CF
:10159000000C0240001002400018024030B58418D0
:1015A000641EA2B2CC18641EA3B2264C24786CBB75
:1015B000254C248841F66315AC4227D1234C24885E
:1015C000A41A241AA0B2CC18641EA3B2204C2488FA
:1015D000204D2C800412AD1C2C80C4B22C808418A9
:1015E000641EC4F30F242C808418641EE4B22C8083
:1015F000194C2488AD1E2C800C12AD1C2C80CCB252
:101600002C801C122C80DCB22C8019E0104C248819
:10161000104D2C800412AD1C2C80C4B22C801412EE
:101620002C80D4B22C800C4C2488AD1E2C800C1243
:10163000AD1C2C80CCB22C801C122C80DCB22C80F7
:1016400030BD00001A010020180100201C010020FC
:1016500022010020FE1F006C240100202E4A128867
:1016600049F241339A4212D12C4A12882C4B1A80EB
:1016700002129B1C1A80C2B21A802A4A12889B1E30
:101680001A800A129B1C1A80CAB21A8042E0224AAF
:10169000128841F663139A423CD1234A12788AB9E0
:1016A000224A1288521E121A90B21C4A12881C4BEF
:1016B0001A8000229B1C1A801A8002121A80C2B261
:1016C0001A8013E0154A1288154B1A8002129B1CCF
:1016D0001A80C2B21A80154A1288521EC2F30F2213
:1016E0001A80124A1278521ED2B21A800D4A1288FB
:1016F0000B4B1A800A129B1C1A80CAB21A800C4A21
:101700001288521EC2F30F221A80094A1278521E02
:10171000D2B21A8070470000180100202201002078
:10172000FE1F006C240100201A0100201C01002073
:101730001E0100200248008802490880704700000E
:1017400020010020FE1F006C024A1080921C1180B4
:1017500070470000FE1F006C10B5FFF70DFEFFF78D
:10176000DBFBEB4908800846008849F2413188429A
:1017700023D0A120E7490880881C0088E44908801C
:10178000E448801C00880880084600884FF6FF71F6
:1017900001EA0020DE490880DE48801C00880988B4
:1017A0000843DB4908800846008845F26171884299
:1017B00003D141F66310D6490880D548008849F224
:1017C000413188421CD1D448006820F00F004FF00E
:1017D0002041C1F81C010846D0F81C0120F47060BB
:1017E000C1F81C010846D0F81C0140F00300C1F804
:1017F0001C010846D0F81C0140F40070C1F81C011F
:10180000C348008849F2413188427DD1CF20C14987
:1018100008800020891C0880C120088030200880B2
:10182000ED20891E08806420891C08800320088020
:101830001220088081200880E820891E08808520E9
:10184000891C0880102008807A200880CB20891EFF
:1018500008803920891C08802C20088000200880FE
:101860003420088002200880F720891E088020206C
:10187000891C0880EA20891E08800020891C0880B5
:101880000880C020891E08801B20891C0880C12078
:10189000891E08800120891C0880C520891E0880B7
:1018A0003020891C08800880C720891E0880B72046
:1018B000891C08803620891E08804820891C0880E1
:1018C0003A20891E08805520891C0880B120891E75
:1018D00008800020891C08801A200880B620891EF4
:1018E00008800A20891C0880A2200880F220891E16
:1018F00008800020891C08802620891E088001207D
:10190000891C0880E02000E060E0891E08800F202C
:10191000891C08802A200880282008800820088048
:101920000E2008800820088054200880A920088004
:10193000432008800A2008800F20088000200880AB
:10194000088008800880E120891E08800020891C0A
:1019500008801520088017200880072008801120A3
:101960000880062008802B200880562008803C2014
:10197000088005200880102008800F2008803F2064
:10198000088008800F2008802B20891E08800020F6
:10199000891C08800880012008803F2008802A20B8
:1019A000891E08800020891C088008800880EF209C
:1019B00008801120891E0880782002F051FE29201D
:1019C0005449088001205549086098E05048008833
:1019D00041F663118842F8D1E2204E4908801D206B
:1019E000891C08800220088004200880642002F0FE
:1019F0005DFEE020474908800120891C08800A20FC
:101A000002F02EFEE020434908800320891C088054
:101A10000C2002F025FE01203E4908800A2002F039
:101A20001FFEE6203B4908802F20891C0880FF20EC
:101A300008800880B020891E08802020891C08802A
:101A4000002008800320088040F21F300880012019
:101A5000088040F2DF10088000200880B420891E32
:101A600008800420891C088040F21F400880002064
:101A700008802E20088000200880088008800880C8
:101A8000B620891E08800220891C08804FF403704C
:101A9000088000200880172008801520088000207A
:101AA00008800880F020891E08800320891C088097
:101AB0002920891E0880D02008800020891C0880E9
:101AC000BE20891E08800520891C0880FE20088011
:101AD000012008800020088008800880B820891E26
:101AE00008800320891C088001200880BA20891EF4
:101AF00008800120891C0880FF2001F007FC0020DD
:101B000001F01CFB4FF6FF70FFF766FA10BD0000F6
:101B100018010020FE1F006C1C0100A0A882424298
:101B200070B58EB0002500244FF478404F490880EE
:101B30005F252F244E4840788DF834004C4880783B
:101B40008DF83500214628460DAB1822FFF7BAFB69
:101B5000214605F1180018231322FFF7DFFA00BF12
:101B60005024434800798DF83400414840798DF87D
:101B70003500214628460DAB1822FFF7A3FB21466E
:101B800005F1180018231422FFF7C8FA00BF7124CA
:101B90003748C0798DF834003548007A8DF8350023
:101BA000214628460DAB1822FFF78CFB214605F194
:101BB000180018231422FFF7B1FA214605F130006E
:101BC00018232822FFF73AFA9DF8350030389DF89F
:101BD0003410303901EB810100EB4106002E0ADBA5
:101BE000282E08DCA1B205F13C0290B21823152280
:101BF000FFF794FA18E0282E0ADD462E08DCA1B281
:101C000005F13C0290B218231622FFF787FA0BE089
:101C1000462E09DD642E07DCA1B205F13C0290B22C
:101C200018231722FFF77AFAA1B205F1540290B2F5
:101C300018232922FFF702FA052540F227140CA9E0
:101C4000002000F0A3FB9DF8320000909DF8313099
:101C50009DF8332007A102A802F032FB2146284656
:101C600002AB1822FFF72EFB0EB070BD140100204E
:101C7000030000203230253032642D253032642DAF
:101C8000253032640000000030B591B000240025FA
:101C90008E2440F227150EA9002000F0B1FB9DF81C
:101CA0003A0000909DF839309DF8382038A104A8FA
:101CB00002F006FB9DF83800002807DB9DF838008D
:101CC000052803DC01203649087002E00020344971
:101CD00008703448007828B9A9B2A0B204AB182221
:101CE000FFF7F0FA30480078B0B9012210A90420BB
:101CF000FEF7B1FC9DF84000012802D09DF840009D
:101D000038B9012029490870122229490520FEF717
:101D1000A2FC01202449087024480078012834D10D
:101D20009DF83A009DF839109DF83820214B9B789A
:101D3000CDE90032CDE902101E484378C2781EA1D9
:101D400004A802F0BDFA04A91948FEF752FAE0B956
:101D500001220FA90420FEF77EFC9DF83C0001281B
:101D600003D11DA002F09CFA05E09DF83C0010B9DB
:101D70001EA002F095FA03200F9001220FA9042063
:101D8000FEF7A6FC00200949087011B030BD000024
:101D9000253032643A253032643A2530326400000E
:101DA000900000206400002091000020000000202E
:101DB000500100208C0000203230253032642D2567
:101DC0003032642D25303264253032643A25303289
:101DD000643A2530326400006F70656E206F706564
:101DE000726174696F6E200A00000000636C6F738B
:101DF00065206F7065726174696F6E200A00000063
:101E00001CB50121502000F007F918200090012096
:101E10008DF8040000208DF8060003208DF80500E1
:101E200001208DF8070069460F48FEF79EFE4FF42B
:101E30000070009001208DF8040000208DF806004D
:101E400003208DF8050001208DF80700694607483A
:101E5000FEF78BFE18210448FEF7FDFE4FF40071DB
:101E60000248FEF7F8FE1CBD0010024000180240B8
:101E700000BFFEE73EB541F6FF740121080700F000
:101E8000EBF8012000F092F8002000F055FB45F23D
:101E9000200188423BD0012000F0B2F904E0601C30
:101EA00084B20A2002F0DCFB412000F089F900280E
:101EB000F5D00CB901203EBD4FF4807000F0BCF9A4
:101EC000012000F0B3F97F200190FF200290002054
:101ED0000090684600F0FEFA17200E4908703A207C
:101EE000487032208870002000F09AFB16200A49C2
:101EF000887002204870062008702020C8700120D9
:101F000000F02AFB45F22001002000F0D9FC00205F
:101F1000D1E70000880000208C00002070470000FE
:101F200070B5002100230F22C4781CB3174C24681D
:101F300004F4E064C4F5E064C4F30721C1F10404CF
:101F4000E3B20A4144789C40E1B2847814402143D2
:101F50000C07210E0E4C05786155047804F01F051E
:101F60000124AC4005786D11AD0005F1E025C5F800
:101F7000004109E0047804F01F050124AC40054D40
:101F80000678761145F8264070BD00000CED00E0A3
:101F900000E400E080E100E002490143024A1160F0
:101FA000704700000000FA050CED00E001490862EE
:101FB0007047000000000E42704700001CB5012170
:101FC000042000F029F84FF48050009000208DF894
:101FD000040002208DF8050000208DF80600022084
:101FE0008DF8070069460248FEF7BFFD1CBD0000E2
:101FF0000008024010B507480068012807D10A20F0
:1020000002F02EFB03480068012800D110BD00201B
:10201000FCE700003002414229B1064A126802433F
:10202000044B1A6004E0034A12688243014B1A60B1
:10203000704700003038024029B1064A1268024356
:10204000044B1A6004E0034A12688243014B1A6091
:10205000704700003838024029B1064A126802432E
:10206000044B1A6004E0034A12688243014B1A6071
:10207000704700004038024029B1064A1268024306
:10208000044B1A6004E0034A12688243014B1A6051
:10209000704700002038024029B1064A1268024306
:1020A000044B1A6004E0034A12688243014B1A6031
:1020B000704700004438024029B1064A12680243C2
:1020C000044B1A6004E0034A12688243014B1A6011
:1020D0007047000024380240F0B50021002200249F
:1020E000022500260223324F3F6807F00C0121B180
:1020F000042905D0082937D105E02E4F076036E0C6
:102100002D4F076033E02A4F3F1F3F68C7F38056CB
:10211000274F3F1F3F6807F03F036EB1264FB7FBC5
:10212000F3F7DFF88CC0ACF1040CDCF800C0CCF3A2
:10213000881C07FB0CF40CE01E4FB7FBF3F7DFF82D
:1021400070C0ACF1040CDCF800C0CCF3881C07FBB9
:102150000CF4174F3F1F3F68C7F301477F1C7D00FA
:10216000B4FBF5F7076002E0124F076000BF00BF45
:102170000F4F3F6807F0F0010909104F7A5C0768BC
:10218000D74047600A4F3F6807F4E051890A0B4F78
:102190007A5C4768D7408760054F3F6807F4604125
:1021A000490B064F7A5C4768D740C760F0BD000016
:1021B000083802400024F40000127A006C0000206D
:1021C00010B501460022002300204A11012A02D145
:1021D0000A4C236808E0022A03D1084C70342368B3
:1021E00002E0064C7434236801F01F02012494407D
:1021F0001C400CB1012000E0002010BD003802405E
:102200000021094A11701170012802D0042808D158
:1022100003E00121044A117004E00521024A117013
:1022200000E000BF00BF70477038024001490860FD
:10223000704700003C0E4742002100F44072B2F5A6
:10224000407F08D1094A116821F4F811084A024078
:102250001143064A1160054A68321268C0F30B0345
:102260001A43024B68331A60704700000838024076
:10227000FFFCFF0F10B54FF4807000F0ADF801289F
:102280000DD1000200F032F807A002F009F8094869
:10229000006808B9012000E00020064908604FF4FA
:1022A0000030FEF747FB10BD414C41524D2041210B
:1022B0000D0A0000A4024342014600BF080900EBDA
:1022C0008000420001F00F001044C0B27047014688
:1022D000002204E0501CC2B2A1F10A00C1B20A29D6
:1022E000F8DA100741EA10607047000081B241F04F
:1022F0008001044A126802F0800262EA0101014A88
:10230000116070470C280040002101098AB242F098
:102310008002044B1B6803F0800363EA0202014B56
:102320001A6070470C28004008B500220092002077
:102330000021104A126802F04002CAB9421E0D4B39
:102340001A6000BF0B4A126802F04001009A521C4A
:102350000092009AB2F5803F01D00029F2D0054AE0
:10236000126802F040020AB1012002E0002000E001
:10237000012008BD0C2800400348006820F08000C0
:1023800001490860704700000C28004070B50646FF
:102390000C4600250E4800680E4900EA0105280C8D
:1023A000E070C5F30420607005F03F00A070C5F335
:1023B000423020705EB9E078FFF77EFFE070607811
:1023C000FFF77AFF6070A078FFF776FFA07070BD0E
:1023D000042800403FFFFF0010B501460020002206
:1023E000054B1B68054C03EA040202EA01030BB12A
:1023F000012000E0002010BD0C2800407F3F0100BC
:1024000070B506460C4600250F4800680F4900EAE3
:102410000105C5F305402070C5F30620607005F086
:102420007F00A07005F48000000CE0705EB9207899
:10243000FFF742FF20706078FFF73EFF6070A078E2
:10244000FFF73AFFA07070BD002800407F7F7F003B
:1024500010B5044604492046FFF798FF034920467B
:10246000FFF7CEFF10BD00008C0000208800002088
:10247000CA22174B1A6053221A6091B1144A1C3AAF
:10248000126820F004031A43114B1C3B1A60104AD7
:102490001C32126800F004031A430D4B1C331A60FF
:1024A00011E00B4A1C3A126820F004039A43084BCF
:1024B0001C3B1A60064A1C32126800F004039A435F
:1024C000034B1C331A60FF22014B1A607047000057
:1024D0002428004030B504460025CA20154908606C
:1024E00053200860FFF720FF00B91DE011481C3899
:1024F000006820F040000F491C3908600846006859
:10250000216808430B491C3908600A491439A0683E
:10251000086008460068A18840EA0140054914396E
:102520000860FFF729FF0125FF20024908602846BF
:1025300030BD00002428004008B50146002000906E
:1025400004480090009800EB81000090009800681B
:1025500008BD0000502800402DE9F04105460C461A
:10256000002600274DB9607800F01000102804D133
:10257000607820F010000A30607005B908E06078DB
:10258000FFF79AFE0646A078FFF796FE064600BFC4
:1025900055B1E0780004617840EA0120A178084351
:1025A000217840EA413611E0E078FFF790FE4FEAEB
:1025B00000486078FFF78BFE48EA0028A078FFF714
:1025C00086FE48EA0008207848EA4036CA201249C8
:1025D000086053200860FFF7A7FE08B9002714E041
:1025E0000E4830400C4920390860FFF7C5FE0A4804
:1025F0001C38006800F0200030B900F0DDF808B9A0
:10260000002702E0012700E00127FF2002490860BF
:102610003846BDE8F0810000242800403FFFFF005D
:102620002DE9F04105460C46002600274DB92E48FD
:10263000006800F0400000B102E00020E07000BF40
:102640000DE02948006800F0400020B12078FFF735
:1026500033FE064602E00020E07000BF00BF55B127
:1026600020780004617840EA0120A1780843E178ED
:1026700040EA014611E02078FFF729FE4FEA0048C2
:102680006078FFF724FE48EA0028A078FFF71FFED5
:1026900048EA0008E07848EA0046CA2012491C319E
:1026A000086053200860FFF73FFE08B9002713E0D9
:1026B0000E4830400C4908390860FFF75DFE0A48B3
:1026C000006800F0200030B900F076F808B9002763
:1026D00002E0012700E00127FF2003491C310860C8
:1026E0003846BDE8F0810000082800407F7F7F0069
:1026F000CA21054A1160532111600349103908604D
:10270000FF21116070470000242800403EB50546B7
:102710000C46002000F098F8284600F07DF820468E
:10272000FFF7E6FF4FF48040FFF7EEFD4FF4800027
:10273000FEF700F901218803FFF79AFE012000F05F
:1027400083F84FF48000019000208DF808000820E5
:102750008DF8090001208DF80A0001A8FEF7FCF8A9
:1027600003208DF8000002208DF801008DF8020092
:1027700001208DF803006846FFF7D2FB3EBD000044
:1027800010B54FF48060FFF727FE01280CD18002BE
:10279000FFF7ACFDFFF778FA0648006808B901209A
:1027A00000E00020034908604FF48000FEF7C2F803
:1027B00010BD00008C02424208B5002200920020A9
:1027C0000021CA22134B1A6053221A60114A183A88
:1027D000126822F0A0020F4B183B1A6000BF0D4A8E
:1027E000183A126802F02001009A521C0092009AD6
:1027F000B2F5003F01D00029F1D0064A183A12681C
:1028000002F020020AB1012000E00020FF22014B6B
:102810001A6008BD24280040CA210A4A11605321C9
:10282000116008491C39096821F00701054A1C3A62
:1028300011601146096801431160FF21014A1160CE
:10284000704700002428004018B50146002300937B
:1028500000220020CA23194C23605323236049B16E
:10286000164B1C3B1B6843F48063144C1C3C2360D8
:1028700001201FE0114B1C3B1B6823F480630F4CAD
:102880001C3C236000BF0D4B183B1B6803F0040287
:10289000009B5B1C0093009BB3F5803F01D0002A96
:1028A000F1D0064B183B1B6803F004030BB9002062
:1028B00000E00120FF23014C236018BD24280040C4
:1028C00008B500220092044A0092009A02EB8002AE
:1028D0000092009A116008BD502800402DE9F04197
:1028E00004460D460A48007800F076F80646094886
:1028F000007800F071F80746322E01DB322F02DA41
:102900000020BDE8F08126802F800120F9E700003B
:1029100030010020310100207FB504460D4602A998
:1029200003A8FFF7DBFF064616B9002004B070BD10
:10293000694601A8FFF7D2FF06460EB90020F5E769
:10294000BDF80400BDF80C10884206DCBDF80C1080
:10295000BDF80400323081420CDBBDF80C00BDF83C
:102960000410884236DCBDF80410BDF80C0032308B
:1029700081422FDABDF80000BDF80810884206DC5D
:10298000BDF80810BDF80000323081420CDBBDF804
:102990000800BDF8001088421CDCBDF80010BDF82E
:1029A00008003230814215DABDF80C10BDF8042061
:1029B000881800EBD071C1F34F012180BDF80810D9
:1029C000BDF80020881800EBD071C1F34F012980B9
:1029D0000120ABE70020A9E72DE9FE438046002750
:1029E000002406E0404600F0A1FA2DF81400601C17
:1029F00084B2052CF6DB002416E0601C85B20FE0E3
:102A00003DF814003DF81510884207DD3DF81460CC
:102A10003DF815002DF814002DF81560681C85B2DE
:102A2000052DEDDB601C84B2042CE6DB00270124BD
:102A300005E03DF81400384487B2601C84B2042CD1
:102A4000F7DB032097FBF0F086B23046BDE8FE834B
:102A500070B505462846FDF7C5FB86B200240CE09C
:102A600000BF4021064801F0C9F90028F9D0295DCE
:102A7000034801F08EFA601C84B2B442F0DB70BDF2
:102A8000004C00402DE9F04FADB000270625002690
:102A90004FF0000828210FA8FDF799FB03200490B0
:102AA0004FF0FF3903904FF47840EB490880002045
:102AB000FFF7CEFC00F02CFEE84A0021084601F0AA
:102AC000D3FE012203A90420FDF7C5FD9DF80C00EB
:102AD000012802D09DF80C0058BB0A2205A9052048
:102AE000FDF7B9FD642001F0BBFD08220FA90F20FE
:102AF000FDF7B1FD4FF6FF701F2105AB1822CDE9A0
:102B0000001039214620FEF7FFFB4FF6FF701F2112
:102B10000FAB1822CDE9001051214620FEF7F4FB3F
:102B20009DF80C0030B9182319226C216E20FEF795
:102B3000F5FA09E09DF80C00012805D118231A4682
:102B40006C216E20FEF7EAFA81E1002001F00CFF13
:102B5000701CC6B2002001F01FFBC148008800288D
:102B600012DDBF48008824280EDABE4800880028FD
:102B70000ADDBC480088262806DAC82001F070FD6E
:102B80000020B949087063E1B54800881E2816DDA9
:102B9000B3480088562812DAB248008891280EDD22
:102BA000B0480088B7280ADAC82001F059FD182378
:102BB0001A466C216E20FEF7B1FA01200490A84855
:102BC00000889A2816DDA6480088D22812DAA5487F
:102BD000008891280EDDA3480088B7280ADAC820AB
:102BE00001F03EFD182319226C216E20FEF796FAA3
:102BF000002004909A480088C5281EDD9848008867
:102C0000F0281ADA97480088002816DD95480088D1
:102C10002B2812DAC82001F023FD904A0021084633
:102C200001F022FE002703200290012202A90420C5
:102C3000FDF74EFD00208D49087017B1012F09D115
:102C400018E08B480078042805D18A480088FA28C3
:102C500001DD0127F7E0322096FBF0F100FB116067
:102C600038B9B8F1000F04D10020FFF7F1FB00F0F4
:102C70004FFDE8E080480078032804D1681CC5B205
:102C8000052D00DD002531462846FDF715FB7A4865
:102C9000007804287ED100F09FFD7848807800906D
:102CA00076484378C27876A105A801F009FB7948F7
:102CB0008078009077484378027877A10FA801F0D8
:102CC000FFFA0020FFF7C4FB6C48807800906B4847
:102CD0004378C2786AA123A801F0F2FA6D4880789F
:102CE00000906C48437802786BA119A801F0E8FACB
:102CF00023A905A8FDF77DFA002802DD4FF00109A0
:102D000038E023A905A8FDF774FAF0B919A90FA8AE
:102D1000FDF76FFA002802DD4FF001092AE04FF6B7
:102D2000FF701F2160A31822CDE900104FF48C71B1
:102D30001E20FEF7E9FA002404E00A2001F090FCCE
:102D4000601CC4B2C82CF8DB14E04FF6FF701F21E2
:102D50005AA31822CDE900104FF48C711E20FEF703
:102D6000D3FA002404E00A2001F07AFC601CC4B20B
:102D7000C82CF8DBB9F1010F64D19DF810000328CD
:102D800046D09DF8101052A001F08AFA4FF6FF705D
:102D90001F2100E056E058A31822CDE900104FF49F
:102DA0008C711E20FEF7B0FA012204A90420FDF761
:102DB0008FFC05A8FDF716FA1FFA80FA524605A9FE
:102DC0000520FDF785FC322001F04AFC0FA8FDF735
:102DD00009FA1FFA80FA52460FA90F20FDF778FC76
:102DE000322001F03DFC05A8FDF7FCF983460FA851
:102DF000FDF7F8F958441FFA80FA52464449052075
:102E0000FDF729FC012019490870002500271AE068
:102E10004FF6FF701F213FA31822CDE900104FF499
:102E20008C710020FEF770FA002404E00A2001F003
:102E300017FC601CC4B2C82CF8DB084A0021084605
:102E400001F012FD00BF00BF052001F009FC7CE687
:102E500000BF2DB0BDE8F08F14010020647400089D
:102E6000280100202A01002064000020000000202A
:102E7000800000207E0000207C0000208C000020CC
:102E80003230253032642D253032642D25303264C5
:102E90000000000088000020253032643A253032DE
:102EA000643A253032640000506C656173652052CD
:102EB000657365742074696D65000000506C656110
:102EC0007365205265736574206461746500000049
:102ED00073657420616E642063686F6F7365206F23
:102EE0006BA3AC6375727461696E5F7374617475A2
:102EF000733D202564200A0041646A757374205470
:102F0000494D204F4B202020202020202020200031
:102F100050010020506C656173652063686F6F73AA
:102F200065206F6E2F6F66660000000070B5064664
:102F30000025002400201E4908601E49C1F88402B3
:102F40001D490860304600F03BF8062001F0AEFB5A
:102F500000201A49C1F89402012001F0A7FB0120CA
:102F60001349086001F0A2FB00201449C1F8940243
:102F700000BF15E04FF6FF7000EA440400200C4942
:102F80000860012001F092FB01200C49C1F8940275
:102F900009487838006808B1601C84B2681CC5B262
:102FA000102DE7DB2411012003490860204670BD85
:102FB00094024042008040428082404200004042F1
:102FC00070B50446002500BF17E004F0800018B17A
:102FD00001200B49086002E00020094908606006F2
:102FE000040E002007490860012001F05FFB01206A
:102FF0000549C1F89402681CC5B2082DE5DB70BD17
:1030000084824042940240420000404270470000E7
:1030100030B500228B071C0F0F2303FA04F20B4B71
:103020008C1053F824309343084C8D1044F825300D
:1030300023468C1053F824308C07240F00FA04F434
:103040002343024C8D1044F8253030BD0838014030
:103050000CB50020019000903448006840F48030A6
:103060003249086000BF3148006800F40030009029
:103070000198401C0190009818B90198B0F5A04F34
:10308000F1D12A48006800F4003010B1012000900E
:1030900001E0002000900098012846D123484030EC
:1030A000006840F0805021494031086020480068A5
:1030B00040F440401E4908601C48083000681B4925
:1030C000083108600846006840F40040086008467F
:1030D000006840F4A05008601648091F0860081FE7
:1030E000006840F08070091F086000BF0F4800684A
:1030F00000F000700028F9D040F205700E49086019
:103100000A480830006820F00300084908310860C8
:103110000846006840F00200086000BF034808301D
:10312000006800F00C000828F8D10CBD00380240FF
:103130000070004008544007003C024010B50446AF
:103140008CBB0020334908703348008849F2413174
:10315000884210D12C20314908802A20304908802B
:103160002B2030490880F0202F4908804FF4A070B0
:103170002E49088049E02848008841F663118842BA
:1031800043D12C20254908802B20254908802A205E
:10319000244908804FF4F070234908804FF44870A8
:1031A0002249088031E0FFE701201A4908701A48D7
:1031B000008849F24131884210D12C2017490880FB
:1031C0002A20174908802B20164908804FF4A07048
:1031D00015490880F0201549088016E00E4800883F
:1031E00041F66311884210D12C200C4908802A2016
:1031F0000B4908802B200B4908804FF448700A497E
:1032000008804FF4F07009490880002000F010F8A1
:1032100010BD00001A01002018010020200100202C
:1032200022010020240100201C0100201E0100209A
:1032300070B505460024002630480078012805D1E5
:103240002F48008849F24131884208D02B48007845
:10325000F0B92B48008841F66311884218D1082D37
:1032600015D2DFE805F00406080A0C0E1012062538
:103270000DE007250BE0042509E0052507E0012501
:1032800005E0002503E0032501E0022500BF00BFA3
:10329000082D1CD2DFE805F00406090C0F121518E2
:1032A00000BF14E044F0800411E044F040040EE05C
:1032B00044F0C0040BE044F0200408E044F0600453
:1032C00005E044F0A00402E044F0E00400BF00BFC9
:1032D00036260B48008849F24131884201D144F03A
:1032E000080421463046FEF72FFA064803880648B0
:1032F000028800210846FEF751F970BD1A0100202E
:10330000180100201E0100201C010020BE21074AD8
:1033100011800521921C1180114608800121118025
:10332000FF2111800021118011807047FE1F006C69
:10333000042808D14FF0E021096941F004014FF061
:10334000E022116107E04FF0E021096921F004015A
:103350004FF0E0221161704702480068401E0149A9
:10336000086070476800002010B51548006840F4F8
:103370007000134908601348006840F001001149CB
:10338000086000200F49083108600E4800680E49A7
:1033900008400C4908600D48091D0860081F0068B6
:1033A00020F48020091F0860002006490C310860C5
:1033B000FFF74EFE4FF0006001498039086010BDF4
:1033C00088ED00E000380240FFFFF6FE10300024D8
:1033D00010B504466FF00400FFF7AAFFE11704EBF5
:1033E0005171C1F3C701074A11701046007800EB14
:1033F0004001C1EBC0104FF6FF7101EAC000024965
:10340000088010BD460100204801002010B50121B0
:10341000880700F020F9012810D10B480068401CF3
:1034200018B901200849086008E008A000F038FF3A
:103430000CA0FFF70DFB00200B4908600121880755
:1034400000F0FAF810BD000044000020BCECB2E22D
:10345000CAA7B0DC20C6F4B6AFBFB4C3C5B9B70ABB
:10346000000000002B2B2B00280000207FB5054614
:103470000C4601210846FEF7EFFD0295ADF8044029
:103480000020ADF80600ADF80C0001A94FF0804017
:1034900000F0FCF81C208DF8000001208DF80100E0
:1034A00002208DF8020001208DF803006846FEF727
:1034B00037FD0121880700F0C2F80122114690076C
:1034C00000F0DAF80121880700F0B6F87FBD0000AF
:1034D00010B50121174800F0BEF8012825D1164883
:1034E000006820B915480068401C1449086013485A
:1034F000006802280AD140F6C4110420FDF740FDFF
:1035000001200D49086000200C4908600C48006843
:1035100001280AD10B480068401C0A490860084687
:1035200000680A2801D1002008600121014800F04C
:1035300083F810BD000400403C000020380000204B
:1035400028000020400000207FB505460C460121E0
:103550000220FEF781FD0295ADF804400020ADF891
:103560000600ADF80C0001A90F4800F08FF81D20EF
:103570008DF8000001208DF8010003208DF8020075
:1035800001208DF803006846FEF7CAFC01210648B9
:1035900000F055F801221146034800F06DF80121B2
:1035A000014800F049F87FBD0004004010B501213A
:1035B000074800F050F8012805D1064800680128A6
:1035C00001D101F099F80121014800F035F810BD52
:1035D00000080040280000207FB505460C46012168
:1035E0000420FEF739FD0295ADF804400020ADF847
:1035F0000600ADF80C0001A90E4800F047F81E20A7
:103600008DF8000001208DF801008DF802008DF882
:1036100003006846FEF784FC0121064800F00FF81D
:1036200001221146034800F027F80121014800F06B
:1036300003F87FBD00080040CA430282704721B1F1
:10364000028842F00102028004E002884FF6FE7315
:103650001A400280704730B5024600200023002443
:10366000158A05EA0103958905EA010413B10CB135
:10367000012000E0002030BD1AB183890B43838113
:1036800002E083898B438381704700000022028817
:10369000184B98420ED0184B98420BD0B0F1804F87
:1036A00008D0164B984205D0154B984202D0154BC6
:1036B000984204D14FF68F731A404B881A43124B2D
:1036C000984207D0114B984204D04FF6FF431A405E
:1036D0000B891A4302804B68C3620B880385054B34
:1036E000984202D0044B984201D18B7A0386012381
:1036F0008382704700000140000401400004004044
:1037000000080040000C0040001000400014004081
:103710001CB527A31822DC211E20FDF7D3FD0120B4
:103720001821CDE900102648C2780223DC2172203E
:10373000FDF760FD01201821CDE9001020484278F6
:103740000223DC219620FDF755FD01201821CDE94B
:1037500000101B4882780223DC21BA20FDF74AFDC5
:1037600018A31822FA211E20FDF7ACFD0120182114
:10377000CDE90010174802780223FA215A20FDF7FC
:1037800039FD01201821CDE90010124842780223AA
:10379000FA217E20FDF72EFD01201821CDE9001031
:1037A0000C4882780223FA21A220FDF723FD1CBDDC
:1037B000446174653A323020202D20202D202000D5
:1037C0008C00002054696D653A20203A20203A2070
:1037D00020000000880000201CB527A318223921F2
:1037E0004620FDF76FFD01201821CDE90010254886
:1037F000C278022339215E20FDF7FCFC012018214C
:10380000CDE900101F484278022339218220FDF7BC
:10381000F1FC01201821CDE900101A48827802231A
:103820003921A620FDF7E6FC17A3182251214620D6
:10383000FDF748FD01201821CDE900101548027858
:10384000022351214620FDF7D5FC01201821CDE9A6
:10385000001010484278022351216A20FDF7CAFC6B
:1038600001201821CDE900100A4882780223512155
:103870008E20FDF7BFFC1CBD323020202D20202DD6
:10388000202000008C00002020203A20203A202018
:10389000000000008800002010B50448008849F2AC
:1038A0004131884201D100F0FBFB10BD180100201E
:1038B00010B588B0044601210846FEF7ADFB012192
:1038C0001020FEF7E9FB01218803FEF7E5FB072244
:1038D00009212248FDF791F907220A211F48FDF727
:1038E0008CF94FF4C060069002208DF81C008DF812
:1038F0001D0000208DF81E0001208DF81F0006A974
:103900001648FDF732F902940020ADF80C00ADF82E
:103910000E00ADF81000ADF814000C20ADF8120048
:1039200002A90F4800F0C6FA25208DF804000220F5
:103930008DF805008DF8060001208DF8070001A81C
:10394000FEF7EEFA012240F22551054800F08DFA0B
:103950000121034800F0CEF908B010BD000002407C
:1039600000100140F8B500250520009040F22551D7
:103970009D4800F050FA002874D09B4800F004FBEA
:10398000044600BF4021994800F038FA0028F9D0D9
:103990002146964800F0FDFA95480068E0B93E2CB3
:1039A00019D100209349086001209149086000F076
:1039B000A3FE42F2CF0149F63F40FFF70DFE42F26F
:1039C000CF0142F20F70FFF7BFFD00208A49086067
:1039D00001208A49086001E1854800680128FAD180
:1039E0008748007810B1012841D141E07B2C0DD1EE
:1039F0008448006808B9012000E00020814908607F
:103A00007F480078401C7E49087030E07E497F4A3C
:103A100012688C547D480068401C7C490860084648
:103A20000068401E7849085C6B2820D10021764848
:103A3000764A1268815476A1FCF7DBFBB8B9002006
:103A40007249086070490870487088707148006851
:103A500048B901206F49086042F2CF016E48FFF774
:103A600005FD04E0BFE000204FF080414862B4E073
:103A70006548664A1268845464480068401C63497B
:103A8000086008460068401E5F49085C7D2873D1C5
:103A900000215E480068401E5B4A11545948001DD1
:103AA000006808B9012000E000205649091D08609F
:103AB0005548FCF797FB06463246534957A000F09D
:103AC000EFFB5DA15048FCF794FB90B901226946D9
:103AD0000320FCF7C0FD9DF8000000286FD10120F5
:103AE0005749087018231A468F218C20FDF716FBC2
:103AF00065E054A14448FCF77CFB88B90122694683
:103B00000320FCF7A8FD9DF80000002857D14C4980
:103B10000870182319228F218C20FDF7FFFA4EE040
:103B20004BA13948FCF765FB002848D04BA136482B
:103B3000FCF75FFB002842D04BA13348FCF759FB50
:103B400000283CD04BA13048FCF753FB002836D06E
:103B50004BA12D48FCF74DFB78B918231A464FF4BA
:103B60008471CD20FDF7DAFA01204849087001225E
:103B70000220FCF7ADFD22E02EE045A12248FCF733
:103B800038FB70B9182319224FF48471CD20FDF74A
:103B9000C5FA00203D49087001220220FCF798FD7B
:103BA0000DE03EA11848FCF724FB40B93E4800F068
:103BB000B9FD3D48FEF74CFF3CA000F071FB00252D
:103BC00003E00020104948556D1C322DF9DB002020
:103BD0000E4908600A49087000BF00BF40F2255135
:103BE000014800F078F8F8BD004C0040001001409A
:103BF00024000020A40243422404004028000020A6
:103C0000340000208C02424262010020200000208B
:103C10006F6B00002C000020DF2202006F726465D1
:103C2000722066726F6D20736572766572203D201A
:103C300025733D2564000000637572745F6F6E002C
:103C400002000020637572745F6F666600000000FA
:103C5000736D6172745F6F6E00000000736D61724E
:103C6000745F6F666600000073657474695F6F6EE1
:103C70002000000073657474695F6F666600000061
:103C8000616C61726D5F6F6E0000000001000020CA
:103C9000616C61726D5F6F666600000075706461D3
:103CA00074655F6F6E000000030000207570646132
:103CB00074655F6F6E207375636365737366756C8F
:103CC0000A00000001F40072B2F5007F00D100BFCD
:103CD000CA430280704710B50022002340F66A14E0
:103CE000A14200D100BF0A1201249440A3B2DC43D8
:103CF000048010BD21B1828942F40052828104E027
:103D000082894DF6FF731A408281704710B50446D0
:103D10003248844208D101211020FEF7CDF900215C
:103D20001020FEF7C9F957E02D48844209D101213E
:103D30004804FEF7A1F900214FF40030FEF79CF98A
:103D40004AE02848844209D101218804FEF794F909
:103D500000214FF48020FEF78FF93DE02248844295
:103D600009D10121C804FEF787F900214FF4002092
:103D7000FEF782F930E01D48844209D1012108058F
:103D8000FEF77AF900214FF48010FEF775F923E071
:103D90001748844208D101212020FEF78DF9002127
:103DA0002020FEF789F917E01248844209D1012149
:103DB0008807FEF761F900214FF08040FEF75CF9BB
:103DC0000AE00D48844207D101214005FEF754F96D
:103DD00000216005FEF750F910BD00000010014001
:103DE0000044004000480040004C004000500040AB
:103DF0000014014000780040007C00400246002092
:103E0000B1F5007F00D100BF13880B400BB101203A
:103E100000E00020704770B5024600240023002512
:103E2000002040F66A16B14200D100BFC1F342152E
:103E300001F01F03012606FA03F3012D02D1968932
:103E4000334006E0022D02D1168A334001E0968A03
:103E500033400C12012606FA04F41688344013B1DC
:103E60000CB1012000E0002070BDF0B50346002435
:103E700000260025002040F66A17B94200D100BF95
:103E80001846C1F3421401F01F06012707FA06F590
:103E9000012C01D10C3004E0022C01D1103000E0E3
:103EA00014301AB107682F43076002E00768AF4378
:103EB0000760F0BD2DE9FF4705460E460024A146E8
:103EC00000BFA046B08900B100BF2C8A24F4405442
:103ED000F08804432C82AC8941F20C608443B088A2
:103EE00031890843718908430443AC81AC8A24F4C6
:103EF0004074B0890443AC826846FEF7EDF8204870
:103F0000854202D01F48854202D1DDF80C9001E0C5
:103F1000DDF80890A88900F4004040B109EBC90021
:103F200000EB091031684900B0FBF1F707E009EB3D
:103F3000C90000EB091031688900B0FBF1F764207B
:103F4000B7FBF0F004012009642101FB1078A88977
:103F500000F4004040B1322000EBC800B0FBF1F0AB
:103F600000F00700044308E0322000EB0810642151
:103F7000B0FBF1F000F00F0004432C81BDE8FF8797
:103F8000001001400014014001468888C0F3080079
:103F90007047C1F308028280704700BFFEE700004F
:103FA00010B54FF4FA7000F05BFB4FF4FA7000F0BC
:103FB00057FB3548FEF74CFD4FF4FA7000F050FB0C
:103FC0004FF4FA7000F04CFB4FF4FA7000F048FB2D
:103FD0002E48FEF73DFD4FF4FA7000F041FB4FF420
:103FE000FA7000F03DFB4FF4FA7000F039FB4FF42B
:103FF000FA7000F035FB4FF4FA7000F031FB4FF42B
:10400000FA7000F02DFB4FF4FA7000F029FB4FF42A
:10401000FA7000F025FB4FF4FA7000F021FB4FF42A
:10402000FA7000F01DFB1A48FEF712FD4FF4FA700B
:1040300000F016FB4FF4FA7000F012FB4FF4FA7028
:1040400000F00EFB1348FEF703FD4FF4FA7000F08A
:1040500007FB4FF4FA7000F003FB0F48FEF7F8FC83
:104060004FF4FA7000F0FCFA4FF4FA7000F0F8FA2E
:104070000A48FEF7EDFC4FF4FA7000F0F1FA4FF445
:10408000FA7000F0EDFA10BD92000020A0000020B0
:10409000BE000020E6000020F50000200201002004
:1040A0001CB501212720FDF7B7FF04200090002058
:1040B0008DF804008DF8060003208DF8050001201E
:1040C0008DF8070069462648FCF74FFD4FF4006065
:1040D000009069462348FCF748FD0320009001202A
:1040E0008DF8040069461E48FCF73FFD2020009033
:1040F00069461D48FCF739FD1C480078C0B1902086
:104100001B490870D0201B4908709FED1B0A1B48F3
:1041100080ED000A9FED1A0A1A4880ED000A4FF45C
:10412000AE70194908806FF012001849088016E037
:10413000D0200F49087090200E4908709FED140A96
:104140000E4880ED000A9FED130A0E4880ED000A2C
:104150006FF00A000C490880C01F0C4908801CBD84
:104160000004024000140240000002401A01002036
:1041700030010020310100206452BCBD3401002018
:104180007BF5893D380100203C0100203E010020E4
:10419000DA9F883D3ABABA3D10B504464FF6FF7033
:1041A000334908803349088033480068002848D1E3
:1041B00024B132493248FEF7AFFB34E02F49304892
:1041C000FEF7AAFB78B32F48B0F9000000EE100A02
:1041D000B8EEC00A2C4890ED001A2948008800EE7D
:1041E000900AF8EE600A01EE200ABCEEC00A10EE5A
:1041F000100A234908802548B0F9000000EE100A93
:10420000B8EEC00A224890ED001A1C48008800EE63
:10421000900AF8EE600A01EE200ABCEEC00A10EE29
:10422000100A16490880164800881A490880134861
:1042300000881949088019480078401C17490870FF
:1042400014E016480078022807DD0D480088084968
:1042500008800A4800880749088000200F49087034
:104260004FF6FF700B4908800B49088010BD000015
:104270002C0100202E0100202C824242420100200D
:10428000400100203C010020340100203E010020BC
:1042900038010020280100202A01002044010020CC
:1042A0000FB4054B10B503A9044A029800F02CF88E
:1042B00010BC5DF814FB0000014700084C01002011
:1042C0000FB4084B10B504A902AA039800F01CF81B
:1042D000044602A9002000F0B8F9204610BC5DF8A1
:1042E00014FB00004B46000802E008C8121F08C17A
:1042F000002AFAD170477047002001E001C1121F67
:10430000002AFBD1704700002DE9FF4F8BB0884693
:104310000546002606E025280BD0DDE90D12904762
:104320006D1C761C28780028F5D10FB03046BDE80A
:10433000F08F0024A146A2460122AE4900E00443CA
:1043400015F8013F203B02FA03F00842F7D1287824
:104350002A2810D06FF02F022878A0F13001092907
:1043600015D809EB890102EB410144F0020400EB8E
:1043700001096D1CF0E758F8041B5FEA010903D539
:1043800044F40054C9F1000944F002046D1C28787B
:104390002E2817D115F8010F44F004042A280ED056
:1043A0006FF02F022878A0F1300109290AD80AEB12
:1043B0008A0102EB410100EB010A6D1CF2E758F89B
:1043C00004AB6D1C28786C280FD006DC4C2817D065
:1043D00068280DD06A2814D104E0742810D07A28F7
:1043E0000FD10DE044F400140AE044F4801401E01D
:1043F00044F440146978814202D104F580146D1CA4
:104400006D1C2878692865D006DC00288DD06328CB
:1044100027D0642806D15DE06E2808D073282AD002
:10442000752877D0DDE90D129047761CE0E0C4F3E3
:104430000250022809D003280DD0D8F80010042813
:104440000DD00E6008F10408D2E0D8F80010F21781
:10445000C1E90062F6E7D8F800100E80F2E70E70AE
:10446000F0E718F8041B8DF8001000208DF801000B
:10447000EB46012003E058F804BB4FF0FF30610722
:104480004FF0000701D40AE07F1C57450DDA874240
:10449000FADB1BF807100029F6D106E07F1C8742E3
:1044A000FCDB1BF807100029F8D1DDE90D23A9EB8F
:1044B00007008146214600F0B1F83044C61904E0F7
:1044C000DDE90D121BF8010B90477F1EF8D2214643
:1044D000484688E058F8040BC4F302514FF00A0B29
:1044E000032900D100B2042900D140B2002802DA29
:1044F00040422D2102E0210505D52B218DF8241005
:10450000012104E006E0E10710D02021F6E708AF22
:10451000089113E058F8040BC4F302514FF00A0B52
:10452000032900D180B2042900D1C0B20021EEE7F6
:104530005946FBF76CFE303107F8011D0028F7D112
:10454000ADEB070000F1200B600702D524F48034A6
:1045500001E04FF0010ADA4502DDAAEB0B0000E0B2
:104560000020824600EB0B0108980144A9EB0100F2
:104570000A90E00306D4DDE90D2321460A9800F0F5
:104580004DF806444FF0000908E009A911F80900A8
:10459000DDE90D12904709F10109761C089989455A
:1045A000F3DBE0030CD5DDE90D2321460A9800F08A
:1045B00035F8064404E0DDE90D1230209047761C02
:1045C000BAF10001AAF1010AF5DC05E0DDE90D12FE
:1045D00017F8010B9047761CBBF10001ABF1010B02
:1045E000F4DC0A982146DDE90D2300F005F80644C5
:1045F0006D1C97E6092801002DE9F04104460025CD
:104600001E461746880404D405E039462020B047EA
:104610006D1C641EF9D52846BDE8F0812DE9F041F6
:10462000044600251E469046C80301D5302700E009
:104630002027880404D505E041463846B0476D1C64
:10464000641EF9D52846BDE8F0810A68531C0B604A
:104650001070704710B50024FDF7CCFC044610BD67
:104660000146114A12884A434FF0E0235A61002262
:104670009A611A46126942F001021A6100BF4FF0B6
:10468000E022106900F001021AB100F48032002A21
:10469000F5D04FF0E022126922F001024FF0E02342
:1046A0001A6100229A617047480100200146114AB0
:1046B00012784A434FF0E0235A6100229A611A4669
:1046C000126942F001021A6100BF4FF0E022106946
:1046D00000F001021AB100F48032002AF5D04FF048
:1046E000E022126922F001024FF0E0231A61002259
:1046F0009A6170474601002010B5FCF727FC10BDF9
:1047000070B504460D46A1B20548FFF742FC00BF54
:1047100080210348FFF772FB0028F9D0204670BDC6
:10472000001001402DE9FF41044600250026A8465F
:1047300000270020039005200290032001900090A4
:104740000A2095FBF0F0303060700A2095FBF0F104
:1047500000FB11503030A0700A2096FBF0F0303092
:1047600020710A2096FBF0F100FB1160303060717F
:104770000A2097FBF0F03030E0710A2097FBF0F14F
:1047800000FB117030302072012203A91046FBF7A4
:1047900062FF9DF80C00012804D0022807D00328EE
:1047A0000FD109E03420A0723020E07209E03620F9
:1047B000A0723020E07204E03920A0723020E07254
:1047C00000BF00BF21480078012803D13120607369
:1047D000607405E01D48007810B930206073607483
:1047E000012202A90320FBF736FF9DF808000128EB
:1047F00002D13120E07301E03020E073012201A9F1
:104800000220FBF728FF9DF80400012802D1312087
:10481000E07401E03020E074012269460420FBF7D7
:104820001AFF9DF80000012802D09DF8000010B981
:104830003120607501E0302060753020E075214640
:1048400003A0FFF72DFDBDE8FF810000020000205E
:10485000CBF9B2C9BCAFB5C4CAFDBEDD6461746139
:10486000203D202573200A002DE9FC4106460F4615
:1048700014464FF00808254604EB08002978CDE9D6
:104880000010AB886A883946304600F011F8BDE860
:10489000FC8110B502462AB111F8014B20020B78B9
:1048A000184304E011F8010B0B7840EA032010BD17
:1048B0002DE9F05F81468A4615461E46DDE90A78F5
:1048C0004FF0000B2448008841F6631188421ED047
:1048D00007F0030068B90020FEF7AAFC33462A4619
:1048E00051464846FCF75AFE51464846FCF7B6FE8C
:1048F00016E00420FEF79CFC33462A465146484603
:10490000FCF74CFE51464846FCF7A8FE08E00020A4
:10491000FEF78EFC33462A4651464846FCF73EFEDB
:10492000FCF708FF05FB06FB002409E007F0100078
:104930004146FFF7AEFF0949088008F10208641CF0
:104940005C45F3D3064803880648028800210846E0
:10495000FCF724FEBDE8F09F180100200020006C49
:104960001E0100201C01002010B50446002036491D
:1049700008704FF400713548FCF762F980B14FF4CC
:1049800080713248FCF75CF950B180212F48FCF768
:1049900057F928B140212D48FCF752F9002843D19E
:1049A0004FF400712948FCF74BF918B90120284948
:1049B00008701AE04FF480712448FCF741F918B9E7
:1049C00002202349087010E080212048FCF738F9C4
:1049D00018B903201E49087007E040211B48FCF766
:1049E0002FF910B904201A4908701948007819499C
:1049F0000978884210D118480088401C1649088060
:104A00001348007815490870ECB91348008801284C
:104A100019DD0020087016E000200F4908800C48BE
:104A200000780C4908700EE00B480088022803DD6E
:104A300007480078044908700020064908700649B4
:104A400008800649087010BD7D0000200014024057
:104A500080000020810000207E0000207C000020DB
:104A600086B000BF00BF00BF00BF00BF00200490A1
:104A7000F74A07CA01AB07C300200090A820FEF741
:104A8000A7FCFBF763FEFDF7BBF9FCF78BFAFBF71E
:104A9000ADFF4FF4E130FEF70BFFEEA0FFF700FC97
:104AA0004FF4A060FDF778FAFBF74CFE0AE0ECA0AB
:104AB000FFF7F6FBEF48006808B9012000E000208E
:104AC000EC490860FBF7B0FD0028F0D1FDF776FA5D
:104AD000FDF7D0F900210420FDF718FE42F2CF01C6
:104AE0004CF24F30FEF730FD4FF4E130FBF75AFE49
:104AF000FFF756FAFCF730FEFEF7CEFEDEA0FFF71A
:104B0000CFFB012205A91046FBF7A5FD9DF8140077
:104B100001280ED09DF8140002280AD09DF8140038
:104B2000032806D001200590012205A91046FBF7B5
:104B3000CFFD012205A90220FBF78DFD9DF8140091
:104B400050B19DF81400012806D0002005900122E4
:104B500005A90220FBF7BCFD012205A90320FBF7F4
:104B60007AFD9DF8140050B19DF81400012806D07C
:104B700000200590012205A90320FBF7A9FD97E27B
:104B80009DF8140000287CD001287BD1BC4A00216C
:104B90000846FFF769FEFCF7C3FF0122694610468D
:104BA000FBF759FD9DF80000012806D118231522B6
:104BB0009421A720FCF7B2FA14E09DF80000022827
:104BC00006D1182316229421A720FCF7A7FA09E0A2
:104BD0009DF80000032805D1182317229421A7204F
:104BE000FCF79CFAA748007830B918231922B9219C
:104BF0008720FCF793FA09E0A2480078012805D144
:104C000018231A46B9218720FCF788FA0B20019057
:104C10000C20029001AB1822DF218720FCF7C8FA94
:104C2000012299490220FBF716FD9748007838B910
:104C3000182319224FF48471CD20FCF76FFA0AE093
:104C400091480078012806D118231A464FF4847140
:104C5000CD20FCF763FAFAE00020FFF79DFA8B48BD
:104C60000088802848DD89480088A42844DA8848DC
:104C700000888F2840DD86480088B3283CDAC820A9
:104C800001E00FE113E2FFF7EBFC9DF80000401C90
:104C9000C0B200909DF80000032808DD01200090BC
:104CA000182315229421A720FCF738FA1FE09DF85D
:104CB0000000012806D1182315229421A720FCF713
:104CC0002DFA14E09DF80000022806D118231622C0
:104CD0009421A720FCF722FA09E09DF800000328A0
:104CE00005D1182317229421A720FCF717FA0122D7
:104CF00069461046FBF7ECFC64480088C32845DD94
:104D000062480088E72841DA614800888F283DDD45
:104D10005F480088B32839DAC820FFF7A1FC9DF866
:104D20000000401EC0B200909DF80000012808DA83
:104D300003200090182317229421A720FCF7EEF9F6
:104D40001FE09DF80000012806D1182315229421A8
:104D5000A720FCF7E3F914E09DF80000022806D133
:104D6000182316229421A720FCF7D8F909E09DF812
:104D70000000032805D1182317229421A720FCF74F
:104D8000CDF9012269461046FBF7A2FC3F48008896
:104D9000052817DD3D4800882D2813DA3C48008897
:104DA000CE280FDD3A480088F6280BDAC820FFF736
:104DB00057FC002005900490012204A90320FBF772
:104DC00087FC6DE031480088002836DD2F480088D8
:104DD0002D2832DA2E480088FF282EDD2C48008846
:104DE000B0F5967F29DAC820FFF73AFC264800780C
:104DF00070B918231A464FF48471CD20FCF78EF950
:104E000001202149087001220220FBF761FC11E01A
:104E10001D48007801280DD1182319224FF4847100
:104E2000CD20FCF77BF900201749087001220220F1
:104E3000FBF74EFC17A0FFF733FA1848007801285B
:104E400005D111480078012801D1FFF703FC03E7E1
:104E5000D45000087265736574202D2D2D2D0A0025
:104E60004154323443585820BCECB2E2CAA7B0DCFB
:104E70000A0000008C0242427374617274200A00BE
:104E80006CCC020802000020010000202801002054
:104E90002A010020B7E4C3F9C6F70A0090000020F9
:104EA00000BF04E1834A00210846FFF7DDFCFCF760
:104EB00037FE8148007830B9182319228F218C20C1
:104EC000FCF72CF909E07C480078012805D118236B
:104ED0001A468F218C20FCF721F90D2001900E201D
:104EE000029001AB1822AD218C20FCF761F9012260
:104EF00072490220FBF7AFFB7048007838B91823DD
:104F000019224FF48471CD20FCF708F90AE06B48B0
:104F10000078012806D118231A464FF48471CD2059
:104F2000FCF7FCF8C0E00020FFF736F96448008881
:104F3000002818DD62480088282814DA61480088B3
:104F4000A82810DD5F480088D0280CDA4FF496704E
:104F5000FFF786FB012005900490012204A903209D
:104F6000FBF7B6FBA1E05648008864281DDD5448D5
:104F700000888F2819DA53480088CB2815DD51485E
:104F80000088F52811DAC820FFF76AFB18231A46B3
:104F90008F218C20FCF7C2F80120474908704A484D
:104FA000FFF7C0FB4848FDF753FD454800889328AC
:104FB0001DDD43480088BE2819DA42480088CB2806
:104FC00015DD40480088F52811DAC820FFF748FBB6
:104FD000182319228F218C20FCF7A0F800203649D5
:104FE00008703948FFF79EFB3748FDF731FD34481C
:104FF0000088BE2815DD32480088E62811DA3148DD
:105000000088E2280DDD2F480088B0F5857F08DA9A
:10501000C820FFF725FB01202C490870FDF732FD61
:1050200043E027480088002834DD254800882D28E3
:1050300030DA24480088FF282CDD22480088B0F5AB
:10504000967F27DA4FF49670FFF70AFB1B4800782B
:1050500070B918231A464FF48471CD20FCF75EF81E
:1050600001201649087001220220FBF731FB11E0F4
:105070001248007801280DD1182319224FF48471A9
:10508000CD20FCF74BF800200C49087001220220CB
:10509000FBF71EFB0E480078012805D10748007871
:1050A000012801D1FFF7D6FA3DE700BF00BF00BFDE
:1050B00066E50000742405080200002001000020BD
:1050C000280100202A0100200300002064000020A5
:1050D000900000200B0000000C000000FFFFFFFF0D
:1050E00000000000000008000430FE072002040059
:1050F000020480FE078202044C020448020448FEB7
:105100000720020420000020FF1F209108109108B2
:105110001E9108189108189108189108189128F8FC
:10512000FF7F0000000000000000000000000800F9
:105130000830FE1F30060820060880FE0F82060891
:105140004C060858060848FE0F20160920100120BA
:1051500010311011311A13191C120D0816050812FE
:10516000030810010C1021C8FF7F000000000000A0
:10517000000000000800003000003010F0FF3F1079
:105180000201100403100411F0FF3F100401100489
:105190000110FC0110040110000098FF0718040220
:1051A000080401088800085000047000048C030201
:1051B000037EE00010000000000000000000001866
:1051C00000001800201802401806801803801901FA
:1051D000009900009810FEFF3F006300006300008C
:1051E0006300006100006100006120806120806038
:1051F0002040602020406018C03F060000000000F2
:1052000000000000000000F91FF8431808410808DA
:10521000610808210808110EF8090408050008F1C2
:105220001F083108083108083108F8F10F08310863
:1052300088000010210410610818C21818C2300C30
:10524000C2300C022000000000000000000000F846
:105250000FFC110880110880110880F10F80990857
:10526000F8810188810108800108F83F0C8811FC51
:10527000891180881180F81F8088118084098080BE
:1052800011C0803140807F787E60300200000000D5
:10529000000000000800003000003010F0FF3F1058
:1052A0000201100403100411F0FF3F100401100468
:1052B0000110FC0110040110000098FF07180402FF
:1052C000080401088800085000047000048C0302E0
:1052D000037EE00010000000000000000800001045
:1052E00000103000F0FF3F180010088709CC080EAE
:1052F000300808000404E0FF0F200804200C0420FC
:10530000FC05208204204504206804203004207815
:1053100004204604A04104E0FF0720000400000030
:10532000000000000800001800001000F8FF3F080F
:1053300000100C4308808107C0180C3018180C1896
:1053400000F0FF0F3018083018083018083018081F
:1053500030180830180830180F30180600180000F0
:105360001800000800000000000000000000C0401D
:105370000080400280400C80401884401888401013
:1053800098401090FF3F80C000804001C06001A0A5
:1053900060019020018C2002863002801006801867
:1053A0000C80081C8004388002304001000000009E
:1053B000000000000800000800000800000C10FCBD
:1053C000FF3F00140000240000260000420000837C
:1053D00001800C0760183E181018060000000C0031
:1053E0009019049010189810199C00118C001180CD
:1053F000010100FF010000000000006000006000EB
:1054000000F0DF3F30C33018C33098C330FCFF30AA
:1054100080C13080C730C0DD3FE0F83070D80098E0
:10542000FF0F8C010680010680FF078001068001C6
:105430000680010680FF0F80010E000006000000BC
:10544000000000C00000C0C101E0C01860C63C30D0
:10545000CC0E1CDF03FCD90000D860F8CF6038CE3A
:105460007F380E00F86F0038CE1838CE3C38CE0E9C
:10547000F8CF0338CE6038CE6038CE6038CEE0B892
:10548000CF7F1806000000000000000000000000B0
:105490000E00F01FF81F0000180000180000180C84
:1054A000F8FF1F001800001800001800001830FE58
:1054B000FF7F0018000018000018000018000018F6
:1054C00000001800801B00001E00000C00000000FF
:1054D000000000000000008001008001008601FC47
:1054E0008F0100800100F07F008071FE9F71C080FD
:1054F00071E0807160803170833130C63118CE30F8
:1055000018CC30FC7F301C783000303000983B00E5
:105510000E1E00030C0000000000002010022030CE
:105520000220300220FF3F203102FE310220F81F0E
:10553000300808700808B0F80FB8090828090828CA
:10554000F80F24C80824400022FF3F2040012060BB
:105550000120200220100C200C7820030000000005
:1055600000000000200000600200600C00600C00E1
:105570006018FCFF3F006000006000004000004039
:1055800000FC4F0080400080C00080C00080800090
:10559000808001800021801E23C001263C003C0C3D
:1055A0000038000060000000000000000000300033
:1055B00000600000C0FC3FC8001008581008981197
:1055C000089012E8FF13081010C81711C89611C8E8
:1055D0009611C8B710C86610086C108863126890DE
:1055E0001208081308061208001E08000800000030
:1055F000000000402000C06000406000E0FF1F206D
:10560000600030600010FE0F3004043804043804D9
:105610000434FC0732040430040430FC0730040472
:1056200030040430040430FC07300404300424F057
:10563000FF7F3000000000000000000000000000BC
:105640000030000048F801480C16480618300318CE
:1056500000011080011080010080010080010080A5
:1056600001008001000001000003000003080006A3
:1056700004001C0300F00000000000000000000017
:10568000000000000000000000000000E000181012
:10569000010C10010610010310810110810010415E
:1056A00000E0200000100200880500840800820845
:1056B00000C10880C0084080082080081000070052
:1056C000000000000000000000000000000000F0EA
:1056D0003FFC0F3800063800063800E63FF0E73898
:1056E000306600386000186000FCFF7F18663030BC
:1056F000C630608633E0863300073CC0073770C68B
:10570000311E76300C0638C0033E80010C000000CC
:105710000000000018000038000018000018000009
:105720001800F8FF3F381838381838381838381843
:1057300038381838381838F8FF3F3818381818181B
:1057400000180000180000180000180000380000C1
:10575000380000180000000000000000000000F801
:105760001FFC331880331880331880F31F80BB1957
:10577000F8830398830318800318F87F1C9833FC80
:105780009B3380993380F93F809933808D1B8081D2
:1057900033C08173C080FFF8FEE070060000000097
:1057A000000000000000000018FCFF3F0083010023
:1057B00083010083010083010083010083010083D2
:1057C00031FEFF7F0083010083010083018083019C
:1057D000808101808101C08001E08001708001181A
:1057E00080010C8001000000000000008001808327
:1057F0000300870100C60000C600F8FF3F00380024
:10580000003800003800001800001830FEFF7F004C
:105810007800007C0000CC0000CE0100860100036F
:105820000380010EE0003C3800F80C00300000005E
:105830000000000000000000000000000000040460
:10584000040404040004000000140A0A000000001C
:1058500000000000000014143F140A3F0A0A000070
:1058600000041E1505060C14150F04000000121587
:105870000D0A142C2A1200000000040A0A1E151535
:1058800009360000000202010000000000000000D4
:10589000002010080808080808102000000204086A
:1058A000080808080804020000000004150E0E1580
:1058B0000400000000000404041F040404000000AD
:1058C00000000000000000000002020100000000D3
:1058D000001F000000000000001008080804040277
:1058E0000202010000000E1111111111110E000031
:1058F0000000040604040404040E000000000E115D
:1059000011080402011F000000000E11100C1010FD
:10591000110E00000000080C0A0A091E08180000F9
:1059200000001F01010F1010110E000000000E09F1
:10593000010F1111110E000000001F0908040404DA
:105940000404000000000E11110E1111110E0000D0
:1059500000000E1111111E10120E000000000000B8
:10596000040000000004000000000000000400002B
:1059700000040400002010080402040810200000A5
:10598000000000001F00001F0000000000020408CB
:10599000102010080402000000000E111108040479
:1059A0000004000000000E111915151D011E000055
:1059B000000004040C0A0A1E1233000000000F123B
:1059C000120E1212120F000000001E11010101013F
:1059D000110E000000000F1212121212120F00001E
:1059E00000001F120A0E0A02121F000000001F1200
:1059F0000A0E0A020207000000001C120101391100
:105A0000120C000000003312121E1212123300009A
:105A100000001F0404040404041F000000003E08EA
:105A20000808080808090700000037120A060A0AD1
:105A3000123700000000070202020202223F0000AB
:105A400000001B1B1B1B15151515000000003B1249
:105A500016161A1A1217000000000E11111111115A
:105A6000110E000000000F12120E020202070000C9
:105A700000000E1111111117190E180000000F125D
:105A8000120E0A121237000000001E110106081043
:105A9000110F000000001F1504040404040E000090
:105AA0000000331212121212120C00000000331206
:105AB000120A0A0C0404000000001515150E0A0A4B
:105AC0000A0A000000001B0A0A04040A0A1B00005C
:105AD00000001B0A0A040404040E000000001F0951
