:020000040800F2
:10000000B00500209D010008FD220008170F000820
:10001000512200088509000837460008000000004A
:100020000000000000000000000000003135000862
:100030009F09000800000000992300087D3800088F
:10004000B7010008B7010008B7010008612B0008DC
:10005000B7010008B7010008B7010008B7010008A0
:10006000B7010008B7010008B7010008B701000890
:10007000B7010008B7010008B7010008B701000880
:10008000B7010008B7010008B7010008B701000870
:10009000B7010008B7010008B7010008C50A000849
:1000A000B7010008B7010008B7010008B701000850
:1000B00031390008F5390008F13A0008B7010008A5
:1000C000B7010008B7010008B7010008B701000830
:1000D000B7010008B7010008B7010008B701000820
:1000E000B701000855260008B7010008B70100084D
:1000F000B7010008B7010008B7010008B701000800
:10010000B7010008B7010008B7010008B7010008EF
:10011000F53E0008B7010008B7010008B701000864
:10012000B7010008B7010008B7010008B7010008CF
:10013000B7010008B7010008B7010008B7010008BF
:10014000B7010008B7010008B7010008B7010008AF
:10015000B7010008B7010008B7010008B70100089F
:10016000B7010008B7010008B7010008B70100088F
:10017000B7010008B7010008B7010008B70100087F
:10018000B7010008B7010008DFF80CD000F068F8EC
:10019000004800470D520008B0050020064880477F
:1001A00006480047FEE7FEE7FEE7FEE7FEE7FEE75C
:1001B000FEE7FEE7FEE7FEE78D380008890100084C
:1001C00040EA01039B0703D009E008C9121F08C0D9
:1001D000042AFAD203E011F8013B00F8013B521E59
:1001E000F9D27047D2B201E000F8012B491EFBD2D0
:1001F00070470022F6E710B513460A460446194632
:10020000FFF7F0FF204610BD421C10F8011B00292B
:10021000FBD1801A704710B5002200E0521C835CAD
:100220008C5CA34201D1002BF8D1D8B2E1B2401AC4
:1002300010BD30B50B46014600202022012409E004
:1002400021FA02F59D4205D303FA02F5491B04FA8F
:1002500002F52844151EA2F10102F1DC30BD0000B8
:10026000064C074D06E0E06840F0010394E8070003
:1002700098471034AC42F6D3FFF78AFFE4890708A9
:10028000048A070870B58C1810F8015B15F0070395
:1002900001D110F8013B2A1106D110F8012B03E01F
:1002A00010F8016B01F8016B5B1EF9D12B0705D427
:1002B0000023521E0DD401F8013BFAE710F8013B70
:1002C000CB1A921C03E013F8015B01F8015B521E8C
:1002D000F9D5A142D8D3002070BD21B1826842F087
:1002E0000102826003E0826822F0010282607047AE
:1002F0000021084A1168084A1140D0E900231A4336
:1003000083681A43C3681A431143044AC2F80413AA
:100310007047000004230140E030FCFF0020014052
:100320000146C86C80B270470246002013680B403B
:100330000BB1012000E000207047000030B50246FC
:10034000002000235068104C20400D790C6844EACE
:1003500005242043506090680C4C2040D1E90354A0
:100360002C438D682C434D7944EA4504204390602A
:10037000D06A20F470000C7D641EE4B2234340EA8E
:100380000350D06230BD0000FFFEFFFCFDF7FFC050
:10039000F0B504460D4600200021092D11DDE0686E
:1003A000A5F10A0606EB4607072606FA07F1884379
:1003B000A5F10A0606EB460603FA06F10843E060DB
:1003C0000CE0206905EB4507072606FA07F188438C
:1003D00005EB450603FA06F108432061072A0FDA08
:1003E000606B561E06EB86071F2606FA07F1884348
:1003F000561E06EB860605FA06F10843606322E006
:100400000D2A0FDA206BD61F06EB86071F2606FA89
:1004100007F18843D61F06EB860605FA06F1084366
:10042000206310E0E06AA2F10D0606EB86071F26A6
:1004300006FA07F18843A2F10D0606EB860605FAD7
:1004400006F10843E062F0BD816841F080418160BF
:100450007047000000B58DB00121202001F0CCFFD5
:100460000121880202F008F808200B9003208DF883
:10047000300000208DF833000BA9154800F0A3FCD4
:100480000121880202F008F800214FF4806002F098
:1004900003F8002007900A9009904FF480300890EC
:1004A00007A8FFF725FF002001908DF808008DF8C0
:1004B00009000390059001208DF8180001A9054856
:1004C000FFF73CFF01210348FFF707FF0DB000BD18
:1004D00000140240002201407CB505460C46322043
:1004E00094FBF0F100FB114090B94EF69C701F2177
:1004F000C64B1822CDE9001063211E2000F0DCFF5E
:10050000C34810F82520182363217F2000F066FFE0
:10051000C0480078012803D0BE480078022875D171
:10052000BC480078012872D1062D09D2DFE805F019
:10053000030917768492B848C078401CB649C87041
:1005400096E0B54840780C2803D10120B2494870A4
:1005500004E0B1484078401CAF49487088E0AE499B
:1005600089781C2910D1AC49497802290CD1AA49B3
:10057000C878C11700EB91718910A0EB810119B106
:100580000120A549887048E0A34989781D2910D128
:10059000A149497802290CD19F49C878C11700EBBD
:1005A00091718910A0EB810119B901209A498870D5
:1005B00033E0994880781E2820D1974840780D284C
:1005C0001BD2DFE800F01A0E1A0F071008111209EB
:1005D000130A140000BF00BF00BF01208E498870BD
:1005E0000BE000BF00BF00BF00BF00BF00BF8A48D4
:1005F0008078401C8849887000BF0EE0864880786B
:100600001F2805D101208449887006E0A6E030E06B
:1006100081488078401C8049887029E07F480078B4
:10062000172803D100207D49087004E07B4800783A
:10063000401C7A4908701BE0784840783B2803D179
:1006400000207649487004E074484078401C7349A3
:1006500048700DE0714880783B2803D100206F4935
:10066000887004E06D488078401C6C49887000BF39
:1006700000BF68480078022870D1062D09D2DFE853
:1006800005F00309175966746348C078401E624933
:10069000C87077E060484078012803D10C205E499B
:1006A000487004E05C484078401E5B49487069E04F
:1006B00059488078012837D15749C878C11700EBCD
:1006C00091718910A0EB810139B953494978022908
:1006D00003D11D20504988702BE04F4840780228F4
:1006E00003D11C204C49887023E04B4840780D28EA
:1006F00019D2DFE800F0180718081109120A0B13C5
:100700000C140D0000BF00BF00BF00BF00BF00BF42
:100710001F204149887006E000BF00BF00BF1E20B7
:100720003D49887000BF04E03B488078401E3A494C
:10073000887027E03948007818B9172037490870C1
:1007400004E036480078401E344908701AE0334807
:10075000007820B93B203149487005E013E02F486C
:100760004078401E2D4948700CE02C48807818B91C
:100770003B202A49887004E028488078401E274999
:10078000887000BF00BF962C01D103F063FA062DDC
:100790003AD2DFE805F0030C151E2730312C05D1C5
:1007A0001FA3182216216B2000F014FF2CE0312C1F
:1007B00005D11BA3182216218F2000F00BFF23E088
:1007C000312C05D116A318221621B32000F002FF08
:1007D0001AE0312C05D112A3182232216B2000F02F
:1007E000F9FE11E0312C05D10DA3182232218F2002
:1007F00000F0F0FE08E0312C05D109A318223221C7
:10080000B32000F0E7FE00BF00BF7CBD6C000020FD
:100810005400002094000020A4000020A00000202C
:100820002020000010B5FF2000F024F80446552CCD
:1008300001D1002010BD5521FF2000F059F8FF2004
:1008400000F018F80446552C01D10020F2E70120F1
:10085000F0E770B506460C46154608E03046721CB7
:1008600096B200F007F804F8010B681E85B2002D5F
:10087000F4D170BD70B50446002600F02FFC25466B
:10088000E11704EB11610912A02202EB4101C8B289
:1008900000F07AFB00F06EFCE11704EB1161091225
:1008A000A4EB0121C8B200F06FFB00F063FC00F084
:1008B00015FCA12000F068FB00F05CFC002000F0BB
:1008C0002DFB064600F030FC304670BD70B5054685
:1008D0000C46164606E02178284600F009F8681C08
:1008E00085B2641C3000A6F101018EB2F3D170BD57
:1008F00070B504460E4600F0F1FB2546E11704EB07
:1009000011610912A02202EB4101C8B200F03CFBC8
:1009100000F030FCE11704EB11610912A4EB012196
:10092000C8B200F031FB00F025FC304600F02CFB93
:1009300000F020FC00F0F8FB0A2004F027FA70BD5C
:1009400010B500F07DFB10BD1CB50121402001F069
:1009500053FD01208DF8040000208DF80600802052
:10096000009001208DF8070002208DF805006946EF
:10097000034800F028FA8021014800F098FA1CBDD5
:100980000018024000BFFEE710B50246012000E05B
:1009900050430B00A1F10104E1B2F9D110BD704741
:1009A0001CB50121022001F027FD0121042001F0E6
:1009B00023FD4FF44060009001208DF804000220D8
:1009C0008DF8050000208DF8060001208DF8070045
:1009D0006946094800F0F7F9402000906946074849
:1009E00000F0F1F94021054800F061FA4FF4406150
:1009F000014800F05CFA1CBD0004024000080240FF
:100A000010B588B004460121C80401F015FD01218C
:100A1000084601F0F1FC0121880301F02DFD274873
:100A200003F0C2FC08220021254800F014FA082235
:100A30000121234800F00FFA0320069002208DF8D0
:100A40001C008DF81D0000208DF81E0001208DF87F
:100A50001F0006A91A4800F0B6F902940020ADF86C
:100A60000C00ADF80E00ADF81000ADF814000C202D
:100A7000ADF8120002A9114803F06AFD012240F20C
:100A800025510E4803F03FFD40210C4803F068FC5F
:100A900034208DF8040002208DF8050000208DF828
:100AA000060001208DF8070001A801F029FC0121B2
:100AB000024803F06DFC08B010BD0000004C00407F
:100AC0000000024010B5402000F068F868B10A202C
:100AD00004F05CF94021194800F0E0F910B918A0C1
:100AE00003F02CFF402000F053F8802000F056F86F
:100AF00068B10A2004F04AF98021104800F0CEF9CC
:100B000010B915A003F01AFF802000F041F84FF44F
:100B1000807000F043F878B10A2004F037F94FF400
:100B20008071064800F0BAF910B912A003F006FF70
:100B30004FF4807000F02CF810BD0000001402404B
:100B40006B657933207465737420627920696E74E3
:100B50006572727570740A000A6B6579322074656B
:100B6000737420627920696E746572727570740A8C
:100B7000000000000A6B657931207465737420628F
:100B80007920696E746572727570740A00000000D5
:100B90000149086070470000143C014001460020F4
:100BA000034A12680A400AB1012000E000207047A1
:100BB000143C0140002123498279002A3AD00A4698
:100BC000126803689A430B461A600A1D126803688C
:100BD0009A430B1D1A60027911440A6803681A438C
:100BE0000A60184A0832126803689A43154B0833A2
:100BF0001A601A1D126803689A43124B0C331A606C
:100C00004279102A0ED11A1F126803681A430D4B3D
:100C100008331A601A1D126803681A43094B0C3313
:100C20001A600DE00749427911440A6803681A43C3
:100C30000A6005E0027911440A6803689A430A6071
:100C400070470000003C01400EB500F009FB012197
:100C5000880301F011FC0621052002F06BFC08213D
:100C6000052002F067FC0721052002F063FC4FF429
:100C7000E070019000208DF808000C208DF809002C
:100C800001208DF80A0001A8FFF794FF17208DF8C6
:100C9000000003208DF8010002208DF802000120E1
:100CA0008DF80300684601F02BFB0EBD51B18200A8
:100CB000A2F1C042126842F001038200A2F1C042D8
:100CC000136009E08200A2F1C0421268034B1A408F
:100CD0008300A3F1C0431A6070470000FEFF0F00BD
:100CE000D0E901121143C2681143026911434269FC
:100CF000114382691143C2691143026A1143426A76
:100D00001143826A1143C26A1143026B11430268A4
:100D10009200A2F1C0421160816808290BD10168DC
:100D20008900A1F1C041096841F0400201688900D1
:100D3000A1F1C0410A60416B0968426B526841EA07
:100D40000211426B926841EA0221426B928941EAA8
:100D50000241426B128A41EA0251426B127D41EA22
:100D60000261426B926911430268521C9200A2F127
:100D7000C0421160C16AB1F5804F1BD1816B096817
:100D8000826B526841EA0211826B926841EA022149
:100D9000826B128A41EA0251826B127D41EA026142
:100DA000826B9269114302689200A2F1C042C2F8BC
:100DB000041107E06FF0704201688900A1F1C041A1
:100DC000C1F804217047F0B50A4600210023002431
:100DD00000BF3DE0012505FA01F3156805EA0304AB
:100DE0009C4234D105684F000326BE40B5430560E0
:100DF00015794E00B5400668354305601579012D1B
:100E000002D01579022D16D185684F000326BE4009
:100E1000B543856055794E00B54086683543856099
:100E2000456801268E40B5434560456896798E40F9
:100E3000B6B235434560C5684F000326BE40B54392
:100E4000C560D5794E00B540C6683543C560491CBC
:100E50001029BFD3F0BDF0B5002300244D07ED0EDF
:100E600002FA05F3CE1000F1200555F826504E0782
:100E7000F70E0F26BE40B543CF1000F1200646F80E
:100E80002750CE1000F1200555F8265045EA0304FE
:100E9000CE1000F1200545F82640F0BD02460020A6
:100EA00013690B400BB1012000E000207047418323
:100EB000704701837047000010B5044607230122E4
:100EC00021460848FFF764FA0648FFF7BDFA00BF5D
:100ED00002210448FFF728FA0028F9D00148FFF75B
:100EE0001FFA10BD002201402DE9F04107460C46D3
:100EF0000025002608E03846FFF7DEFF0544052000
:100F000003F044FF701CC6B2A642F4DBB5FBF4F05C
:100F100080B2BDE8F08100BFFEE7000070B5054675
:100F200000241648006820F4402014490860084650
:100F300000680860002616E00020114908600220C1
:100F400003F04AFF01200F49C1F8A0026006040E19
:100F50000B487C38006808B1601CC4B2012003F063
:100F60003BFF701CC6B2082EE6DB15B900F08EF808
:100F700001E000F03DF8204670BD00000004024092
:100F8000A08240420080404270B504461548006887
:100F900020F44020134908600846006840F480208F
:100FA0000860002010490860002517E0E0090E499C
:100FB000091D08606006040E022003F00DFF0120E9
:100FC0000A49C1F8A002022003F006FF00200649EA
:100FD0000860022003F000FF681CC5B2082DE5DBA5
:100FE00070BD000000040240A082404200804042E8
:100FF00010B500200F4908600F48006820F4402019
:101000000D4908600846006840F480200860002010
:101010000A49C1F8A402022003F0DEFE01200549BE
:101020000860022003F0D8FE00200449C1F8A002A5
:1010300010BD0000A08240420004024000804042F7
:101040001CB50121022001F0D7F94FF44070009047
:1010500001208DF8040000208DF8060003208DF893
:10106000050001208DF8070069460548FFF7ABFE33
:101070000120044908600449C1F8A4021CBD000015
:1010800000040240A08240420080404210B500208F
:101090000F4908600F48006820F440200D4908609F
:1010A0000846006840F48020086001200A49C1F821
:1010B000A402022003F090FE0120054908600220EE
:1010C00003F08AFE00200449C1F8A00210BD000010
:1010D000A0824042000402400080404210B50F4808
:1010E000006820F440200D4908600846006840F47C
:1010F0008020086001200A4908600A49C1F8A0025E
:10110000042003F069FE002005490860042003F074
:1011100063FE00200349C1F8A00210BD0004024094
:10112000A48240420080404210B50F48006820F47D
:1011300040200D4908600846006840F4802008609F
:1011400000200A4908600A49C1F8A402042003F0FB
:1011500043FE0120054908600549C1F8A4020420A6
:1011600003F03AFE10BD000000040240A08240429D
:101170000080404210B500241348006820F440204D
:101180001149086008460068086001200F4908609E
:1011900003F022FE01200E49C1F8A00203F01CFE5C
:1011A00007E0601CC4B2FA2C03DDFFF7BDFF01208D
:1011B00010BD0648803800680028F2D10349091F95
:1011C000086000BFF4E7000000040240A48240422F
:1011D00000804042D321074A1180911C088808886A
:1011E00008884FF6FF7101EA0020911C0988084326
:1011F00070470000FE1F006C4CF6CC4001490860AF
:1012000070470000003000404AF6AA2001490860FB
:1012100070470000003000400149486070470000FE
:1012200000300040014988607047000000300040F5
:1012300001490860704700000030004070B5054665
:101240000C4645F25550FFF7F3FF2846FFF7E4FF41
:101250002046FFF7E7FFFFF7D7FFFFF7CDFF70BD91
:101260001CB50121202001F0C7F800208DF80400F2
:101270008DF806004FF47070009001208DF8070083
:1012800002208DF8050069460148FFF79CFD1CBD52
:101290000014024070B50446002500260948008865
:1012A0000949098800FB01F60021084600F05EFBB1
:1012B00000F0C8FB00BF02E0044804806D1CB5428A
:1012C000FAD370BD34010020360100200020006CEC
:1012D00070B505460E4614463146284600F0C2F960
:1012E0000348008803490880881C048070BD000002
:1012F00038010020FE1F006C2DE9FF4F07461646FF
:101300001C46BB460C2C01D198460AE0102C01D19A
:10131000A04606E0182C02D14FF0300801E0BDE8ED
:10132000FF8FA6F12000C6B2002548E00C2C07D1A3
:1013300006EB4600244901EB800010F8059010E010
:10134000102C05D1214800EB061010F8059008E09C
:10135000182C06D106EB46001D4901EB001010F8D1
:1013600005904FF0000A24E009F0010030B119485F
:10137000028838460199FFF7ABFF05E0164802885E
:1013800038460199FFF7A4FF4FEA6909781C87B234
:10139000A7EB0B0104EBD472B1EB620F05D15F46F2
:1013A0000198401C80B2019006E00AF1010000F0B3
:1013B000FF0ABAF1080FD7DB00BF681CC5B245456C
:1013C000B4DB00BFABE70000986500080C6A0008BA
:1013D000FC6F00082C0100202E0100202DE9FF4F9A
:1013E00004460F461E46A346182E02D14FF0480869
:1013F00001E0BDE8FF8F002532E0182E07D10298EA
:1014000000EBC000184901EBC00010F805904FF048
:10141000000A1FE009F0010030B114480288394683
:101420002046FFF755FF05E011480288394620465F
:10143000FFF74EFF4FEA6909601C84B2A4EB0B0072
:10144000182803D15C46781C87B206E00AF1010037
:1014500000F0FF0ABAF1080FDCDB00BF681CC5B260
:101460004545CADB00BFC4E7785B00082C010020BB
:101470002E010020F0B505460F4616461C460DE02D
:101480002278334639462846FFF7A8FFA81985B2C7
:1014900008480088854200DB0AE0241D20680028F7
:1014A00006DB2068642803DC2068401C0028E7D1A4
:1014B00000BFF0BD340100202DE9F04F04460D4679
:1014C00016461F46DDE909890C48B0F800A00C4813
:1014D000B0F800B00948A0F800800948A0F80090D2
:1014E0003B46324629462046FFF7C4FF0348A0F892
:1014F00000A00348A0F800B0BDE8F08F2C01002048
:101500002E0100202DE9FF4F81B0074690461E4670
:101510000E9CC3464FF0000906E00A20BBFBF0FB1F
:1015200009F1010000F0FF09BBF1000FF5D1B14551
:1015300008DD26A322463846029900F04BF805B094
:10154000BDE8F08F00253CE0A6EB0900A8421BDDBA
:101550000F9860B104EBD471491001FB057188B29A
:101560002346302200940299FFF7C6FE27E004EBE1
:10157000D471491001FB057188B2234620220094E2
:101580000299FFF7B9FE1AE0701B401EC1B20A2093
:10159000FFF7FAF9B8FBF0F00A21B0FBF1F201FB1A
:1015A000120A04EBD471491001FB057188B20AF1EB
:1015B0003001CAB2234600940299FFF79DFE681CD1
:1015C000C5B2B542C0DB00BFB9E700004552524F7B
:1015D00052000000F0B506460F4615461C4611E0C5
:1015E00022782B4639463046FFF786FE284605EB23
:1015F000D07106EB61018EB206480088864200DB9E
:1016000006E0641C2078202802DB20787E28E7DDB5
:1016100000BFF0BD340100202DE9F04F04460D4617
:1016200016461F46DDE909890C48B0F800A00C48B1
:10163000B0F800B00948A0F800800948A0F8009070
:101640003B46324629462046FFF7C4FF0348A0F830
:1016500000A00348A0F800B0BDE8F08F2C010020E6
:101660002E01002030B504460D462946204600F0E4
:101670007DF900F0E7F9024800880249088030BD92
:101680002C0100200020006C00B59FB001217820C3
:1016900000F0B2FE0121084600F0BEFE4FF480606B
:1016A0001D9001208DF8780000208DF87A0002202E
:1016B0008DF8790001208DF87B001DA97748FFF790
:1016C00082FB4CF233701D9002208DF878000020D0
:1016D0008DF87A0003208DF8790001208DF87B00C9
:1016E0001DA96F48FFF76FFB4FF680701D90022019
:1016F0008DF8780000208DF87A0003208DF87900AD
:1017000001208DF87B001DA96648FFF75CFB0420D3
:101710001D9002208DF8780000208DF87A000320BB
:101720008DF8790001208DF87B001DA95E48FFF738
:101730004AFB4FF480501D9002208DF87800002065
:101740008DF87A0003208DF8790001208DF87B0058
:101750001DA95548FFF737FB0C2200215048FFF721
:101760007AFB0C2201214E48FFF775FB0C22042165
:101770004B48FFF770FB0C2205214948FFF76BFB34
:101780000C2208214648FFF766FB0C220921444839
:10179000FFF761FB0C220A214148FFF75CFB0C229A
:1017A0000E213F48FFF757FB0C220F213C48FFF763
:1017B00052FB0C2207213B48FFF74DFB0C2208216E
:1017C0003848FFF748FB0C2209213648FFF743FB56
:1017D0000C220A213348FFF73EFB0C220B21314833
:1017E000FFF739FB0C2211462E48FFF734FB0C2281
:1017F0000D212C48FFF72FFB0C220E212948FFF763
:101800002AFB0C220F212748FFF725FB0C2202217F
:101810002548FFF720FB0C2211462348FFF71BFB4E
:101820000F200790002008903C20099000200A908B
:101830000B900C900D900820009000200190072044
:1018400002900020039004900590069006200E90D0
:1018500000200F90109010201190002012901490F2
:101860001390159016904FF4805017900020189008
:101870004FF48040199000201A9007A81B90CDF8D3
:1018800070D00EA8FFF72CFA01210620FFF70EFA00
:10189000322003F07BFA1FB000BD000000140240AC
:1018A000000C0240001002400018024030B58418BD
:1018B000641EA2B2CC18641EA3B2264C24786CBB62
:1018C000254C248841F66315AC4227D1234C24884B
:1018D000A41A241AA0B2CC18641EA3B2204C2488E7
:1018E000204D2C800412AD1C2C80C4B22C80841896
:1018F000641EC4F30F242C808418641EE4B22C8070
:10190000194C2488AD1E2C800C12AD1C2C80CCB23E
:101910002C801C122C80DCB22C8019E0104C248806
:10192000104D2C800412AD1C2C80C4B22C801412DB
:101930002C80D4B22C800C4C2488AD1E2C800C1230
:10194000AD1C2C80CCB22C801C122C80DCB22C80E4
:1019500030BD0000320100203001002034010020A1
:101960003A010020FE1F006C3C0100202E4A128824
:1019700049F241339A4212D12C4A12882C4B1A80D8
:1019800002129B1C1A80C2B21A802A4A12889B1E1D
:101990001A800A129B1C1A80CAB21A8042E0224A9C
:1019A000128841F663139A423CD1234A12788AB9CD
:1019B000224A1288521E121A90B21C4A12881C4BDC
:1019C0001A8000229B1C1A801A8002121A80C2B24E
:1019D0001A8013E0154A1288154B1A8002129B1CBC
:1019E0001A80C2B21A80154A1288521EC2F30F2200
:1019F0001A80124A1278521ED2B21A800D4A1288E8
:101A00000B4B1A800A129B1C1A80CAB21A800C4A0D
:101A10001288521EC2F30F221A80094A1278521EEF
:101A2000D2B21A8070470000300100203A01002035
:101A3000FE1F006C3C010020320100203401002018
:101A400036010020024800880249088070470000E3
:101A500038010020FE1F006C024A1080921C118089
:101A600070470000FE1F006C10B5FFF70DFEFFF77A
:101A7000B1FBEB4908800846008849F241318842B1
:101A800023D0A120E7490880881C0088E449088009
:101A9000E448801C00880880084600884FF6FF71E3
:101AA00001EA0020DE490880DE48801C00880988A1
:101AB0000843DB4908800846008845F26171884286
:101AC00003D141F66310D6490880D548008849F211
:101AD000413188421CD1D448006820F00F004FF0FB
:101AE0002041C1F81C010846D0F81C0120F47060A8
:101AF000C1F81C010846D0F81C0140F00300C1F8F1
:101B00001C010846D0F81C0140F40070C1F81C010B
:101B1000C348008849F2413188427DD1CF20C14974
:101B200008800020891C0880C1200880302008809F
:101B3000ED20891E08806420891C0880032008800D
:101B40001220088081200880E820891E08808520D6
:101B5000891C0880102008807A200880CB20891EEC
:101B600008803920891C08802C20088000200880EB
:101B70003420088002200880F720891E0880202059
:101B8000891C0880EA20891E08800020891C0880A2
:101B90000880C020891E08801B20891C0880C12065
:101BA000891E08800120891C0880C520891E0880A4
:101BB0003020891C08800880C720891E0880B72033
:101BC000891C08803620891E08804820891C0880CE
:101BD0003A20891E08805520891C0880B120891E62
:101BE00008800020891C08801A200880B620891EE1
:101BF00008800A20891C0880A2200880F220891E03
:101C000008800020891C08802620891E0880012069
:101C1000891C0880E02000E060E0891E08800F2019
:101C2000891C08802A200880282008800820088035
:101C30000E2008800820088054200880A9200880F1
:101C4000432008800A2008800F2008800020088098
:101C5000088008800880E120891E08800020891CF7
:101C60000880152008801720088007200880112090
:101C70000880062008802B200880562008803C2001
:101C8000088005200880102008800F2008803F2051
:101C9000088008800F2008802B20891E08800020E3
:101CA000891C08800880012008803F2008802A20A5
:101CB000891E08800020891C088008800880EF2089
:101CC00008801120891E0880782003F05FF8292001
:101CD0005449088001205549086098E05048008820
:101CE00041F663118842F8D1E2204E4908801D2058
:101CF000891C08800220088004200880642003F0EA
:101D00006BF8E020474908800120891C08800A20E0
:101D100003F03CF8E020434908800320891C088038
:101D20000C2003F033F801203E4908800A2003F01C
:101D30002DF8E6203B4908802F20891C0880FF20D1
:101D400008800880B020891E08802020891C088017
:101D5000002008800320088040F21F300880012006
:101D6000088040F2DF10088000200880B420891E1F
:101D700008800420891C088040F21F400880002051
:101D800008802E20088000200880088008800880B5
:101D9000B620891E08800220891C08804FF4037039
:101DA0000880002008801720088015200880002067
:101DB00008800880F020891E08800320891C088084
:101DC0002920891E0880D02008800020891C0880D6
:101DD000BE20891E08800520891C0880FE200880FE
:101DE000012008800020088008800880B820891E13
:101DF00008800320891C088001200880BA20891EE1
:101E000008800120891C0880FF2001F011FD0020BE
:101E100001F026FC4FF6FF70FFF73CFA10BD000002
:101E200030010020FE1F006C1C0100A0A88242426D
:101E30002DE9F04190B0002500240027A0460520A0
:101E4000039042252D24534840788DF83C0051489A
:101E500080788DF83D00214628460FAB1822FFF709
:101E6000B9FB214605F1180018231322FFF7B6FA33
:101E7000A52500BF474800798DF83C0045484079CA
:101E80008DF83D00214628460FAB1822FFF7A2FB34
:101E9000214605F1180018231422FFF79FFA0122AA
:101EA00003A90320FEF7D5FC9DF80C00012805D1FD
:101EB00042258A245D274FF0AB0807E09DF80C000F
:101EC00020B9422580245D274FF0A0083148C07911
:101ED0008DF83C002F48007A8DF83D00A1B2A8B2E1
:101EE0000FAB1822FFF776FBA1B205F1180290B2F2
:101EF00018231422FFF772FA9DF83D0030389DF840
:101F00003C10303901EB810100EB4106002E09DB6A
:101F1000282E07DC1FFA88F1B8B218231522FFF724
:101F20005DFA16E0282E09DD462E07DC1FFA88F13F
:101F3000B8B218231622FFF751FA0AE0462E08DD40
:101F4000642E06DC1FFA88F1B8B218231722FFF7B7
:101F500045FA002500240EA9002000F007FC9DF89A
:101F60003A0000909DF839309DF83B200AA104A862
:101F700002F0F4FC40F664004FF6FF71CDE900106A
:101F80002146284604AB1822FFF746FB10B0BDE8F7
:101F9000F0810000100000203230253032642D2501
:101FA0003032642D253032640000000030B593B02B
:101FB000002400258F2400BF0FA9002000F010FC92
:101FC0009DF83E0000909DF83D309DF83C2057A1C3
:101FD00005A802F0C3FC9DF83C00002807DB9DF833
:101FE0003C00052803DC01205449087002E0002071
:101FF000524908705248007858B940F664004FF6CC
:10200000FF71CDE90010A9B2A0B205AB1822FFF70D
:1020100003FB4C480078B0B9012212A90420FEF756
:1020200018FC9DF84800012802D09DF8480038B9F6
:10203000012045490870122244490520FEF709FC99
:102040000120404908704048007801286BD19DF874
:102050003E009DF83D109DF83C203D4B9B78CDE91E
:102060000032CDE902103A484378C27839A105A878
:1020700002F074FC05A93548FEF7CDF8002852D1CE
:10208000012210A90320FEF7E4FB012211A904207C
:10209000FEF7DFFB9DF8400001280CD19DF84400BD
:1020A000012802D09DF8440028B901203149087068
:1020B00031A002F043FC0020384908709DF844002C
:1020C000012811D13648007818BB03F0C9FC35A0AF
:1020D00002F034FC01203249087018231A4680218E
:1020E000B820FFF77BF914E09DF8440088B92C482C
:1020F000007801280DD132A002F020FC02F01CFE75
:10210000002027490870182319228021B820FFF7E2
:1021100065F903201190012211A90420FEF7D6FBD6
:1021200000200949087013B030BD0000253032642A
:102130003A253032643A253032640000A80000208D
:102140000C000020A90000200D00002068010020E4
:10215000A40000203230253032642D253032642D29
:1021600025303264253032643A253032643A2530E5
:10217000326400000400002073797374656D206D73
:102180006F6465206368616E67652062792073659E
:10219000742074696D65200A000000007C00002036
:1021A0000F0000206375727461696E206F70656E38
:1021B0002066726F6D207365742074696D650A0006
:1021C0006375727461696E20636C6F7365206672EB
:1021D0006F6D207365742074696D650A00000000DE
:1021E0001CB50121502000F007F9182000900120B3
:1021F0008DF8040000208DF8060003208DF80500FE
:1022000001208DF8070069460F48FEF7DCFD4FF40A
:102210000070009001208DF8040000208DF8060069
:1022200003208DF8050001208DF807006946074856
:10223000FEF7C9FD18210448FEF73BFE4FF400717C
:102240000248FEF736FE1CBD001002400018024096
:1022500000BFFEE73EB541F6FF740121080700F01C
:10226000EBF8012000F092F8002000F055FB45F259
:10227000200188423BD0012000F0B2F904E0601C4C
:1022800084B20A2002F082FD412000F089F9002882
:10229000F5D00CB901203EBD4FF4807000F0BCF9C0
:1022A000012000F0B3F97F200190FF200290002070
:1022B0000090684600F0FEFA04200E4908703A20AB
:1022C000487032208870002000F09AFB24200A49D0
:1022D000887002204870062008702020C8700120F5
:1022E00000F02AFB45F22001002000F0D9FC00207C
:1022F000D1E70000A0000020A400002070470000EB
:1023000070B5002100230F22C4781CB3174C246839
:1023100004F4E064C4F5E064C4F30721C1F10404EB
:10232000E3B20A4144789C40E1B2847814402143EE
:102330000C07210E0E4C05786155047804F01F053A
:102340000124AC4005786D11AD0005F1E025C5F81C
:10235000004109E0047804F01F050124AC40054D5C
:102360000678761145F8264070BD00000CED00E0BF
:1023700000E400E080E100E002490143024A11600C
:10238000704700000000FA050CED00E0014908620A
:102390007047000000000E42704700001CB501218C
:1023A000042000F029F84FF48050009000208DF8B0
:1023B000040002208DF8050000208DF806000220A0
:1023C0008DF8070069460248FEF7FDFC1CBD0000C1
:1023D0000008024010B507480068012807D10A200C
:1023E00002F0D4FC03480068012800D110BD002091
:1023F000FCE700003002414229B1064A126802435C
:10240000044B1A6004E0034A12688243014B1A60CD
:10241000704700003038024029B1064A1268024372
:10242000044B1A6004E0034A12688243014B1A60AD
:10243000704700003838024029B1064A126802434A
:10244000044B1A6004E0034A12688243014B1A608D
:10245000704700004038024029B1064A1268024322
:10246000044B1A6004E0034A12688243014B1A606D
:10247000704700002038024029B1064A1268024322
:10248000044B1A6004E0034A12688243014B1A604D
:10249000704700004438024029B1064A12680243DE
:1024A000044B1A6004E0034A12688243014B1A602D
:1024B0007047000024380240F0B5002100220024BB
:1024C000022500260223324F3F6807F00C0121B19C
:1024D000042905D0082937D105E02E4F076036E0E2
:1024E0002D4F076033E02A4F3F1F3F68C7F38056E8
:1024F000274F3F1F3F6807F03F036EB1264FB7FBE2
:10250000F3F7DFF88CC0ACF1040CDCF800C0CCF3BE
:10251000881C07FB0CF40CE01E4FB7FBF3F7DFF849
:1025200070C0ACF1040CDCF800C0CCF3881C07FBD5
:102530000CF4174F3F1F3F68C7F301477F1C7D0016
:10254000B4FBF5F7076002E0124F076000BF00BF61
:102550000F4F3F6807F0F0010909104F7A5C0768D8
:10256000D74047600A4F3F6807F4E051890A0B4F94
:102570007A5C4768D7408760054F3F6807F4604141
:10258000490B064F7A5C4768D740C760F0BD000032
:10259000083802400024F40000127A008400002071
:1025A00010B501460022002300204A11012A02D161
:1025B0000A4C236808E0022A03D1084C70342368CF
:1025C00002E0064C7434236801F01F020124944099
:1025D0001C400CB1012000E0002010BD003802407A
:1025E0000021094A11701170012802D0042808D175
:1025F00003E00121044A117004E00521024A117030
:1026000000E000BF00BF7047703802400149086019
:10261000704700003C0E4742002100F44072B2F5C2
:10262000407F08D1094A116821F4F811084A024094
:102630001143064A1160054A68321268C0F30B0361
:102640001A43024B68331A60704700000838024092
:10265000FFFCFF0F10B54FF4807000F0ADF80128BB
:102660000DD1000200F032F807A002F067F9094826
:10267000006808B9012000E00020064908604FF416
:102680000030FEF785FA10BD414C41524D204121EA
:102690000D0A0000A4024342014600BF080900EBF6
:1026A0008000420001F00F001044C0B270470146A4
:1026B000002204E0501CC2B2A1F10A00C1B20A29F2
:1026C000F8DA100741EA10607047000081B241F06B
:1026D0008001044A126802F0800262EA0101014AA4
:1026E000116070470C280040002101098AB242F0B5
:1026F0008002044B1B6803F0800363EA0202014B73
:102700001A6070470C28004008B500220092002093
:102710000021104A126802F04002CAB9421E0D4B55
:102720001A6000BF0B4A126802F04001009A521C66
:102730000092009AB2F5803F01D00029F2D0054AFC
:10274000126802F040020AB1012002E0002000E01D
:10275000012008BD0C2800400348006820F08000DC
:1027600001490860704700000C28004070B506461B
:102770000C4600250E4800680E4900EA0105280CA9
:10278000E070C5F30420607005F03F00A070C5F351
:10279000423020705EB9E078FFF77EFFE07060782D
:1027A000FFF77AFF6070A078FFF776FFA07070BD2A
:1027B000042800403FFFFF0010B501460020002222
:1027C000054B1B68054C03EA040202EA01030BB146
:1027D000012000E0002010BD0C2800407F3F0100D8
:1027E00070B506460C4600250F4800680F4900EA00
:1027F0000105C5F305402070C5F30620607005F0A3
:102800007F00A07005F48000000CE0705EB92078B5
:10281000FFF742FF20706078FFF73EFF6070A078FE
:10282000FFF73AFFA07070BD002800407F7F7F0057
:1028300010B5044604492046FFF798FF0349204697
:10284000FFF7CEFF10BD0000A4000020A000002074
:10285000CA22174B1A6053221A6091B1144A1C3ACB
:10286000126820F004031A43114B1C3B1A60104AF3
:102870001C32126800F004031A430D4B1C331A601B
:1028800011E00B4A1C3A126820F004039A43084BEB
:102890001C3B1A60064A1C32126800F004039A437B
:1028A000034B1C331A60FF22014B1A607047000073
:1028B0002428004030B504460025CA201549086088
:1028C00053200860FFF720FF00B91DE011481C38B5
:1028D000006820F040000F491C3908600846006875
:1028E000216808430B491C3908600A491439A0685B
:1028F000086008460068A18840EA0140054914398B
:102900000860FFF729FF0125FF20024908602846DB
:1029100030BD00002428004008B50146002000908A
:1029200004480090009800EB810000900098006837
:1029300008BD0000502800402DE9F04105460C4636
:10294000002600274DB9607800F01000102804D14F
:10295000607820F010000A30607005B908E06078F7
:10296000FFF79AFE0646A078FFF796FE064600BFE0
:1029700055B1E0780004617840EA0120A17808436D
:10298000217840EA413611E0E078FFF790FE4FEA07
:1029900000486078FFF78BFE48EA0028A078FFF730
:1029A00086FE48EA0008207848EA4036CA201249E4
:1029B000086053200860FFF7A7FE08B9002714E05D
:1029C0000E4830400C4920390860FFF7C5FE0A4820
:1029D0001C38006800F0200030B900F0DDF808B9BC
:1029E000002702E0012700E00127FF2002490860DC
:1029F0003846BDE8F0810000242800403FFFFF007A
:102A00002DE9F04105460C46002600274DB92E4819
:102A1000006800F0400000B102E00020E07000BF5C
:102A20000DE02948006800F0400020B12078FFF751
:102A300033FE064602E00020E07000BF00BF55B143
:102A400020780004617840EA0120A1780843E17809
:102A500040EA014611E02078FFF729FE4FEA0048DE
:102A60006078FFF724FE48EA0028A078FFF71FFEF1
:102A700048EA0008E07848EA0046CA2012491C31BA
:102A8000086053200860FFF73FFE08B9002713E0F5
:102A90000E4830400C4908390860FFF75DFE0A48CF
:102AA000006800F0200030B900F076F808B900277F
:102AB00002E0012700E00127FF2003491C310860E4
:102AC0003846BDE8F0810000082800407F7F7F0085
:102AD000CA21054A11605321116003491039086069
:102AE000FF21116070470000242800403EB50546D4
:102AF0000C46002000F098F8284600F07DF82046AB
:102B0000FFF7E6FF4FF48040FFF7EEFD4FF4800043
:102B1000FEF73EF801218803FFF79AFE012000F03E
:102B200083F84FF48000019000208DF80800082001
:102B30008DF8090001208DF80A0001A8FEF73AF887
:102B400003208DF8000002208DF801008DF80200AE
:102B500001208DF803006846FFF7D2FB3EBD000060
:102B600010B54FF48060FFF727FE01280CD18002DA
:102B7000FFF7ACFDFFF71AFA0648006808B9012014
:102B800000E00020034908604FF48000FEF700F8E1
:102B900010BD00008C02424208B5002200920020C5
:102BA0000021CA22134B1A6053221A60114A183AA4
:102BB000126822F0A0020F4B183B1A6000BF0D4AAA
:102BC000183A126802F02001009A521C0092009AF2
:102BD000B2F5003F01D00029F1D0064A183A126838
:102BE00002F020020AB1012000E00020FF22014B88
:102BF0001A6008BD24280040CA210A4A11605321E6
:102C0000116008491C39096821F00701054A1C3A7E
:102C100011601146096801431160FF21014A1160EA
:102C2000704700002428004018B501460023009397
:102C300000220020CA23194C23605323236049B18A
:102C4000164B1C3B1B6843F48063144C1C3C2360F4
:102C500001201FE0114B1C3B1B6823F480630F4CC9
:102C60001C3C236000BF0D4B183B1B6803F00402A3
:102C7000009B5B1C0093009BB3F5803F01D0002AB2
:102C8000F1D0064B183B1B6803F004030BB900207E
:102C900000E00120FF23014C236018BD24280040E0
:102CA00008B500220092044A0092009A02EB8002CA
:102CB0000092009A116008BD502800402DE9F041B3
:102CC00004460D460A48007800F076F806460948A2
:102CD000007800F071F80746322E01DB322F02DA5D
:102CE0000020BDE8F08126802F800120F9E7000058
:102CF00048010020490100207FB504460D4602A985
:102D000003A8FFF7DBFF064616B9002004B070BD2C
:102D1000694601A8FFF7D2FF06460EB90020F5E785
:102D2000BDF80400BDF80C10884206DCBDF80C109C
:102D3000BDF80400323081420CDBBDF80C00BDF858
:102D40000410884236DCBDF80410BDF80C003230A7
:102D500081422FDABDF80000BDF80810884206DC79
:102D6000BDF80810BDF80000323081420CDBBDF820
:102D70000800BDF8001088421CDCBDF80010BDF84A
:102D800008003230814215DABDF80C10BDF804207D
:102D9000881800EBD071C1F34F012180BDF80810F5
:102DA000BDF80020881800EBD071C1F34F012980D5
:102DB0000120ABE70020A9E72DE9FE43804600276C
:102DC000002406E0404600F043FB2DF81400601C90
:102DD00084B2052CF6DB002416E0601C85B20FE0FF
:102DE0003DF814003DF81510884207DD3DF81460E9
:102DF0003DF815002DF814002DF81560681C85B2FB
:102E0000052DEDDB601C84B2042CE6DB00270124D9
:102E100005E03DF81400384487B2601C84B2042CED
:102E2000F7DB032097FBF0F086B23046BDE8FE8367
:102E300070B505462846FDF7E7F986B200240CE098
:102E400000BF4021064801F027FB0028F9D0295D8A
:102E5000034801F0ECFB601C84B2B442F0DB70BDAF
:102E6000004C00402DE9F04FE5B04FF00008002580
:102E70000026A946282147A8FDF7BBF928213DA82F
:102E8000FDF7B7F903203C90001F3B9003203A90D8
:102E900004203890F64903C9CDE9360100272022E5
:102EA000F34908312EA8FDF78BF92022F04928318B
:102EB00026A8FDF785F91C22ED4948311FA8FDF72A
:102EC0007FF91C22EA49643118A8FDF779F9142129
:102ED00013A8FDF78EF9E649803103C9CDE9110148
:102EE0002422E349883108A8FDF76AF91422E04951
:102EF000AC3103A8FDF764F92F200290DD4A0021D0
:102F0000084602F087F80020FFF792FC00F0A2FECE
:102F100001223AA90420FDF79CFC9DF8E800012855
:102F200003D09DF8E800002842D10A223DA90520DF
:102F3000FDF78FFC4EF69C701F213DAB1822CDE9AA
:102F400000109B212420FEF767FB082247A90F20D1
:102F5000FDF77FFC4EF69C701F2147AB1822CDE990
:102F60000010B7213C20FEF757FB01279DF8E80031
:102F700068B9192036904EF69C701F2136AB182286
:102F8000CDE90010AA21CF20FEF796FA10E09DF8B7
:102F9000E80001280CD1182036904EF69C701F21B5
:102FA00036AB1822CDE90010AA21CF20FEF784FA13
:102FB00031E2002002F0AEF8701CC6B2002001F031
:102FC00039FCAD480068012800D173E0AB480088A7
:102FD000002812DDA94800881E280EDAA8480088BB
:102FE00000280ADDA6480088322806DAC82001F049
:102FF000CDFE0020A34908700EE2A04800886C288E
:103000001FDD9E48008899281BDA9D480088DC282F
:1030100017DD9B480088B0F5847F12DCC82001F0E2
:10302000B5FE77B9182036904EF69C701F2136AB4E
:103030001822CDE90010AA21CF20FEF73DFA012089
:103040003C908E48008899281FDD8C480088C6284F
:103050001BDA8B480088DC2817DD89480088B0F52A
:10306000847F12DCC82001F091FE77B919203690D8
:103070004EF69C701F2136AB1822CDE90010AA2114
:10308000CF20FEF719FA00203C907C480088C62823
:1030900026DD7A480088F02822DA79480088DC2882
:1030A0001EDD77480088B0F5847F19DCC82001F068
:1030B0006DFE00BF0020704908606E4A002108467E
:1030C00001F0A8FF4FF0000803203990012239A930
:1030D0000420FDF7FBFB00206B49087000273B90A4
:1030E000B8F1000F03D0B8F1010F2DD13CE06748D3
:1030F0000078042829D166480088FA2825DD0122B5
:1031000038A90420FDF7A5FB9DF8E000012802D0B6
:103110009DF8E000B0B94EF69C701F2103AB182259
:10312000CDE9001063211E20FEF7C6F94EF69C7013
:103130001F2158A31822CDE9001063217E20FEF73D
:103140006BFA01E04FF0010861E1322096FBF0F1EB
:1031500000FB116038B9B9F1000F04D10020FFF76E
:1031600067FB00F077FD52E14C480078032804D15A
:10317000681CC5B2052D00DD002531462846FDF747
:10318000ABF946480078042871D100F0D1FD4448DD
:103190008078009042484378C27842A13DA801F06F
:1031A000DDFB45488078009043484378027843A18E
:1031B00047A801F0D3FB0020FFF73AFB384880789E
:1031C000009037484378C27836A15BA801F0C6FB6F
:1031D00039488078009038484378027837A151A860
:1031E00001F0BCFB5BA93DA8FDF715F8002802DD46
:1031F00001203B907DE05BA93DA8FDF70CF848BBA2
:1032000051A947A8FDF707F8002802DD01203B90EF
:103210006FE04EF69C701F212EAB1822CDE90010F6
:1032200063211E20FEF748F9002404E00A2001F083
:10323000ADFD601CC4B2C82CF8DB4FF6FF701F2137
:1032400008AB1822CDE9001063211E20FEF734F9E7
:1032500000274EE04EF69C701F2126AB1822CDE9C8
:10326000001063211E20FEF727F9002433E0BAE0A6
:10327000AC5A0008CC810008080000204001002062
:10328000420100200C0000200D00002098000020CA
:1032900096000020434C4F5345000000940000204E
:1032A000A40000203230253032642D253032642DC8
:1032B0002530326400000000A00000202530326478
:1032C0003A253032643A2530326400000A2001F099
:1032D0005DFD601CC4B2C82CF8DB4FF6FF701F21E7
:1032E00008AB1822CDE9001063211E20FEF7E4F898
:1032F00000273B98012876D19DF8F000012802D0E4
:103300009DF8F000F0BB9DF8F01045A001F016FB11
:103310004EF69C701F2118AB1822CDE900106321D6
:103320001E20FEF7C9F801223CA90420FDF7CEFAC1
:103330003DA8FCF769FF1FFA80FA52463DA9052017
:10334000FDF7C4FA322001F021FD47A8FCF75CFF2D
:103350001FFA80FA524647A90F20FDF7B7FA32202C
:1033600001F014FD3DA8FCF74FFF834647A8FCF78A
:103370004BFF58441FFA80FA524633490520FDF7A7
:1033800068FA00E00AE001203049087001270320B4
:103390003C9000203B900025804638E000203B9088
:1033A0004EF69C701F211FAB1822CDE9001063213F
:1033B0001E20FEF781F84EF69C701F2102AB1822EA
:1033C000CDE900106321AE20FEF726F94EF69C7081
:1033D0001F2111AB1822CDE900106321BA20FEF79E
:1033E0006BF8002405E011E00A2001F0CFFC601C1E
:1033F000C4B2C82CF8DB4FF6FF701F2108AB1822AF
:10340000CDE9001063211E20FEF756F800BF00BF73
:10341000052001F0BBFCCCE500BF65B0BDE8F08F36
:1034200073657420616E642063686F6F7365206FCD
:103430006BA3AC6375727461696E5F73746174754C
:10344000733D202564200A00680100200D00002043
:1034500070B506460025002400201E4908601E495C
:10346000C1F884021D490860304600F03BF8062090
:1034700001F0B2FC00201A49C1F89402012001F0C9
:10348000ABFC01201349086001F0A6FC00201449A0
:10349000C1F8940200BF15E04FF6FF7000EA440443
:1034A00000200C490860012001F096FC01200C4925
:1034B000C1F8940209487838006808B1601C84B2E9
:1034C000681CC5B2102DE7DB2411012003490860F8
:1034D000204670BD940240420080404280824042BB
:1034E0000000404270B50446002500BF17E004F01C
:1034F000800018B101200B49086002E00020094952
:1035000008606006040E002007490860012001F0F1
:1035100063FC01200549C1F89402681CC5B2082D5E
:10352000E5DB70BD8482404294024042000040428C
:103530007047000030B500228B071C0F0F2303FAE1
:1035400004F20B4B8C1053F824309343084C8D102D
:1035500044F8253023468C1053F824308C07240F70
:1035600000FA04F42343024C8D1044F8253030BD9A
:10357000083801400CB500200190009034480068E4
:1035800040F480303249086000BF3148006800F4E0
:10359000003000900198401C0190009818B90198E3
:1035A000B0F5A04FF1D12A48006800F4003010B106
:1035B0000120009001E0002000900098012846D1F1
:1035C00023484030006840F0805021494031086075
:1035D0002048006840F440401E4908601C480830FC
:1035E00000681B49083108600846006840F4004044
:1035F00008600846006840F4A05008601648091F9B
:103600000860081F006840F08070091F086000BF54
:103610000F48006800F000700028F9D040F20570F3
:103620000E4908600A480830006820F00300084985
:10363000083108600846006840F00200086000BFDA
:1036400003480830006800F00C000828F8D10CBDD1
:10365000003802400070004008544007003C02401F
:1036600010B504468CBB00203349087033480088ED
:1036700049F24131884210D12C20314908802A205A
:10368000304908802B2030490880F0202F490880DD
:103690004FF4A0702E49088049E02848008841F680
:1036A0006311884243D12C20254908802B202549CD
:1036B00008802A20244908804FF4F07023490880AC
:1036C0004FF448702249088031E0FFE701201A4991
:1036D00008701A48008849F24131884210D12C20E4
:1036E000174908802A20174908802B20164908808E
:1036F0004FF4A07015490880F0201549088016E0A5
:103700000E48008841F66311884210D12C200C49E4
:1037100008802A200B4908802B200B4908804FF491
:1037200048700A4908804FF4F07009490880002069
:1037300000F010F810BD0000320100203001002020
:10374000380100203A0100203C0100203401002013
:103750003601002070B50546002400263048007868
:10376000012805D12F48008849F24131884208D00C
:103770002B480078F0B92B48008841F66311884245
:1037800018D1082D15D2DFE805F00406080A0C0E42
:10379000101206250DE007250BE0042509E005259C
:1037A00007E0012505E0002503E0032501E00225EF
:1037B00000BF00BF082D1CD2DFE805F00406090C8D
:1037C0000F12151800BF14E044F0800411E044F01B
:1037D00040040EE044F0C0040BE044F0200408E094
:1037E00044F0600405E044F0A00402E044F0E0048A
:1037F00000BF00BF36260B48008849F2413188429D
:1038000001D144F0080421463046FEF725F9064868
:1038100003880648028800210846FEF747F870BD75
:103820003201002030010020360100203401002048
:10383000BE21074A11800521921C11801146088083
:1038400001211180FF21118000211180118070471A
:10385000FE1F006C042808D14FF0E021096941F0F7
:1038600004014FF0E022116107E04FF0E021096907
:1038700021F004014FF0E022116170470248006816
:10388000401E0149086070478000002010B51548AF
:10389000006840F47000134908601348006840F065
:1038A00001001149086000200F49083108600E48E6
:1038B00000680E4908400C4908600D48091D086061
:1038C000081F006820F48020091F086000200649B6
:1038D0000C310860FFF74EFE4FF00060014980395F
:1038E000086010BD88ED00E000380240FFFFF6FEE2
:1038F0001030002410B504466FF00400FFF7AAFF53
:10390000E11704EB5171C1F3C701074A117010466A
:10391000007800EB4001C1EBC0104FF6FF7101EAE7
:10392000C0000249088010BD5E0100206001002037
:1039300010B50121880700F030F9012810D10B489B
:103940000068401C18B901200849086008E008A078
:1039500000F0F4FF0CA0FFF76BFA00200B490860A1
:103960000121880700F00AF910BD00005000002076
:10397000BCECB2E2CAA7B0DC20C6F4B6AFBFB4C399
:10398000C5B9B70A000000002B2B2B003400002023
:103990007FB505460C4601210846FEF74DFD029510
:1039A000ADF804400020ADF80600ADF80C0001A908
:1039B0004FF0804000F00CF91C208DF80000012031
:1039C0008DF8010002208DF8020001208DF803001F
:1039D0006846FEF795FC0121880700F0D2F8012225
:1039E0001146900700F0EAF80121880700F0C6F8B8
:1039F0007FBD000010B501211D4800F0CEF8012860
:103A000030D11C48006820B91B480068401C1A4986
:103A100008601948006802280AD140F6C411042041
:103A2000FDF70CFC012013490860002012490860D2
:103A300012480068012815D111480068401C10493F
:103A40000860084600680A280CD1002008600D486C
:103A500001F0FEF90B48FFF7EBF90B48007808B9C5
:103A6000FEF7E6F90121024800F088F810BD0000D9
:103A700000040040480000204400002034000020E2
:103A80004C000020100000200C0000207FB50546EF
:103A90000C4601210220FEF7CFFC0295ADF8044050
:103AA0000020ADF80600ADF80C0001A90F4800F0A9
:103AB0008FF81D208DF8000001208DF801000320F3
:103AC0008DF8020001208DF803006846FEF718FC0F
:103AD0000121064800F055F801221146034800F084
:103AE0006DF80121014800F049F87FBD0004004055
:103AF00010B50121074800F050F8012805D106480B
:103B00000068012801D101F08DF90121014800F080
:103B100035F810BD00080040340000207FB5054690
:103B20000C4601210420FEF787FC0295ADF8044005
:103B30000020ADF80600ADF80C0001A90E4800F019
:103B400047F81E208DF8000001208DF801008DF847
:103B500002008DF803006846FEF7D2FB01210648FB
:103B600000F00FF801221146034800F027F8012168
:103B7000014800F003F87FBD00080040CA430282FC
:103B8000704721B1028842F00102028004E00288FD
:103B90004FF6FE731A400280704730B5024600208F
:103BA00000230024158A05EA0103958905EA01042A
:103BB00013B10CB1012000E0002030BD1AB183899F
:103BC0000B43838102E083898B438381704700002C
:103BD00000220288184B98420ED0184B98420BD006
:103BE000B0F1804F08D0164B984205D0154B984243
:103BF00002D0154B984204D14FF68F731A404B8870
:103C00001A43124B984207D0114B984204D04FF6FA
:103C1000FF431A400B891A4302804B68C3620B882A
:103C20000385054B984202D0044B984201D18B7A10
:103C30000386012383827047000001400004014095
:103C40000004004000080040000C0040001000404C
:103C5000001400407CB553251624214628462CA389
:103C60001822FDF7B7FC012018212C4BCDE90010DC
:103C7000DA78214605F1180398B20223FDF742FCD9
:103C800001201821254BCDE900105A78214605F175
:103C90003C0398B20223FDF735FC012018211F4B8D
:103CA000CDE900109A78214605F1600398B202230D
:103CB000FDF728FC6B2532242146284618A318223C
:103CC000FDF788FC01201821184BCDE900101A7867
:103CD0002146A8B20223FDF715FC01201821134B41
:103CE000CDE900105A78214605F1240398B2022349
:103CF000FDF708FC012018210C4BCDE900109A7843
:103D0000214605F1480398B20223FDF7FBFB7CBD79
:103D1000323020202D20202D20200000A400002063
:103D200020203A20203A202000000000A00000209F
:103D30007CB524259B241F20324908804EF69C70B8
:103D40001F21CDE90010214628462FA31822FDF798
:103D500063FC012018212F4BCDE90010DA782146B1
:103D600005F118000223FDF7CDFB01201821294B96
:103D7000CDE900105A78214605F13C000223FDF7F9
:103D8000C1FB01201821234BCDE900109A78214670
:103D900005F160000223FDF7B5FB3C25B7244EF684
:103DA0009C701F21CDE90010214628461AA3182235
:103DB000FDF732FC012018211A4BCDE900101A78CA
:103DC000214628460223FDF79DFB01201821154BB3
:103DD000CDE900105A78214605F124000223FDF7B1
:103DE00091FB012018210F4BCDE900109A78214654
:103DF00005F148000223FDF785FB4FF478400149A7
:103E000008807CBD2C010020323020202D20202D68
:103E100020200000A400002020203A20203A20206A
:103E200000000000A000002010B50448008849F2FE
:103E30004131884201D100F081FC10BD30010020E9
:103E400010B588B0044601210846FEF7D5FA0121D5
:103E50001020FEF711FB01218803FEF70DFB07225E
:103E600009212248FCF7F7FF07220A211F48FCF727
:103E7000F2FF4FF4C060069002208DF81C008DF810
:103E80001D0000208DF81E0001208DF81F0006A9DE
:103E90001648FCF798FF02940020ADF80C00ADF82E
:103EA0000E00ADF81000ADF814000C20ADF81200B3
:103EB00002A90F4800F04CFB25208DF804000220D9
:103EC0008DF805008DF8060001208DF8070001A887
:103ED000FEF716FA012240F22551054800F013FBC7
:103EE0000121034800F054FA08B010BD0000024060
:103EF00000100140F8B500250520009040F2255142
:103F0000CE4800F0D6FA002874D0CC4800F08AFBE6
:103F1000044600BF4021CA4800F0BEFA0028F9D08C
:103F20002146C74800F083FBC6480068E0B93E2C34
:103F300019D10020C44908600120C249086000F07E
:103F400071FF42F2CF0149F63F40FFF7E7FD42F231
:103F5000CF0142F20F70FFF799FD0020BB490860C6
:103F60000120BB49086063E1B64800680128FAD126
:103F7000B848007810B1012841D141E07B2C0DD127
:103F8000B548006808B9012000E00020B249086087
:103F9000B0480078401CAF49087030E0AF49B04AE3
:103FA00012688C54AE480068401CAD490860084651
:103FB0000068401EA949085C6B2820D10021A74851
:103FC000A74A12688154A7A1FCF725F9B8B90020C7
:103FD000A3490860A149087048708870A248006829
:103FE00048B90120A049086042F2CF019F48FFF77D
:103FF000CFFC04E021E100204FF08041486216E14F
:104000009648974A1268845495480068401C944921
:10401000086008460068401E9049085C7D286FD102
:1040200000218F480068401E8C4A11548A48001DA8
:10403000006808B9012000E000208749091D0860D8
:104040008648FCF7E1F806463246844988A000F02D
:1040500075FC8EA18148FCF7DEF8F0B901226946B3
:104060000320FCF7F6FB9DF80000002814D18948D6
:1040700000780028FAD101208649087018231A46D2
:104080008021B820FDF7AAF901F0EAFC012081495E
:10409000087081A000F052FCBBE086A16F48FCF7DD
:1040A000BAF8D8B9012269460320FCF7D2FB9DF883
:1040B00000000028F0D1774800780128ECD10020DA
:1040C00074490870182319228021B820FDF786F959
:1040D00000F032FE7AA000F031FC9AE07FA15F4848
:1040E000FCF799F868B9012269460320FCF7B1FB97
:1040F0009DF800000028CFD101207B49086088E0AE
:1041000094E07AA15548FCF786F858B9012269462F
:104110000320FCF79EFB9DF80000012879D172492D
:10412000086076E074A14D48FCF775F8002870D05F
:1041300074A14A48FCF76FF878B904200090012276
:104140006946FCF7C3FB72480078012801D1714928
:1041500008600020704908705BE070A13F48FCF7E0
:104160005AF808BB70480078002852D101226946ED
:104170000320FCF76EFB9DF80000012806D11823F0
:104180001A46DB215120FDF729F905E018231A46CC
:10419000C7215120FDF722F901206349087001224F
:1041A0000220FCF793FB34E060A12C48FCF733F8C5
:1041B00008BB5D48007801282BD101226946032005
:1041C000FCF747FB9DF80000012806D118231922AF
:1041D000DB215120FDF702F905E018231922C72140
:1041E0005120FDF7FBF800204F4908700122022002
:1041F000FCF76CFB0DE050A11848FCF70CF840B937
:10420000504800F025FE4F48FEF712FE4EA000F089
:1042100095FB002503E00020104948556D1C322D08
:10422000F9DB00200E4908600A49087000BF00BF92
:1042300040F22551014800F09CF8F8BD004C0040C8
:104240000010014030000020A4024342240400403A
:1042500034000020400000208C0242427A010020FD
:104260002C0000206F6B000038000020DF220200CD
:104270006F726465722066726F6D20736572766509
:1042800072203D2025733D2564200A0063757274F9
:104290005F6F6E000F000020206F70656E206375E9
:1042A000727461696E2066726F6D207365727665D7
:1042B000720A0000637572745F6F6666000000002A
:1042C000636C6F7365206375727461696E206672CA
:1042D0006F6D207365727665720A0000736D61728E
:1042E000745F6F6E0000000004000020736D617247
:1042F000745F6F666600000073657474695F6F6E4B
:104300002000000073657474695F6F6666000000CA
:104310000C000020080000200D000020616C61727C
:104320006D5F6F6E000000000E000020616C617216
:104330006D5F6F66660000007570646174655F6F25
:104340006E000000100000207570646174655F6F7E
:104350006E207375636365737366756C0A00000085
:1043600001F40072B2F5007F00D100BFCA430280A1
:10437000704710B50022002340F66A14A14200D114
:1043800000BF0A1201249440A3B2DC43048010BD94
:1043900021B1828942F40052828104E082894DF683
:1043A000FF731A408281704710B504463248844238
:1043B00008D101211020FEF76FF800211020FEF730
:1043C0006BF857E02D48844209D101214804FEF7DB
:1043D00043F800214FF40030FEF73EF84AE0284849
:1043E000844209D101218804FEF736F800214FF4F8
:1043F0008020FEF731F83DE02248844209D10121B6
:10440000C804FEF729F800214FF40020FEF724F835
:1044100030E01D48844209D101210805FEF71CF84F
:1044200000214FF48010FEF717F823E0174884426C
:1044300008D101212020FEF72FF800212020FEF7CF
:104440002BF817E01248844209D101218807FEF7B2
:1044500003F800214FF08040FDF7FEFF0AE00D4811
:10446000844207D101214005FDF7F6FF00216005D8
:10447000FDF7F2FF10BD00000010014000440040B5
:1044800000480040004C0040005000400014014033
:1044900000780040007C004002460020B1F5007F1B
:1044A00000D100BF13880B400BB1012000E00020B9
:1044B000704770B50246002400230025002040F616
:1044C0006A16B14200D100BFC1F3421501F01F03CB
:1044D000012606FA03F3012D02D19689334006E046
:1044E000022D02D1168A334001E0968A33400C1225
:1044F000012606FA04F41688344013B10CB10120E9
:1045000000E0002070BDF0B5034600240026002521
:10451000002040F66A17B94200D100BF1846C1F327
:10452000421401F01F06012707FA06F5012C01D1FC
:104530000C3004E0022C01D1103000E014301AB12C
:1045400007682F43076002E00768AF430760F0BDCC
:104550002DE9FF4705460E460024A14600BFA046B0
:10456000B08900B100BF2C8A24F44054F088044381
:104570002C82AC8941F20C608443B08831890843B5
:10458000718908430443AC81AC8A24F44074B08937
:104590000443AC826846FDF78FFF2048854202D075
:1045A0001F48854202D1DDF80C9001E0DDF808904B
:1045B000A88900F4004040B109EBC90000EB0910E4
:1045C00031684900B0FBF1F707E009EBC90000EBE7
:1045D000091031688900B0FBF1F76420B7FBF0F0F7
:1045E00004012009642101FB1078A88900F400402F
:1045F00040B1322000EBC800B0FBF1F000F0070042
:10460000044308E0322000EB08106421B0FBF1F015
:1046100000F00F0004432C81BDE8FF87001001402B
:104620000014014001468888C0F308007047C1F3B8
:1046300008028280704700BFFEE7000010B54FF40B
:10464000FA7000F0A3FB4FF4FA7000F09FFB3548BE
:10465000FEF7EEFB4FF4FA7000F098FB4FF4FA709F
:1046600000F094FB4FF4FA7000F090FB2E48FEF738
:10467000DFFB4FF4FA7000F089FB4FF4FA7000F0A2
:1046800085FB4FF4FA7000F081FB4FF4FA7000F0F4
:104690007DFB4FF4FA7000F079FB4FF4FA7000F0F4
:1046A00075FB4FF4FA7000F071FB4FF4FA7000F0F4
:1046B0006DFB4FF4FA7000F069FB4FF4FA7000F0F4
:1046C00065FB1A48FEF7B4FB4FF4FA7000F05EFB8E
:1046D0004FF4FA7000F05AFB4FF4FA7000F056FBFA
:1046E0001348FEF7A5FB4FF4FA7000F04FFB4FF4B0
:1046F000FA7000F04BFB0F48FEF79AFB4FF4FA708C
:1047000000F044FB4FF4FA7000F040FB0A48FEF75B
:104710008FFB4FF4FA7000F039FB4FF4FA7000F0A1
:1047200035FB10BDAA000020B8000020D6000020F4
:10473000FE0000200D0100201A0100201CB50121FF
:104740002720FDF759FE0420009000208DF804007A
:104750008DF8060003208DF8050001208DF8070074
:1047600069462648FCF72FFB4FF40060009069462D
:104770002348FCF728FB0320009001208DF804005B
:1047800069461E48FCF71FFB2020009069461D4823
:10479000FCF719FB1C480078C0B190201B49087039
:1047A000D0201B4908709FED1B0A1B4880ED000AB2
:1047B0009FED1A0A1A4880ED000A4FF4AE701949AD
:1047C00008806FF012001849088016E0D0200F49C9
:1047D000087090200E4908709FED140A0E4880ED75
:1047E000000A9FED130A0E4880ED000A6FF00A00E0
:1047F0000C490880C01F0C4908801CBD0004024001
:104800000014024000000240320100204801002054
:10481000490100206452BCBD4C0100207BF5893D5C
:10482000500100205401002056010020DA9F883DED
:104830003ABABA3D10B504464FF6FF7033490880C6
:104840003349088033480068002848D124B13249F0
:104850003248FEF751FA34E02F493048FEF74CFA5F
:1048600078B32F48B0F9000000EE100AB8EEC00A85
:104870002C4890ED001A2948008800EE900AF8EEC6
:10488000600A01EE200ABCEEC00A10EE100A2349AD
:1048900008802548B0F9000000EE100AB8EEC00A02
:1048A000224890ED001A1C48008800EE900AF8EEAD
:1048B000600A01EE200ABCEEC00A10EE100A16498A
:1048C0000880164800881A4908801348008819494A
:1048D000088019480078401C1749087014E01648F1
:1048E0000078022807DD0D480088084908800A483A
:1048F00000880749088000200F4908704FF6FF70B4
:104900000B4908800B49088010BD000044010020BD
:10491000460100202C8242425A010020580100200A
:10492000540100204C0100205601002050010020BD
:1049300040010020420100205C0100200FB4054B23
:1049400010B503A9044A029800F02CF810BC5DF8D9
:1049500014FB00002D4E0008640100200FB4084B2A
:1049600010B504A902AA039800F01CF8044602A995
:10497000002000F0B8F9204610BC5DF814FB0000E0
:10498000E74C000802E008C8121F08C1002AFAD14B
:1049900070477047002001E001C1121F002AFBD1BF
:1049A000704700002DE9FF4F8BB088460546002672
:1049B00006E025280BD0DDE90D1290476D1C761C12
:1049C00028780028F5D10FB03046BDE8F08F0024DC
:1049D000A146A2460122AE4900E0044315F8013F7A
:1049E000203B02FA03F00842F7D128782A2810D099
:1049F0006FF02F022878A0F13001092915D809EBB2
:104A0000890102EB410144F0020400EB01096D1C35
:104A1000F0E758F8041B5FEA010903D544F4005499
:104A2000C9F1000944F002046D1C28782E2817D122
:104A300015F8010F44F004042A280ED06FF02F025D
:104A40002878A0F1300109290AD80AEB8A0102EB83
:104A5000410100EB010A6D1CF2E758F804AB6D1C34
:104A600028786C280FD006DC4C2817D068280DD089
:104A70006A2814D104E0742810D07A280FD10DE0F0
:104A800044F400140AE044F4801401E044F44014B7
:104A90006978814202D104F580146D1C6D1C287860
:104AA000692865D006DC00288DD0632827D06428CB
:104AB00006D15DE06E2808D073282AD0752877D0FB
:104AC000DDE90D129047761CE0E0C4F302500228A5
:104AD00009D003280DD0D8F8001004280DD00E609E
:104AE00008F10408D2E0D8F80010F217C1E900621A
:104AF000F6E7D8F800100E80F2E70E70F0E718F82D
:104B0000041B8DF8001000208DF80100EB460120F9
:104B100003E058F804BB4FF0FF3061074FF0000787
:104B200001D40AE07F1C57450DDA8742FADB1BF8F7
:104B300007100029F6D106E07F1C8742FCDB1BF83A
:104B400007100029F8D1DDE90D23A9EB0700814604
:104B5000214600F0B1F83044C61904E0DDE90D1239
:104B60001BF8010B90477F1EF8D22146484688E08B
:104B700058F8040BC4F302514FF00A0B032900D17B
:104B800000B2042900D140B2002802DA40422D21AF
:104B900002E0210505D52B218DF82410012104E028
:104BA00006E0E10710D02021F6E708AF089113E0F6
:104BB00058F8040BC4F302514FF00A0B032900D13B
:104BC00080B2042900D1C0B20021EEE75946FBF7BC
:104BD00030FB303107F8011D0028F7D1ADEB07009D
:104BE00000F1200B600702D524F4803401E04FF07F
:104BF000010ADA4502DDAAEB0B0000E00020824644
:104C000000EB0B0108980144A9EB01000A90E003B6
:104C100006D4DDE90D2321460A9800F04DF806443C
:104C20004FF0000908E009A911F80900DDE90D12AB
:104C3000904709F10109761C08998945F3DBE003E7
:104C40000CD5DDE90D2321460A9800F035F806441D
:104C500004E0DDE90D1230209047761CBAF1000126
:104C6000AAF1010AF5DC05E0DDE90D1217F8010BE8
:104C70009047761CBBF10001ABF1010BF4DC0A9804
:104C80002146DDE90D2300F005F806446D1C97E68A
:104C9000092801002DE9F041044600251E4617466B
:104CA000880404D405E039462020B0476D1C641EFA
:104CB000F9D52846BDE8F0812DE9F04104460025EC
:104CC0001E469046C80301D5302700E020278804FF
:104CD00004D505E041463846B0476D1C641EF9D541
:104CE0002846BDE8F0810A68531C0B6010707047BD
:104CF00010B50024FDF76EFB0446012C0AD10748CD
:104D00000078012802D106A0FFF718FE35200949D6
:104D1000487602E030200749487610BD0E0000209A
:104D2000626565702069732072696E67696E670AD3
:104D3000000000001000002010B5012006490860A6
:104D400000200649C1F8AC0201200549086005A011
:104D5000FFF7F4FD10BD0000A882404200804042F1
:104D600098024142656C656374726963616C206D81
:104D70006F746F7220636C6F736520737563636506
:104D8000737366756C6C790A000000000146114A65
:104D900012884A434FF0E0235A6100229A611A4672
:104DA000126942F001021A6100BF4FF0E02210695F
:104DB00000F001021AB100F48032002AF5D04FF061
:104DC000E022126922F001024FF0E0231A61002272
:104DD0009A617047600100200146114A12784A43E7
:104DE0004FF0E0235A6100229A611A46126942F09C
:104DF00001021A6100BF4FF0E022106900F00102C9
:104E00001AB100F48032002AF5D04FF0E022126986
:104E100022F001024FF0E0231A6100229A617047EC
:104E20005E01002010B5FCF7EFF910BD70B5044627
:104E30000D46A1B20548FFF7FAFB00BF80210348E9
:104E4000FFF72AFB0028F9D0204670BD0010014072
:104E50002DE9FF4104460026002700BF00BF0020C7
:104E60000390052002900320019000901421092056
:104E7000FCF73AF88046C8F58051642201FB02F045
:104E8000C11700EB11510D130A2096FBF0F03030E2
:104E900060700A2096FBF0F100FB11603030A070CA
:104EA0000A2097FBF0F0303020710A2097FBF0F1D8
:104EB00000FB1170303060710A2095FBF0F030304B
:104EC000E0710A2095FBF0F100FB115030302072A8
:104ED0003B490D70084601783AA0FFF72FFD0122EB
:104EE00003A91046FBF7B5FC9DF80C00012804D07F
:104EF000022807D003280FD109E03420A072302007
:104F0000E07209E03620A0723020E07204E039201F
:104F1000A0723020E07200BF00BFE17AA07A303882
:104F200000EB800001EB400030382C490870084647
:104F300001782BA0FFF702FD2F480078012803D14C
:104F400031206073607405E02B48007810B9302080
:104F500060736074012202A90320FBF77AFC9DF8BC
:104F60000800012802D13120E07301E03020E07315
:104F7000012201A90220FBF76CFC9DF80400012826
:104F800002D13120E07401E03020E0740122694652
:104F90000420FBF75EFC9DF80000012802D09DF87C
:104FA000000010B93120607501E0302060753020BC
:104FB000E075214611A0FFF7C1FCBDE8FF810000AC
:104FC000000000206C696768745F737472656E67B7
:104FD0005F6E6F77203D2025640A000001000020ED
:104FE0006C696768745F737472656E675F7365740C
:104FF000203D202564200A000F000020CBF9B2C913
:10500000BCAFB5C4CAFDBEDD64617461203D20251E
:1050100073200A002DE9FC4106460F4614464FF066
:105020000808254604EB08002978CDE90010AB8874
:105030006A883946304600F011F8BDE8FC8110B5A9
:1050400002462AB111F8014B20020B78184304E004
:1050500011F8010B0B7840EA032010BD2DE9F05F39
:1050600081468A4615461E46DDE90A784FF0000B58
:105070002448008841F6631188421ED007F00300DF
:1050800068B90020FEF766FB33462A46514648467B
:10509000FCF70CFC51464846FCF768FC16E004207F
:1050A000FEF758FB33462A4651464846FCF7FEFBBE
:1050B00051464846FCF75AFC08E00020FEF74AFB40
:1050C00033462A4651464846FCF7F0FBFCF7BAFC4B
:1050D00005FB06FB002409E007F010004146FFF73E
:1050E000AEFF0949088008F10208641C5C45F3D34F
:1050F000064803880648028800210846FCF7D6FBCC
:10510000BDE8F09F300100200020006C3601002037
:105110003401002010B504460020364908704FF4D1
:1051200000713548FBF7BAFE80B14FF48071324808
:10513000FBF7B4FE50B180212F48FBF7AFFE28B13A
:1051400040212D48FBF7AAFE002843D14FF40071FF
:105150002948FBF7A3FE18B90120284908701AE076
:105160004FF480712448FBF799FE18B902202349B7
:10517000087010E080212048FBF790FE18B903204A
:105180001E49087007E040211B48FBF787FE10B955
:1051900004201A490870194800781949097888428A
:1051A00010D118480088401C164908801348007820
:1051B00015490870ECB913480088012819DD002052
:1051C000087016E000200F4908800C4800780C4950
:1051D00008700EE00B480088022803DD07480078BD
:1051E00004490870002006490870064908800649ED
:1051F000087010BD950000200014024098000020A7
:1052000099000020960000209400002094B000BF78
:1052100000BF00BF00BF00BF00201290FE4A07CAB7
:105220000FAB07C300200E90A820FEF763FBFBF72F
:105230008BFBFCF7D5FFFCF713F8FBF705FD4FF4EC
:105240007840F64908804EF69C70F54908804FF486
:10525000E130FEF7F5FDF3A0FFF770FB4FF4A0601F
:10526000FDF78AF8FBF76CFB0AE0F1A0FFF766FB9D
:10527000F448006808B9012000E00020F149086006
:10528000FBF7D0FA0028F0D1FDF788F8FBF7E2F839
:1052900014210920FBF728FE0446C4F5805164223E
:1052A00001FB02F0C11700EB1151C1F30731E64ACF
:1052B0001170FCF7CFFF00210420FDF717FC42F22C
:1052C000CF014CF24F30FEF7E1FB4FF4E130FBF73A
:1052D00097FBFFF7B3F9FCF7C7FBFEF7A5FDDBA0D3
:1052E000FFF72CFBFBF75CFB012213A91046FBF731
:1052F000B0FA9DF84C0001280ED09DF84C00022811
:105300000AD09DF84C00032806D0012013900122FA
:1053100013A91046FBF7DAFA0122CE490220FBF767
:1053200098FACC48007850B1CA480078012806D0D5
:105330000020C849087001220220FBF7C7FA0122A9
:1053400013A90320FBF785FA9DF84C0050B19DF896
:105350004C00012806D000201390012213A903203D
:10536000FBF7B4FA17E39DF84C00002878D0012829
:1053700077D1B9490870B94A00210846FFF74AFEBB
:10538000FCF756FD0DA90020FDF72AFA9DF836001E
:1053900000909DF835309DF83420B1A103A8FFF7A7
:1053A000DDFA40F664004FF6FF7103AB1822CDE939
:1053B000001000218F20FCF72FF901220EA91046C2
:1053C000FBF747FA9DF83800012806D1182315226B
:1053D000DB21B320FCF702F814E09DF83800022826
:1053E00006D118231622DB21B320FBF7F7FF09E0D3
:1053F0009DF83800032805D118231722DB21B3209C
:10540000FBF7ECFF9A48007830B9182319228A215B
:10541000B820FBF7E3FF09E095480078012805D1A3
:1054200018231A468A21B820FBF7D8FF01228949A0
:105430000220FBF70EFA8748007830B918231922AA
:10544000DB215120FBF7CAFF09E0824800780128E0
:1054500005D118231A46DB215120FBF7BFFF69E174
:105460006BE197E20020FFF7E5F9824800887F288A
:1054700046DD80480088A72842DA7F480088F32864
:105480003EDD7D480088B0F58D7F39DCC820FFF710
:105490007DFC9DF83800401CC0B20E909DF838008D
:1054A000032808DD01200E9018231522DB21B320EC
:1054B000FBF794FF1FE09DF83800012806D1182360
:1054C0001522DB21B320FBF789FF14E09DF838009B
:1054D000022806D118231622DB21B320FBF77EFF1A
:1054E00009E09DF83800032805D118231722DB2195
:1054F000B320FBF773FF01220EA91046FBF7E6F974
:105500005C480088AA2846DD5A480088D22842DA3A
:1055100059480088F3283EDD57480088B0F58D7F54
:1055200039DCC820FFF732FC9DF83800401EC0B2BD
:105530000E909DF83800012808DA03200E901823F9
:105540001722DB21B320FBF749FF1FE09DF838004D
:10555000012806D118231522DB21B320FBF73EFFDB
:1055600014E09DF83800022806D118231622DB210A
:10557000B320FBF733FF09E09DF83800032805D17D
:1055800018231722DB21B320FBF728FF01220EA9E5
:105590001046FBF79BF939480068012800D113E059
:1055A0003448008800281ADD32480088232816DA9B
:1055B00031480088872812DD2F480088BE280EDA7F
:1055C000C820FFF7E3FB00BF00202C4908601390C0
:1055D0001290012212A90320FBF778F9ABE02548CD
:1055E00000881E286ADD23480088502866DA224891
:1055F0000088D22862DD20480088B0F5827F5DDA1D
:10560000C820FFF7C3FB1348007820B918231A46B7
:10561000DB21512034E03DE06C5B00082C010020D0
:105620002E0100207265736574202D2D2D2D0A002A
:105630004154323443585820BCECB2E2CAA7B0DC23
:105640000A0000008C024242000000207374617264
:1056500074200A000E0000207C000020D4D902082B
:10566000253032643A253032643A25303264000005
:105670000F00002040010020420100200400002013
:10568000FBF7ACFE0120C449087001220220FBF7A1
:105690001DF910E0C048007801280CD11823192208
:1056A000DB215120FBF79AFE0020BB490870012244
:1056B0000220FBF70BF9B9A0FFF740F9B9480078D1
:1056C000012802D1FFF714FB02E03020B6494876EA
:1056D000B6480078B6490978884216DDB5480078A2
:1056E000012827D1B4480078012823D1FFF724FBF3
:1056F0000020B0490870182319228A21B820FBF72E
:105700006DFEAEA0FFF71AF914E0AA48007888B938
:10571000A948007801280DD100F0A2F90120A5497F
:10572000087018231A468A21B820FBF757FEAFA04D
:10573000FFF704F996E600BF2CE1B54A00210846C0
:10574000FFF768FCFCF774FB0DA90020FDF748F893
:105750009DF8360000909DF835309DF83420AFF26A
:10576000001103A8FFF7FAF840F664004FF6FF7146
:1057700003AB1822CDE9001000218F20FBF74CFF6E
:105780008C48007830B9182319228021B820FBF703
:1057900025FE09E087480078012805D118231A461C
:1057A0008021B820FBF71AFE01227B490220FBF77B
:1057B00050F87948007830B918231922C7215120B0
:1057C000FBF70CFE09E074480078012805D1182386
:1057D0001A46C7215120FBF701FED8E00020FFF751
:1057E00029F88C480068012800D114E08A48008814
:1057F000D1281CDD88480088F02818DA87480088FE
:105800008A2814DD85480088BC2810DA4FF4967089
:10581000FFF7BCFA00BF00207E490860012013900A
:105820001290012212A90320FBF750F8B0E07A4849
:105830000088782825DD78480088AA2821DA77486A
:105840000088C0281DDD75480088F22819DAC820B4
:10585000FFF79CFA18231A468021B820FBF7BEFDFB
:105860005448007868B90120524908704E48FFF743
:10587000EFFA4D48FDF7DCFA00F0F2F868A0FFF708
:105880005DF865480088AA2826DD63480088D2288C
:1058900022DA62480088C0281EDD60480088F228AD
:1058A0001ADAC820FFF772FA182319228021B820CB
:1058B000FBF794FD3F48007801280DD100203D49B9
:1058C00008703948FFF7C4FA3748FDF7B1FAFFF717
:1058D00033FA5BA0FFF732F84F480088AA2816DD9C
:1058E0004D480088DC2812DA4C480088B0F58C7FDF
:1058F0000DDD4A480088B0F5A07F08DAC820FFF720
:1059000045FA012055490870FDF7ACFA40E04248DD
:1059100000881E2831DD4048008850282DDA3F4895
:105920000088BE2829DD3D480088F02825DA4FF49C
:105930009670FFF72BFA1848007868B918231A46B2
:10594000C7215120FBF74AFD0120134908700122AD
:105950000220FAF7BBFF10E00F48007801280CD1B5
:1059600018231922C7215120FBF738FD00200A49CE
:10597000087001220220FAF7A9FF0A4800780128DE
:1059800002D1FFF7B5F902E030200749487625E754
:1059900000BF00BF00BFE6E40E000020B7E4C3F97B
:1059A000C6F70A00A8000020100000200000002018
:1059B000010000200F0000207C000020637572743D
:1059C00061696E20636C6F736520626563617573D6
:1059D00065206C6967687420737472656E6774689B
:1059E00020746F6F20686967680A000063757274BD
:1059F00061696E206F70656E2062656163617573A9
:105A000065206C69676874207765616B0A00000027
:105A1000DC31050804000020400100204201002084
:105A20006375727461696E206F70656E2066726F47
:105A30006D2068616E64206D6F64650A000000006F
:105A40006375727461696E206F6666206279206882
:105A5000616E64206D6F64650A0000000C00002018
:105A600010B50120054908600549C1F8AC020020C5
:105A70000449086004A0FEF761FF10BDA8824042FF
:105A80000080404298024142656C656374726963AC
:105A9000616C206D6F746F72206F70656E2073750E
:105AA000636365737366756C6C790A0000000000AF
:105AB000FFFFFFFF040000000500000006000000DB
:105AC00007000000080000000200000003000000C2
:105AD000FFFFFFFF040000000500000006000000BB
