:020000040800F2
:10000000100500209D01000811070008FD050008EB
:100010000D0700083D0200086314000800000000FE
:100020000000000000000000000000001D0A0008A1
:100030004102000800000000A1070008750B00083D
:10004000B7010008B7010008B7010008B5090008AA
:10005000B7010008B7010008B7010008B7010008A0
:10006000B7010008B7010008B7010008B701000890
:10007000B7010008B7010008B7010008B701000880
:10008000B7010008B7010008B7010008B701000870
:10009000B7010008B7010008B7010008090300080C
:1000A000B7010008B7010008B7010008B701000850
:1000B000290C0008ED0C0008A50D0008B701000888
:1000C000B7010008B7010008B7010008B701000830
:1000D000B7010008B7010008B7010008B701000820
:1000E000B70100082D090008B7010008B701000892
:1000F000B7010008B7010008B7010008B701000800
:10010000B7010008B7010008B7010008B7010008EF
:10011000BD0F0008B7010008B7010008B7010008CB
:10012000B7010008B7010008B7010008B7010008CF
:10013000B7010008B7010008B7010008B7010008BF
:10014000B7010008B7010008B7010008B7010008AF
:10015000B7010008B7010008B7010008B70100089F
:10016000B7010008B7010008B7010008B70100088F
:10017000B7010008B7010008B7010008B70100087F
:10018000B7010008B7010008DFF80CD000F044F810
:1001900000480047D917000810050020064880478E
:1001A00006480047FEE7FEE7FEE7FEE7FEE7FEE75C
:1001B000FEE7FEE7FEE7FEE7850B00088901000881
:1001C000421C10F8011B0029FBD1801A704710B5A2
:1001D000002200E0521C835C8C5CA34201D1002B06
:1001E000F8D1D8B2E1B2401A10BD30B50B46014685
:1001F00000202022012409E021FA02F59D4205D3C6
:1002000003FA02F5491B04FA02F52844151EA2F16F
:100210000102F1DC30BD0000064C074D06E0E0684D
:1002200040F0010394E8070098471034AC42F6D33D
:10023000FFF7AEFF381800085818000800BFFEE7A7
:100240007047000010B588B004460121C80400F0D2
:10025000B9FA0121084600F0A5FA0121880300F04F
:10026000D1FA274800F0B6FF08220021254800F007
:1002700097F908220121234800F092F90320069003
:1002800002208DF81C008DF81D0000208DF81E0046
:1002900001208DF81F0006A91A4800F039F90294D0
:1002A0000020ADF80C00ADF80E00ADF81000ADF870
:1002B00014000C20ADF8120002A9114801F05EF8FC
:1002C000012240F225510E4801F033F840210C483C
:1002D00000F05CFF34208DF8040002208DF805004A
:1002E00000208DF8060001208DF8070001A800F01D
:1002F00011FA0121024800F061FF08B010BD0000B2
:10030000004C00400000024010B5402000F078F89A
:1003100068B10A2001F024FA40211F4800F063F977
:1003200010B91EA001F020F9402000F063F88020F1
:1003300000F066F898B10A2001F012FA8021164800
:1003400000F051F940B931201B498874084600F08B
:100350004BFB1AA001F008F9802000F04BF84FF495
:10036000807000F04DF8A8B10A2001F0F9F94FF4BF
:100370008071094800F037F940B930200E4988747F
:10038000084600F031FB14A001F0EEF84FF4807045
:1003900000F030F810BD0000001402400A6B6579CF
:1003A00033207465737420627920696E746572728B
:1003B0007570740A00000000000000200A6B657967
:1003C00032207465737420627920696E746572726C
:1003D0007570740A000000000A6B6579312074653D
:1003E000737420627920696E746572727570740A14
:1003F000000000000149086070470000143C014003
:1004000001460020034A12680A400AB1012000E0B8
:1004100000207047143C0140002123498279002AC2
:100420003AD00A46126803689A430B461A600A1DBE
:10043000126803689A430B1D1A60027911440A6816
:1004400003681A430A60184A0832126803689A431C
:10045000154B08331A601A1D126803689A43124B31
:100460000C331A604279102A0ED11A1F12680368E1
:100470001A430D4B08331A601A1D126803681A4399
:10048000094B0C331A600DE00749427911440A68A0
:1004900003681A430A6005E0027911440A68036898
:1004A0009A430A6070470000003C01400EB500F01E
:1004B000DBF80121880300F0A5F90621052000F0F2
:1004C000AFFA0821052000F0ABFA0721052000F063
:1004D000A7FA4FF4E070019000208DF808000C207E
:1004E0008DF8090001208DF80A0001A8FFF794FF9C
:1004F00017208DF8000003208DF8010002208DF8F0
:10050000020001208DF80300684600F003F90EBDDB
:10051000F0B50A4600210023002400BF3DE001257C
:1005200005FA01F3156805EA03049C4234D1056815
:100530004F000326BE40B543056015794E00B54017
:100540000668354305601579012D02D01579022D15
:1005500016D185684F000326BE40B54385605579A6
:100560004E00B540866835438560456801268E405B
:10057000B5434560456896798E40B6B235434560CF
:10058000C5684F000326BE40B543C560D5794E000F
:10059000B540C6683543C560491C1029BFD3F0BDBE
:1005A000F0B5002300244D07ED0E02FA05F3CE103E
:1005B00000F1200555F826504E07F70E0F26BE40D5
:1005C000B543CF1000F1200646F82750CE1000F1B9
:1005D000200555F8265045EA0304CE1000F1200509
:1005E00045F82640F0BD0246002013690B400BB1D0
:1005F000012000E0002070470183704700BFFEE744
:100600004CF6CC40014908607047000000300040C3
:100610004AF6AA20014908607047000000300040F7
:10062000014948607047000000300040014988607F
:10063000704700000030004001490860704700002A
:100640000030004070B505460C4645F25550FFF7A6
:10065000F3FF2846FFF7E4FF2046FFF7E7FFFFF729
:10066000D7FFFFF7CDFF70BD1CB50121202000F0A2
:1006700099F800208DF804008DF806004FF4707092
:10068000009001208DF8070002208DF805006946D2
:100690000148FFF73DFF1CBD001402401CB50121BD
:1006A000502000F07FF81820009001208DF8040001
:1006B00000208DF8060003208DF8050001208DF83C
:1006C000070069460F48FFF723FF4FF400700090C2
:1006D00001208DF8040000208DF8060003208DF81D
:1006E000050001208DF8070069460748FFF710FF55
:1006F00018210448FFF780FF4FF400710248FFF70C
:100700007BFF1CBD001002400018024000BFFEE746
:100710007047000070B5002100230F22C4781CB37D
:10072000174C246804F4E064C4F5E064C4F30721C2
:10073000C1F10404E3B20A4144789C40E1B28478F8
:10074000144021430C07210E0E4C057861550478A6
:1007500004F01F050124AC4005786D11AD0005F1D2
:10076000E025C5F8004109E0047804F01F050124E4
:10077000AC40054D0678761145F8264070BD000066
:100780000CED00E000E400E080E100E002490143FC
:10079000024A1160704700000000FA050CED00E00D
:1007A0007047000029B1064A12680243044B1A60E0
:1007B00004E0034A12688243014B1A60704700004C
:1007C0003038024029B1064A12680243044B1A60CD
:1007D00004E0034A12688243014B1A60704700002C
:1007E0004038024029B1064A12680243044B1A609D
:1007F00004E0034A12688243014B1A60704700000C
:100800002038024029B1064A12680243044B1A609C
:1008100004E0034A12688243014B1A6070470000EB
:100820004438024029B1064A12680243044B1A6058
:1008300004E0034A12688243014B1A6070470000CB
:1008400024380240F0B500210022002402250026B1
:100850000223324F3F6807F00C0121B1042905D073
:10086000082937D105E02E4F076036E02D4F07608D
:1008700033E02A4F3F1F3F68C7F38056274F3F1F83
:100880003F6807F03F036EB1264FB7FBF3F7DFF881
:100890008CC0ACF1040CDCF800C0CCF3881C07FB66
:1008A0000CF40CE01E4FB7FBF3F7DFF870C0ACF1AF
:1008B000040CDCF800C0CCF3881C07FB0CF4174FC9
:1008C0003F1F3F68C7F301477F1C7D00B4FBF5F76E
:1008D000076002E0124F076000BF00BF0F4F3F6884
:1008E00007F0F0010909104F7A5C0768D7404760AC
:1008F0000A4F3F6807F4E051890A0B4F7A5C47685A
:10090000D7408760054F3F6807F46041490B064FA9
:100910007A5C4768D740C760F0BD000008380240E5
:100920000024F40000127A004000002010B54FF4BB
:10093000807000F02BF801280DD1000200F018F8AB
:1009400007A000F011FE0948006808B9012000E086
:100950000020064908604FF40030FFF74BFD10BD42
:10096000414C41524D2041210D0A0000A402434256
:1009700081B241F08001044A126802F0800262EA0A
:100980000101014A116070470C28004010B5014672
:1009900000200022054B1B68054C03EA040202EA12
:1009A00001030BB1012000E0002010BD0C28004025
:1009B0007F3F010010B54FF48060FFF7E7FF01288B
:1009C0000AD18002FFF7D4FF0648006808B9012069
:1009D00000E00020034908604FF48000FFF70AFDA3
:1009E00010BD00008C02424270B505462846FFF754
:1009F000E7FB86B200240CE000BF4021064800F06F
:100A000061FC0028F9D0295D034800F026FD601C38
:100A100084B2B442F0DB70BD004C0040704700006F
:100A200030B500228B071C0F0F2303FA04F20B4B87
:100A30008C1053F824309343084C8D1044F8253023
:100A400023468C1053F824308C07240F00FA04F44A
:100A50002343024C8D1044F8253030BD0838014046
:100A60000CB50020019000903448006840F48030BC
:100A70003249086000BF3148006800F4003000903F
:100A80000198401C0190009818B90198B0F5A04F4A
:100A9000F1D12A48006800F4003010B10120009024
:100AA00001E0002000900098012846D12348403002
:100AB000006840F0805021494031086020480068BB
:100AC00040F440401E4908601C48083000681B493B
:100AD000083108600846006840F400400860084695
:100AE000006840F4A05008601648091F0860081FFD
:100AF000006840F08070091F086000BF0F48006860
:100B000000F000700028F9D040F205700E4908602E
:100B10000A480830006820F00300084908310860DE
:100B20000846006840F00200086000BF0348083033
:100B3000006800F00C000828F8D10CBD0038024015
:100B40000070004008544007003C0240042808D1CF
:100B50004FF0E021096941F004014FF0E0221161FA
:100B600007E04FF0E021096921F004014FF0E02295
:100B70001161704702480068401E014908607047D3
:100B80003C00002010B51548006840F4700013497F
:100B900008601348006840F0010011490860002017
:100BA0000F49083108600E4800680E4908400C499A
:100BB00008600D48091D0860081F006820F48020A7
:100BC000091F0860002006490C310860FFF748FF44
:100BD0004FF0006001498039086010BD88ED00E0E9
:100BE00000380240FFFFF6FE1030002410B5044626
:100BF0006FF00400FFF7AAFFE11704EB5171C1F396
:100C0000C701074A11701046007800EB4001C1EBA4
:100C1000C0104FF6FF7101EAC0000249088010BD04
:100C2000D2000020D400002010B50121880700F078
:100C30000EF9012810D10B480068401C18B901209A
:100C40000849086008E008A0FFF7CEFE0020074929
:100C5000086007A000F088FC0121880700F0E8F890
:100C600010BD0000380000202B2B2B00200000209E
:100C7000BCECB2E2CAA7B0DC20C6F4B6AFBFB4C3C6
:100C8000C5B9B70A000000007FB505460C46012132
:100C90000846FFF797FD0295ADF804400020ADF837
:100CA0000600ADF80C0001A94FF0804000F0EAF812
:100CB0001C208DF8000001208DF8010002208DF825
:100CC000020001208DF803006846FFF723FD012193
:100CD000880700F0B0F801221146900700F0C8F82C
:100CE0000121880700F0A4F87FBD000010B50121A4
:100CF000104800F0ACF8012816D10F48006820B960
:100D00000E480068401C0D4908600C480068022825
:100D10000AD140F6C4110420FFF794FC01200649D3
:100D200008600020054908600121024800F080F8B1
:100D300010BD0000000400403400002030000020FE
:100D40007FB505460C4601210220FFF73BFD0295C9
:100D5000ADF804400020ADF80600ADF80C0001A984
:100D60000F4800F08FF81D208DF8000001208DF84D
:100D7000010003208DF8020001208DF80300684671
:100D8000FFF7C8FC0121064800F055F80122114682
:100D9000034800F06DF80121014800F049F87FBDDB
:100DA0000004004010B50121074800F050F8012868
:100DB00005D106480068012801D100F0F7FC0121A7
:100DC000014800F035F810BD000800402000002068
:100DD0007FB505460C4601210420FFF7F3FC029580
:100DE000ADF804400020ADF80600ADF80C0001A9F4
:100DF0000E4800F047F81E208DF8000001208DF805
:100E000001008DF802008DF803006846FFF782FCB0
:100E10000121064800F00FF801221146034800F0B6
:100E200027F80121014800F003F87FBD00080040C9
:100E3000CA430282704721B1028842F00102028057
:100E400004E002884FF6FE731A400280704730B506
:100E50000246002000230024158A05EA0103958933
:100E600005EA010413B10CB1012000E0002030BDFF
:100E70001AB183890B43838102E083898B43838189
:100E80007047000000220288184B98420ED0184B81
:100E900098420BD0B0F1804F08D0164B984205D045
:100EA000154B984202D0154B984204D14FF68F73E0
:100EB0001A404B881A43124B984207D0114B984264
:100EC00004D04FF6FF431A400B891A4302804B6847
:100ED000C3620B880385054B984202D0044B9842AD
:100EE00001D18B7A03860123838270470000014081
:100EF000000401400004004000080040000C0040D5
:100F0000001000400014004010B588B004460121D4
:100F10000846FFF747FC01211020FFF773FC012171
:100F20008803FFF76FFC072209212248FFF738FBEF
:100F300007220A211F48FFF733FB4FF4C0600690D9
:100F400002208DF81C008DF81D0000208DF81E0079
:100F500001208DF81F0006A91648FFF7D9FA029460
:100F60000020ADF80C00ADF80E00ADF81000ADF8A3
:100F700014000C20ADF8120002A90F4800F0FEF991
:100F800025208DF8040002208DF805008DF806005C
:100F900001208DF8070001A8FFF7BCFB012240F2F9
:100FA0002551054800F0C5F90121034800F006F974
:100FB00008B010BD000002400010014070B50025CF
:100FC00040F225515C4800F08AF900286FD05A4859
:100FD00000F03EFA044600BF4021584800F072F984
:100FE0000028F9D02146554800F037FA54480068E7
:100FF000B8B93E2C14D10020524908600120504954
:10100000086000F0D3FB42F2CF0149F63F40FFF702
:10101000DFFE00214C48FFF70EFF01204B4908601E
:1010200083E04748006801287FD14948007810B123
:10103000012879D141E07B2C0DD14648006808B9E0
:10104000012000E000204349086041480078401C2E
:101050003F49087030E04049404A12688C543F488C
:101060000068401C3D49086008460068401E3A4937
:10107000085C6B2820D100213748384A1268815417
:1010800037A1FFF7A4F8B8B9002034490860324905
:101090000870487088703348006848B901203149A9
:1010A000086042F2CF013048FFF7EEFD04E041E076
:1010B00000204FF08041486236E02749274A1268F5
:1010C0008C5426480068401C244908600846006883
:1010D000401E2149085C7D2825D100211F48006859
:1010E000401E1D4A11541B48001D006808B901200C
:1010F00000E000201749091D08601748FFF760F855
:1011000006463246144919A000F02EFA002503E0E5
:101110000020114948556D1C322DF9DB00200F4984
:1011200008600B49087000BF00BF40F2255102481B
:1011300000F035F870BD0000004C00400010014088
:101140001C000020A40243420004004020000020B4
:101150002C0000208C024242DC00002018000020FD
:101160006F6B000024000020BFD40100746865206C
:101170006F726465722066726F6D2073657276653A
:10118000722D2D2D2D2D25733D25640001F4007247
:10119000B2F5007F00D100BFCA430280704710B58E
:1011A0000022002340F66A14A14200D100BF0A12B7
:1011B00001249440A3B2DC43048010BD21B1828994
:1011C00042F40052828104E082894DF6FF731A4096
:1011D0008281704710B504463248844208D101210B
:1011E0001020FFF71FFB00211020FFF71BFB57E02B
:1011F0002D48844209D101214804FFF7F3FA002168
:101200004FF40030FFF7EEFA4AE02848844209D153
:1012100001218804FFF7E6FA00214FF48020FFF750
:10122000E1FA3DE02248844209D10121C804FFF7D8
:10123000D9FA00214FF40020FFF7D4FA30E01D481E
:10124000844209D101210805FFF7CCFA00214FF4AF
:101250008010FFF7C7FA23E01748844208D1012124
:101260002020FFF7DFFA00212020FFF7DBFA17E04C
:101270001248844209D101218807FFF7B3FA0021FF
:101280004FF08040FFF7AEFA0AE00D48844207D1E4
:1012900001214005FFF7A6FA00216005FFF7A2FA39
:1012A00010BD000000100140004400400048004014
:1012B000004C004000500040001401400078004005
:1012C000007C004002460020B1F5007F00D100BF45
:1012D00013880B400BB1012000E00020704770B56F
:1012E0000246002400230025002040F66A16B14281
:1012F00000D100BFC1F3421501F01F03012606FA19
:1013000003F3012D02D19689334006E0022D02D16C
:10131000168A334001E0968A33400C12012606FA01
:1013200004F41688344013B10CB1012000E0002011
:1013300070BDF0B50346002400260025002040F6CD
:101340006A17B94200D100BF1846C1F3421401F038
:101350001F06012707FA06F5012C01D10C3004E025
:10136000022C01D1103000E014301AB107682F436D
:10137000076002E00768AF430760F0BD2DE9FF4753
:1013800005460E460024A14600BFA046B08900B124
:1013900000BF2C8A24F44054F08804432C82AC898A
:1013A00041F20C608443B088318908437189084355
:1013B0000443AC81AC8A24F44074B0890443AC8209
:1013C0006846FFF73FFA2048854202D01F48854211
:1013D00002D1DDF80C9001E0DDF80890A88900F456
:1013E000004040B109EBC90000EB09103168490029
:1013F000B0FBF1F707E009EBC90000EB0910316819
:101400008900B0FBF1F76420B7FBF0F0040120097C
:10141000642101FB1078A88900F4004040B132201B
:1014200000EBC800B0FBF1F000F00700044308E057
:10143000322000EB08106421B0FBF1F000F00F0047
:1014400004432C81BDE8FF870010014000140140D7
:1014500001468888C0F308007047C1F30802828003
:10146000704700BFFEE7000010B54FF4FA7000F0BF
:1014700077F94FF4FA7000F073F93548FFF7B4FAD2
:101480004FF4FA7000F06CF94FF4FA7000F068F95C
:101490004FF4FA7000F064F92E48FFF7A5FA4FF404
:1014A000FA7000F05DF94FF4FA7000F059F94FF45A
:1014B000FA7000F055F94FF4FA7000F051F94FF45A
:1014C000FA7000F04DF94FF4FA7000F049F94FF45A
:1014D000FA7000F045F94FF4FA7000F041F94FF45A
:1014E000FA7000F03DF94FF4FA7000F039F91A483B
:1014F000FFF77AFA4FF4FA7000F032F94FF4FA700D
:1015000000F02EF94FF4FA7000F02AF91348FFF7B3
:101510006BFA4FF4FA7000F023F94FF4FA7000F010
:101520001FF90F48FFF760FA4FF4FA7000F018F94E
:101530004FF4FA7000F014F90A48FFF755FA4FF427
:10154000FA7000F00DF94FF4FA7000F009F910BDCF
:10155000500000205E0000207C000020A40000203D
:10156000B3000020C00000200FB4054B10B503A944
:10157000044A029800F018F810BC5DF814FB000053
:10158000B5170008D800002002E008C8121F08C1E3
:10159000002AFAD170477047002001E001C1121FF4
:1015A000002AFBD1704700002DE9FF4F8BB09A460F
:1015B0000F460546002606E025280BD052460D9919
:1015C00090476D1C761C28780028F5D10FB0304666
:1015D000BDE8F08F0024A0460122604900E00443EA
:1015E00015F8013F203B02FA03F00842F7D12878B2
:1015F0002E2817D115F8010F44F004042A280ED024
:101600006FF02F022878A0F1300109290AD808EBE1
:10161000880102EB410100EB01086D1CF2E757F86D
:10162000048B6D1C287869283ED006DC0028CDD0BC
:1016300063280BD0642804D136E0732810D07528B5
:101640004BD052460D999047761C85E017F8040B55
:101650008DF8000000208DF80100E946012003E02C
:1016600057F8049B4FF0FF3061074FF0000401D49E
:101670000AE0641C44450DDA8442FADB19F80410D0
:101680000029F6D106E0641C8442FCDB19F8041042
:101690000029F8D1264404E019F8010B52460D99AF
:1016A0009047641EF8D257E001CF4FF00A0B002894
:1016B00002DA40422D2102E0210504D52B218DF8CC
:1016C0002410012103E0E10705D02021F7E70DF107
:1016D000200908910CE00021F9E701CF4FF00A0B37
:1016E000F9E75946FEF781FD01F1300209F8012DB5
:1016F0000028F6D1ADEB090000F1200B600701D402
:101700004FF00108D84502DDA8EB0B0000E00020F7
:101710008046002406E009A85246005D0D999047D6
:10172000641C761C08988442F5DB04E030205246A5
:101730000D999047761CB8F10001A8F10108F5DC7D
:1017400005E019F8010B52460D999047761CBBF144
:101750000001ABF1010BF4DC6D1C34E7092801003A
:101760000146114A12884A434FF0E0235A61002291
:101770009A611A46126942F001021A6100BF4FF0E5
:10178000E022106900F001021AB100F48032002A50
:10179000F5D04FF0E022126922F001024FF0E02371
:1017A0001A6100229A617047D400002010B5FEF73C
:1017B0002FFF10BD70B504460D46A1B20548FFF7D6
:1017C0004CFE00BF80210348FFF77CFD0028F9D0C4
:1017D000204670BD00100140A820FFF707FAFEF771
:1017E0005DFFFEF741FFFEF761FE4FF4E130FFF7CA
:1017F0008BFB0CA0FFF7B8FE4FF4A060FEF7C6FF0E
:1018000042F2CF014CF24F30FFF79AFA4FF4E13039
:10181000FEF718FDFFF728FE05A0FFF7A5FE00BFA5
:10182000FEE700007265736574202D2D2D2D0A00D2
:101830007374617274200A005818000800000020B8
:10184000DC0000008815000834190008DC000020C6
:1018500034040000981500082331312C32322C3327
:10186000332C34342C35352C312C3023000000003F
:101870000000000000000000000000000000000068
:101880000000000000000000FFFFFFFF000000005C
:10189000FFFFFFFF00000000000000000102030442
:1018A000010203040607080941542B43574D4F44D6
:1018B000453D310D0A0041542B43574A41503D22CA
:1018C0004C49222C223133393237303433383339D2
:1018D000220D0A0041542B43495053544152543D68
:1018E00022544350222C227463702E746C696E6BE8
:1018F0002E696F222C383634370D0A0041542B43A1
:1019000049504D4F44453D310D0A0041542B434948
:101910005053454E440D0A00374757343652433131
:1019200049373639453447580000000000000000B0
:0419300000000000B3
:040000050800018965
:00000001FF
