:020000040800F2
:10000000A00500209D01000889220008170F0008A4
:10001000DD210008850900085F4400080000000099
:10002000000000000000000000000000B9330008DC
:100030009F0900080000000025230008053700087C
:10004000B7010008B7010008B7010008ED2A000851
:10005000B7010008B7010008B7010008B7010008A0
:10006000B7010008B7010008B7010008B701000890
:10007000B7010008B7010008B7010008B701000880
:10008000B7010008B7010008B7010008B701000870
:10009000B7010008B7010008B7010008C50A000849
:1000A000B7010008B7010008B7010008B701000850
:1000B000B93700087D38000879390008B701000811
:1000C000B7010008B7010008B7010008B701000830
:1000D000B7010008B7010008B7010008B701000820
:1000E000B7010008E1250008B7010008B7010008C2
:1000F000B7010008B7010008B7010008B701000800
:10010000B7010008B7010008B7010008B7010008EF
:10011000593D0008B7010008B7010008B701000801
:10012000B7010008B7010008B7010008B7010008CF
:10013000B7010008B7010008B7010008B7010008BF
:10014000B7010008B7010008B7010008B7010008AF
:10015000B7010008B7010008B7010008B70100089F
:10016000B7010008B7010008B7010008B70100088F
:10017000B7010008B7010008B7010008B70100087F
:10018000B7010008B7010008DFF80CD000F056F8FE
:100190000048004735500008A00500200648804769
:1001A00006480047FEE7FEE7FEE7FEE7FEE7FEE75C
:1001B000FEE7FEE7FEE7FEE71537000889010008C5
:1001C000D2B201E000F8012B491EFBD27047002299
:1001D000F6E710B513460A4604461946FFF7F0FF46
:1001E000204610BD421C10F8011B0029FBD1801ACB
:1001F000704710B5002200E0521C835C8C5CA34267
:1002000001D1002BF8D1D8B2E1B2401A10BD30B5FF
:100210000B46014600202022012409E021FA02F5C4
:100220009D4205D303FA02F5491B04FA02F528445E
:10023000151EA2F10102F1DC30BD0000064C074D95
:1002400006E0E06840F0010394E8070098471034A6
:10025000AC42F6D3FFF79CFFB4840708D4840708A8
:1002600070B58C1810F8015B15F0070301D110F878
:10027000013B2A1106D110F8012B03E010F8016BA5
:1002800001F8016B5B1EF9D12B0705D40023521E28
:100290000DD401F8013BFAE710F8013BCB1A921C90
:1002A00003E013F8015B01F8015B521EF9D5A1428E
:1002B000D8D3002070BD21B1826842F00102826073
:1002C00003E0826822F00102826070470021084A40
:1002D0001168084A1140D0E900231A4383681A4381
:1002E000C3681A431143044AC2F80413704700005C
:1002F00004230140E030FCFF002001400146C86CAF
:1003000080B270470246002013680B400BB10120F9
:1003100000E000207047000030B5024600200023B6
:100320005068104C20400D790C6844EA05242043A5
:10033000506090680C4C2040D1E903542C438D68E8
:100340002C434D7944EA450420439060D06A20F460
:1003500070000C7D641EE4B2234340EA0350D06277
:1003600030BD0000FFFEFFFCFDF7FFC0F0B5044606
:100370000D4600200021092D11DDE068A5F10A06D7
:1003800006EB4607072606FA07F18843A5F10A0699
:1003900006EB460603FA06F10843E0600CE020692C
:1003A00005EB4507072606FA07F1884305EB4506E6
:1003B00003FA06F108432061072A0FDA606B561E24
:1003C00006EB86071F2606FA07F18843561E06EB42
:1003D000860605FA06F10843606322E00D2A0FDA6B
:1003E000206BD61F06EB86071F2606FA07F1884307
:1003F000D61F06EB860605FA06F10843206310E0D7
:10040000E06AA2F10D0606EB86071F2606FA07F141
:100410008843A2F10D0606EB860605FA06F10843AD
:10042000E062F0BD816841F080418160704700006A
:1004300000B58DB00121202001F0A4FF0121880228
:1004400001F0E0FF08200B9003208DF83000002021
:100450008DF833000BA9154800F0B5FC0121880286
:1004600001F0E0FF00214FF4806001F0DBFF00208D
:1004700007900A9009904FF48030089007A8FFF782
:1004800025FF002001908DF808008DF809000390E9
:10049000059001208DF8180001A90548FFF73CFFE1
:1004A00001210348FFF707FF0DB000BD0014024013
:1004B000002201407CB505460C46322094FBF0F149
:1004C00000FB1140C8B94FF6FF701F21CAA31822C4
:1004D000CDE900104FF48C711E2001F073F84FF637
:1004E000FF701F21CDE90010C94850F825301822AF
:1004F0004FF48C71A22001F065F8C64800780128FD
:1005000003D0C4480078022875D1C2480078012879
:1005100072D1062D09D2DFE805F00309177684921F
:10052000BD48C078401CBC49C87096E0BA484078C5
:100530000C2803D10120B849487004E0B64840783F
:10054000401CB549487088E0B34989781C2910D10E
:10055000B149497802290CD1AF49C878C11700EBDD
:1005600091718910A0EB810119B10120AA4988700D
:1005700048E0A94989781D2910D1A749497802295D
:100580000CD1A549C878C11700EB91718910A0EB77
:10059000810119B90120A049887033E09E48807814
:1005A0001E2820D19C4840780D281BD2DFE800F09F
:1005B0001A0E1A0F071008111209130A140000BFAF
:1005C00000BF00BF0120944988700BE000BF00BF4E
:1005D00000BF00BF00BF00BF8F488078401C8E491D
:1005E000887000BF0EE08C4880781F2805D101205C
:1005F0008949887006E0A6E030E087488078401C92
:100600008549887029E085480078172803D10020A3
:100610008249087004E081480078401C7F490870D6
:100620001BE07E4840783B2803D100207B4948707E
:1006300004E07A484078401C784948700DE07748DB
:1006400080783B2803D100207449887004E0734807
:100650008078401C7149887000BF00BF6D480078E9
:10066000022870D1062D09D2DFE805F003091759D9
:1006700066746948C078401E6749C87077E066486C
:100680004078012803D10C206349487004E0624897
:100690004078401E6049487069E05F4880780128D2
:1006A00037D15D49C878C11700EB91718910A0EB73
:1006B000810139B958494978022903D11D20564989
:1006C00088702BE054484078022803D11C205249FE
:1006D000887023E0504840780D2819D2DFE800F0F8
:1006E000180718081109120A0B130C140D0000BF8B
:1006F00000BF00BF00BF00BF00BF1F204649887079
:1007000006E000BF00BF00BF1E204349887000BF45
:1007100004E041488078401E3F49887027E03F4808
:10072000007818B917203D49087004E03B4800786C
:10073000401E3A4908701AE03848007820B93B203A
:100740003649487005E013E034484078401E33498C
:1007500048700CE03148807818B93B202F498870E8
:1007600004E02E488078401E2C49887000BF00BFEE
:10077000962C01D103F0B2F9062D3AD2DFE805F04C
:10078000030C151E2730312C05D125A31822DC219E
:10079000722000F0F5FE2CE0312C05D120A31822A8
:1007A000DC21962000F0ECFE23E0312C05D11CA3C7
:1007B0001822DC21BA2000F0E3FE1AE0312C05D12A
:1007C00017A31822FA215A2000F0DAFE11E0312C8A
:1007D00005D113A31822FA217E2000F0D1FE08E0F3
:1007E000312C05D10EA31822FA21A22000F0C8FE58
:1007F00000BF00BF7CBD0000506C65617365205375
:1008000065742020202020202020202000000000CF
:100810005400002088000020980000209400002050
:100820002020000010B5FF2000F024F80446552CCD
:1008300001D1002010BD5521FF2000F059F8FF2004
:1008400000F018F80446552C01D10020F2E70120F1
:10085000F0E770B506460C46154608E03046721CB7
:1008600096B200F007F804F8010B681E85B2002D5F
:10087000F4D170BD70B50446002600F02FFC25466B
:10088000E11704EB11610912A02202EB4101C8B289
:1008900000F07AFB00F06EFCE11704EB1161091225
:1008A000A4EB0121C8B200F06FFB00F063FC00F084
:1008B00015FCA12000F068FB00F05CFC002000F0BB
:1008C0002DFB064600F030FC304670BD70B5054685
:1008D0000C46164606E02178284600F009F8681C08
:1008E00085B2641C3000A6F101018EB2F3D170BD57
:1008F00070B504460E4600F0F1FB2546E11704EB07
:1009000011610912A02202EB4101C8B200F03CFBC8
:1009100000F030FCE11704EB11610912A4EB012196
:10092000C8B200F031FB00F025FC304600F02CFB93
:1009300000F020FC00F0F8FB0A2004F03BF970BD49
:1009400010B500F07DFB10BD1CB50121402001F069
:1009500019FD01208DF8040000208DF8060080208C
:10096000009001208DF8070002208DF805006946EF
:10097000034800F028FA8021014800F098FA1CBDD5
:100980000018024000BFFEE710B50246012000E05B
:1009900050430B00A1F10104E1B2F9D110BD704741
:1009A0001CB50121022001F0EDFC0121042001F021
:1009B000E9FC4FF44060009001208DF80400022013
:1009C0008DF8050000208DF8060001208DF8070045
:1009D0006946094800F0F7F9402000906946074849
:1009E00000F0F1F94021054800F061FA4FF4406150
:1009F000014800F05CFA1CBD0004024000080240FF
:100A000010B588B004460121C80401F0DBFC0121C7
:100A1000084601F0B7FC0121880301F0F3FC2748E8
:100A200003F0D6FB08220021254800F014FA082222
:100A30000121234800F00FFA0320069002208DF8D0
:100A40001C008DF81D0000208DF81E0001208DF87F
:100A50001F0006A91A4800F0B6F902940020ADF86C
:100A60000C00ADF80E00ADF81000ADF814000C202D
:100A7000ADF8120002A9114803F07EFC012240F2F9
:100A800025510E4803F053FC40210C4803F07CFB39
:100A900034208DF8040002208DF8050000208DF828
:100AA000060001208DF8070001A801F0EFFB0121ED
:100AB000024803F081FB08B010BD0000004C00406C
:100AC0000000024010B5402000F068F868B10A202C
:100AD00004F070F84021194800F0E0F910B918A0AE
:100AE00003F040FE402000F053F8802000F056F85C
:100AF00068B10A2004F05EF88021104800F0CEF9B9
:100B000010B915A003F02EFE802000F041F84FF43C
:100B1000807000F043F878B10A2004F04BF84FF4ED
:100B20008071064800F0BAF910B912A003F01AFE5D
:100B30004FF4807000F02CF810BD0000001402404B
:100B40006B657933207465737420627920696E74E3
:100B50006572727570740A000A6B6579322074656B
:100B6000737420627920696E746572727570740A8C
:100B7000000000000A6B657931207465737420628F
:100B80007920696E746572727570740A00000000D5
:100B90000149086070470000143C014001460020F4
:100BA000034A12680A400AB1012000E000207047A1
:100BB000143C0140002123498279002A3AD00A4698
:100BC000126803689A430B461A600A1D126803688C
:100BD0009A430B1D1A60027911440A6803681A438C
:100BE0000A60184A0832126803689A43154B0833A2
:100BF0001A601A1D126803689A43124B0C331A606C
:100C00004279102A0ED11A1F126803681A430D4B3D
:100C100008331A601A1D126803681A43094B0C3313
:100C20001A600DE00749427911440A6803681A43C3
:100C30000A6005E0027911440A6803689A430A6071
:100C400070470000003C01400EB500F009FB012197
:100C5000880301F0D7FB0621052002F0AFFB082135
:100C6000052002F0ABFB0721052002F0A7FB4FF4A3
:100C7000E070019000208DF808000C208DF809002C
:100C800001208DF80A0001A8FFF794FF17208DF8C6
:100C9000000003208DF8010002208DF802000120E1
:100CA0008DF80300684601F0F1FA0EBD51B18200E3
:100CB000A2F1C042126842F001038200A2F1C042D8
:100CC000136009E08200A2F1C0421268034B1A408F
:100CD0008300A3F1C0431A6070470000FEFF0F00BD
:100CE000D0E901121143C2681143026911434269FC
:100CF000114382691143C2691143026A1143426A76
:100D00001143826A1143C26A1143026B11430268A4
:100D10009200A2F1C0421160816808290BD10168DC
:100D20008900A1F1C041096841F0400201688900D1
:100D3000A1F1C0410A60416B0968426B526841EA07
:100D40000211426B926841EA0221426B928941EAA8
:100D50000241426B128A41EA0251426B127D41EA22
:100D60000261426B926911430268521C9200A2F127
:100D7000C0421160C16AB1F5804F1BD1816B096817
:100D8000826B526841EA0211826B926841EA022149
:100D9000826B128A41EA0251826B127D41EA026142
:100DA000826B9269114302689200A2F1C042C2F8BC
:100DB000041107E06FF0704201688900A1F1C041A1
:100DC000C1F804217047F0B50A4600210023002431
:100DD00000BF3DE0012505FA01F3156805EA0304AB
:100DE0009C4234D105684F000326BE40B5430560E0
:100DF00015794E00B5400668354305601579012D1B
:100E000002D01579022D16D185684F000326BE4009
:100E1000B543856055794E00B54086683543856099
:100E2000456801268E40B5434560456896798E40F9
:100E3000B6B235434560C5684F000326BE40B54392
:100E4000C560D5794E00B540C6683543C560491CBC
:100E50001029BFD3F0BDF0B5002300244D07ED0EDF
:100E600002FA05F3CE1000F1200555F826504E0782
:100E7000F70E0F26BE40B543CF1000F1200646F80E
:100E80002750CE1000F1200555F8265045EA0304FE
:100E9000CE1000F1200545F82640F0BD02460020A6
:100EA00013690B400BB1012000E000207047418323
:100EB000704701837047000010B5044607230122E4
:100EC00021460848FFF752FA0648FFF7ABFA00BF81
:100ED00002210448FFF716FA0028F9D00148FFF76D
:100EE0000DFA10BD002201402DE9F04107460C46E5
:100EF0000025002608E03846FFF7DEFF0544052000
:100F000003F058FE701CC6B2A642F4DBB5FBF4F049
:100F100080B2BDE8F08100BFFEE7000070B5054675
:100F200000241648006820F4402014490860084650
:100F300000680860002616E00020114908600220C1
:100F400003F05EFE01200F49C1F8A0026006040E06
:100F50000B487C38006808B1601CC4B2012003F063
:100F60004FFE701CC6B2082EE6DB15B900F08EF8F5
:100F700001E000F03DF8204670BD00000004024092
:100F8000A08240420080404270B504461548006887
:100F900020F44020134908600846006840F480208F
:100FA0000860002010490860002517E0E0090E499C
:100FB000091D08606006040E022003F021FE0120D6
:100FC0000A49C1F8A002022003F01AFE00200649D7
:100FD0000860022003F014FE681CC5B2082DE5DB92
:100FE00070BD000000040240A082404200804042E8
:100FF00010B500200F4908600F48006820F4402019
:101000000D4908600846006840F480200860002010
:101010000A49C1F8A402022003F0F2FD01200549AB
:101020000860022003F0ECFD00200449C1F8A00292
:1010300010BD0000A08240420004024000804042F7
:101040001CB50121022001F09DF94FF44070009081
:1010500001208DF8040000208DF8060003208DF893
:10106000050001208DF8070069460548FFF7ABFE33
:101070000120044908600449C1F8A4021CBD000015
:1010800000040240A08240420080404210B500208F
:101090000F4908600F48006820F440200D4908609F
:1010A0000846006840F48020086001200A49C1F821
:1010B000A402022003F0A4FD0120054908600220DB
:1010C00003F09EFD00200449C1F8A00210BD0000FD
:1010D000A0824042000402400080404210B50F4808
:1010E000006820F440200D4908600846006840F47C
:1010F0008020086001200A4908600A49C1F8A0025E
:10110000042003F07DFD002005490860042003F061
:1011100077FD00200349C1F8A00210BD0004024081
:10112000A48240420080404210B50F48006820F47D
:1011300040200D4908600846006840F4802008609F
:1011400000200A4908600A49C1F8A402042003F0FB
:1011500057FD0120054908600549C1F8A402042093
:1011600003F04EFD10BD000000040240A08240428A
:101170000080404210B500241348006820F440204D
:101180001149086008460068086001200F4908609E
:1011900003F036FD01200E49C1F8A00203F030FD36
:1011A00007E0601CC4B2FA2C03DDFFF7BDFF01208D
:1011B00010BD0648803800680028F2D10349091F95
:1011C000086000BFF4E7000000040240A48240422F
:1011D00000804042D321074A1180911C088808886A
:1011E00008884FF6FF7101EA0020911C0988084326
:1011F00070470000FE1F006C4CF6CC4001490860AF
:1012000070470000003000404AF6AA2001490860FB
:1012100070470000003000400149486070470000FE
:1012200000300040014988607047000000300040F5
:1012300001490860704700000030004070B5054665
:101240000C4645F25550FFF7F3FF2846FFF7E4FF41
:101250002046FFF7E7FFFFF7D7FFFFF7CDFF70BD91
:101260001CB50121202001F08DF800208DF804002C
:101270008DF806004FF47070009001208DF8070083
:1012800002208DF8050069460148FFF79CFD1CBD52
:101290000014024070B50446002500260948008865
:1012A0000949098800FB01F60021084600F034FBDB
:1012B00000F09EFB00BF02E0044804806D1CB542B4
:1012C000FAD370BD280100202A0100200020006C04
:1012D00070B505460E4614463146284600F098F98A
:1012E0000348008803490880881C048070BD000002
:1012F0002C010020FE1F006C2DE9FF4F074616460B
:101300001C46BB460C2C01D198460AE0102C01D19A
:10131000A04606E0182C02D14FF0300801E0BDE8ED
:10132000FF8FA6F12000C6B2002548E00C2C07D1A3
:1013300006EB4600244901EB800010F8059010E010
:10134000102C05D1214800EB061010F8059008E09C
:10135000182C06D106EB46001D4901EB001010F8D1
:1013600005904FF0000A24E009F0010030B119485F
:10137000028838460199FFF7ABFF05E04BF618628B
:1013800038460199FFF7A4FF4FEA6909781C87B234
:10139000A7EB0B0104EBD472B1EB620F05D15F46F2
:1013A0000198401C80B2019006E00AF1010000F0B3
:1013B000FF0ABAF1080FD7DB00BF681CC5B245456C
:1013C000B4DB00BFABE7000038600008AC64000885
:1013D0009C6A0008200100202DE9FF4F04460F46BB
:1013E0001E46A346182E02D14FF0480801E0BDE882
:1013F000FF8F002532E0182E07D1029800EBC000C5
:10140000184901EBC00010F805904FF0000A1FE0EA
:1014100009F0010030B11448028839462046FFF730
:1014200057FF05E04BF6186239462046FFF750FF9C
:101430004FEA6909601C84B2A4EB0B00182803D1A1
:101440005C46781C87B206E00AF1010000F0FF0A52
:10145000BAF1080FDCDB00BF681CC5B24545CADB2A
:1014600000BFC4E7E858000820010020F0B5054699
:101470000F4616461C460DE022783346394628466C
:10148000FFF7AAFFA81985B208480088854200DB4B
:101490000AE0241D2068002806DB2068642803DC9D
:1014A0002068401C0028E7D100BFF0BD28010020C3
:1014B0002DE9FF4F81B0074690461E460E9CC3465D
:1014C0004FF0000906E00A20BBFBF0FB09F1010028
:1014D00000F0FF09BBF1000FF5D1B14508DD26A3EF
:1014E00022463846029900F04BF805B0BDE8F08F6F
:1014F00000253CE0A6EB0900A8421BDD0F9860B177
:1015000004EBD471491001FB057188B223463022E7
:1015100000940299FFF7F0FE27E004EBD471491024
:1015200001FB057188B22346202200940299FFF73F
:10153000E3FE1AE0701B401EC1B20A20FFF724FA36
:10154000B8FBF0F00A21B0FBF1F201FB120A04EB48
:10155000D471491001FB057188B20AF13001CAB299
:10156000234600940299FFF7C7FE681CC5B2B54236
:10157000C0DB00BFB9E700004552524F52000000E7
:10158000F0B506460F4615461C4611E022782B465C
:1015900039463046FFF7B0FE284605EBD07106EB22
:1015A00061018EB206480088864200DB06E0641CBA
:1015B0002078202802DB20787E28E7DD00BFF0BD00
:1015C000280100202DE9F04F04460D4616461F461F
:1015D000DDE909890C48B0F800A00C48B0F800B06B
:1015E0000948A0F800800948A0F800903B46324620
:1015F00029462046FFF7C4FF0348A0F800A003488F
:10160000A0F800B0BDE8F08F2001002022010020EA
:1016100030B504460D462946204600F07DF900F01D
:10162000E7F9024800880249088030BD2001002007
:101630000020006C00B59FB00121782000F0A2FED0
:101640000121084600F0AEFE4FF480601D9001209D
:101650008DF8780000208DF87A0002208DF879004E
:1016600001208DF87B001DA97748FFF7ACFB4CF2F9
:1016700033701D9002208DF8780000208DF87A00DC
:1016800003208DF8790001208DF87B001DA96F489B
:10169000FFF799FB4FF680701D9002208DF87800BF
:1016A00000208DF87A0003208DF8790001208DF854
:1016B0007B001DA96648FFF786FB04201D900220D1
:1016C0008DF8780000208DF87A0003208DF87900DD
:1016D00001208DF87B001DA95E48FFF774FB4FF4D5
:1016E00080501D9002208DF8780000208DF87A003F
:1016F00003208DF8790001208DF87B001DA9554845
:10170000FFF761FB0C2200215048FFF7A4FB0C22DD
:1017100001214E48FFF79FFB0C2204214B48FFF7A5
:101720009AFB0C2205214948FFF795FB0C22082162
:101730004648FFF790FB0C2209214448FFF78BFB3A
:101740000C220A214148FFF786FB0C220E213F485C
:10175000FFF781FB0C220F213C48FFF77CFB0C229A
:1017600007213B48FFF777FB0C2208213848FFF799
:1017700072FB0C2209213648FFF76DFB0C220A216F
:101780003348FFF768FB0C220B213148FFF763FB5E
:101790000C2211462E48FFF75EFB0C220D212C482F
:1017A000FFF759FB0C220E212948FFF754FB0C22AE
:1017B0000F212748FFF74FFB0C2202212548FFF796
:1017C0004AFB0C2211462348FFF745FB0F200790E8
:1017D000002008903C20099000200A900B900C906B
:1017E0000D9008200090002001900720029000201A
:1017F000039004900590069006200E9000200F9014
:1018000010901020119000201290149013901590B9
:1018100016904FF480501790002018904FF480409D
:10182000199000201A9007A81B90CDF870D00EA830
:10183000FFF756FA01210620FFF738FA322003F0AD
:10184000B9F91FB000BD000000140240000C0240B6
:10185000001002400018024030B58418641EA2B285
:10186000CC18641EA3B2264C24786CBB254C24886B
:1018700041F66315AC4227D1234C2488A41A241ABC
:10188000A0B2CC18641EA3B2204C2488204D2C801A
:101890000412AD1C2C80C4B22C808418641EC4F3C6
:1018A0000F242C808418641EE4B22C80194C2488E8
:1018B000AD1E2C800C12AD1C2C80CCB22C801C12C6
:1018C0002C80DCB22C8019E0104C2488104D2C8028
:1018D0000412AD1C2C80C4B22C8014122C80D4B203
:1018E0002C800C4C2488AD1E2C800C12AD1C2C803E
:1018F000CCB22C801C122C80DCB22C8030BD0000BD
:101900002601002024010020280100202E010020B3
:10191000FE1F006C300100202E4A128849F241332C
:101920009A4212D12C4A12882C4B1A8002129B1C0C
:101930001A80C2B21A802A4A12889B1E1A800A1282
:101940009B1C1A80CAB21A8042E0224A128841F6D1
:1019500063139A423CD1234A12788AB9224A1288E8
:10196000521E121A90B21C4A12881C4B1A80002276
:101970009B1C1A801A8002121A80C2B21A8013E0CD
:10198000154A1288154B1A8002129B1C1A80C2B28B
:101990001A80154A1288521EC2F30F221A80124A68
:1019A0001278521ED2B21A800D4A12880B4B1A803E
:1019B0000A129B1C1A80CAB21A800C4A1288521E44
:1019C000C2F30F221A80094A1278521ED2B21A802C
:1019D00070470000240100202E010020FE1F006C33
:1019E0003001002026010020280100202A010020CB
:1019F0000248008802490880704700002C0100203E
:101A0000FE1F006C024A1080921C1180704700007B
:101A1000FE1F006C10B5FFF70DFEFFF7DBFBEB4977
:101A200008800846008849F24131884223D0A1202D
:101A3000E7490880881C0088E4490880E448801C45
:101A400000880880084600884FF6FF7101EA0020F0
:101A5000DE490880DE48801C008809880843DB498D
:101A600008800846008845F26171884203D141F63A
:101A70006310D6490880D548008849F24131884230
:101A80001CD1D448006820F00F004FF02041C1F86D
:101A90001C010846D0F81C0120F47060C1F81C013C
:101AA0000846D0F81C0140F00300C1F81C010846AC
:101AB000D0F81C0140F40070C1F81C01C348008834
:101AC00049F2413188427DD1CF20C14908800020B0
:101AD000891C0880C120088030200880ED20891EE4
:101AE00008806420891C0880032008801220088058
:101AF00081200880E820891E08808520891C0880B4
:101B0000102008807A200880CB20891E0880392088
:101B1000891C08802C200880002008803420088040
:101B200002200880F720891E08802020891C088058
:101B3000EA20891E08800020891C08800880C020B7
:101B4000891E08801B20891C0880C120891E0880EE
:101B50000120891C0880C520891E08803020891C2E
:101B600008800880C720891E0880B720891C08804B
:101B70003620891E08804820891C08803A20891E4A
:101B800008805520891C0880B120891E088000200B
:101B9000891C08801A200880B620891E08800A2027
:101BA000891C0880A2200880F220891E088000205D
:101BB000891C08802620891E08800120891C088035
:101BC000E02000E060E0891E08800F20891C08806A
:101BD0002A20088028200880082008800E200880FD
:101BE0000820088054200880A9200880432008800D
:101BF0000A2008800F2008800020088008800880C4
:101C00000880E120891E08800020891C088015209A
:101C100008801720088007200880112008800620EF
:101C200008802B200880562008803C200880052052
:101C30000880102008800F2008803F20088008803E
:101C40000F2008802B20891E08800020891C088016
:101C50000880012008803F2008802A20891E0880F3
:101C60000020891C088008800880EF20088011204F
:101C7000891E0880782002F09DFF292054490880A1
:101C800001205549086098E05048008841F66311EA
:101C90008842F8D1E2204E4908801D20891C088026
:101CA0000220088004200880642002F0A9FFE020C0
:101CB000474908800120891C08800A2002F07AFF29
:101CC000E020434908800320891C08800C2002F092
:101CD00071FF01203E4908800A2002F06BFFE620D8
:101CE0003B4908802F20891C0880FF20088008803D
:101CF000B020891E08802020891C088000200880D0
:101D00000320088040F21F3008800120088040F244
:101D1000DF10088000200880B420891E088004207D
:101D2000891C088040F21F400880002008802E2077
:101D3000088000200880088008800880B620891E5E
:101D400008800220891C08804FF40370088000205E
:101D5000088017200880152008800020088008804F
:101D6000F020891E08800320891C08802920891EF4
:101D70000880D02008800020891C0880BE20891E91
:101D800008800520891C0880FE200880012008802A
:101D90000020088008800880B820891E0880032061
:101DA000891C088001200880BA20891E0880012033
:101DB000891C0880FF2001F07FFC002001F094FBCB
:101DC0004FF6FF70FFF766FA10BD000024010020F7
:101DD000FE1F006C1C0100A0A882424270B58EB0AC
:101DE000002500244FF478404F4908805F252F24B8
:101DF0004E4840788DF834004C4880788DF8350096
:101E0000214628460DAB1822FFF7BAFB214605F103
:101E1000180018231322FFF7DFFA00BF50244348AD
:101E200000798DF83400414840798DF8350021461D
:101E300028460DAB1822FFF7A3FB214605F1180039
:101E400018231422FFF7C8FA00BF71243748C0795D
:101E50008DF834003548007A8DF835002146284643
:101E60000DAB1822FFF78CFB214605F11800182353
:101E70001422FFF7B1FA214605F130001823282279
:101E8000FFF73AFA9DF8350030389DF834103039B4
:101E900001EB810100EB4106002E0ADB282E08DC55
:101EA000A1B205F13C0290B218231522FFF794FA73
:101EB00018E0282E0ADD462E08DCA1B205F13C020E
:101EC00090B218231622FFF787FA0BE0462E09DDA1
:101ED000642E07DCA1B205F13C0290B21823172250
:101EE000FFF77AFAA1B205F1540290B21823292221
:101EF000FFF702FA052540F227140CA9002000F094
:101F0000FBFB9DF8320000909DF831309DF83320A6
:101F100007A102A802F036FC2146284602AB18228F
:101F2000FFF72EFB0EB070BD200100201000002036
:101F30003230253032642D253032642D2530326424
:101F40000000000030B593B0002400258E2440F23C
:101F500027150FA9002000F009FC9DF83E00009015
:101F60009DF83D309DF83C2053A105A802F00AFCE5
:101F70009DF83C00002807DB9DF83C00052803DCA9
:101F800001205149087002E000204F4908704F4875
:101F9000007828B9A9B2A0B205AB1822FFF7F0FA71
:101FA0004B480078B0B9012212A90420FEF751FC79
:101FB0009DF84800012802D09DF8480038B901205A
:101FC00044490870122244490520FEF742FC0120D2
:101FD0003F4908703F48007801286BD19DF83E00CA
:101FE0009DF83D109DF83C203C4B9B78CDE900329C
:101FF000CDE9021039484378C27839A105A802F02A
:10200000C1FB05A93448FEF7F4F8002852D101229B
:1020100010A90320FEF71DFC012211A90420FEF7E0
:1020200018FC9DF8400001280CD19DF844000128BF
:1020300002D09DF8440028B901203149087031A030
:1020400002F090FB0020384908709DF844000128F8
:1020500011D13648007818BB03F01AFC34A002F006
:1020600081FB01203149087018231A468F218C20EA
:10207000FFF7B2F914E09DF8440088B92B480078C6
:1020800001280DD131A002F06DFB02F069FD0020A6
:1020900026490870182319228F218C20FFF79CF9FC
:1020A00003201190012211A90420FEF70FFC00204B
:1020B0000849087013B030BD253032643A253032FB
:1020C000643A2530326400009C0000200C0000209F
:1020D0009D0000200D0000205C01002098000020E1
:1020E0003230253032642D253032642D2530326473
:1020F000253032643A253032643A253032640000AB
:102100000400002073797374656D206D6F64652021
:102110006368616E676520627920736574207469F5
:102120006D65200A00000000700000200F000020F4
:102130006375727461696E206F70656E2066726F70
:102140006D207365742074696D650A00637572741F
:1021500061696E20636C6F73652066726F6D2073AA
:1021600065742074696D650A000000001CB50121CA
:10217000502000F007F91820009001208DF804008D
:1021800000208DF8060003208DF8050001208DF851
:10219000070069460F48FEF716FE4FF400700090E6
:1021A00001208DF8040000208DF8060003208DF832
:1021B000050001208DF8070069460748FEF703FE79
:1021C00018210448FEF775FE4FF400710248FEF72F
:1021D00070FE1CBD001002400018024000BFFEE768
:1021E0003EB541F6FF740121080700F0EBF801202D
:1021F00000F092F8002000F055FB45F220018842E3
:102200003BD0012000F0B2F904E0601C84B20A2047
:1022100002F0D0FC412000F089F90028F5D00CB97B
:1022200001203EBD4FF4807000F0BCF9012000F0A9
:10223000B3F97F200190FF200290002000906846B3
:1022400000F0FEFA04200E4908703A20487032204F
:102250008870002000F09AFB24200A498870022030
:102260004870062008702020C870012000F02AFB6A
:1022700045F22001002000F0D9FC0020D1E7000049
:1022800094000020980000207047000070B50021E5
:1022900000230F22C4781CB3174C246804F4E064B4
:1022A000C4F5E064C4F30721C1F10404E3B20A41B8
:1022B00044789C40E1B28478144021430C07210EFD
:1022C0000E4C05786155047804F01F050124AC40DC
:1022D00005786D11AD0005F1E025C5F8004109E074
:1022E000047804F01F050124AC40054D06787611F2
:1022F00045F8264070BD00000CED00E000E400E071
:1023000080E100E002490143024A11607047000089
:102310000000FA050CED00E001490862704700007A
:1023200000000E42704700001CB50121042000F09F
:1023300029F84FF48050009000208DF8040002200E
:102340008DF8050000208DF8060002208DF80700AA
:1023500069460248FEF737FD1CBD00000008024038
:1023600010B507480068012807D10A2002F022FCB6
:1023700003480068012800D110BD0020FCE70000E0
:102380003002414229B1064A12680243044B1A60E6
:1023900004E0034A12688243014B1A607047000050
:1023A0003038024029B1064A12680243044B1A60D1
:1023B00004E0034A12688243014B1A607047000030
:1023C0003838024029B1064A12680243044B1A60A9
:1023D00004E0034A12688243014B1A607047000010
:1023E0004038024029B1064A12680243044B1A6081
:1023F00004E0034A12688243014B1A6070470000F0
:102400002038024029B1064A12680243044B1A6080
:1024100004E0034A12688243014B1A6070470000CF
:102420004438024029B1064A12680243044B1A603C
:1024300004E0034A12688243014B1A6070470000AF
:1024400024380240F0B50021002200240225002695
:102450000223324F3F6807F00C0121B1042905D057
:10246000082937D105E02E4F076036E02D4F076071
:1024700033E02A4F3F1F3F68C7F38056274F3F1F67
:102480003F6807F03F036EB1264FB7FBF3F7DFF865
:102490008CC0ACF1040CDCF800C0CCF3881C07FB4A
:1024A0000CF40CE01E4FB7FBF3F7DFF870C0ACF193
:1024B000040CDCF800C0CCF3881C07FB0CF4174FAD
:1024C0003F1F3F68C7F301477F1C7D00B4FBF5F752
:1024D000076002E0124F076000BF00BF0F4F3F6868
:1024E00007F0F0010909104F7A5C0768D740476090
:1024F0000A4F3F6807F4E051890A0B4F7A5C47683E
:10250000D7408760054F3F6807F46041490B064F8D
:102510007A5C4768D740C760F0BD000008380240C9
:102520000024F40000127A007800002010B5014663
:102530000022002300204A11012A02D10A4C2368FC
:1025400008E0022A03D1084C7034236802E0064CEC
:102550007434236801F01F02012494401C400CB124
:10256000012000E0002010BD003802400021094A8F
:1025700011701170012802D0042808D103E0012154
:10258000044A117004E00521024A117000E000BF06
:1025900000BF704770380240014908607047000072
:1025A0003C0E4742002100F44072B2F5407F08D152
:1025B000094A116821F4F811084A02401143064AF9
:1025C0001160054A68321268C0F30B031A43024BCC
:1025D00068331A607047000008380240FFFCFF0FA4
:1025E00010B54FF4807000F0ADF801280DD1000255
:1025F00000F032F807A002F0B5F80948006808B901
:10260000012000E00020064908604FF40030FEF78A
:10261000BFFA10BD414C41524D2041210D0A00002E
:10262000A4024342014600BF080900EB80004200BB
:1026300001F00F001044C0B270470146002204E0D0
:10264000501CC2B2A1F10A00C1B20A29F8DA10077F
:1026500041EA10607047000081B241F08001044AF5
:10266000126802F0800262EA0101014A11607047BB
:102670000C280040002101098AB242F08002044B7C
:102680001B6803F0800363EA0202014B1A60704783
:102690000C28004008B50022009200200021104ABA
:1026A000126802F04002CAB9421E0D4B1A6000BF08
:1026B0000B4A126802F04001009A521C0092009AE4
:1026C000B2F5803F01D00029F2D0054A126802F02D
:1026D00040020AB1012002E0002000E0012008BD14
:1026E0000C2800400348006820F080000149086081
:1026F000704700000C28004070B506460C460025C7
:102700000E4800680E4900EA0105280CE070C5F388
:102710000420607005F03F00A070C5F342302070C7
:102720005EB9E078FFF77EFFE0706078FFF77AFF30
:102730006070A078FFF776FFA07070BD042800409D
:102740003FFFFF0010B5014600200022054B1B682B
:10275000054C03EA040202EA01030BB1012000E088
:10276000002010BD0C2800407F3F010070B50646D8
:102770000C4600250F4800680F4900EA0105C5F323
:1027800005402070C5F30620607005F07F00A07042
:1027900005F48000000CE0705EB92078FFF742FF7E
:1027A00020706078FFF73EFF6070A078FFF73AFF77
:1027B000A07070BD002800407F7F7F0010B50446E8
:1027C00004492046FFF798FF03492046FFF7CEFF54
:1027D00010BD00009800002094000020CA22174B72
:1027E0001A6053221A6091B1144A1C3A126820F000
:1027F00004031A43114B1C3B1A60104A1C32126826
:1028000000F004031A430D4B1C331A6011E00B4A0D
:102810001C3A126820F004039A43084B1C3B1A60D0
:10282000064A1C32126800F004039A43034B1C331F
:102830001A60FF22014B1A607047000024280040F4
:1028400030B504460025CA201549086053200860A9
:10285000FFF720FF00B91DE011481C38006820F088
:1028600040000F491C390860084600682168084389
:102870000B491C3908600A491439A06808600846E9
:102880000068A18840EA0140054914390860FFF753
:1028900029FF0125FF2002490860284630BD0000BD
:1028A0002428004008B5014600200090044800900C
:1028B000009800EB810000900098006808BD0000BF
:1028C000502800402DE9F04105460C46002600271F
:1028D0004DB9607800F01000102804D1607820F025
:1028E00010000A30607005B908E06078FFF79AFEC2
:1028F0000646A078FFF796FE064600BF55B1E07881
:102900000004617840EA0120A1780843217840EA78
:10291000413611E0E078FFF790FE4FEA004860781A
:10292000FFF78BFE48EA0028A078FFF786FE48EA0A
:102930000008207848EA4036CA201249086053202F
:102940000860FFF7A7FE08B9002714E00E483040E2
:102950000C4920390860FFF7C5FE0A481C3800689A
:1029600000F0200030B900F0DDF808B9002702E0DF
:10297000012700E00127FF20024908603846BDE832
:10298000F0810000242800403FFFFF002DE9F041C6
:1029900005460C46002600274DB92E48006800F079
:1029A000400000B102E00020E07000BF0DE02948C7
:1029B000006800F0400020B12078FFF733FE0646A3
:1029C00002E00020E07000BF00BF55B12078000495
:1029D000617840EA0120A1780843E17840EA0146A5
:1029E00011E02078FFF729FE4FEA00486078FFF7F2
:1029F00024FE48EA0028A078FFF71FFE48EA0008F6
:102A0000E07848EA0046CA2012491C310860532089
:102A10000860FFF73FFE08B9002713E00E4830407A
:102A20000C4908390860FFF75DFE0A48006800F0AD
:102A3000200030B900F076F808B9002702E001273D
:102A400000E00127FF2003491C3108603846BDE83B
:102A5000F0810000082800407F7F7F00CA21054ADE
:102A6000116053211160034910390860FF21116082
:102A700070470000242800403EB505460C46002063
:102A800000F098F8284600F07DF82046FFF7E6FFB2
:102A90004FF48040FFF7EEFD4FF48000FEF778F82A
:102AA00001218803FFF79AFE012000F083F84FF41C
:102AB0008000019000208DF8080008208DF80900A2
:102AC00001208DF80A0001A8FEF774F803208DF8A4
:102AD000000002208DF801008DF8020001208DF821
:102AE00003006846FFF7D2FB3EBD000010B54FF46F
:102AF0008060FFF727FE01280CD18002FFF7ACFDB4
:102B0000FFF720FA0648006808B9012000E000201D
:102B1000034908604FF48000FEF73AF810BD00004A
:102B20008C02424208B50022009200200021CA22F5
:102B3000134B1A6053221A60114A183A126822F095
:102B4000A0020F4B183B1A6000BF0D4A183A1268DA
:102B500002F02001009A521C0092009AB2F5003F48
:102B600001D00029F1D0064A183A126802F020027A
:102B70000AB1012000E00020FF22014B1A6008BDCD
:102B800024280040CA210A4A1160532111600849D3
:102B90001C39096821F00701054A1C3A11601146E9
:102BA000096801431160FF21014A1160704700006C
:102BB0002428004018B5014600230093002200207D
:102BC000CA23194C23605323236049B1164B1C3B85
:102BD0001B6843F48063144C1C3C236001201FE0FD
:102BE000114B1C3B1B6823F480630F4C1C3C23607F
:102BF00000BF0D4B183B1B6803F00402009B5B1CDD
:102C00000093009BB3F5803F01D0002AF1D0064B22
:102C1000183B1B6803F004030BB9002000E00120FF
:102C2000FF23014C236018BD2428004008B5002272
:102C30000092044A0092009A02EB80020092009AED
:102C4000116008BD502800402DE9F04104460D46B2
:102C50000A48007800F076F806460948007800F047
:102C600071F80746322E01DB322F02DA0020BDE870
:102C7000F08126802F800120F9E700003C01002030
:102C80003D0100207FB504460D4602A903A8FFF7C9
:102C9000DBFF064616B9002004B070BD694601A8E6
:102CA000FFF7D2FF06460EB90020F5E7BDF8040095
:102CB000BDF80C10884206DCBDF80C10BDF804000D
:102CC000323081420CDBBDF80C00BDF804108842A4
:102CD00036DCBDF80410BDF80C00323081422FDA2A
:102CE000BDF80000BDF80810884206DCBDF80810E9
:102CF000BDF80000323081420CDBBDF80800BDF8A1
:102D0000001088421CDCBDF80010BDF8080032300D
:102D1000814215DABDF80C10BDF80420881800EBCC
:102D2000D071C1F34F012180BDF80810BDF800201B
:102D3000881800EBD071C1F34F0129800120ABE767
:102D40000020A9E72DE9FE4380460027002406E085
:102D5000404600F0C1FA2DF81400601C84B2052C26
:102D6000F6DB002416E0601C85B20FE03DF814008D
:102D70003DF81510884207DD3DF814603DF8150058
:102D80002DF814002DF81560681C85B2052DEDDBBB
:102D9000601C84B2042CE6DB0027012405E03DF82A
:102DA0001400384487B2601C84B2042CF7DB032083
:102DB00097FBF0F086B23046BDE8FE8370B505465D
:102DC0002846FDF70FFA86B200240CE000BF402130
:102DD000064801F075FA0028F9D0295D034801F092
:102DE0003AFB601C84B2B442F0DB70BD004C004082
:102DF0002DE9F04FAFB04FF00008062500264FF048
:102E00000009282111A8FDF7E2F903200690001F10
:102E100005900320049000274FF47840F84908807B
:102E20000020FFF7CBFC00F059FEF64A00210846CF
:102E300002F004F8012204A90420FDF70AFD9DF820
:102E40001000012802D09DF8100060BB0A2207A9DB
:102E50000520FDF7FEFC642001F0ACFE082211A95C
:102E60000F20FDF7F6FC4FF6FF701F2107AB18226D
:102E7000CDE9001039214620FEF7A4FB4FF6FF7084
:102E80001F2111AB1822CDE9001051214620FEF779
:102E900099FB01279DF8100030B9182319226C21E5
:102EA0006E20FEF799FA09E09DF81000012805D17F
:102EB00018231A466C216E20FEF78EFA9AE1002044
:102EC00002F03CF8701CC6B2002001F0C7FBCE48EF
:102ED0000068012800D162E0CC480088002812DD9B
:102EE000CA48008824280EDAC948008800280ADD6C
:102EF000C7480088262806DAC82001F05BFE0020BB
:102F0000C449087077E1C14800881E2817DDBF4812
:102F10000088562813DABE48008891280FDDBC4887
:102F20000088B7280BDAC82001F044FE3FB9182307
:102F30001A466C216E20FEF74FFA01200690B34826
:102F400000889A2817DDB1480088D22813DAB048E3
:102F5000008891280FDDAE480088B7280BDAC8201A
:102F600001F028FE3FB9182319226C216E20FEF7CC
:102F700033FA00200690A5480088C52825DDA3481F
:102F80000088F02821DAA248008800281DDDA0482A
:102F900000882B2819DAC82001F00CFE00BF0020A1
:102FA00099490860974A0021084601F047FF4FF011
:102FB000000803200390012203A90420FDF786FCEA
:102FC00000209549087000270590B8F1000F03D044
:102FD000B8F1010F0AD119E090480078042806D111
:102FE0008F480088FA2802DD4FF00108FEE0322009
:102FF00096FBF0F100FB116038B9B9F1000F04D174
:103000000020FFF7DBFB00F069FDEFE0854800786A
:10301000032804D1681CC5B2052D00DD002531460A
:103020002846FDF747FA7F48007804287AD100F057
:10303000CDFD7D48807800907B484378C2787BA1A5
:1030400007A801F09FFB7E48807800907C48437879
:1030500002787CA111A801F095FB0020FFF7AEFBE0
:1030600071488078009070484378C2786FA125A895
:1030700001F088FB724880780090714843780278AC
:1030800070A11BA801F07EFB25A907A8FDF7B1F8E8
:10309000002802DD012005903AE025A907A8FDF7E8
:1030A000A8F8F8B91BA911A8FDF7A3F8002802DDBC
:1030B000012005902CE04FF6FF701F2165A3182218
:1030C000CDE900104FF48C711E20FEF77BFA00242E
:1030D00004E00A2001F06EFD601CC4B2C82CF8DBCD
:1030E000002715E04FF6FF701F215FA31822CDE9DE
:1030F00000104FF48C711E20FEF764FA002404E0E7
:103100000A2001F057FD601CC4B2C82CF8DB002770
:103110000598012869D19DF8180003284BD09DF827
:10312000181000E061E055A001F01CFB4FF6FF70A5
:103130001F215CA31822CDE900104FF48C711E20D2
:10314000FEF740FA012206A90420FDF7BFFB07A8FD
:10315000FDF748F81FFA80FA524607A90520FDF747
:10316000B5FB322001F026FD11A8FDF73BF81FFA50
:1031700080FA524611A90F20FDF7A8FB322001F07A
:1031800019FD07A8FDF72EF8834611A8FDF72AF8C8
:1031900058441FFA80FA524648490520FDF759FB6A
:1031A00001201D490870012703200690002005908A
:1031B000002580461AE04FF6FF701F2140A3182219
:1031C000CDE900104FF48C710020FEF7FBF90024CC
:1031D00004E00A2001F0EEFC601CC4B2C82CF8DB4D
:1031E000084A0021084601F029FE00BF00BF052063
:1031F00001F0E0FC63E600BF2FB0BDE8F08F0000F7
:10320000200100206C7C0008080000203401002010
:10321000360100200C0000200D0000208C00002052
:103220008A000020880000209800002032302530DD
:1032300032642D253032642D2530326400000000C8
:1032400094000020253032643A253032643A25302B
:1032500032640000506C656173652052657365745B
:103260002074696D65000000506C656173652052C3
:103270006573657420646174650000007365742073
:10328000616E642063686F6F7365206F6BA3AC63BE
:1032900075727461696E5F7374617475733D202516
:1032A00064200A0041646A7573742054494D204FAC
:1032B0004B20202020202020202020005C01002006
:1032C000506C656173652063686F6F7365206F6E06
:1032D0002F6F66660000000070B5064600250024CA
:1032E00000201E4908601E49C1F884021D4908607B
:1032F000304600F03BF8062001F082FC00201A491D
:10330000C1F89402012001F07BFC01201349086000
:1033100001F076FC00201449C1F8940200BF15E0CA
:103320004FF6FF7000EA440400200C4908600120B9
:1033300001F066FC01200C49C1F894020948783874
:10334000006808B1601C84B2681CC5B2102DE7DBB0
:103350002411012003490860204670BD94024042B8
:1033600000804042808240420000404270B50446E6
:10337000002500BF17E004F0800018B101200B49C0
:10338000086002E00020094908606006040E002081
:1033900007490860012001F033FC01200549C1F80C
:1033A0009402681CC5B2082DE5DB70BD84824042E2
:1033B00094024042000040427047000030B50022B5
:1033C0008B071C0F0F2303FA04F20B4B8C1053F8DE
:1033D00024309343084C8D1044F8253023468C103C
:1033E00053F824308C07240F00FA04F42343024CD2
:1033F0008D1044F8253030BD083801400CB5002050
:10340000019000903448006840F4803032490860F0
:1034100000BF3148006800F4003000900198401C63
:103420000190009818B90198B0F5A04FF1D12A4841
:10343000006800F4003010B10120009001E000208D
:1034400000900098012846D123484030006840F0A1
:1034500080502149403108602048006840F44040D5
:103460001E4908601C48083000681B490831086084
:103470000846006840F4004008600846006840F4D0
:10348000A05008601648091F0860081F006840F037
:103490008070091F086000BF0F48006800F00070CE
:1034A0000028F9D040F205700E4908600A4808303B
:1034B000006820F0030008490831086008460068E9
:1034C00040F00200086000BF03480830006800F0C8
:1034D0000C000828F8D10CBD0038024000700040F4
:1034E00008544007003C024010B504468CBB002045
:1034F000334908703348008849F24131884210D17D
:103500002C20314908802A20304908802B2030495E
:103510000880F0202F4908804FF4A0702E490880C1
:1035200049E02848008841F66311884243D12C20A5
:10353000254908802B20254908802A202449088015
:103540004FF4F070234908804FF4487022490880F6
:1035500031E0FFE701201A4908701A48008849F253
:103560004131884210D12C20174908802A20174960
:1035700008802B20164908804FF4A0701549088058
:10358000F0201549088016E00E48008841F66311C6
:10359000884210D12C200C4908802A200B49088031
:1035A0002B200B4908804FF448700A4908804FF4DB
:1035B000F07009490880002000F010F810BD0000EC
:1035C00026010020240100202C0100202E010020D3
:1035D00030010020280100202A01002070B5054696
:1035E0000024002630480078012805D12F480088A3
:1035F00049F24131884208D02B480078F0B92B4875
:10360000008841F66311884218D1082D15D2DFE8F1
:1036100005F00406080A0C0E101206250DE0072519
:103620000BE0042509E0052507E0012505E000255C
:1036300003E0032501E0022500BF00BF082D1CD2D6
:10364000DFE805F00406090C0F12151800BF14E09E
:1036500044F0800411E044F040040EE044F0C00463
:103660000BE044F0200408E044F0600405E044F07E
:10367000A00402E044F0E00400BF00BF36260B487F
:10368000008849F24131884201D144F008042146C2
:103690003046FEF7B7F9064803880648028800213D
:1036A0000846FEF7D9F870BD26010020240100204D
:1036B0002A01002028010020BE21074A118005218F
:1036C000921C11801146088001211180FF21118078
:1036D0000021118011807047FE1F006C042808D162
:1036E0004FF0E021096941F004014FF0E02211613F
:1036F00007E04FF0E021096921F004014FF0E022DA
:103700001161704702480068401E01490860704717
:103710007400002010B51548006840F4700013498B
:1037200008601348006840F001001149086000205B
:103730000F49083108600E4800680E4908400C49DE
:1037400008600D48091D0860081F006820F48020EB
:10375000091F0860002006490C310860FFF74EFE83
:103760004FF0006001498039086010BD88ED00E02D
:1037700000380240FFFFF6FE1030002410B504466A
:103780006FF00400FFF7AAFFE11704EB5171C1F3DA
:10379000C701074A11701046007800EB4001C1EBE9
:1037A000C0104FF6FF7101EAC0000249088010BD49
:1037B000520100205401002010B50121880700F0BB
:1037C00030F9012810D10B480068401C18B90120BD
:1037D0000849086008E008A000F0C4FF0CA0FFF74B
:1037E000EDFA00200B4908600121880700F00AF972
:1037F00010BD000050000020BCECB2E2CAA7B0DC53
:1038000020C6F4B6AFBFB4C3C5B9B70A0000000004
:103810002B2B2B00340000207FB505460C460121E0
:103820000846FEF7CFFD0295ADF804400020ADF844
:103830000600ADF80C0001A94FF0804000F00CF933
:103840001C208DF8000001208DF8010002208DF869
:10385000020001208DF803006846FEF717FD0121E4
:10386000880700F0D2F801221146900700F0EAF82C
:103870000121880700F0C6F87FBD000010B50121C6
:103880001D4800F0CEF8012830D11C48006820B94E
:103890001B480068401C1A49086019480068022843
:1038A0000AD140F6C4110420FDF7C8FC01201349D9
:1038B000086000201249086012480068012815D1EC
:1038C00011480068401C10490860084600680A2832
:1038D0000CD1002008600D4801F0CEF90B48FFF72D
:1038E0006DFA0B48007808B9FEF778FA0121024812
:1038F00000F088F810BD00000004004048000020DF
:1039000044000020340000204C0000201000002063
:103910000C0000207FB505460C4601210220FEF771
:1039200051FD0295ADF804400020ADF80600ADF859
:103930000C0001A90F4800F08FF81D208DF8000041
:1039400001208DF8010003208DF8020001208DF880
:1039500003006846FEF79AFC0121064800F055F87E
:1039600001221146034800F06DF80121014800F0E2
:1039700049F87FBD0004004010B50121074800F060
:1039800050F8012805D106480068012801D101F04E
:103990005DF90121014800F035F810BD0008004034
:1039A000340000207FB505460C4601210420FEF7B7
:1039B00009FD0295ADF804400020ADF80600ADF811
:1039C0000C0001A90E4800F047F81E208DF80000F9
:1039D00001208DF801008DF802008DF80300684683
:1039E000FEF754FC0121064800F00FF801221146B1
:1039F000034800F027F80121014800F003F87FBDDB
:103A000000080040CA430282704721B1028842F098
:103A10000102028004E002884FF6FE731A40028021
:103A2000704730B50246002000230024158A05EABD
:103A30000103958905EA010413B10CB1012000E0EE
:103A4000002030BD1AB183890B43838102E0838952
:103A50008B4383817047000000220288184B9842F4
:103A60000ED0184B98420BD0B0F1804F08D0164BB7
:103A7000984205D0154B984202D0154B984204D17C
:103A80004FF68F731A404B881A43124B984207D057
:103A9000114B984204D04FF6FF431A400B891A434A
:103AA00002804B68C3620B880385054B984202D0A5
:103AB000044B984201D18B7A03860123838270479D
:103AC00000000140000401400004004000080040E4
:103AD000000C004000100040001400401CB51823EA
:103AE0000022DC211E20FDF777FC18230122DC21B7
:103AF0003620FDF771FC2DA31822DC214E20FDF7A6
:103B00003FFD01201821CDE900102B48C278022387
:103B1000DC217220FDF7CCFC01201821CDE900103A
:103B2000254842780223DC219620FDF7C1FC0120C4
:103B30001821CDE90010204882780223DC21BA2028
:103B4000FDF7B6FC18230222FA211E20FDF744FCE3
:103B500018230322FA213620FDF73EFC17A3182272
:103B6000FA214E20FDF70CFD01201821CDE90010AF
:103B7000154802780223FA215A20FDF799FC01200A
:103B80001821CDE90010104842780223FA217E2046
:103B9000FDF78EFC01201821CDE900100A4882783B
:103BA0000223FA21A220FDF783FC1CBD3A3230200B
:103BB000202D20202D202000980000203A20203A9F
:103BC00020203A2020000000940000201CB527A3EC
:103BD000182239214620FDF7D3FC01201821CDE918
:103BE00000102548C278022339215E20FDF760FCD1
:103BF00001201821CDE900101F4842780223392105
:103C00008220FDF755FC01201821CDE900101A484B
:103C1000827802233921A620FDF74AFC17A3182237
:103C200051214620FDF7ACFC01201821CDE9001000
:103C300015480278022351214620FDF739FC012066
:103C40001821CDE9001010484278022351216A2042
:103C5000FDF72EFC01201821CDE900100A488278DA
:103C6000022351218E20FDF723FC1CBD3230202081
:103C70002D20202D202000009800002020203A2018
:103C8000203A2020000000009400002010B50448D5
:103C9000008849F24131884201D100F063FC10BD37
:103CA0002401002010B588B0044601210846FEF723
:103CB00069FB01211020FEF7A5FB01218803FEF717
:103CC000A1FB072209212248FDF7C5F807220A2196
:103CD0001F48FDF7C0F84FF4C060069002208DF831
:103CE0001C008DF81D0000208DF81E0001208DF8AD
:103CF0001F0006A91648FDF766F802940020ADF8EB
:103D00000C00ADF80E00ADF81000ADF814000C205A
:103D1000ADF8120002A90F4800F02EFB25208DF807
:103D2000040002208DF805008DF8060001208DF8B2
:103D3000070001A8FEF7AAFA012240F22551054822
:103D400000F0F5FA0121034800F036FA08B010BD82
:103D50000000024000100140F8B500250520009049
:103D600040F22551BF4800F0B8FA002874D0BD4891
:103D700000F06CFB044600BF4021BB4800F0A0FAF5
:103D80000028F9D02146B84800F065FBB748006824
:103D9000E0B93E2C19D10020B54908600120B34993
:103DA000086000F053FF42F2CF0149F63F40FFF7B1
:103DB000F9FD42F2CF0142F20F70FFF7ABFD002098
:103DC000AC4908600120AC49086044E1A74800689C
:103DD0000128FAD1A948007810B1012841D141E069
:103DE0007B2C0DD1A648006808B9012000E0002016
:103DF000A3490860A1480078401CA049087030E041
:103E0000A049A14A12688C549F480068401C9E49F2
:103E1000086008460068401E9A49085C6B2820D15B
:103E20000020994A1268885498A19648FCF7E1F955
:103E3000B8B90020944908609249087048708870A9
:103E40009348006848B901209149086042F2CF01C7
:103E50009048FFF7E1FC04E002E100204FF08041D0
:103E60004862F7E08748884A1268845486480068A8
:103E7000401C8549086008460068401E8149085C6E
:103E80007D286FD1002180480068401E7D4A115472
:103E90007B48001D006808B9012000E00020784937
:103EA000091D08607748FCF79DF9064632467549BA
:103EB00079A000F057FC7FA17248FCF79AF9F0B99D
:103EC000012269460320FCF7C4FC9DF8000000288D
:103ED00014D17A4800780028FAD101207749087077
:103EE00018231A468F218C20FDF776FA01F0D0FCBA
:103EF00001207249087072A000F034FC9CE077A1A8
:103F00006048FCF776F9D8B9012269460320FCF72E
:103F1000A0FC9DF800000028F0D168480078012836
:103F2000ECD1002065490870182319228F218C20BC
:103F3000FDF752FA00F014FE6BA000F013FC7BE0DA
:103F400070A15048FCF755F968B901226946032071
:103F5000FCF77FFC9DF8000000286DD101206C4922
:103F6000086069E075E06BA14648FCF742F958B972
:103F7000012269460320FCF76CFC9DF80000012833
:103F80005AD16349086057E065A13E48FCF731F912
:103F9000002851D065A13B48FCF72BF978B90420E3
:103FA000009001226946FCF791FC634800780128E3
:103FB00001D1624908600020614908703CE061A1BC
:103FC0003048FCF716F988B96148007828BB1823F7
:103FD0001A464FF48471CD20FDF7FEF901205C49AB
:103FE000087001220220FCF771FC25E059A1254848
:103FF000FCF7FFF890B95648007801281CD1182327
:1040000019224FF48471CD20FDF7E6F900205049C4
:10401000087001220220FCF759FC0DE050A119485C
:10402000FCF7E7F840B9514800F026FE4F48FEF78C
:10403000C5FE4FA000F096FB002503E000201149CB
:1040400048556D1C322DF9DB00200F4908600B49E3
:10405000087000BF00BF40F22551024800F09DF8F3
:10406000F8BD0000004C004000100140300000206E
:10407000A4024342240400403400002040000020F9
:104080008C0242426E0100202C0000206F6B000069
:1040900038000020DF2202006F72646572206672B1
:1040A0006F6D20736572766572203D2025733D2506
:1040B00064200A00637572745F6F6E000F00002049
:1040C000206F70656E206375727461696E20667210
:1040D0006F6D207365727665720A00006375727485
:1040E0005F6F666600000000636C6F736520637528
:1040F000727461696E2066726F6D20736572766589
:10410000720A0000736D6172745F6F6E00000000D0
:1041100004000020736D6172745F6F6666000000BA
:1041200073657474695F6F6E20000000736574744A
:10413000695F6F66660000000C0000200800002028
:104140000D000020616C61726D5F6F6E00000000F9
:104150000E000020616C61726D5F6F66660000008A
:104160007570646174655F6F6E0000001000002060
:104170007570646174655F6F6E20737563636573DA
:104180007366756C0A00000001F40072B2F5007FDE
:1041900000D100BFCA430280704710B5002200233F
:1041A00040F66A14A14200D100BF0A1201249440D3
:1041B000A3B2DC43048010BD21B1828942F40052D5
:1041C000828104E082894DF6FF731A408281704734
:1041D00010B504463248844208D101211020FEF770
:1041E00021F900211020FEF71DF957E02D488442E7
:1041F00009D101214804FEF7F5F800214FF4003001
:10420000FEF7F0F84AE02848844209D101218804E9
:10421000FEF7E8F800214FF48020FEF7E3F83DE0D8
:104220002248844209D10121C804FEF7DBF80021AD
:104230004FF40020FEF7D6F830E01D48844209D143
:1042400001210805FEF7CEF800214FF48010FEF79B
:10425000C9F823E01748844208D101212020FEF745
:10426000E1F800212020FEF7DDF817E01248844233
:1042700009D101218807FEF7B5F800214FF08040F1
:10428000FEF7B0F80AE00D48844207D1012140054D
:10429000FEF7A8F800216005FEF7A4F810BD0000A5
:1042A000001001400044004000480040004C004025
:1042B000005000400014014000780040007C0040A5
:1042C00002460020B1F5007F00D100BF13880B40EB
:1042D0000BB1012000E00020704770B502460024B9
:1042E00000230025002040F66A16B14200D100BF2D
:1042F000C1F3421501F01F03012606FA03F3012D55
:1043000002D19689334006E0022D02D1168A33404D
:1043100001E0968A33400C12012606FA04F416884E
:10432000344013B10CB1012000E0002070BDF0B5A5
:104330000346002400260025002040F66A17B942F3
:1043400000D100BF1846C1F3421401F01F06012737
:1043500007FA06F5012C01D10C3004E0022C01D142
:10436000103000E014301AB107682F43076002E0F4
:104370000768AF430760F0BD2DE9FF4705460E46CD
:104380000024A14600BFA046B08900B100BF2C8A1E
:1043900024F44054F08804432C82AC8941F20C6030
:1043A0008443B08831890843718908430443AC8150
:1043B000AC8A24F44074B0890443AC826846FEF7AA
:1043C00041F82048854202D01F48854202D1DDF8DD
:1043D0000C9001E0DDF80890A88900F4004040B19D
:1043E00009EBC90000EB091031684900B0FBF1F797
:1043F00007E009EBC90000EB091031688900B0FB48
:10440000F1F76420B7FBF0F004012009642101FBFF
:104410001078A88900F4004040B1322000EBC800B9
:10442000B0FBF1F000F00700044308E0322000EB9D
:1044300008106421B0FBF1F000F00F0004432C8160
:10444000BDE8FF8700100140001401400146888844
:10445000C0F308007047C1F308028280704700BFB4
:10446000FEE7000010B54FF4FA7000F0A3FB4FF424
:10447000FA7000F09FFB3548FEF7A0FC4FF4FA708D
:1044800000F098FB4FF4FA7000F094FB4FF4FA70D0
:1044900000F090FB2E48FEF791FC4FF4FA7000F00C
:1044A00089FB4FF4FA7000F085FB4FF4FA7000F0CE
:1044B00081FB4FF4FA7000F07DFB4FF4FA7000F0CE
:1044C00079FB4FF4FA7000F075FB4FF4FA7000F0CE
:1044D00071FB4FF4FA7000F06DFB4FF4FA7000F0CE
:1044E00069FB4FF4FA7000F065FB1A48FEF766FCB2
:1044F0004FF4FA7000F05EFB4FF4FA7000F05AFBD4
:104500004FF4FA7000F056FB1348FEF757FC4FF4D7
:10451000FA7000F04FFB4FF4FA7000F04BFB0F48BD
:10452000FEF74CFC4FF4FA7000F044FB4FF4FA70C5
:1045300000F040FB0A48FEF741FC4FF4FA7000F02F
:1045400039FB4FF4FA7000F035FB10BD9E000020DF
:10455000AC000020CA000020F20000200101002071
:104560000E0100201CB501212720FDF70BFF0420C0
:10457000009000208DF804008DF8060003208DF8CF
:10458000050001208DF8070069462648FCF71BFC52
:104590004FF40060009069462348FCF714FC0320A8
:1045A000009001208DF8040069461E48FCF70BFCC2
:1045B0002020009069461D48FCF705FC1C48007847
:1045C000C0B190201B490870D0201B4908709FED96
:1045D0001B0A1B4880ED000A9FED1A0A1A4880ED5D
:1045E000000A4FF4AE70194908806FF012001849A4
:1045F000088016E0D0200F49087090200E490870FE
:104600009FED140A0E4880ED000A9FED130A0E4834
:1046100080ED000A6FF00A000C490880C01F0C49A9
:1046200008801CBD0004024000140240000002404B
:10463000260100203C0100203D0100206452BCBD49
:10464000400100207BF5893D440100204801002005
:104650004A010020DA9F883D3ABABA3D10B50446B7
:104660004FF6FF70334908803349088033480068AB
:10467000002848D124B132493248FEF703FB34E028
:104680002F493048FEF7FEFA78B32F48B0F9000002
:1046900000EE100AB8EEC00A2C4890ED001A294826
:1046A000008800EE900AF8EE600A01EE200ABCEEE7
:1046B000C00A10EE100A234908802548B0F900000E
:1046C00000EE100AB8EEC00A224890ED001A1C480D
:1046D000008800EE900AF8EE600A01EE200ABCEEB7
:1046E000C00A10EE100A16490880164800881A49B8
:1046F0000880134800881949088019480078401C30
:104700001749087014E016480078022807DD0D48A4
:104710000088084908800A48008807490880002066
:104720000F4908704FF6FF700B4908800B4908804D
:1047300010BD0000380100203A0100202C824242C6
:104740004E0100204C0100204801002040010020C3
:104750004A010020440100203401002036010020DD
:10476000500100200FB4054B10B503A9044A02986C
:1047700000F02CF810BC5DF814FB0000554C00084C
:10478000580100200FB4084B10B504A902AA0398E1
:1047900000F01CF8044602A9002000F0B8F92046F9
:1047A00010BC5DF814FB00000F4B000802E008C8C5
:1047B000121F08C1002AFAD170477047002001E09B
:1047C00001C1121F002AFBD1704700002DE9FF4FE5
:1047D0008BB088460546002606E025280BD0DDE98B
:1047E0000D1290476D1C761C28780028F5D10FB06B
:1047F0003046BDE8F08F0024A146A2460122AE4912
:1048000000E0044315F8013F203B02FA03F00842A0
:10481000F7D128782A2810D06FF02F022878A0F13D
:104820003001092915D809EB890102EB410144F057
:10483000020400EB01096D1CF0E758F8041B5FEA65
:10484000010903D544F40054C9F1000944F00204FD
:104850006D1C28782E2817D115F8010F44F0040498
:104860002A280ED06FF02F022878A0F130010929F4
:104870000AD80AEB8A0102EB410100EB010A6D1C28
:10488000F2E758F804AB6D1C28786C280FD006DCD2
:104890004C2817D068280DD06A2814D104E0742859
:1048A00010D07A280FD10DE044F400140AE044F44B
:1048B000801401E044F440146978814202D104F587
:1048C00080146D1C6D1C2878692865D006DC0028D2
:1048D0008DD0632827D0642806D15DE06E2808D0EB
:1048E00073282AD0752877D0DDE90D129047761C01
:1048F000E0E0C4F30250022809D003280DD0D8F814
:10490000001004280DD00E6008F10408D2E0D8F899
:104910000010F217C1E90062F6E7D8F800100E8027
:10492000F2E70E70F0E718F8041B8DF80010002075
:104930008DF80100EB46012003E058F804BB4FF06E
:10494000FF3061074FF0000701D40AE07F1C574594
:104950000DDA8742FADB1BF807100029F6D106E0D2
:104960007F1C8742FCDB1BF807100029F8D1DDE92A
:104970000D23A9EB07008146214600F0B1F8304431
:10498000C61904E0DDE90D121BF8010B90477F1EEC
:10499000F8D22146484688E058F8040BC4F3025187
:1049A0004FF00A0B032900D100B2042900D140B214
:1049B000002802DA40422D2102E0210505D52B21F5
:1049C0008DF82410012104E006E0E10710D0202139
:1049D000F6E708AF089113E058F8040BC4F302514E
:1049E0004FF00A0B032900D180B2042900D1C0B2D4
:1049F0000021EEE75946FBF70AFC303107F8011DAC
:104A00000028F7D1ADEB070000F1200B600702D5BD
:104A100024F4803401E04FF0010ADA4502DDAAEB0C
:104A20000B0000E00020824600EB0B0108980144D7
:104A3000A9EB01000A90E00306D4DDE90D2321462D
:104A40000A9800F04DF806444FF0000908E009A963
:104A500011F80900DDE90D12904709F10109761CF2
:104A600008998945F3DBE0030CD5DDE90D232146E8
:104A70000A9800F035F8064404E0DDE90D12302014
:104A80009047761CBAF10001AAF1010AF5DC05E0B5
:104A9000DDE90D1217F8010B9047761CBBF1000100
:104AA000ABF1010BF4DC0A982146DDE90D2300F09F
:104AB00005F806446D1C97E6092801002DE9F04130
:104AC000044600251E461746880404D405E03946EE
:104AD0002020B0476D1C641EF9D52846BDE8F08142
:104AE0002DE9F041044600251E469046C80301D535
:104AF000302700E02027880404D505E041463846E9
:104B0000B0476D1C641EF9D52846BDE8F0810A68DF
:104B1000531C0B601070704710B50024FDF720FC8B
:104B20000446012C0AD107480078012802D106A0CA
:104B3000FFF718FE35200949487602E03020074982
:104B4000487610BD0E0000206265657020697320F4
:104B500072696E67696E670A00000000100000202D
:104B600010B501200649086000200649C1F8AC02D2
:104B700001200549086005A0FFF7F4FD10BD000005
:104B8000A88240420080404298024142656C6563C1
:104B900074726963616C206D6F746F7220636C6FE7
:104BA0007365207375636365737366756C6C790ADE
:104BB000000000000146114A12884A434FF0E023EA
:104BC0005A6100229A611A46126942F001021A6182
:104BD00000BF4FF0E022106900F001021AB100F4AA
:104BE0008032002AF5D04FF0E022126922F0010253
:104BF0004FF0E0231A6100229A61704754010020AF
:104C00000146114A12784A434FF0E0235A610022CC
:104C10009A611A46126942F001021A6100BF4FF010
:104C2000E022106900F001021AB100F48032002A7B
:104C3000F5D04FF0E022126922F001024FF0E0239C
:104C40001A6100229A6170475201002010B5FCF7EA
:104C5000DBFA10BD70B504460D46A1B20548FFF75A
:104C6000FAFB00BF80210348FFF72AFB0028F9D098
:104C7000204670BD001001402DE9FF41044600268A
:104C8000002700BF00BF00200390052002900320F2
:104C90000190009014210920FCF726F98046C8F500
:104CA0008051642201FB02F0C11700EB11510D137A
:104CB0000A2096FBF0F0303060700A2096FBF0F18D
:104CC00000FB11603030A0700A2097FBF0F030300C
:104CD00020710A2097FBF0F100FB117030306071F9
:104CE0000A2095FBF0F03030E0710A2095FBF0F1DE
:104CF00000FB1150303020723B490D70084601789E
:104D00003AA0FFF72FFD012203A91046FBF7A1FDF2
:104D10009DF80C00012804D0022807D003280FD1E9
:104D200009E03420A0723020E07209E03620A07241
:104D30003020E07204E03920A0723020E07200BF21
:104D400000BFE17AA07A303800EB800001EB400030
:104D500030382C490870084601782BA0FFF702FD77
:104D60002F480078012803D131206073607405E07A
:104D70002B48007810B9302060736074012202A9BA
:104D80000320FBF766FD9DF80800012802D13120C1
:104D9000E07301E03020E073012201A90220FBF75B
:104DA00058FD9DF80400012802D13120E07401E093
:104DB0003020E074012269460420FBF74AFD9DF88B
:104DC0000000012802D09DF8000010B93120607564
:104DD00001E0302060753020E075214611A0FFF71A
:104DE000C1FCBDE8FF810000000000206C6967681D
:104DF000745F737472656E675F6E6F77203D2025F8
:104E0000640A0000010000206C696768745F7374B5
:104E100072656E675F736574203D202564200A000B
:104E20000F000020CBF9B2C9BCAFB5C4CAFDBEDDCE
:104E300064617461203D202573200A002DE9FC4146
:104E400006460F4614464FF00808254604EB0800B6
:104E50002978CDE90010AB886A883946304600F0E1
:104E600011F8BDE8FC8110B502462AB111F8014BDA
:104E700020020B78184304E011F8010B0B7840EA8C
:104E8000032010BD2DE9F05F81468A4615461E4677
:104E9000DDE90A784FF0000B2448008841F66311E1
:104EA00088421ED007F0030068B90020FEF796FB89
:104EB00033462A4651464846FCF7CEFC5146484602
:104EC000FCF72AFD16E00420FEF788FB33462A464D
:104ED00051464846FCF7C0FC51464846FCF71CFDCD
:104EE00008E00020FEF77AFB33462A465146484642
:104EF000FCF7B2FCFCF77CFD05FB06FB002409E097
:104F000007F010004146FFF7AEFF0949088008F19D
:104F10000208641C5C45F3D30648038806480288EF
:104F200000210846FCF798FCBDE8F09F2401002012
:104F30000020006C2A0100202801002010B5044642
:104F40000020364908704FF400713548FBF7A6FF82
:104F500080B14FF480713248FBF7A0FF50B180213F
:104F60002F48FBF79BFF28B140212D48FBF796FF08
:104F7000002843D14FF400712948FBF78FFF18B97F
:104F80000120284908701AE04FF480712448FBF78B
:104F900085FF18B902202349087010E080212048BD
:104FA000FBF77CFF18B903201E49087007E0402179
:104FB0001B48FBF773FF10B904201A490870194801
:104FC000007819490978884210D118480088401C97
:104FD000164908801348007815490870ECB9134841
:104FE0000088012819DD0020087016E000200F4914
:104FF00008800C4800780C4908700EE00B480088C7
:10500000022803DD0748007804490870002006499B
:105010000870064908800649087010BD8900002004
:10502000001402408C0000208D0000208A00002027
:105030008800002092B000BF00BF00BF00BF00BFCB
:1050400000201090FE4A07CA0DAB07C300200C9049
:10505000A820FEF793FBFBF777FCFDF787F8FCF73A
:10506000FFF8FBF7F1FD4FF4E130FEF71BFEF5A072
:10507000FFF778FB4FF4A060FDF744F9FBF760FC05
:105080000AE0F3A0FFF76EFBF648006808B90120BC
:1050900000E00020F3490860FBF7C4FB0028F0D1D2
:1050A000FDF742F9FBF7C4F914210920FBF71CFFB7
:1050B0000446C4F58051642201FB02F0C11700EBE5
:1050C0001151C1F30731E84A1170FDF789F8002149
:1050D0000420FDF7D1FC42F2CF014CF24F30FEF735
:1050E00019FC4FF4E130FBF78BFCFFF7BBF9FCF741
:1050F00091FCFEF7CBFDDDA0FFF734FBFBF750FC86
:10510000012211A91046FBF7A4FB9DF844000128D9
:105110000ED09DF8440002280AD09DF844000328D0
:1051200006D001201190012211A91046FBF7CEFBF9
:105130000122D0490220FBF78CFBCE48007850B109
:10514000CC480078012806D00020CA490870012206
:105150000220FBF7BBFB012211A90320FBF779FB1F
:105160009DF8440050B19DF84400012806D000206D
:105170001190012211A90320FBF7A8FB23E39DF85E
:105180004400002873D0012872D1BB490870BB4A83
:1051900000210846FFF752FEFCF720FE0BA9002075
:1051A000FDF7E4FA9DF82E0000909DF82D309DF853
:1051B0002C20B3A101A8FFF7E5FA01AB182240F2B9
:1051C00027118E20FCF7DCF901220CA91046FBF711
:1051D00040FB9DF83000012806D1182315229421A8
:1051E000A720FCF7F9F814E09DF83000022806D15A
:1051F000182316229421A720FCF7EEF809E09DF869
:105200003000032805D1182317229421A720FCF78A
:10521000E3F89F48007830B918231922B921872074
:10522000FCF7DAF809E09A480078012805D118233C
:105230001A46B9218720FCF7CFF80B200D900C20DF
:105240000E900DAB1822DF218720FCF70FF9012209
:1052500088490220FBF7FDFA8648007848B91823F0
:1052600019224FF48471CD20FCF7B6F80CE073E1FD
:10527000A8E280480078012806D118231A464FF486
:105280008471CD20FCF7A8F863E10020FFF7E6F970
:1052900080480088802845DD7E480088A42841DABF
:1052A0007D4800888F283DDD7B480088B32839DAA7
:1052B000C820FFF77FFC9DF83000401CC0B20C9066
:1052C0009DF83000032808DD01200C9018231522DA
:1052D0009421A720FCF780F81FE09DF830000128FA
:1052E00006D1182315229421A720FCF775F814E0A5
:1052F0009DF83000022806D1182316229421A720F9
:10530000FCF76AF809E09DF83000032805D118235E
:1053100017229421A720FCF75FF801220CA9104660
:10532000FBF7D4FA5B480088C32845DD594800885C
:10533000E72841DA584800888F283DDD5648008824
:10534000B32839DAC820FFF735FC9DF83000401E3D
:10535000C0B20C909DF83000012808DA03200C90B0
:10536000182317229421A720FCF736F81FE09DF898
:105370003000012806D1182315229421A720FCF71C
:105380002BF814E09DF83000022806D118231622CD
:105390009421A720FCF720F809E09DF830000328AD
:1053A00005D1182317229421A720FCF715F8012214
:1053B0000CA91046FBF78AFA38480068012800D18A
:1053C00013E03448008805281ADD324800882D286B
:1053D00016DA31480088CE2812DD2F480088F628DA
:1053E0000EDAC820FFF7E6FB00BF00202B4908605B
:1053F00011901090012210A90320FBF767FAA9E091
:1054000024480088002868DD224800882D2864DAB6
:1054100021480088FF2860DD1F480088B0F5967F8E
:105420005BDAC820FFF7C6FB12480078C0BB182320
:105430001A464FF48471CD20FBF7CEFF012030E0F7
:10544000DC5800087265736574202D2D2D2D0A001F
:105450004154323443585820BCECB2E2CAA7B0DC05
:105460000A0000008C024242000000207374617246
:1054700074200A000E0000207000002074D402087E
:10548000253032643A253032643A253032640000E7
:105490000F0000203401002036010020040000200D
:1054A00006E0C949087001220220FBF70FFA11E05B
:1054B000C548007801280DD1182319224FF48471B2
:1054C000CD20FBF789FF0020BF4908700122022090
:1054D000FBF7FCF9BDA0FFF745F9BE4800780128AD
:1054E00002D1FFF719FB02E03020BB494876BB48E8
:1054F0000078BB490978884216DDBA48007801284F
:1055000027D1B9480078012823D1FFF729FB0020D3
:10551000B449087018231922B9218720FBF75CFFD2
:10552000B2A0FFF71FF914E0AE48007888B9AE4882
:10553000007801280DD100F0ABF90120A9490870CD
:1055400018231A46B9218720FBF746FFB3A0FFF7BF
:1055500009F99AE600BF35E1B94A00210846FFF78C
:105560006DFCFCF73BFC0BA90020FDF7FFF89DF854
:105570002E0000909DF82D309DF82C20AFF20011E8
:1055800001A8FFF7FFF801AB182240F227118E2087
:10559000FBF7F6FF9348007830B9182319228F21C2
:1055A0008C20FBF719FF09E08E480078012805D10F
:1055B00018231A468F218C20FBF70EFF0D200D902B
:1055C0000E200E900DAB1822AD218C20FBF74EFF64
:1055D00001227D490220FBF73CF97B48007838B96D
:1055E000182319224FF48471CD20FBF7F5FE0AE051
:1055F00075480078012806D118231A464FF48471A3
:10560000CD20FBF7E9FEDAE00020FFF727F88D4810
:105610000068012800D114E08B48008800281CDDB8
:1056200089480088282818DA88480088A82814DDC6
:1056300086480088D02810DA4FF49670FFF7BAFA3F
:1056400000BF00207F4908600120119010900122C6
:1056500010A90320FBF73AF9B2E07B4800886428E0
:1056600025DD794800888F2821DA78480088CB2802
:105670001DDD76480088F52819DAC820FFF79AFA68
:1056800018231A468F218C20FBF7A6FE5548007878
:1056900068B90120534908704F48FFF7EDFA4E48AA
:1056A000FDF78CFB00F0F4F869A0FFF75BF86648A3
:1056B0000088932826DD64480088BE2822DA6348E3
:1056C0000088CB281EDD61480088F5281ADAC8203A
:1056D000FFF770FA182319228F218C20FBF77CFE2C
:1056E0004048007801280DD100203E4908703A4812
:1056F000FFF7C2FA3848FDF761FBFFF731FA5CA00B
:10570000FFF730F850480088BE2815DD4E48008865
:10571000E62811DA4D480088E2280DDD4B48008864
:10572000B0F5857F08DAC820FFF744FA0120574911
:105730000870FDF75DFB43E043480088002834DD36
:10574000414800882D2830DA40480088FF282CDDA9
:105750003E480088B0F5967F27DA4FF49670FFF741
:1057600029FA1948007870B918231A464FF4847141
:10577000CD20FBF731FE01201349087001220220E1
:10578000FBF7A4F811E01048007801280DD1182388
:1057900019224FF48471CD20FBF71EFE00200A4928
:1057A000087001220220FBF791F80A4800780128CE
:1057B00002D1FFF7B1F902E030200749487623E72C
:1057C00000BF00BF00BFDAE40E000020B7E4C3F959
:1057D000C6F70A009C0000201000002000000020F6
:1057E000010000200F00002070000020637572741B
:1057F00061696E20636C6F736520626563617573A8
:1058000065206C6967687420737472656E6774686C
:1058100020746F6F20686967680A0000637572748E
:1058200061696E206F70656E20626561636175737A
:1058300065206C69676874207765616B0A000000F9
:105840007C2C0508040000203401002036010020D3
:105850006375727461696E206F70656E2066726F19
:105860006D2068616E64206D6F64650A0000000041
:105870006375727461696E206F6666206279206854
:10588000616E64206D6F64650A0000000C000020EA
:1058900010B50120054908600549C1F8AC02002097
:1058A0000449086004A0FEF75DFF10BDA8824042D5
:1058B0000080404298024142656C6563747269637E
:1058C000616C206D6F746F72206F70656E207375E0
:1058D000636365737366756C6C790A000B00000076
:1058E0000C000000FFFFFFFF000000000000600050
:1058F0000CE0FF0F60000C60000C60000C60000CFE
:1059000060000C60000CE0FF0F60000C60000C6099
:10591000000C60000C60000C60000C60000C60006B
:105920000CE0FF0F60000C60000C60000000000045
:10593000000000000000600C0060CC7F60CC71FCB7
:10594000BF71608C71608C71E08F7F608C71608C36
:1059500071E08F7160CC7160CC7F60CC71FCFF71A5
:1059600060C070E0C67060FC703078701830760CE3
:10597000183C000C000000000000000000060000C1
:105980000E000006FC03068C03068C03068CFF7FCA
:105990008C03068C0306FC03068C1B068C73068C9A
:1059A00073068C63068C03068C0306FC03068C03CB
:1059B000068C010600600600C0070000030000001E
:1059C000000000600000E00000C0FF3FD801303858
:1059D000003018003018FF3118C33018C33018C316
:1059E0003018C33018FF3018C33018C33018C33113
:1059F00018FF3118C33118003018003018003B1858
:105A0000003E18001C00000000000000000000F92B
:105A10001FF8431808410808610808210808110EFA
:105A2000F8090408050008F11F08310808310808C2
:105A30003108F8F10F0831088800001021041061C6
:105A40000818C21818C2300CC2300C022000000026
:105A500000000000000000F80FFC11088011088011
:105A6000110880F10F809908F88101888101088070
:105A70000108F83F0C8811FC891180881180F81FFB
:105A8000808811808409808011C0803140807F78B7
:105A90007E603002000000000000000008000030BE
:105AA00000003010F0FF3F10020110040310041139
:105AB000F0FF3F10040110040110FC01100401105C
:105AC000000098FF07180402080401088800085025
:105AD00000047000048C0302037EE000100000004C
